:100000000C9462000C9424040C94FD030C948A005C
:100010000C948A000C948A000C948A000C94440678
:100020000C948A000C948A000C948A000C94790534
:100030000C948A000C948A000C948A000C948A0018
:100040000C94B3030C948A000C94760B0C94500B14
:100050000C948A000C948A000C948A000C948A00F8
:100060000C944B040C948A0000000000230026002E
:10007000290000000000240027002A0000000000E2
:10008000250028002B0004040404040404040202D4
:100090000202020203030303030301020408102007
:1000A0004080010204081020010204081020000012
:1000B0000008000201000003040700000000000027
:1000C0000000D40C11241FBECFEFD8E0DEBFCDBF9F
:1000D00011E0A0E0B1E0ECEEF0E202C005900D927C
:1000E000A832B107D9F723E0A8E2B1E001C01D9220
:1000F000A83FB207E1F710E0C2E6D0E004C02197C4
:10010000FE010E946910C136D107C9F70E94560D41
:100110000C9474100C9400008E3008F08E50877090
:10012000806480937C0080917A00806480937A0060
:1001300080917A0086FDFCCF809178002091790033
:1001400090E0922B0895089585ED8093BC008091F6
:10015000BC0084FDFCCF10929401089540916E0183
:10016000262F30E0240F311D21323105DCF420919F
:1001700094012430C9F4FC0180E090E0861758F423
:1001800030916E012191DC01A45BBE4FA30FB11D24
:100190002C930196F3CF80916E01680F60936E01EE
:1001A00080E0089581E0089582E0089508958FEF3A
:1001B0009FEF08958FEF9FEF089580914B0190E09E
:1001C0009195819591090895CF93DF9300D0CDB794
:1001D000DEB7CB01642F49835A830E94AE00498168
:1001E000842F5A81952F0F900F90DF91CF91089512
:1001F000CF93DF931F92CDB7DEB7698361E0CE0165
:1002000001960E94AE0081E090E00F90DF91CF91C7
:100210000895089580E090E008951F93CF93DF93B1
:10022000182FEB0161E00E94010C209711F460E0AF
:1002300004C0CF3FD10539F461E0812FDF91CF9128
:100240001F910C94D10BE12FF0E0E255FF4FE491A8
:10025000E330F9F048F4E130B9F0E230A1F584B5CB
:10026000806284BDC8BD34C0E730E9F0E83019F1E0
:10027000E43049F580918000806280938000D093C3
:100280008B00C0938A0024C084B5806884BDC7BD3C
:100290001FC080918000806880938000D093890087
:1002A000C093880015C08091B00080688093B00032
:1002B000C093B3000DC08091B00080628093B00005
:1002C000C093B40005C0C038D1050CF0B5CFAFCF96
:1002D000DF91CF911F910895EF92FF920F931F939B
:1002E000CF93DF931F92CDB7DEB7282F7B01643603
:1002F000710544F46D397F4F44F48DE9E82EFF24F5
:10030000FA9403C093E6E92EF12CA701F7FE04C08E
:10031000442755274E195F093FEF349FC001359F91
:10032000900D112464E670E00E9441108B018091D1
:10033000410181110DC081E08093410161E088E0BD
:1003400029830E94010C61E08CE00E94010C29814C
:10035000213019F02230B9F034C0809142019091DF
:1003600043018E159F0569F1F0924301E09242012D
:10037000F7FC02C061E001C060E088E00E94D10BA0
:10038000B80185E015C080914401909145018E151A
:100390009F05B9F0F0924501E0924401F7FC02C0DC
:1003A00060E001C061E08CE00E94D10BB80186E002
:1003B0000F90DF91CF911F910F91FF90EF900C94D0
:1003C0000D010F90DF91CF911F910F91FF90EF9052
:1003D0000895CF92DF92EF92FF920F931F93CF93E6
:1003E000C82F2FEF280F30E0F901EE0FFF1FEA5B57
:1003F000FE4F80819181019709F0FBC0220F331FCE
:10040000220F331FA901485C5E4FDA01CD90DD90C9
:10041000ED90FC90F901E05DFE4F80819181A28119
:10042000B3810997A109B109C816D906EA06FB06E6
:10043000ECF0DA014D915D916D917C91808191811B
:10044000A281B3810996A11DB11D84179507A60746
:10045000B70764F060E070E08C2FCF911F910F918F
:10046000FF90EF90DF90CF900C946C01F901E85C65
:10047000FE4FC080D180E280F380D901A05DBE4FE5
:100480004D915D916D917C9113974950510961098E
:100490007109C416D506E606F70694F44D915D91F0
:1004A0006D917C911397C080D180E280F38041539D
:1004B000510961097109C416D506E606F70664F507
:1004C000D901A85CBE4FCD90DD90ED90FC901397C4
:1004D000F901E05DFE4F4081518162817381475F88
:1004E0005F4F6F4F7F4F4C155D056E057F050CF01C
:1004F00080C040815181628173810D911D912D9148
:100500003C9113974F5C5F4F6F4F7F4F40175107E0
:1005100062077307B4F56DC04D915D916D917C914B
:1005200013970081118122813381401B510B620B93
:10053000730B77FF0AC040815181628173818D9175
:100540009D910D90BC91A02D08C04D915D916D9134
:100550007C9180819181A281B3819A01AB01281B9A
:10056000390B4A0B5B0BA9E1B0E00E94390E29E27E
:1005700030E040E050E00E941A0EB9016B5F7F4FFF
:100580006BCF40815181628173810D911D912D91BD
:100590003C911397401B510B620B730B77FF09C003
:1005A0004D915D916D917C9180819181A281B3810A
:1005B00009C040815181628173818D919D910D901F
:1005C000BC91A02D9A01AB01281B390B4A0B5B0B88
:1005D000A9E1B0E00E94390E29E230E040E050E0AD
:1005E0000E941A0E2B5F3F4F66277727621B730B03
:1005F00033CFCF911F910F91FF90EF90DF90CF906D
:10060000089599B129B130E084E0359527958A9510
:10061000E1F7892F90E095958795959587958227A5
:10062000932780FF0CC08091380190913901A091EF
:100630003A01B0913B010196A11DB11D0BC0809103
:10064000380190913901A0913A01B0913B01019795
:10065000A109B1098093380190933901A0933A011F
:10066000B0933B0181E00C94E90199B189B193FB0E
:10067000222720F930E0881F8827881F90E028175C
:10068000390761F080913C0190913D01A0913E01BC
:10069000B0913F010197A109B1090BC080913C01C4
:1006A00090913D01A0913E01B0913F010196A11DA5
:1006B000B11D80933C0190933D01A0933E01B09306
:1006C0003F0182E00C94E90180914001811125C035
:1006D00081E08093400162E082E00E94010C62E0D0
:1006E00083E00E94010C81E093E0909301018093EC
:1006F0000001809169008C7F816080936900E89A95
:1007000085E393E090930301809302018091690057
:10071000837F846080936900E99A08953FB7F894D5
:100720008091BF019091C001A091C101B091C2011F
:1007300026B5A89B05C02F3F19F00196A11DB11D3C
:100740003FBFBA2FA92F982F8827820F911DA11D77
:10075000B11DBC01CD0142E0660F771F881F991FB4
:100760004A95D1F708951F920F920FB60F92112458
:100770002F933F938F939F93AF93BF938091BB0130
:100780009091BC01A091BD01B091BE013091BA0120
:1007900023E0230F2D3720F40196A11DB11D05C0C4
:1007A00026E8230F0296A11DB11D2093BA01809364
:1007B000BB019093BC01A093BD01B093BE01809199
:1007C000BF019091C001A091C101B091C2010196F9
:1007D000A11DB11D8093BF019093C001A093C101E1
:1007E000B093C201BF91AF919F918F913F912F9193
:1007F0000F900FBE0F901F9018951F920F920FB67B
:100800000F9211242F933F934F935F936F937F9396
:100810008F939F93AF93BF93EF93FF93E091020168
:10082000F09103010995FF91EF91BF91AF919F91D5
:100830008F917F916F915F914F913F912F910F9089
:100840000FBE0F901F9018951F920F920FB60F9228
:1008500011242F933F934F935F936F937F938F93C5
:100860009F93AF93BF93EF93FF93E0910001F091BB
:1008700001010995FF91EF91BF91AF919F918F91E8
:100880007F916F915F914F913F912F910F900FBE8C
:100890000F901F9018951F920F920FB60F92112470
:1008A0002F933F934F935F936F937F938F939F9378
:1008B000AF93BF93EF93FF938091B900887F803609
:1008C00009F49CC068F5883209F45BC090F480316B
:1008D00009F454C038F4882309F4F6C0883009F4C8
:1008E0004DC0F6C0883109F44CC0803209F45DC0B7
:1008F000EFC0803409F468C048F4803309F455C06F
:10090000883309F0E5C080939301D8C0803509F49D
:100910004FC0883509F45DC0883409F0D9C0D6C00D
:10092000883909F4C7C0A8F4883709F467C038F4D7
:10093000883609F463C0803709F460C0C9C08838BC
:1009400009F4B8C0803909F45FC0803809F0C0C02C
:100950005BC0803B09F486C038F4803A09F466C075
:10096000883A09F47FC0B4C0803C09F4A7C0883C31
:1009700009F4A4C0883B09F48AC0AAC08091B901D7
:1009800010C09091B8018091B701981770F5E0916F
:10099000B80181E08E0F8093B801F0E0E956FE4F78
:1009A00080818093BB0085EC86C0809393018EC0CC
:1009B000E091B80181E08E0F8093B8018091BB0077
:1009C000F0E0E956FE4F80839091B8018091B70125
:1009D0006EC0E091B80181E08E0F8093B8018091E4
:1009E000BB00F0E0E956FE4F8083809196018111B3
:1009F0006DC081E08093950184EA61C083E08093BB
:100A0000940110929201CFCF80919201803208F030
:100A100051C0E091920181E08E0F8093920180910C
:100A2000BB00F0E0EE58FE4F8083BDCF85EC809395
:100A3000BC001092940180919201803230F4E091D8
:100A40009201F0E0EE58FE4F10826091920170E04A
:100A5000E0917001F091710182E791E009951092A7
:100A6000920136C084E08093940110926F0110923D
:100A70006E01E0916C01F0916D01099580916E011C
:100A8000811105C081E080936E0110924C01E091CC
:100A90006F0181E08E0F80936F01F0E0E45BFE4F09
:100AA00080818093BB0090916F0180916E019817B7
:100AB00008F479CF85E88093BC000AC085EC809368
:100AC000BC001092940104C0109293010E94A400F3
:100AD000FF91EF91BF91AF919F918F917F916F9116
:100AE0005F914F913F912F910F900FBE0F901F90EC
:100AF00018951F920F920FB60F9211242F933F93C8
:100B00004F935F936F937F938F939F93AF93BF9315
:100B1000EF93FF9380914A0187FF05C010928500F3
:100B2000109284001BC020914A01022E000C330B4E
:100B30008091F30190E02817390784F480914A01ED
:100B4000082E000C990BFC01EE0FFF1F8E0F9F1F4C
:100B5000FC01E153FE4F808186FD15C080914A0162
:100B60008F5F80934A0120914A01022E000C330BC3
:100B70008091F30190E028173907C4F480914A016D
:100B80008C3064F113C080914A01082E000C990B3F
:100B9000FC01EE0FFF1F8E0F9F1FFC01E153FE4F64
:100BA000808160E08F730E94D10BD8CF8091840048
:100BB00090918500049680349C4918F480E49CE967
:100BC00005C08091840090918500049690938900DF
:100BD000809388008FEF80934A013BC0209184006E
:100BE0003091850080914A01082E000C990BFC0180
:100BF000EE0FFF1F8E0F9F1FFC01E153FE4F8181FF
:100C00009281820F931F9093890080938800809136
:100C10004A01082E000C990BFC01EE0FFF1F8E0FEE
:100C20009F1FFC01E153FE4F808186FF12C080911F
:100C30004A01082E000C990BFC01EE0FFF1F8E0FCE
:100C40009F1FFC01E153FE4F808161E08F730E9482
:100C5000D10BFF91EF91BF91AF919F918F917F91B8
:100C60006F915F914F913F912F910F900FBE0F9019
:100C70001F901895E82FF0E0EE0FFF1FEC5BFE4F82
:100C8000118210820C946C011F920F920FB60F927A
:100C900011240F931F932F933F934F935F936F9361
:100CA0007F938F939F93AF93BF93CF93DF93EF93F4
:100CB000FF932091F40130E0F901E255FF4F849158
:100CC000F901E656FF4FD491F901EA57FF4FC4915D
:100CD000CC23A1F081110E94A80BEC2FF0E0EE0FC5
:100CE000FF1FE859FF4FA591B491EC91ED2331E03E
:100CF00020E009F430E0832F922F02C080E090E0E2
:100D00002091F6013091F7012F5F3F4F3093F701AB
:100D10002093F6012091C002243618F025E020939C
:100D2000F5012091F501233029F118F4223039F032
:100D30009FC02430D9F1253009F470C099C0892BA7
:100D400009F096C01092C0021092F7011092F601BD
:100D5000E091C00281E08E0F8093C002F0E08091AC
:100D6000F6019091F701EE0FFF1FE850FE4F9183BF
:100D7000808333C0019709F07BC0E091C00281E01D
:100D80008E0F8093C002F0E08091F6019091F70100
:100D9000EE0FFF1FE850FE4F918380831092F70102
:100DA0001092F60184E08093F50162C0892BB9F4BA
:100DB000E091C00281E08E0F8093C002F0E080914C
:100DC000F6019091F701EE0FFF1FE850FE4F91835F
:100DD00080831092F7011092F60183E0E4CF8091B6
:100DE000F6019091F7018536910508F441C085E040
:100DF0008093F5012FB7F8948091BB019091BC01CD
:100E0000A091BD01B091BE012FBF8093C10290930C
:100E1000C202A093C302B093C4022AC02FB7F894B1
:100E20004091BB015091BC016091BD017091BE0128
:100E30002FBF0091C1021091C2022091C3023091D4
:100E4000C402401B510B620B730B493C51056105F9
:100E5000710540F01092C0021092F7011092F60155
:100E600082E0A1CF892B21F41092F7011092F601B4
:100E7000FF91EF91DF91CF91BF91AF919F918F91B2
:100E80007F916F915F914F913F912F911F910F91A2
:100E90000F900FBE0F901F90189580E090E0A6E194
:100EA000B3E480932C0190932D01A0932E01B09375
:100EB0002F0181E00E948C00BC01990F880B990BD7
:100EC0000E941F0F20E030E046E153E40E94E20E52
:100ED00087FF0DC080E090E0A0E8BFE38093CB01E6
:100EE0009093CC01A093CD01B093CE0108C0109295
:100EF000CB011092CC011092CD011092CE0182E074
:100F00000E948C00BC01990F880B990B0E941F0F47
:100F100020E030E046E153E40E94E20E87FF0DC07E
:100F200080E090E0A0E8BFE38093C7019093C80100
:100F3000A093C901B093CA0108C01092C7011092D2
:100F4000C8011092C9011092CA0183E00E948C006E
:100F5000BC01990F880B990B0E941F0F20E030E015
:100F600046E153E40E94E20E87FF0DC080E090E06E
:100F7000A0E8BFE38093C3019093C401A093C5018F
:100F8000B093C60108951092C3011092C40110924B
:100F9000C5011092C60108958F929F92AF92BF92A1
:100FA000CF92DF92EF92FF926B017C010E944D077E
:100FB00020E030E040E85FE36091C7017091C80134
:100FC0008091C9019091CA010E94E20E20E030E0B8
:100FD00040E85FE381114CC06091CB017091CC017E
:100FE0008091CD019091CE010E94E20E20E030E090
:100FF00040E85FE3811120C06091C3017091C4019A
:101000008091C5019091C6010E94E20E81110BC032
:10101000C701B6010E94E70E6B017C0181E00E94CE
:101020003A06B601CBC02DEC3CEC4CE45EE3C701C4
:10103000B6010E94D40FA0C06091C3017091C40199
:101040008091C5019091C6010E94E20E8111E0CF0E
:10105000C701B6010E94E70E81E00E943A062DEC1E
:101060003CEC4CE45EE3C701B6010E94D40FA4C07F
:101070006091C3017091C4018091C5019091C60136
:101080000E94E20E20E030E040E85FE3811126C0DC
:101090006091CB017091CC018091CD019091CE01F6
:1010A0000E94E20E882309F4B3CFC701B6010E9463
:1010B000E70E81E00E943A062DEC3CEC4CE45EE346
:1010C000C701B6010E94D40F0E94E70E82E00E9481
:1010D0003A0680E090E0A0E4B0E424C06091CB0147
:1010E0007091CC018091CD019091CE010E94E20ED1
:1010F000811129C02DEC3CEC4CE45EE3C701B60144
:101100000E94D40F0E94E70E81E00E943A06C701B8
:10111000B6010E94E70E82E00E943A0680E090E06D
:10112000A0E8BFE38093280190932901A0932A01AE
:10113000B0932B01FF90EF90DF90CF90BF90AF90D6
:101140009F908F9008958090280190902901A09001
:101150002A01B0902B0120E030E040E85FE3C501B8
:10116000B4010E94E20E81110FC0A701960160E058
:1011700070E0CB010E94750E0E94E70E81E00E9494
:101180003A06C701B60118C020E030E040E450E460
:10119000C501B4010E94E20E81113ACFC701B60128
:1011A0000E94E70E81E00E943A06A701960160E0E6
:1011B00070E0CB010E94750E0E94E70E82E0FF9066
:1011C000EF90DF90CF90BF90AF909F908F900C9456
:1011D0003A064F925F926F927F928F929F92AF9258
:1011E000BF92CF92DF92EF92FF924B015C016901B7
:1011F0007A01109228011092290110922A0110926E
:101200002B010E9464031092380110923901109250
:101210003A0110923B010E94640380913801909141
:101220003901A0913A01B0913B01181619061A062E
:101230001B065CF40E9464036091380170913901CF
:1012400080913A0190913B0113C00E946403809108
:10125000380190913901A0913A01B0913B019C0174
:10126000AD0166277727CB01621B730B840B950BAF
:101270000E941F0FA70196010E94CF0F181674F04D
:10128000C501B4010E94E70E2B013C0181E00E94E0
:101290003A06B20182E00E943A06BDCF60E070E0FB
:1012A00081E00E943A0660E070E082E00E943A0627
:1012B000FF90EF90DF90CF90BF90AF909F908F9076
:1012C0007F906F905F904F900C943D0C8F929F9207
:1012D000AF92BF92CF92DF92EF92FF926B017C01AF
:1012E00049015A010E944D0720E030E040E85FE3E9
:1012F000C501B4010E94E20E811139C020E030E046
:1013000040E85FE36091CB017091CC018091CD0109
:101310009091CE010E94E20E882329F0C701B60108
:101320000E94CC07EBCF20E030E040E85FE3609123
:10133000C7017091C8018091C9019091CA010E94B2
:10134000E20E8111EBCF20E030E048E453E460E0AE
:1013500070E080EF91E40E94E908FF90EF90DF9049
:10136000CF90BF90AF909F908F900C943D0C20E059
:1013700030E040E450E4C501B4010E94E20E811166
:1013800026C020E030E040E85FE36091C301709147
:10139000C4018091C5019091C6010E94E20E88238C
:1013A00029F0C701B6010E94CC07EBCF20E030E066
:1013B00040E85FE36091C7017091C8018091C90165
:1013C0009091CA010E94E20E8111EBCFBCCF20E0C8
:1013D00030E040E551E4C501B4010E94E20E811104
:1013E00026C020E030E040E85FE36091CB017091DF
:1013F000CC018091CD019091CE010E94E20E882314
:1014000029F0C701B6010E94CC07EBCF20E030E005
:1014100040E85FE36091C3017091C4018091C50110
:101420009091C6010E94E20E8111EBCF8CCF20E09B
:1014300030E048EF51E4C501B4010E94E20E811191
:1014400082CF20E030E040E85FE36091CB01709113
:10145000CC018091CD019091CE010E94E20E8823B3
:1014600009F471CF20E030E040E85FE36091C30110
:101470007091C4018091C5019091C6010E94E20E55
:10148000882309F460CFC701B6010E94CC07D9CFE9
:10149000CF92DF92EF92FF920F931F93CF93DF9340
:1014A0006C017A018B01C0E0D0E0CE15DF0589F038
:1014B000D8016D918D01D601ED91FC910190F081E3
:1014C000E02DC6010995892B11F47E0102C02196F9
:1014D000ECCFC701DF91CF911F910F91FF90EF905B
:1014E000DF90CF900895FC01538D448D252F30E07F
:1014F000842F90E0821B930B541710F0CF96089521
:1015000001970895FC01918D828D981761F0828D6D
:10151000DF01A80FB11D5D968C91928D9F5F9F7327
:10152000928F90E008958FEF9FEF0895FC01918DC9
:10153000828D981731F0828DE80FF11D858D90E036
:1015400008958FEF9FEF0895FC01918D228D892FD3
:1015500090E0805C9F4F821B91098F7399270895BB
:1015600081ED92E00E94A40A21E0892B09F420E099
:10157000822F0895FC01848DDF01A80FB11DA35AAD
:10158000BF4F2C91848D90E001968F739927848FA3
:10159000A689B7892C93A089B1898C9180648C939A
:1015A000938D848D981306C00288F389E02D808185
:1015B0008F7D80830895EF92FF920F931F93CF93B7
:1015C000DF93EC0181E0888F9B8D8C8D981305C093
:1015D000E889F989808185FD24C0F62E0B8D10E005
:1015E0000F5F1F4F0F731127E02E8C8DE8120CC078
:1015F0000FB607FCFACFE889F989808185FFF5CF1E
:10160000CE010E94BA0AF1CF8B8DFE01E80FF11DC9
:10161000E35AFF4FF0820B8FEA89FB898081806259
:1016200007C0EE89FF896083E889F9898081806439
:10163000808381E090E0DF91CF911F910F91FF9027
:10164000EF900895CF93DF93EC01888D8823C9F044
:10165000EA89FB89808185FD05C0A889B9898C91BB
:1016600086FD0FC00FB607FCF5CF808185FFF2CF56
:10167000A889B9898C9185FFEDCFCE010E94BA0A65
:10168000E7CFDF91CF91089580E090E0892B29F09A
:101690000E94B00A81110C94000008950E946F10FE
:1016A0001F920F920FB60F9211242F933F934F93D7
:1016B0005F936F937F938F939F93AF93BF93EF93BA
:1016C000FF9381ED92E00E94BA0AFF91EF91BF91E2
:1016D000AF919F918F917F916F915F914F913F91CA
:1016E0002F910F900FBE0F901F9018951F920F9281
:1016F0000FB60F9211242F938F939F93EF93FF9325
:10170000E091E102F091E2028081E091E702F09144
:10171000E80282FD12C090818091EA028F5F8F7390
:101720002091EB02821751F0E091EA02F0E0EF52D3
:10173000FD4F958F8093EA0201C08081FF91EF9168
:101740009F918F912F910F900FBE0F901F90189522
:10175000833081F028F4813099F08230A1F008952F
:101760008730A9F08830B9F08430D1F480918000BE
:101770008F7D03C0809180008F77809380000895D3
:1017800084B58F7702C084B58F7D84BD0895809124
:10179000B0008F7703C08091B0008F7D8093B00040
:1017A00008951F93CF93DF93282F30E0F901E2557E
:1017B000FF4F8491F901E656FF4FD491F901EA57A2
:1017C000FF4FC491CC23C9F0162F81110E94A80BA2
:1017D000EC2FF0E0EE0FFF1FE458FF4FA591B491FE
:1017E0008FB7F894111105C09C91ED2FE095E92376
:1017F00002C0EC91ED2BEC938FBFDF91CF911F9145
:101800000895CF93DF9390E0FC01E656FF4F2491BB
:10181000FC01EA57FF4F8491882361F190E0880F23
:10182000991FFC01EE58FF4FC591D491FC01E4587B
:10183000FF4FA591B491611109C09FB7F8948881B9
:10184000209582238883EC912E230BC0623061F4B3
:101850009FB7F8943881822F809583238883EC91F9
:101860002E2B2C939FBF06C08FB7F894E8812E2BA8
:1018700028838FBFDF91CF9108950F931F93CF934C
:10188000DF9361E089E00E94010CC0E0D0E00BEE44
:101890001EE061E089E00E94D10BC8010197F1F7D9
:1018A00060E089E00E94D10BC8010197F1F7219611
:1018B000C234D10571F7DF91CF911F910F91089537
:1018C0008F929F92AF92BF92CF92DF92EF92FF9250
:1018D000CF93DF9300D000D0CDB7DEB729833A8312
:1018E0004B835C830E94E70E81E00E943A062981C7
:1018F0003A814B815C81CA01B9010E94E70E82E006
:101900000E943A060E948E034B015C0188ECC82EAF
:10191000D12CE12CF12C0E948E03DC01CB01881923
:101920009909AA09BB09883E9340A105B10558F061
:1019300021E0C21AD108E108F10888EE880E83E0A0
:10194000981EA11CB11CC114D104E104F10419F7C3
:101950000E944D0720E030E040E85FE36091C7015E
:101960007091C8018091C9019091CA010E94E20E54
:101970008111EECF60E070E081E00E943A0660E005
:1019800070E082E00E943A060F900F900F900F9047
:10199000DF91CF91FF90EF90DF90CF90BF90AF900D
:1019A0009F908F900C943D0C1092D4021092D30211
:1019B00088EE93E0A0E0B0E08093D5029093D60249
:1019C000A093D702B093D80228E031E03093D2023E
:1019D0002093D10225EC30E03093DE022093DD022B
:1019E00024EC30E03093E0022093DF0220EC30E082
:1019F0003093E2022093E10221EC30E03093E402E4
:101A00002093E30222EC30E03093E6022093E502DB
:101A100026EC30E03093E8022093E7021092EA02CD
:101A20001092EB021092EC021092ED0210927103F0
:101A3000109270038093720390937303A0937403C6
:101A4000B09375038AE191E090936F0380936E03E6
:101A50008FEF8093F4018091F301ACEEB3E09FEF40
:101A600048EB5BE08C3078F48C93282F30E0F90160
:101A7000EE0FFF1F2E0F3F1FF901E153FE4F528360
:101A800041838F5F01C09C93139623E0A83FB20768
:101A900049F78093F3018FEF9FEF9093E9038093D1
:101AA000E8039093EB038093EA030895789484B558
:101AB000826084BD84B5816084BD85B5826085BD4A
:101AC00085B5816085BD80916E00816080936E00D8
:101AD00010928100809181008260809381008091CA
:101AE000810081608093810080918000816080937B
:101AF00080008091B10084608093B1008091B0003B
:101B000081608093B00080917A00846080937A0035
:101B100080917A00826080937A0080917A0081605F
:101B200080937A0080917A00806880937A00109286
:101B3000C1001092CD021092CE021092CF021092EC
:101B4000D00280E090E0A7E0B3E48093C9029093D4
:101B5000CA02A093CB02B093CC0280E090E0A0EF49
:101B6000B1E48093C5029093C602A093C702B093DC
:101B7000C80220E030E04AE754E460E070E080EF23
:101B800091EC0E94E90820E030E0A90160E070E0FB
:101B900088EC91E40E94600C20E030E040E551E4E4
:101BA00060E070E080EF91E40E94660920E030E0A0
:101BB00040EF51E4CA01B9010E94E90820E030E099
:101BC00048EC51E460E070E0CB010E94600C20E042
:101BD00030E040E450E460E070E080EF91E40E9487
:101BE000660920E030E048EC51E460E070E0CB01B1
:101BF0000E94600C20E030E040E450E460E070E0DF
:101C000080EF91E40E94660920E030E048EC51E466
:101C100060E070E0CB010E94600C20E030E040E525
:101C200051E460E070E080EF91E40E9466090E9458
:101C3000440BFDCF052E97FB1EF400940E94310E3D
:101C400057FD07D00E94440E07FC03D04EF40C94BD
:101C5000310E50954095309521953F4F4F4F5F4F36
:101C6000089590958095709561957F4F8F4F9F4F08
:101C700008950E94660EA59F900DB49F900DA49F9D
:101C8000800D911D11240895A1E21A2EAA1BBB1BE1
:101C9000FD010DC0AA1FBB1FEE1FFF1FA217B30738
:101CA000E407F50720F0A21BB30BE40BF50B661F4E
:101CB000771F881F991F1A9469F760957095809512
:101CC00090959B01AC01BD01CF010895A29FB00189
:101CD000B39FC001A39F700D811D1124911DB29F60
:101CE000700D811D1124911D08955058BB27AA27FE
:101CF0000E948D0E0C94950F0E94870F38F00E9461
:101D00008E0F20F039F49F3F19F426F40C94840FC1
:101D10000EF4E095E7FB0C947E0FE92F0E94A60FCE
:101D200058F3BA17620773078407950720F079F410
:101D3000A6F50C94C80F0EF4E0950B2EBA2FA02D2B
:101D40000B01B90190010C01CA01A0011124FF2768
:101D5000591B99F0593F50F4503E68F11A16F04063
:101D6000A22F232F342F4427585FF3CF4695379562
:101D70002795A795F0405395C9F77EF41F16BA0B27
:101D8000620B730B840BBAF09150A1F0FF0FBB1FD5
:101D9000661F771F881FC2F70EC0BA0F621F731F1E
:101DA000841F48F4879577956795B795F7959E3F7B
:101DB00008F0B0CF9395880F08F09927EE0F97950C
:101DC000879508950E945A0F08F481E008950E94B3
:101DD000EE0E6894B1110C94C90F08950E94AE0FD5
:101DE00088F09F5798F0B92F9927B751B0F0E1F0DC
:101DF000660F771F881F991F1AF0BA95C9F714C08C
:101E0000B13091F00E94C80FB1E008950C94C80F52
:101E1000672F782F8827B85F39F0B93FCCF38695C4
:101E200077956795B395D9F73EF490958095709521
:101E300061957F4F8F4F9F4F0895E89409C097FB9E
:101E40003EF490958095709561957F4F8F4F9F4F91
:101E50009923A9F0F92F96E9BB279395F6958795D5
:101E600077956795B795F111F8CFFAF4BB0F11F498
:101E700060FF1BC06F5F7F4F8F4F9F4F16C088233F
:101E800011F096E911C0772321F09EE8872F762F75
:101E900005C0662371F096E8862F70E060E02AF0B6
:101EA0009A95660F771F881FDAF7880F96958795A2
:101EB00097F90895990F0008550FAA0BE0E8FEEF77
:101EC00016161706E807F907C0F012161306E407FE
:101ED000F50798F0621B730B840B950B39F40A26F7
:101EE00061F0232B242B252B21F408950A2609F4D5
:101EF000A140A6958FEF811D811D089597F99F67D9
:101F000080E870E060E008959FEF80EC0895002481
:101F10000A941616170618060906089500240A944E
:101F200012161306140605060895092E0394000CD4
:101F300011F4882352F0BB0F40F4BF2B11F460FF63
:101F400004C06F5F7F4F8F4F9F4F089557FD90588C
:101F5000440F551F59F05F3F71F04795880F97FB6D
:101F6000991F61F09F3F79F0879508951216130627
:101F70001406551FF2CF4695F1DF08C01616170656
:101F80001806991FF1CF869571056105089408958B
:101F9000E894BB2766277727CB0197F908950E941D
:101FA0005A0F08F48FEF08950E94E70F0C94950FD5
:101FB0000E94870F38F00E948E0F20F0952311F0B9
:101FC0000C947E0F0C94840F11240C94C90F0E9462
:101FD000A60F70F3959FC1F3950F50E0551F629FB8
:101FE000F001729FBB27F00DB11D639FAA27F00D72
:101FF000B11DAA1F649F6627B00DA11D661F829F99
:102000002227B00DA11D621F739FB00DA11D621F7D
:10201000839FA00D611D221F749F3327A00D611D9A
:10202000231F849F600D211D822F762F6A2F11247C
:102030009F5750409AF0F1F088234AF0EE0FFF1FAF
:10204000BB1F661F771F881F91505040A9F79E3F06
:10205000510580F00C947E0F0C94C90F5F3FE4F3A0
:10206000983ED4F3869577956795B795F795E7955C
:102070009F5FC1F7FE2B880F911D9695879597F965
:10208000089597FB072E16F4009407D077FD09D02A
:102090000E94551007FC05D03EF4909581959F4F06
:1020A0000895709561957F4F0895AA1BBB1B51E160
:1020B00007C0AA1FBB1FA617B70710F0A61BB70BB8
:1020C000881F991F5A95A9F780959095BC01CD015D
:1020D0000895EE0FFF1F0590F491E02D099481E023
:0C20E00090E0F8940C947410F894FFCF7A
:1020EC00A300A30000000000DB0A480A730A220BBD
:1020FC00A40A820A960A00000000F800E4000A0113
:08210C00D600DD00DA00D70067
:107800000C94343C0C94513C0C94513C0C94513CE1
:107810000C94513C0C94513C0C94513C0C94513CB4
:107820000C94513C0C94513C0C94513C0C94513CA4
:107830000C94513C0C94513C0C94513C0C94513C94
:107840000C94513C0C94513C0C94513C0C94513C84
:107850000C94513C0C94513C0C94513C0C94513C74
:107860000C94513C0C94513C11241FBECFEFD8E036
:10787000DEBFCDBF11E0A0E0B1E0ECE9FFE702C060
:1078800005900D92A230B107D9F712E0A2E0B1E065
:1078900001C01D92AD30B107E1F70E942D3D0C945F
:1078A000CC3F0C94003C982F959595959595959582
:1078B000905D8F708A307CF0282F295A8091C0000B
:1078C00085FFFCCF9093C6008091C00085FFFCCF60
:1078D0002093C6000895282F205DF0CF982F809127
:1078E000C00085FFFCCF9093C6000895EF92FF92F1
:1078F0000F931F93EE24FF2487018091C00087FD22
:1079000017C00894E11CF11C011D111D81E4E8164B
:1079100082E4F8068FE0080780E0180770F3E09132
:107920000401F091050109958091C00087FFE9CF1E
:107930008091C6001F910F91FF90EF9008950E94D3
:10794000763C982F8091C00085FFFCCF9093C600B5
:1079500091362CF490330CF09053892F089597555D
:10796000892F08951F930E949F3C182F0E949F3CCF
:107970001295107F810F1F9108951F93182F882350
:1079800021F00E94763C1150E1F71F9108951F935A
:10799000182F0E94763C803249F0809103018F5F5E
:1079A000809303018530C1F01F9108958091C0003C
:1079B00085FFFCCF84E18093C6008091C00085FFE5
:1079C000FCCF1093C6008091C00085FFFCCF80E102
:1079D0008093C6001F910895E0910401F091050184
:1079E00009951F9108950E94763C803241F0809164
:1079F00003018F5F80930301853081F008958091AA
:107A0000C00085FFFCCF84E18093C6008091C00058
:107A100085FFFCCF80E18093C6000895E0910401CA
:107A2000F09105010995089540E951E08823A1F0FE
:107A30002D9A28EE33E0FA013197F1F721503040CA
:107A4000D1F72D9828EE33E0FA013197F1F7215064
:107A50003040D1F7815061F708953F924F925F9285
:107A60006F927F928F929F92AF92BF92CF92DF924E
:107A7000EF92FF920F931F93CF93DF93000080E16B
:107A80008093C4001092C50088E18093C10086E015
:107A90008093C2005098589A259A81E00E94143D24
:107AA00024E1F22E9EE1E92E85E9D82E0FE0C02ECA
:107AB00010E1B12EAA24A394B1E49B2EA6E58A2E50
:107AC000F2E57F2EE0E26E2E79E4572E63E5462E36
:107AD00050E5352E0E94763C8033B1F18133B9F107
:107AE000803409F46FC0813409F476C0823409F41B
:107AF00085C0853409F488C0803531F1823521F1A3
:107B0000813511F1853509F485C0863509F48DC0BC
:107B1000843609F496C0843709F403C1853709F423
:107B200072C1863709F466C0809103018F5F80932C
:107B30000301853079F6E0910401F0910501099582
:107B40000E94763C803351F60E94F33CC3CF0E94E2
:107B5000763C803249F78091C00085FFFCCFF092DF
:107B6000C6008091C00085FFFCCF9092C600809136
:107B7000C00085FFFCCF8092C6008091C00085FFC9
:107B8000FCCF7092C6008091C00085FFFCCF609250
:107B9000C6008091C00085FFFCCF5092C600809146
:107BA000C00085FFFCCF4092C6008091C00085FFD9
:107BB000FCCF3092C6008091C00085FFFCCFB09210
:107BC000C60088CF0E94763C863808F4BDCF0E945C
:107BD000763C0E94F33C7ECF0E94763C803809F4CC
:107BE0009CC0813809F40BC1823809F43CC1883942
:107BF00009F48FC080E00E94C73C6CCF84E10E94F2
:107C0000BD3C0E94F33C66CF85E00E94BD3C0E94D3
:107C1000F33C60CF0E94763C809306010E94763C44
:107C2000809307010E94F33C55CF0E94763C80333D
:107C300009F41DC183E00E94BD3C80E00E94C73C66
:107C400049CF0E94763C809309020E94763C809343
:107C5000080280910C028E7F80930C020E94763C79
:107C6000853409F415C18091080290910902892B8D
:107C700089F000E010E00E94763CF801E85FFE4FDA
:107C800080830F5F1F4F80910802909109020817AF
:107C9000190788F30E94763C803209F045CF809125
:107CA0000C0280FF01C16091060170910701660F0F
:107CB000771F7093070160930601A0910802B091AD
:107CC00009021097C9F0E8E0F1E09B01AD014E0F09
:107CD0005F1FF999FECF32BD21BD819180BDFA9A17
:107CE000F99A2F5F3F4FE417F50799F76A0F7B1F4B
:107CF00070930701609306018091C00085FFFCCF5F
:107D0000F092C6008091C00085FFFCCFB092C60003
:107D1000E1CE83E00E94C73CDDCE82E00E94C73CFA
:107D2000D9CE0E94763C809309020E94763C8093D3
:107D300008028091060190910701880F991F909386
:107D40000701809306010E94763C853409F4A6C0A1
:107D500080910C028E7F80930C020E94763C8032D0
:107D600009F0B8CE8091C00085FFFCCFF092C6002C
:107D7000609108027091090261157105B9F140E046
:107D800050E080910C02A82FA170B82FB27011C0E2
:107D9000BB2309F45CC0E0910601F0910701319624
:107DA000F0930701E09306014F5F5F4F46175707B7
:107DB000E8F4AA2369F3F999FECF209106013091E6
:107DC000070132BD21BDF89A90B58091C00085FFB2
:107DD000FCCF9093C6002F5F3F4F30930701209355
:107DE00006014F5F5F4F4617570718F38091C00099
:107DF00085FDE5CE8091C00085FFF8CFE0CE81E023
:107E00000E94C73C67CE0E94763C803209F08CCE3F
:107E10008091C00085FFFCCFF092C6008091C00029
:107E200085FFFCCFE092C6008091C00085FFFCCFAB
:107E3000D092C6008091C00085FFFCCFC092C600E2
:107E40008091C00085FFFCCFB092C60043CEE09188
:107E50000601F091070194918091C00085FFFCCF4D
:107E60009093C6009CCF80E10E94C73C33CE0E9415
:107E7000763C0E94763C182F0E94763C112309F430
:107E800083C0113009F484C08FE00E94C73C22CE29
:107E900080910C02816080930C02E5CE80910C02EF
:107EA000816080930C0259CF809107018823880F4D
:107EB000880B8A2180930B02809106019091070123
:107EC000880F991F90930701809306018091080203
:107ED00080FF09C080910802909109020196909359
:107EE000090280930802F894F999FECF1127E091D6
:107EF0000601F0910701C8E0D1E08091080290915D
:107F00000902103091F40091570001700130D9F34B
:107F100003E000935700E89500915700017001308D
:107F2000D9F301E100935700E89509901990009169
:107F3000570001700130D9F301E000935700E89534
:107F40001395103498F011270091570001700130FB
:107F5000D9F305E000935700E895009157000170B0
:107F60000130D9F301E100935700E895329602976A
:107F700009F0C7CF103011F00296E5CF112480919F
:107F8000C00085FFB9CEBCCE8EE10E94C73CA2CD19
:0C7F900085E90E94C73C9ECDF894FFCF0D
:027F9C00800063
:040000030000780081
:00000001FF
