:100000000C9462000C9434040C940D040C948A003B
:100010000C948A000C948A000C948A000C947E063E
:100020000C948A000C948A000C948A000C94890524
:100030000C948A000C948A000C948A000C948A0018
:100040000C94C3030C948A000C947F0B0C94590BF2
:100050000C948A000C948A000C948A000C948A00F8
:100060000C945B040C948A0000000000230026001E
:10007000290000000000240027002A0000000000E2
:10008000250028002B0004040404040404040202D4
:100090000202020203030303030301020408102007
:1000A0004080010204081020010204081020000012
:1000B0000008000201000003040700000000000027
:1000C00000002F1011241FBECFEFD8E0DEBFCDBF40
:1000D00011E0A0E0B1E0E2E4F6E202C005900D928A
:1000E000A033B107D9F724E0A0E3B1E001C01D922D
:1000F000A030B207E1F710E0C2E6D0E004C02197DB
:10010000FE010E941413C136D107C9F70E94B80D31
:100110000C941F130C9400008E3008F08E508770E2
:10012000806480937C0080917A00806480937A0060
:1001300080917A0086FDFCCF809178002091790033
:1001400090E0922B08953FB7F8948091BF01909171
:10015000C001A091C101B091C20126B5A89B05C004
:100160002F3F19F00196A11DB11D3FBFBA2FA92F36
:10017000982F8827820F911DA11DB11DBC01CD01B3
:1001800042E0660F771F881F991F4A95D1F708959F
:10019000089585ED8093BC008091BC0084FDFCCF68
:1001A00010929401089540916E01262F30E0240FA3
:1001B000311D21323105DCF4209194012430C9F441
:1001C000FC0180E090E0861758F430916E01219197
:1001D000DC01A45BBE4FA30FB11D2C930196F3CF9E
:1001E00080916E01680F60936E0180E0089581E058
:1001F000089582E0089508958FEF9FEF08958FEF9F
:100200009FEF089580914B0190E091958195910920
:100210000895CF93DF9300D0CDB7DEB7CB01642F25
:1002200049835A830E94D3004981842F5A81952F94
:100230000F900F90DF91CF910895CF93DF931F928E
:10024000CDB7DEB7698361E0CE0101960E94D3008D
:1002500081E090E00F90DF91CF910895089580E0C4
:1002600090E008951F93CF93DF93182FEB0161E087
:100270000E940A0C209711F460E004C0CF3FD10522
:1002800039F461E0812FDF91CF911F910C94DA0B4B
:10029000E12FF0E0E255FF4FE491E330F9F048F44C
:1002A000E130B9F0E230A1F584B5806284BDC8BD0B
:1002B00034C0E730E9F0E83019F1E43049F58091D5
:1002C0008000806280938000D0938B00C0938A006E
:1002D00024C084B5806884BDC7BD1FC080918000E4
:1002E000806880938000D0938900C093880015C0F7
:1002F0008091B00080688093B000C093B3000DC0BF
:100300008091B00080628093B000C093B40005C0BB
:10031000C038D1050CF0B5CFAFCFDF91CF911F9191
:100320000895EF92FF920F931F93CF93DF931F9245
:10033000CDB7DEB7282F7B016436710544F46D39E3
:100340007F4F44F48DE9E82EFF24FA9403C093E62E
:10035000E92EF12CA701F7FE04C0442755274E19BA
:100360005F093FEF349FC001359F900D112464E673
:1003700070E00E94EC128B018091410181110DC04F
:1003800081E08093410161E088E029830E940A0CAA
:1003900061E08CE00E940A0C2981213019F02230A2
:1003A000B9F034C080914201909143018E159F05B0
:1003B00069F1F0924301E0924201F7FC02C061E072
:1003C00001C060E088E00E94DA0BB80185E015C04A
:1003D00080914401909145018E159F05B9F0F092EE
:1003E0004501E0924401F7FC02C060E001C061E019
:1003F0008CE00E94DA0BB80186E00F90DF91CF917C
:100400001F910F91FF90EF900C9432010F90DF91AC
:10041000CF911F910F91FF90EF900895CF92DF92AF
:10042000EF92FF920F931F93CF93C82F2FEF280FB8
:1004300030E0F901EE0FFF1FEA5BFE4F80819181F2
:10044000019709F0FBC0220F331F220F331FA901B0
:100450004D535E4FDA01CD90DD90ED90FC90F901A7
:10046000E85CFE4F80819181A281B3810997A10947
:10047000B109C816D906EA06FB06ECF0DA014D917F
:100480005D916D917C9180819181A281B38109966A
:10049000A11DB11D84179507A607B70764F060E09A
:1004A00070E08C2FCF911F910F91FF90EF90DF9014
:1004B000CF900C949101F901ED53FE4FC080D18093
:1004C000E280F380D901A85CBE4F4D915D916D91A2
:1004D0007C9113974950510961097109C416D506D9
:1004E000E606F70694F44D915D916D917C9113971A
:1004F000C080D180E280F3804153510961097109C4
:10050000C416D506E606F70664F5D901AD53BE4F0D
:10051000CD90DD90ED90FC901397F901E85CFE4FD3
:100520004081518162817381475F5F4F6F4F7F4F81
:100530004C155D056E057F050CF080C04081518132
:10054000628173810D911D912D913C9113974F5CA8
:100550005F4F6F4F7F4F4017510762077307B4F526
:100560006DC04D915D916D917C91139700811181CA
:1005700022813381401B510B620B730B77FF0AC042
:1005800040815181628173818D919D910D90BC91CB
:10059000A02D08C04D915D916D917C9180819181DC
:1005A000A281B3819A01AB01281B390B4A0B5B0B6B
:1005B000A9E1B0E00E94D01029E230E040E050E034
:1005C0000E94B110B9016B5F7F4F6BCF40815181A9
:1005D000628173810D911D912D913C911397401B68
:1005E000510B620B730B77FF09C04D915D916D91BB
:1005F0007C9180819181A281B38109C04081518128
:10060000628173818D919D910D90BC91A02D9A0175
:10061000AB01281B390B4A0B5B0BA9E1B0E00E9430
:10062000D01029E230E040E050E00E94B1102B5F92
:100630003F4F66277727621B730B33CFCF911F91F4
:100640000F91FF90EF90DF90CF90089599B129B16D
:1006500030E084E0359527958A95E1F7892F90E081
:1006600095958795959587958227932780FF0CC050
:100670008091C3019091C401A091C501B091C601C0
:100680000196A11DB11D0BC08091C3019091C401C1
:10069000A091C501B091C6010197A109B10980934C
:1006A000C3019093C401A093C501B093C60181E03A
:1006B0000C940E0299B189B193FB222720F930E006
:1006C000881F8827881F90E02817390761F08091DC
:1006D000C7019091C801A091C901B091CA010197C9
:1006E000A109B1090BC08091C7019091C801A091E7
:1006F000C901B091CA010196A11DB11D8093C70126
:100700009093C801A093C901B093CA0182E00C94F0
:100710000E028F929F92AF92BF92CF92DF92EF9292
:10072000FF926B017C010E94A3004B015C01C1148C
:10073000D104E104F104F1F00E94A300DC01CB013B
:1007400088199909AA09BB09883E9340A105B105FA
:1007500070F321E0C21AD108E108F10888EE880E92
:1007600083E0981EA11CB11CC114D104E104F10462
:1007700019F7DDCFFF90EF90DF90CF90BF90AF9053
:100780009F908F9008951F920F920FB60F92112491
:100790002F933F938F939F93AF93BF938091BB0110
:1007A0009091BC01A091BD01B091BE013091BA0100
:1007B00023E0230F2D3720F40196A11DB11D05C0A4
:1007C00026E8230F0296A11DB11D2093BA01809344
:1007D000BB019093BC01A093BD01B093BE01809179
:1007E000BF019091C001A091C101B091C2010196D9
:1007F000A11DB11D8093BF019093C001A093C101C1
:10080000B093C201BF91AF919F918F913F912F9172
:100810000F900FBE0F901F9018951F920F920FB65A
:100820000F9211242F933F934F935F936F937F9376
:100830008F939F93AF93BF93EF93FF93E091020148
:10084000F09103010995FF91EF91BF91AF919F91B5
:100850008F917F916F915F914F913F912F910F9069
:100860000FBE0F901F9018951F920F920FB60F9208
:1008700011242F933F934F935F936F937F938F93A5
:100880009F93AF93BF93EF93FF93E0910001F0919B
:1008900001010995FF91EF91BF91AF919F918F91C8
:1008A0007F916F915F914F913F912F910F900FBE6C
:1008B0000F901F9018951F920F920FB60F92112450
:1008C0002F933F934F935F936F937F938F939F9358
:1008D000AF93BF93EF93FF938091B900887F8036E9
:1008E00009F49CC068F5883209F45BC090F480314B
:1008F00009F454C038F4882309F4F6C0883009F4A8
:100900004DC0F6C0883109F44CC0803209F45DC096
:10091000EFC0803409F468C048F4803309F455C04E
:10092000883309F0E5C080939301D8C0803509F47D
:100930004FC0883509F45DC0883409F0D9C0D6C0ED
:10094000883909F4C7C0A8F4883709F467C038F4B7
:10095000883609F463C0803709F460C0C9C088389C
:1009600009F4B8C0803909F45FC0803809F0C0C00C
:100970005BC0803B09F486C038F4803A09F466C055
:10098000883A09F47FC0B4C0803C09F4A7C0883C11
:1009900009F4A4C0883B09F48AC0AAC08091B901B7
:1009A00010C09091B8018091B701981770F5E0914F
:1009B000B80181E08E0F8093B801F0E0E956FE4F58
:1009C00080818093BB0085EC86C0809393018EC0AC
:1009D000E091B80181E08E0F8093B8018091BB0057
:1009E000F0E0E956FE4F80839091B8018091B70105
:1009F0006EC0E091B80181E08E0F8093B8018091C4
:100A0000BB00F0E0E956FE4F808380919601811192
:100A10006DC081E08093950184EA61C083E080939A
:100A2000940110929201CFCF80919201803208F010
:100A300051C0E091920181E08E0F809392018091EC
:100A4000BB00F0E0EE58FE4F8083BDCF85EC809375
:100A5000BC001092940180919201803230F4E091B8
:100A60009201F0E0EE58FE4F10826091920170E02A
:100A7000E0917001F091710182E791E00995109287
:100A8000920136C084E08093940110926F0110921D
:100A90006E01E0916C01F0916D01099580916E01FC
:100AA000811105C081E080936E0110924C01E091AC
:100AB0006F0181E08E0F80936F01F0E0E45BFE4FE9
:100AC00080818093BB0090916F0180916E01981797
:100AD00008F479CF85E88093BC000AC085EC809348
:100AE000BC001092940104C0109293010E94C900AE
:100AF000FF91EF91BF91AF919F918F917F916F91F6
:100B00005F914F913F912F910F900FBE0F901F90CB
:100B100018951F920F920FB60F9211242F933F93A7
:100B20004F935F936F937F938F939F93AF93BF93F5
:100B3000EF93FF9380914A0187FF05C010928500D3
:100B4000109284001BC020914A01022E000C330B2E
:100B50008091A40290E02817390784F480914A011B
:100B6000082E000C990BFC01EE0FFF1F8E0F9F1F2C
:100B7000FC01E058FD4F808186FD15C080914A013F
:100B80008F5F80934A0120914A01022E000C330BA3
:100B90008091A40290E028173907C4F480914A019B
:100BA0008C3064F113C080914A01082E000C990B1F
:100BB000FC01EE0FFF1F8E0F9F1FFC01E058FD4F41
:100BC000808160E08F730E94DA0BD8CF809184001F
:100BD00090918500049680349C4918F480E49CE947
:100BE00005C08091840090918500049690938900BF
:100BF000809388008FEF80934A013BC0209184004E
:100C00003091850080914A01082E000C990BFC015F
:100C1000EE0FFF1F8E0F9F1FFC01E058FD4F8181DB
:100C20009281820F931F9093890080938800809116
:100C30004A01082E000C990BFC01EE0FFF1F8E0FCE
:100C40009F1FFC01E058FD4F808186FF12C08091FC
:100C50004A01082E000C990BFC01EE0FFF1F8E0FAE
:100C60009F1FFC01E058FD4F808161E08F730E945F
:100C7000DA0BFF91EF91BF91AF919F918F917F918F
:100C80006F915F914F913F912F910F900FBE0F90F9
:100C90001F901895E82FF0E0EE0FFF1FEC5BFE4F62
:100CA000118210820C94910180914001811125C024
:100CB00081E08093400162E082E00E940A0C62E0E1
:100CC00083E00E940A0C86E293E0909301018093F6
:100CD0000001809169008C7F816080936900E89AAF
:100CE0008AE593E09093030180930201809169006B
:100CF000837F846080936900E99A08951F920F9220
:100D00000FB60F9211240F931F932F933F934F937E
:100D10005F936F937F938F939F93AF93BF93CF9383
:100D2000DF93EF93FF932091A50230E0F901E255A4
:100D3000FF4F8491F901E656FF4FD491F901EA572C
:100D4000FF4FC491CC23A1F081110E94B10BEC2F75
:100D5000F0E0EE0FFF1FE859FF4FA591B491EC9121
:100D6000ED2331E020E009F430E0832F922F02C020
:100D700080E090E02091A7023091A8022F5F3F4FC2
:100D80003093A8022093A70220917103243618F013
:100D900025E02093A6022091A602233029F118F421
:100DA000223039F09FC02430D9F1253009F470C0C9
:100DB00099C0892B09F096C0109271031092A80275
:100DC0001092A702E091710381E08E0F809371036E
:100DD000F0E08091A7029091A802EE0FFF1FE75567
:100DE000FD4F9183808333C0019709F07BC0E09170
:100DF000710381E08E0F80937103F0E08091A70270
:100E00009091A802EE0FFF1FE755FD4F918380835D
:100E10001092A8021092A70284E08093A60262C0FA
:100E2000892BB9F4E091710381E08E0F80937103F7
:100E3000F0E08091A7029091A802EE0FFF1FE75506
:100E4000FD4F918380831092A8021092A70283E045
:100E5000E4CF8091A7029091A8028536910508F40D
:100E600041C085E08093A6022FB7F8948091BB0122
:100E70009091BC01A091BD01B091BE012FBF8093A4
:100E8000720390937303A0937403B09375032AC005
:100E90002FB7F8944091BB015091BC016091BD0106
:100EA0007091BE012FBF00917203109173032091C6
:100EB000740330917503401B510B620B730B493C5B
:100EC00051056105710540F0109271031092A8025E
:100ED0001092A70282E0A1CF892B21F41092A802E0
:100EE0001092A702FF91EF91DF91CF91BF91AF9147
:100EF0009F918F917F916F915F914F913F912F9132
:100F00001F910F910F900FBE0F901F90189580E0CA
:100F100090E0A6E1B3E48093340190933501A0936F
:100F20003601B093370181E00E948C00BC01990F1B
:100F3000880B990B0E94BE1120E030E046E153E49B
:100F40000E94811187FF0DC080E090E0A0E8BFE320
:100F50008093DF019093E001A093E101B093E2015F
:100F600008C01092DF011092E0011092E10110928E
:100F7000E20182E00E948C00BC01990F880B990B62
:100F80000E94BE1120E030E046E153E40E9481114E
:100F900087FF0DC080E090E0A0E8BFE38093DB0115
:100FA0009093DC01A093DD01B093DE0108C01092A4
:100FB000DB011092DC011092DD011092DE0183E072
:100FC0000E948C00BC01990F880B990B0E94BE11E6
:100FD00020E030E046E153E40E94811187FF0DC01C
:100FE00080E090E0A0E8BFE38093D7019093D80120
:100FF000A093D901B093DA0108951092D70110920D
:10100000D8011092D9011092DA0108958F929F921F
:10101000AF92BF92CF92DF92EF92FF926B017C0171
:101020000E94870720E030E040E85FE36091DB0149
:101030007091DC018091DD019091DE010E948111AF
:1010400020E030E040E85FE381114CC06091DF01B7
:101050007091E0018091E1019091E2010E94811183
:1010600020E030E040E85FE3811120C06091D701CB
:101070007091D8018091D9019091DA010E9481117B
:1010800081110BC0C701B6010E9486116B017C0162
:1010900081E00E944A06B601CBC02DEC3CEC4CE44A
:1010A0005EE3C701B6010E947312A0C06091D70130
:1010B0007091D8018091D9019091DA010E9481113B
:1010C0008111E0CFC701B6010E94861181E00E9424
:1010D0004A062DEC3CEC4CE45EE3C701B6010E94ED
:1010E0007312A4C06091D7017091D8018091D90189
:1010F0009091DA010E94811120E030E040E85FE346
:10110000811126C06091DF017091E0018091E101C1
:101110009091E2010E948111882309F4B3CFC701A5
:10112000B6010E94861181E00E944A062DEC3CEC3B
:101130004CE45EE3C701B6010E9473120E9486115F
:1011400082E00E944A0680E090E0A0E4B0E424C07F
:101150006091DF017091E0018091E1019091E201E5
:101160000E948111811129C02DEC3CEC4CE45EE31E
:10117000C701B6010E9473120E94861181E00E948D
:101180004A06C701B6010E94861182E00E944A0603
:1011900080E090E0A0E8BFE38093300190933101BC
:1011A000A0933201B0933301FF90EF90DF90CF9086
:1011B000BF90AF909F908F90089580903001909055
:1011C0003101A0903201B090330120E030E040E8DE
:1011D0005FE3C501B4010E94811181110FC0A70115
:1011E000960160E070E0CB010E9414110E9486110C
:1011F00081E00E944A06C701B60118C020E030E035
:1012000040E450E4C501B4010E94811181113ACF3C
:10121000C701B6010E94861181E00E944A06A7011B
:10122000960160E070E0CB010E9414110E948611CB
:1012300082E0FF90EF90DF90CF90BF90AF909F90B3
:101240008F900C944A064F925F926F927F928F928A
:101250009F92AF92BF92CF92DF92EF92FF924B019B
:101260005C0169017A0110923001109231011092F3
:101270003201109233010E9454061092C301109261
:10128000C4011092C5011092C6010E9454068091BB
:10129000C3019091C401A091C501B091C601181677
:1012A00019061A061B065CF40E9454066091C301DD
:1012B0007091C4018091C5019091C60113C00E9434
:1012C00054068091C3019091C401A091C501B091D1
:1012D000C6019C01AD0166277727CB01621B730B0A
:1012E000840B950B0E94BE11A70196010E946E12FD
:1012F000181674F0C501B4010E9486112B013C013F
:1013000081E00E944A06B20182E00E944A06BDCFF7
:1013100060E070E081E00E944A0660E070E082E0F8
:101320000E944A06FF90EF90DF90CF90BF90AF9061
:101330009F908F907F906F905F904F900C94460C91
:101340008F929F92AF92BF92CF92DF92EF92FF92D5
:101350006B017C0149015A010E94870720E030E0BF
:1013600040E85FE3C501B4010E948111811139C0D9
:1013700020E030E040E85FE36091DF017091E00140
:101380008091E1019091E2010E948111882329F06E
:10139000C701B6010E940608EBCF20E030E040E82C
:1013A0005FE36091DB017091DC018091DD01909140
:1013B000DE010E9481118111EBCF20E030E048E492
:1013C00053E460E070E080EF91E40E942309FF9015
:1013D000EF90DF90CF90BF90AF909F908F900C9444
:1013E000460C20E030E040E450E4C501B4010E9426
:1013F0008111811126C020E030E040E85FE3609178
:10140000D7017091D8018091D9019091DA010E94A1
:101410008111882329F0C701B6010E940608EBCF8D
:1014200020E030E040E85FE36091DB017091DC0197
:101430008091DD019091DE010E9481118111EBCF3D
:10144000BCCF20E030E040E551E4C501B4010E948A
:1014500081118111B2CF20E030E040E85FE360917C
:10146000DF017091E0018091E1019091E2010E9421
:101470008111882329F0C701B6010E940608EBCF2D
:1014800020E030E040E85FE36091D7017091D8013F
:101490008091D9019091DA010E9481118111EBCFE5
:1014A0008CCFCF92DF92EF92FF920F931F93CF9347
:1014B000DF936C017A018B01C0E0D0E0CE15DF052F
:1014C00089F0D8016D918D01D601ED91FC910190CB
:1014D000F081E02DC6010995892B11F47E0102C02F
:1014E0002196ECCFC701DF91CF911F910F91FF9013
:1014F000EF90DF90CF900895FC01538D448D252F00
:1015000030E0842F90E0821B930B541710F0CF969D
:10151000089501970895FC01918D828D981761F0CF
:10152000828DDF01A80FB11D5D968C91928D9F5F1A
:101530009F73928F90E008958FEF9FEF0895FC01C5
:10154000918D828D981731F0828DE80FF11D858D78
:1015500090E008958FEF9FEF0895FC01918D228D0B
:10156000892F90E0805C9F4F821B91098F73992790
:10157000089583EE91E00E94AD0A21E0892B09F4E1
:1015800020E0822F0895FC01848DDF01A80FB11D9A
:10159000A35ABF4F2C91848D90E001968F739927A9
:1015A000848FA689B7892C93A089B1898C91806496
:1015B0008C93938D848D981306C00288F389E02D57
:1015C00080818F7D80830895EF92FF920F931F9308
:1015D000CF93DF93EC0181E0888F9B8D8C8D9813E6
:1015E00005C0E889F989808185FD24C0F62E0B8D20
:1015F00010E00F5F1F4F0F731127E02E8C8DE81244
:101600000CC00FB607FCFACFE889F989808185FF05
:10161000F5CFCE010E94C30AF1CF8B8DFE01E80FFA
:10162000F11DE35AFF4FF0820B8FEA89FB8980811D
:10163000806207C0EE89FF896083E889F98980812B
:101640008064808381E090E0DF91CF911F910F91C2
:10165000FF90EF900895CF93DF93EC01888D88235E
:10166000C9F0EA89FB89808185FD05C0A889B9890F
:101670008C9186FD0FC00FB607FCF5CF808185FFEA
:10168000F2CFA889B9898C9185FFEDCFCE010E9458
:10169000C30AE7CFDF91CF91089580E090E0892BD6
:1016A00029F00E94B90A81110C94000008950E944B
:1016B0001A131F920F920FB60F9211242F933F937C
:1016C0004F935F936F937F938F939F93AF93BF934A
:1016D000EF93FF9383EE91E00E94C30AFF91EF9195
:1016E000BF91AF919F918F917F916F915F914F913A
:1016F0003F912F910F900FBE0F901F9018951F9242
:101700000F920FB60F9211242F938F939F93EF9305
:10171000FF93E091F301F091F4018081E091F901F0
:10172000F091FA0182FD12C090818091FC018F5FDF
:101730008F732091FD01821751F0E091FC01F0E0E0
:10174000ED51FE4F958F8093FC0101C08081FF9188
:10175000EF919F918F912F910F900FBE0F901F903F
:101760001895833081F028F4813099F08230A1F00F
:1017700008958730A9F08830B9F08430D1F4809191
:1017800080008F7D03C0809180008F7780938000E0
:10179000089584B58F7702C084B58F7D84BD089588
:1017A0008091B0008F7703C08091B0008F7D8093CF
:1017B000B00008951F93CF93DF93282F30E0F901F5
:1017C000E255FF4F8491F901E656FF4FD491F9019C
:1017D000EA57FF4FC491CC23C9F0162F81110E9404
:1017E000B10BEC2FF0E0EE0FFF1FE458FF4FA59177
:1017F000B4918FB7F894111105C09C91ED2FE0952D
:10180000E92302C0EC91ED2BEC938FBFDF91CF91D8
:101810001F910895CF93DF9390E0FC01E656FF4FB0
:101820002491FC01EA57FF4F8491882361F190E0F5
:10183000880F991FFC01EE58FF4FC591D491FC0110
:10184000E458FF4FA591B491611109C09FB7F89476
:101850008881209582238883EC912E230BC06230EF
:1018600061F49FB7F8943881822F80958323888311
:10187000EC912E2B2C939FBF06C08FB7F894E88174
:101880002E2B28838FBFDF91CF9108950F931F9345
:10189000CF93DF9361E089E00E940A0CC0E0D0E0C2
:1018A0000BEE1EE061E089E00E94DA0BC8010197AF
:1018B000F1F760E089E00E94DA0BC8010197F1F7C7
:1018C0002196C234D10571F7DF91CF911F910F910D
:1018D0000895CF93DF9300D000D0CDB7DEB7298332
:1018E0003A834B835C830E94861181E00E944A0602
:1018F00029813A814B815C81CA01B9010E9486111C
:1019000082E00E944A0668EC70E080E090E00E946D
:1019100089030E94870720E030E040E85FE36091A0
:10192000DB017091DC018091DD019091DE010E946C
:1019300081118111EECF60E070E081E00E944A06E3
:1019400060E070E082E00E944A060F900F900F90D6
:101950000F90DF91CF910C94460CCF92DF92EF92D3
:10196000FF92CF93DF93EC010296A1F4E091F7038D
:10197000F0E0CF01880F991FE80FF91FE058FD4FE5
:1019800080818F7B80838FEF9FEF909307018093FF
:101990000601E7C080910601909107018C179D0711
:1019A00009F4DFC0019609F056C08091F7038C302E
:1019B00008F0D1C061E08AE00E940A0CE091F703D0
:1019C000AE2FB0E0CD01880F991FA80FB91FA05806
:1019D000BD4F8C91807C8A608C931092F80310929A
:1019E000F9038E2F6CE00E94E0129CE0899FB00109
:1019F000112440E050E09A01260F371FD901AA0FA9
:101A0000BB1F2A0F3B1FD901A058BD4F9C9196FDCB
:101A100016C04F5F5F4F4C30510569F781110FC001
:101A20001092800082E080938100109285001092D5
:101A30008400B19A80916F00826080936F008E2F36
:101A400090E0FC01EE0FFF1FE80FF91FE058FD4F7B
:101A5000808180648083C03222E0D2070CF03FC0D6
:101A6000D7FD05C0C53BD10524F4DE0104C0A0E0CC
:101A700001C0A4EBB0E08091F80328E830E06901F0
:101A8000C81AD10887FDD394CC0CDD1CCC0CDD1C0E
:101A90000D2C000CEE08FF088091F90328E532E0D8
:101AA000281B310987FD3395220F331F220F331F67
:101AB000A901330F660B770B9A01AB012C193D0975
:101AC0004E095F090E94DB1024EB30E040E050E05B
:101AD0000E94B110C20ED31EE41EF51E01C06E019D
:101AE0008091F7038C3090F59091F80348E850E02E
:101AF000491B510997FD5395440F551F440F551F1E
:101B0000C416D5068CF09091F90328E532E0291B24
:101B1000310997FD3395220F331F220F331FA60182
:101B20002C153D050CF4A90142505109440F551FD5
:101B30002FB7F89490E0FC01EE0FFF1F8E0F9F1F50
:101B4000FC01E058FD4F528341832FBFD093070122
:101B5000C093060106C0C03282E0D8070CF480CFE3
:101B6000F5CFDF91CF91FF90EF90DF90CF90089568
:101B7000789484B5826084BD84B5816084BD85B568
:101B8000826085BD85B5816085BD80916E00816074
:101B900080936E001092810080918100826080931A
:101BA000810080918100816080938100809180001C
:101BB0008160809380008091B10084608093B10047
:101BC0008091B00081608093B00080917A00846041
:101BD00080937A0080917A00826080937A0080916D
:101BE0007A00816080937A0080917A008068809387
:101BF0007A001092C1001092D3011092D401109279
:101C0000D5011092D60180E090E0A7E0B3E4809384
:101C1000CF019093D001A093D101B093D20180E085
:101C200090E0A0EFB1E48093CB019093CC01A0931E
:101C3000CD01B093CE016EE170E081E00E944A06D2
:101C40006EE170E082E00E944A0668EC70E080E09D
:101C500090E00E94890320E030E040E551E460E03C
:101C600070E080EF91E40E94A00920E030E048ECB1
:101C700051E460E070E0CB010E94690C0E945406C0
:101C80001092C3011092C4011092C5011092C601B6
:101C900020E030E040E85FE360E070E080EF91E456
:101CA0000E94A0090E9454068091C3019091C40132
:101CB000A091C501B091C601843F9140A105B10535
:101CC0009CF420E030E048EC51E460E070E0CB01AF
:101CD0000E94690C20E030E040E85FE360E070E0E3
:101CE00080EF91E40E94A00920E030E040EF51E451
:101CF000CA01B9010E94230920E030E040EF51E41D
:101D000060E070E0CB010E94690C80E090E00E94EE
:101D1000AD0C20E030E040E551E460E070E080EFA1
:101D200091E40E94A00920E030E040EF51E460E03F
:101D300070E088EC91E40E9423096EE170E081E09C
:101D40000E944A066AE070E082E00E944A060E9411
:101D5000460C68EC70E080E090E00E94890360E04F
:101D600070E081E00E944A0660E070E082E00E943C
:101D70004A0687E890E00E94AD0C0E94540610923B
:101D8000C3011092C4011092C5011092C60162EE07
:101D90007FEF81E00E944A0662EE7FEF82E00E94C0
:101DA0004A060E9454068091C3019091C401A091FB
:101DB000C501B091C601181619061A061B0684F44F
:101DC0000E9454068091C3019091C401A091C50165
:101DD000B091C601883E9340A105B10511F70FC02F
:101DE0000E9454068091C3019091C401A091C50145
:101DF000B091C60188319C4FAF4FBF4F91F620E0A4
:101E000030E0A90160E070E088EC91E40E94690C88
:101E100020E030E040E551E460E070E080EF91E4E4
:101E20000E94A00920E030E040EF51E4CA01B9016E
:101E30000E94230920E030E048EC51E460E070E0CB
:101E4000CB010E94690C20E030E040E450E460E007
:101E500070E080EF91E40E94A00920E030E048ECBF
:101E600051E460E070E0CB010E94690C20E030E0BA
:101E700040E450E460E070E080EF91E40E94A0094B
:101E800020E030E048EC51E460E070E0CB010E94DB
:101E9000690C20E030E040E551E460E070E080EF64
:101EA00091E40E94A00920E030E040EF51E4CA0133
:101EB000B9010E94230920E030E048EC51E460E0E1
:101EC00070E0CB010E94690C20E030E040E450E477
:101ED00060E070E080EF91E40E94A00920E030E033
:101EE00040EF51E4CA01B9010E94230920E030E02B
:101EF00040E450E460E070E080EF91E40E94A009CB
:101F000020E030E040EF51E4CA01B9010E9423090A
:101F100020E030E0A90160E070E088EC91E40E94EC
:101F2000690C80E090E00E94AD0C20E030E040E5DC
:101F300051E460E070E080EF91E40E94A00920E0AD
:101F400030E040EF51E4CA01B9010E94230920E0CA
:101F500030E04AE754E460E070E080EF91EC0E94EA
:101F6000230987E890E00E94AD0C66EF7FEF81E0E7
:101F70000E944A0665E070E082E00E944A0666E937
:101F800070E080E090E00E9489038090DF019090F3
:101F9000E001A090E101B090E2014090DB0150909F
:101FA000DC016090DD017090DE01C090D701D0901F
:101FB000D801E090D901F090DA0120E030E040E86B
:101FC0005FE3C501B4010E9481118823A1F020E0E4
:101FD00030E040E85FE3C301B2010E948111882331
:101FE00051F020E030E040E85FE3C701B6010E9415
:101FF00081118111E2CF20E030E040EF51E4CA01CD
:10200000B9010E94230920E030E0A90160E070E0FE
:1020100088EC91E40E94690C20E030E040E551E456
:1020200060E070E080EF91E40E94A00920E030E0E1
:102030004AE754E460E070E080EF91E40E942309F5
:102040006EE170E081E00E944A066EE170E082E09D
:102050000E944A060E94460C0E944D0BFDCF109232
:10206000E6011092E50188EE93E0A0E0B0E08093F5
:10207000E7019093E801A093E901B093EA0120E120
:1020800031E03093E4012093E30125EC30E030931C
:10209000F0012093EF0124EC30E03093F201209323
:1020A000F10120EC30E03093F4012093F30121ECB6
:1020B00030E03093F6012093F50122EC30E03093CC
:1020C000F8012093F70126EC30E03093FA012093D9
:1020D000F9011092FC011092FD011092FE01109284
:1020E000FF01109279031092780380937A03909302
:1020F0007B03A0937C03B0937D0382E291E09093F5
:102100007703809376038FEF8093A5028091A402DA
:10211000A4EFB3E09FEF48EB5BE08C3078F48C9356
:10212000282F30E0F901EE0FFF1F2E0F3F1FF9019E
:10213000E058FD4F528341838F5F01C09C931396FB
:1021400024E0A030B20749F78093A4028FEF9FEFFD
:102150009093F1038093F0039093F3038093F20341
:102160000895052E97FB1EF400940E94C81057FD99
:1021700007D00E94E31007FC03D04EF40C94C81063
:1021800050954095309521953F4F4F4F5F4F0895A3
:1021900090958095709561957F4F8F4F9F4F0895D3
:1021A0000E940511A59F900DB49F900DA49F800DD6
:1021B000911D11240895B7FF0C94D0100E94D010E7
:1021C000821B930B0895A1E21A2EAA1BBB1BFD01D3
:1021D0000DC0AA1FBB1FEE1FFF1FA217B307E40706
:1021E000F50720F0A21BB30BE40BF50B661F771F5E
:1021F000881F991F1A9469F760957095809590953E
:102200009B01AC01BD01CF010895A29FB001B39F16
:10221000C001A39F700D811D1124911DB29F700DEF
:10222000811D1124911D08955058BB27AA270E9493
:102230002C110C9434120E94261238F00E942D1298
:1022400020F039F49F3F19F426F40C9423120EF475
:10225000E095E7FB0C941D12E92F0E94451258F3FC
:10226000BA17620773078407950720F079F4A6F57B
:102270000C9467120EF4E0950B2EBA2FA02D0B01D3
:10228000B90190010C01CA01A0011124FF27591BBB
:1022900099F0593F50F4503E68F11A16F040A22FC1
:1022A000232F342F4427585FF3CF46953795279532
:1022B000A795F0405395C9F77EF41F16BA0B620B31
:1022C000730B840BBAF09150A1F0FF0FBB1F661F78
:1022D000771F881FC2F70EC0BA0F621F731F841FBB
:1022E00048F4879577956795B795F7959E3F08F0E1
:1022F000B0CF9395880F08F09927EE0F97958795A3
:1023000008950E94F91108F481E008950E948D114A
:102310006894B1110C94681208950E944D1288F0CF
:102320009F5798F0B92F9927B751B0F0E1F0660F99
:10233000771F881F991F1AF0BA95C9F714C0B130DA
:1023400091F00E946712B1E008950C946712672F14
:10235000782F8827B85F39F0B93FCCF38695779509
:102360006795B395D9F73EF49095809570956195F2
:102370007F4F8F4F9F4F0895E89409C097FB3EF41D
:1023800090958095709561957F4F8F4F9F4F9923C2
:10239000A9F0F92F96E9BB279395F6958795779540
:1023A0006795B795F111F8CFFAF4BB0F11F460FF00
:1023B0001BC06F5F7F4F8F4F9F4F16C0882311F058
:1023C00096E911C0772321F09EE8872F762F05C06C
:1023D000662371F096E8862F70E060E02AF09A9507
:1023E000660F771F881FDAF7880F9695879597F9FC
:1023F0000895990F0008550FAA0BE0E8FEEF161696
:102400001706E807F907C0F012161306E407F507E8
:1024100098F0621B730B840B950B39F40A2661F05C
:10242000232B242B252B21F408950A2609F4A140FF
:10243000A6958FEF811D811D089597F99F6780E80C
:1024400070E060E008959FEF80EC089500240A9406
:102450001616170618060906089500240A9412167F
:102460001306140605060895092E0394000C11F4B2
:10247000882352F0BB0F40F4BF2B11F460FF04C05F
:102480006F5F7F4F8F4F9F4F089557FD9058440FB8
:10249000551F59F05F3F71F04795880F97FB991FC3
:1024A00061F09F3F79F08795089512161306140680
:1024B000551FF2CF4695F1DF08C01616170618060D
:1024C000991FF1CF86957105610508940895E894E8
:1024D000BB2766277727CB0197F908950E94F9114A
:1024E00008F48FEF08950E9486120C9434120E9413
:1024F000261238F00E942D1220F0952311F00C9432
:102500001D120C94231211240C9468120E9445127F
:1025100070F3959FC1F3950F50E0551F629FF00136
:10252000729FBB27F00DB11D639FAA27F00DB11D4F
:10253000AA1F649F6627B00DA11D661F829F2227D8
:10254000B00DA11D621F739FB00DA11D621F839F5F
:10255000A00D611D221F749F3327A00D611D231F35
:10256000849F600D211D822F762F6A2F11249F5783
:1025700050409AF0F1F088234AF0EE0FFF1FBB1F86
:10258000661F771F881F91505040A9F79E3F510545
:1025900080F00C941D120C9468125F3FE4F3983E97
:1025A000D4F3869577956795B795F795E7959F5FEF
:1025B000C1F7FE2B880F911D9695879597F9089581
:1025C000991B79E004C0991F961708F0961B881F85
:1025D0007A95C9F78095089597FB072E16F4009415
:1025E00007D077FD09D00E94001307FC05D03EF408
:1025F000909581959F4F0895709561957F4F0895AF
:10260000AA1BBB1B51E107C0AA1FBB1FA617B70718
:1026100010F0A61BB70B881F991F5A95A9F7809534
:102620009095BC01CD010895EE0FFF1F0590F49128
:10263000E02D099481E090E0F8940C941F13F89435
:02264000FFCFCA
:10264200C800C800FFFFFFFFFFFFFFFF0000000000
:10265200E40A510A7C0A2B0BAD0A8B0A9F0A00007E
:1026620000001D0109012F01FB000201FF00FC0017
:00000001FF
