:100000000C94A2000C949D090C9476090C94CA00DF
:100010000C94CA000C94CA000C94CA000C944A0FA9
:100020000C94CA000C94CA000C94CA000C94100BD7
:100030000C94CA000C94CA000C94CA000C94CA0018
:100040000C942C090C94CA000C94D6070C94B0079D
:100050000C94CA000C94CA000C94CA000C94CA00F8
:100060000C94C4090C94CA0000000000240027006E
:100070002A0000000000250028002B0000000008D6
:10008000000201000003040700000000000000005F
:100090000000000000000000000000000000000060
:1000A0000000000000000000000000000000000050
:1000B0000082210000000002390F00000040800093
:1000C0003F065B4F666D7D077F6F00000048005361
:1000D00000777C395E79716F76061E003800543FD8
:1000E0007367506D783E0000006E0039000F000805
:1000F000635F7C585E7B716F74021E000600545C67
:100100007367506D781C0000006E0039300F0000DE
:100110000000000023002600290004040404040455
:1001200004040202020202020303030303030102A6
:100130000408102040800102040810200102040875
:1001400010206D2011241FBECFEFD8E0DEBFCDBF41
:1001500011E0A0E0B1E0E2E2F8E402C005900D9207
:10016000A035B107D9F724E0A0E5B1E001C01D92A8
:10017000A133B207E1F710E0C2EAD0E004C0219752
:10018000FE010E940424C13AD107C9F70E94271634
:100190000C940F240C9400002F923F924F925F9288
:1001A0006F927F928F929F92AF92BF92CF92DF9287
:1001B000EF92FF920F931F93CF93DF93CDB7DEB7EC
:1001C00064970FB6F894DEBF0FBECDBF8090540188
:1001D00090905501A0905601B090570120911101C7
:1001E000309112012817390771F0F8949093120199
:1001F000809311018093560378948091110190911E
:10020000120197FFF7C18BE593E09C878B87809164
:10021000230490E09E878D8780915703853009F0F5
:1002200097C480915D0390915E03885891098D3544
:10023000910588F480912304843041F480915F0318
:10024000909160038097479708F409C28091230436
:10025000843408F0EBC1809123048A3108F442C051
:1002600080915B0390915C03843F914050F41A8627
:1002700019868FEF9FEFDC018D839E83AF83B88754
:100280004BC080915D0390915E0385974B9750F52D
:10029000E1E6F3E082E090E040E050E0BA01209136
:1002A000230430E0DC011196A217B30754F4DF01F8
:1002B00012972D913C91275031092730310508F4D0
:1002C00002C20197959587959A8789870C971CF4A8
:1002D0001A86198607C04D835E836F83788782E014
:1002E00090E075C3809123048A3108F441C0809165
:1002F0005B0390915C038032934008F4B8CF809107
:100300005D0390915E03C697869708F4F8C130C0EC
:100310004D835E836F83788789E090E058C32081A6
:100320003181255231092B31310508F0F8C1440FD4
:10033000551F661F771F4160029634962091230453
:1003400030E0DC011196A217B3074CF4DF011297DD
:100350002D913C912C5031092B30310500F3019740
:10036000959587959A8789870C9794F61A861986AA
:1003700080912304823208F444C080915D039091FF
:100380005E0306970797E8F5E1E6F3E082E090E088
:10039000412C512C32019C012F5F3F4F409123048F
:1003A00050E024173507E4F4DF0112974D915C917A
:1003B00011974E5151094731510508F0BDC1440C08
:1003C000551C661C771C689440F840815181349616
:1003D000435051094530510510F40296DCCFC90154
:1003E0000197959587959A87898740971CF41A8677
:1003F000198607C04D825E826F8278868AE090E01F
:10040000E6C2809123048D3038F48D859E851816C0
:1004100019060CF48AC094C081E090E09A8B898B15
:10042000188A1F8629E733E0AE01415F5F4FBE01A6
:100430006F5E7F4FCE0101960E94C314892B21F07D
:1004400080E090E0DC016BC029E733E0AE01415F62
:100450005F4FBE016F5E7F4FCE0101960E94C314B5
:10046000019771F729E733E0AE01415F5F4FBE01AD
:100470006F5E7F4FCE0101960E94C314892B01F756
:1004800000E010E0412C512C32018091230490E0D7
:1004900029893A8928173907A4F529E733E0AE01FD
:1004A000415F5F4FBE016F5E7F4FCE0101960E949C
:1004B000C3147C0129E733E0AE01415F5F4FBE0109
:1004C0006F5E7F4FCE0101960E94C314A1E0EA1631
:1004D000F10451F4892B09F0B3CF440C551C661C70
:1004E000771C689440F80AC0EF2809F0A9CF01975B
:1004F00009F0A6CF440C551C661C771C0F5F1F4FDC
:10050000C4CF1A8709874D825E826F82788683E026
:1005100090E09A83898381E090E0A0E0B0E0892BAD
:100520008A2B8B2B09F055C270CF81E090E09A8B1B
:10053000898BEB85FC858281938189974E9720F08A
:1005400080E090E0DC0148C082E090E09A8B898BEB
:10055000848195810B970A9798F783E090E09A8BB6
:10056000898B188A1F862CEB31E0AE01415F5F4F0B
:10057000BE016F5E7F4FCE0101967C010E94C314C5
:10058000892BF1F62CEB31E0AE01415F5F4FBE01EC
:100590006F5E7F4FC7010E94C314019789F600E088
:1005A00010E0212C312C2101DE2CCF2C29893A8915
:1005B0008D859E85281739070CF4CBC01A870987CB
:1005C0002D823E824F82588684E090E09A83898310
:1005D00081E090E0A0E0B0E0892B8A2B8B2B09F022
:1005E000F8C1EB85FC8582819381C697869708F4D4
:1005F00011C167C18093560310925803F89482E0AA
:100600008093B0008093B10094E69093B300109271
:10061000B200809370007894809357031092230463
:100620008091560360E00E946108EDCD80915F03E8
:1006300090916003825491098E9708F00CCE20E0CF
:1006400030E080E090E0DC01F901EF59FC4F40819F
:100650005181495051094930510578F0FCCD8091C4
:100660006103909162030997099708F0EFCD1A860C
:1006700019868FEF9FEFDC01E9C1F901ED59FC4FBD
:1006800040815181465151094131510578F4880F1B
:10069000991FAA1FBB1F81602C5F3F4F2038310577
:1006A00099F620E230E03A872987D0C14081518114
:1006B000465051094730510508F0CDCD880F991F9C
:1006C000AA1FBB1FE9CF20813181235131092F306F
:1006D000310540F4440F551F661F771F4160029695
:1006E0003496DDCD208131812A5031092930310500
:1006F00008F0F8CD440F551F661F771FF0CF80918B
:100700005F0390916003C697869708F031CEE3E6C9
:10071000F3E083E090E040E050E0BA010FCE2081AA
:1007200031812C5031092A30310508F021CE440F97
:10073000551F661F771F00CE4D915C914C5051099B
:100740004B30510508F05DCE440C551C661C771CDF
:100750003CCE2CEB31E0AE01415F5F4FBE016F5EDE
:100760007F4F8D2D9C2D0E94C3143C010330110539
:1007700089F02CEB31E0AE01415F5F4FBE016F5E4F
:100780007F4F8D2D9C2D0E94C3147C0103301105D9
:1007900009F510C02CEB31E0AE01415F5F4FBE01A7
:1007A0006F5E7F4F8D2D9C2D0E94C31468167906B5
:1007B00001F3C6CE2CEB31E0AE01415F5F4FBE01CD
:1007C0006F5E7F4F8D2D9C2D0E94C314E816F90695
:1007D00009F0B6CE6114710479F4EA94EF2809F0B7
:1007E000AFCED201C101880F991FAA1FBB1F1C01E8
:1007F0002D01689420F80BC06A94672809F0A0CEF8
:10080000EF2809F09DCE220C331C441C551C0F5FB1
:100810001F4FCCCE848195814B97459708F051C0EE
:100820007F0196E0E90EF11C3F01A6EC6A0E711CF7
:1008300020E030E000E010E060E070E080E090E078
:10084000D7014D915C914950510948305105C8F587
:10085000D70112964D915C911397415151094D303A
:10086000510530F4A80101E00E94B92321600EC0B7
:10087000D70112964D915C91139744505109453020
:100880005105F8F4A80101E00E94B9238A01B4E0FF
:10089000EB0EF11CE614F70499F6F901A8012D837B
:1008A000FE830F83588700E20E94D4232B833C836E
:1008B00087E090E09A83898380E390E09A87898734
:1008C00088C080912304823231F4828193810A9717
:1008D000099708F4C5C082819381895791098335AE
:1008E000910508F4D6C02D843E84B6E02B16310461
:1008F0000CF4A6C0CF0106969C8B8B8B75EC872ED3
:100900007DE9972E7CE1A72E71E8B72E03E010E079
:10091000AB89BC896D917C911197FD013497608002
:10092000718080E090E00E9465226B017C01B30140
:1009300080E090E00E9465222B013C012DEC3CEC14
:100940004CE45FE30E941C239B01AC01C701B6018C
:100950000E94B82187FD81C02DEC3CEC4CE45FE3A4
:10096000C701B6010E941C239B01AC01C301B20167
:100970000E94B821E82F880FFF0BEE27FF0FEE1F14
:10098000FF273196A501940163E971E080E091E0D1
:100990000E9489234F01FF0FAA08BB0886269726CD
:1009A000A826B9260F5F1F4FEB89FC893296FC8B76
:1009B000EB8B0215130509F0ABCF8D829E82AF82BF
:1009C000B88680E290E09A8789878FEF9FEF9A83BD
:1009D000898389819A8190930901809308018D8090
:1009E0009E80AF80B884BFEF8B169B06AB06BB061C
:1009F00049F48090540190905501A0905601B09018
:100A0000570108C08092540190925501A09256015E
:100A1000B09257012FB7F8948091500190915101F5
:100A2000A0915201B09153012FBF4996A11DB11D54
:100A30008093580190935901A0935A01B0935B01A0
:100A400082E0809357031092230482C08D839E839B
:100A5000AF83B88781E090E0BACFE0E0F0E092CFDA
:100A600020912304CF01820F911D820F911DDC0183
:100A700012978D919C910A97099708F02CCF1A86AE
:100A800019868FEF9FEFDC018D839E83AF83B8873C
:100A90005CC080912304813208F425CF8481958144
:100AA000CA97899708F01FCF9F012A5F3F4FC12C3B
:100AB000D12C760143E050E0D9016D917C916A50D0
:100AC00071096930710508F00ECFD90112966D9148
:100AD0007C911397665171096131710530F5D70129
:100AE000C601880F991FAA1FBB1F6C017D01689466
:100AF000C0F84E5F5F4F2C5F3F4F43325105E1F628
:100B00009F012A5B3F4FD9012D913C912A50310919
:100B10002930310508F0E7CE20E130E03A87298717
:100B2000CD82DE82EF82F88610C0D90112966D91D7
:100B30007C911397665071096730710508F0D3CE28
:100B4000CC0CDD1CEE1CFF1CD4CF88E090E03FCF26
:100B5000C501B40164960FB6F894DEBF0FBECDBFD9
:100B6000DF91CF911F910F91FF90EF90DF90CF9089
:100B7000BF90AF909F908F907F906F905F904F90BD
:100B80003F902F900895CF92DF92EF92FF920F93B4
:100B90001F93CF93DF936C017A018B01C0E0D0E00B
:100BA000CE15DF0589F0D8016D918D01D601ED914B
:100BB000FC910190F081E02DC6010995892B11F47B
:100BC0007E0102C02196ECCFC701DF91CF911F912A
:100BD0000F91FF90EF90DF90CF900895FC01538D1F
:100BE000448D252F30E0842F90E0821B930B541707
:100BF00010F0CF96089501970895FC01918D828D94
:100C0000981761F0828DDF01A80FB11D5D968C9160
:100C1000928D9F5F9F73928F90E008958FEF9FEF6B
:100C20000895FC01918D828D981731F0828DE80F27
:100C3000F11D858D90E008958FEF9FEF0895FC01E1
:100C4000918D228D892F90E0805C9F4F821B9109AE
:100C50008F739927089588E892E00E941F0621E08B
:100C6000892B09F420E0822F0895FC01848DDF0197
:100C7000A80FB11DA35ABF4F2C91848D90E001960F
:100C80008F739927848FA689B7892C93A089B189FE
:100C90008C9180648C93938D848D981306C0028808
:100CA000F389E02D80818F7D80830895EF92FF92FC
:100CB0000F931F93CF93DF93EC0181E0888F9B8D7F
:100CC0008C8D981305C0E889F989808185FD24C041
:100CD000F62E0B8D10E00F5F1F4F0F731127E02EC4
:100CE0008C8DE8120CC00FB607FCFACFE889F989A1
:100CF000808185FFF5CFCE010E943506F1CF8B8D27
:100D0000FE01E80FF11DE35AFF4FF0820B8FEA89D5
:100D1000FB898081806207C0EE89FF896083E88952
:100D2000F98980818064808381E090E0DF91CF91B8
:100D30001F910F91FF90EF900895CF93DF93EC01F7
:100D4000888D8823C9F0EA89FB89808185FD05C0EB
:100D5000A889B9898C9186FD0FC00FB607FCF5CF25
:100D6000808185FFF2CFA889B9898C9185FFEDCF6D
:100D7000CE010E943506E7CFDF91CF91089580E044
:100D800090E0892B29F00E942B0681110C94000021
:100D90000895833081F028F4813099F08230A1F0F9
:100DA00008958730A9F08830B9F08430D1F480916B
:100DB00080008F7D03C0809180008F7780938000BA
:100DC000089584B58F7702C084B58F7D84BD089562
:100DD0008091B0008F7703C08091B0008F7D8093A9
:100DE000B0000895089585ED8093BC008091BC000B
:100DF00084FDFCCF1092630208954091ED01262FEF
:100E000030E0240F311D21323105DCF420916302E2
:100E10002430C9F4FC0180E090E0861758F430914A
:100E2000ED012191DC01A553BE4FA30FB11D2C9301
:100E30000196F3CF8091ED01680F6093ED0180E0A2
:100E4000089581E0089582E00895089581E090E09A
:100E50003091C9012091C801321710F480E090E070
:100E600091958195910908958091C9019091C8014A
:100E7000891730F48F5F8093C90180E090E0089576
:100E80008FEF9FEF08958091C80190E02091C901F4
:100E9000821B91090895CF92DF92EF92FF920F93F8
:100EA0001F93CF93DF937C01262F972F8A01809188
:100EB0006402882391F0C62FD72F6E01C40ED51E71
:100EC000CC15DD0571F06991D701ED91FC91019090
:100ED000F081E02DC7010995F3CF642F822F0E9486
:100EE000FD06C801DF91CF911F910F91FF90EF9008
:100EF000DF90CF900895CF93DF931F92CDB7DEB7E9
:100F00006983209164022223D1F02091870220324C
:100F100040F021E030E0FC013383228380E090E068
:100F200015C080916502E82FF0E0EA59FD4F9981E4
:100F300090838F5F809365028093870205C061E094
:100F4000CE0101960E94FD0681E090E00F90DF91B6
:100F5000CF910895089580E090E008950E940A24BA
:100F60001F920F920FB60F9211242F933F934F931E
:100F70005F936F937F938F939F93AF93BF93EF9301
:100F8000FF9388E892E00E943506FF91EF91BF91B0
:100F9000AF919F918F917F916F915F914F913F9111
:100FA0002F910F900FBE0F901F9018951F920F92C8
:100FB0000FB60F9211242F938F939F93EF93FF936C
:100FC000E0919802F09199028081E0919E02F09167
:100FD0009F0282FD12C090818091A1028F5F8F736A
:100FE0002091A202821751F0E091A102F0E0E857AF
:100FF000FD4F958F8093A10201C08081FF91EF91F9
:101000009F918F912F910F900FBE0F901F90189569
:10101000CF93DF93282F30E0F901E458FF4F8491FC
:10102000F901E25DFE4FD491F901E65EFE4FC491F5
:10103000CC2391F081110E94C906EC2FF0E0EE0F55
:10104000FF1FE05FFE4FA591B491EC91ED2381E08D
:1010500090E021F480E002C080E090E0DF91CF9149
:1010600008951F93CF93DF93282F30E0F901E458C0
:10107000FF4F8491F901E25DFE4FD491F901E65EE4
:10108000FE4FC491CC23C9F0162F81110E94C906CE
:10109000EC2FF0E0EE0FFF1FEE58FF4FA591B4913B
:1010A0008FB7F894111105C09C91ED2FE095E923BD
:1010B00002C0EC91ED2BEC938FBFDF91CF911F918C
:1010C0000895CF93DF9390E0FC01E25DFE4F249101
:1010D000FC01E65EFE4F8491882361F190E0880F69
:1010E000991FFC01E859FF4FC591D491FC01EE58BE
:1010F000FF4FA591B491611109C09FB7F894888101
:10110000209582238883EC912E230BC0623061F4FA
:101110009FB7F8943881822F809583238883EC9140
:101120002E2B2C939FBF06C08FB7F894E8812E2BEF
:1011300028838FBFDF91CF9108951F93CF93DF93C3
:10114000182FEB0161E00E946108209711F460E024
:1011500004C0CF3FD10539F461E0812FDF91CF91F9
:101160001F910C943108E12FF0E0E458FF4FE49117
:10117000E330F9F048F4E130B9F0E230A1F584B59C
:10118000806284BDC8BD34C0E730E9F0E83019F1B1
:10119000E43049F580918000806280938000D09394
:1011A0008B00C0938A0024C084B5806884BDC7BD0D
:1011B0001FC080918000806880938000D093890058
:1011C000C093880015C08091B00080688093B00003
:1011D000C093B3000DC08091B00080628093B000D6
:1011E000C093B40005C0C038D1050CF0B5CFAFCF67
:1011F000DF91CF911F9108958230910538F0880FCB
:10120000991F880F991F05970197F1F708953FB728
:10121000F8948091130290911402A0911502B0915C
:10122000160226B5A89B05C02F3F19F00196A11DF7
:10123000B11D3FBFBA2FA92F982F8827820F911D6C
:10124000A11DB11DBC01CD0142E0660F771F881FB3
:10125000991F4A95D1F708951F920F920FB60F92DA
:1012600011242F933F938F939F93AF93BF938091BC
:10127000500190915101A0915201B09153013091D0
:10128000120223E0230F2D3720F40196A11DB11D7A
:1012900005C026E8230F0296A11DB11D209312025E
:1012A0008093500190935101A0935201B093530148
:1012B0008091130290911402A0911502B091160230
:1012C0000196A11DB11D8093130290931402A09367
:1012D0001502B0931602BF91AF919F918F913F91EC
:1012E0002F910F900FBE0F901F9018951F920F9285
:1012F0000FB60F9211242F933F934F935F936F93E9
:101300007F938F939F93AF93BF93EF93FF93E0915E
:101310000C01F0910D010995FF91EF91BF91AF91F3
:101320009F918F917F916F915F914F913F912F91FD
:101330000F900FBE0F901F9018951F920F920FB62F
:101340000F9211242F933F934F935F936F937F934B
:101350008F939F93AF93BF93EF93FF93E0910A0115
:10136000F0910B010995FF91EF91BF91AF919F9182
:101370008F917F916F915F914F913F912F910F903E
:101380000FBE0F901F9018951F920F920FB60F92DD
:1013900011242F933F934F935F936F937F938F937A
:1013A0009F93AF93BF93EF93FF938091B900887F92
:1013B000803609F49CC068F5883209F45BC090F46B
:1013C000803109F454C038F4882309F4F6C0883019
:1013D00009F44DC0F6C0883109F44CC0803209F4DC
:1013E0005DC0EFC0803409F468C048F4803309F46C
:1013F00055C0883309F0E5C080936102D8C08035BC
:1014000009F44FC0883509F45DC0883409F0D9C0AB
:10141000D6C0883909F4C7C0A8F4883709F467C072
:1014200038F4883609F463C0803709F460C0C9C055
:10143000883809F4B8C0803909F45FC0803809F0F1
:10144000C0C05BC0803B09F486C038F4803A09F420
:1014500066C0883A09F47FC0B4C0803C09F4A7C0D4
:10146000883C09F4A4C0883B09F48AC0AAC08091D2
:101470003E0210C09091600280915F02981770F553
:10148000E091600281E08E0F80936002F0E0E15C09
:10149000FD4F80818093BB0085EC86C08093610204
:1014A0008EC0E091600281E08E0F80936002809197
:1014B000BB00F0E0E15CFD4F808390916002809181
:1014C0005F026EC0E091600281E08E0F8093600247
:1014D0008091BB00F0E0E15CFD4F8083809162026F
:1014E00081116DC081E080933D0284EA61C083E098
:1014F0008093630210921102CFCF8091110280324B
:1015000008F051C0E091110281E08E0F809311022A
:101510008091BB00F0E0EF50FE4F8083BDCF85ECA3
:101520008093BC001092630280911102803230F4EB
:10153000E0911102F0E0EF50FE4F10826091110235
:1015400070E0E091EF01F091F00181EF91E00995F9
:101550001092110236C084E0809363021092EE0173
:101560001092ED01E091EB01F091EC010995809171
:10157000ED01811105C081E08093ED011092CB0156
:10158000E091EE0181E08E0F8093EE01F0E0E553F3
:10159000FE4F80818093BB009091EE018091ED0120
:1015A000981708F479CF85E88093BC000AC085ECD1
:1015B0008093BC001092630204C0109261020E94EA
:1015C000F306FF91EF91BF91AF919F918F917F9122
:1015D0006F915F914F913F912F910F900FBE0F90A0
:1015E0001F9018951092630281E08093620210921E
:1015F0003D0261E082E10E94310861E083E10E94E6
:101600003108E9EBF0E080818E7F808380818D7FDF
:10161000808388E48093B80085E48093BC000895BB
:101620001F920F920FB60F9211242F933F934F9357
:101630005F936F937F938F939F93AF93BF93EF933A
:10164000FF938091CA0187FF05C010928500109218
:1016500084001BC02091CA01022E000C330B809124
:10166000550390E02817390784F48091CA01082EA9
:10167000000C990BFC01EE0FFF1F8E0F9F1FFC014A
:10168000EF5CFC4F808186FD15C08091CA018F5FA1
:101690008093CA012091CA01022E000C330B809165
:1016A000550390E028173907C4F48091CA018C30A3
:1016B00064F113C08091CA01082E000C990BFC0143
:1016C000EE0FFF1F8E0F9F1FFC01EF5CFC4F808110
:1016D00060E08F730E943108D8CF80918400909190
:1016E0008500049680349C4918F480E49CE905C088
:1016F0008091840090918500049690938900809356
:1017000088008FEF8093CA013BC020918400309104
:1017100085008091CA01082E000C990BFC01EE0F88
:10172000FF1F8E0F9F1FFC01EF5CFC4F8181928198
:10173000820F931F90938900809388008091CA0143
:10174000082E000C990BFC01EE0FFF1F8E0F9F1F40
:10175000FC01EF5CFC4F808186FF12C08091CA01C2
:10176000082E000C990BFC01EE0FFF1F8E0F9F1F20
:10177000FC01EF5CFC4F808161E08F730E943108B7
:10178000FF91EF91BF91AF919F918F917F916F9159
:101790005F914F913F912F910F900FBE0F901F902F
:1017A0001895CF93DF93DC0198E0362F30781296AE
:1017B0008C911297332391F01896ED91FC91199723
:1017C00020818095822380831C968C911C9788238E
:1017D000B9F01496ED91FC9115970CC01496ED910B
:1017E000FC91159720818095822380831896ED9136
:1017F000FC911997208112968C911297822B8083ED
:101800001A96ED91FC911B97208113968C9113975A
:101810008095822380831C968C911C97882351F09D
:101820001696ED91FC911797208113968C91139742
:10183000822B808380E18A95F1F71696ED91FC91D9
:101840001797208113968C9113978095822380831C
:101850001A96ED91FC911B97208113968C9113970A
:10186000822B808380E18A95F1F73323A9F01496C7
:10187000ED91FC911597208112968C91129780958D
:10188000822380831896ED91FC91199720811296FE
:101890008C911297822B808380E18A95F1F7660FF5
:1018A000915009F082CF1896ED91FC911997908193
:1018B00012968C9112978095892380831C968C9127
:1018C0001C97882351F01496ED91FC911597908107
:1018D00012968C911297892B80831A96ED91FC9128
:1018E0001B97908113968C91139780958923808301
:1018F0001C968C911C97882351F01696ED91FC91C3
:101900001797908113968C911397892B808380E190
:101910008A95F1F7EC91F0E0E65EFE4FE491F0E09D
:10192000EE0FFF1FE05FFE4FC591D4919881169690
:10193000ED91FC911797208113968C9113978095C8
:10194000822380831A96ED91FC911B972081139638
:101950008C911397822B808380E18A95F1F7129600
:101960008C91982381E009F480E0DF91CF91089574
:10197000FC01A285B3859C918381809589238C93FA
:101980008485882331F0A681B7819C918381892B3E
:101990008C9380E18A95F1F7A085B1859C91828135
:1019A000809589238C938485882331F0A481B58127
:1019B0009C918281892B8C9380E18A95F1F708951F
:1019C000FC01A085B1859C918281809589238C93AF
:1019D0008485882331F0A481B5819C918281892BF3
:1019E0008C93A285B3859C918381809589238C9368
:1019F0008485882331F0A681B7819C918381892BCE
:101A00008C9380E18A95F1F7A481B5819C918281C4
:101A1000809589238C93A085B1859C918281892BA7
:101A20008C9380E18A95F1F7A681B7819C9183819F
:101A3000809589238C93A285B3859C918381892B82
:101A40008C9380E18A95F1F7660FCF010C94D10B4E
:101A5000EF92FF920F931F93CF93DF931F92CDB717
:101A6000DEB7282F7B016436710544F46D397F4F52
:101A700044F48DE9E82EFF24FA9403C093E6E92E9E
:101A8000F12CA701F7FE04C0442755274E195F0922
:101A90003FEF349FC001359F900D112464E670E044
:101AA0000E94A5238B018091330281110DC081E03A
:101AB0008093330261E088E029830E94610861E03D
:101AC0008CE00E9461082981213019F02230B9F0A0
:101AD00034C080913402909135028E159F0569F1D2
:101AE000F0923502E0923402F7FC02C061E001C0DE
:101AF00060E088E00E943108B80185E015C080915F
:101B00003602909137028E159F05B9F0F092370298
:101B1000E0923602F7FC02C060E001C061E08CE0B8
:101B20000E943108B80186E00F90DF91CF911F919C
:101B30000F91FF90EF900C949D080F90DF91CF9143
:101B40001F910F91FF90EF900895CF92DF92EF9247
:101B5000FF920F931F93CF93C82F2FEF280F30E0E2
:101B6000F901EE0FFF1FE459FE4F8081918101972B
:101B700009F0FBC0220F331F220F331FA901445A63
:101B80005E4FDA01CD90DD90ED90FC90F901EC59BB
:101B9000FE4F80819181A281B3810997A109B1098A
:101BA000C816D906EA06FB06ECF0DA014D915D9104
:101BB0006D917C9180819181A281B3810996A11D53
:101BC000B11D84179507A607B70764F060E070E0C1
:101BD0008C2FCF911F910F91FF90EF90DF90CF90BE
:101BE0000C94280DF901E45AFE4FC080D180E280A8
:101BF000F380D901AC59BE4F4D915D916D917C91AF
:101C000013974950510961097109C416D506E606B2
:101C1000F70694F44D915D916D917C911397C0807E
:101C2000D180E280F3804153510961097109C416E2
:101C3000D506E606F70664F5D901A45ABE4FCD9045
:101C4000DD90ED90FC901397F901EC59FE4F408127
:101C5000518162817381475F5F4F6F4F7F4F4C159A
:101C60005D056E057F050CF080C040815181628169
:101C700073810D911D912D913C9113974F5C5F4F96
:101C80006F4F7F4F4017510762077307B4F56DC060
:101C90004D915D916D917C9113970081118122810D
:101CA0003381401B510B620B730B77FF0AC04081DD
:101CB0005181628173818D919D910D90BC91A02D78
:101CC00008C04D915D916D917C9180819181A2813F
:101CD000B3819A01AB01281B390B4A0B5B0BA9E1BD
:101CE000B0E00E94072129E230E040E050E00E948D
:101CF000E820B9016B5F7F4F6BCF408151816281DA
:101D000073810D911D912D913C911397401B510BA7
:101D1000620B730B77FF09C04D915D916D917C91C2
:101D200080819181A281B38109C04081518162810A
:101D300073818D919D910D90BC91A02D9A01AB0165
:101D4000281B390B4A0B5B0BA9E1B0E00E9407216D
:101D500029E230E040E050E00E94E8202B5F3F4F56
:101D600066277727621B730B33CFCF911F910F919B
:101D7000FF90EF90DF90CF90089599B129B130E0B6
:101D800084E0359527958A95E1F7892F90E0959520
:101D90008795959587958227932780FF0CC0809122
:101DA0005C0190915D01A0915E01B0915F0101968F
:101DB000A11DB11D0BC080915C0190915D01A091AE
:101DC0005E01B0915F010197A109B10980935C01A7
:101DD00090935D01A0935E01B0935F0181E00C944C
:101DE000A50D99B189B193FB222720F930E0881F16
:101DF0008827881F90E02817390761F080916001DB
:101E000090916101A0916201B09163010197A109D4
:101E1000B1090BC08091600190916101A0916201B4
:101E2000B09163010196A11DB11D80936001909353
:101E30006101A0936201B093630182E00C94A50D4F
:101E400080913202811125C081E08093320262E0EC
:101E500082E00E94610862E083E00E9461088DEBED
:101E60009EE090930B0180930A01809169008C7F22
:101E7000816080936900E89A81EF9EE090930D0164
:101E800080930C0180916900837F84608093690056
:101E9000E99A08951F920F920FB60F9211242F9373
:101EA0003F934F935F936F937F938F939F93AF93E2
:101EB000BF93EF93FF93809156030E9408082091EF
:101EC000590330915A032F5F3F4F30935A032093A9
:101ED000590390912304943618F095E0909357039A
:101EE000909157039330B9F018F4923039F056C0FE
:101EF000943051F1953009F44BC050C081114EC05F
:101F00008091590390915A038436910508F442C098
:101F1000109223041BC0813009F040C0E0912304DB
:101F20008E0F80932304F0E08091590390915A031F
:101F3000EE0FFF1FEA5AFC4F9683858310925A03D7
:101F40001092590384E021C0811117C0E09123044D
:101F500081E08E0F80932304F0E0809159039091EB
:101F60005A03EE0FFF1FEA5AFC4F968385831092A7
:101F70005A031092590383E008C08091590390914D
:101F80005A038536910550F085E08093570306C0CB
:101F9000811104C010925A03109259038091580382
:101FA000FF91EF91BF91AF919F918F917F916F9131
:101FB0005F914F913F912F910F900FBE0F901F9007
:101FC0001895CF92DF92EF92FF92CF93DF93EC01BF
:101FD000072E000C880B990B0E9467226B017C0175
:101FE00020E030E040E45FE30E941C2320E030E08A
:101FF00048E452E40E94BD210E942F22C617D70751
:10200000D4F020E030E040EA5FE3C701B6010E946F
:102010001C2320E030E048E452E40E94BD2120E08F
:1020200030E040E85FE30E944C210E942F2221E033
:102030006C177D070CF420E0822F90E0DF91CF91A8
:10204000FF90EF90DF90CF900895EF92FF920F9363
:102050001F93CF93DF93CDB7DEB72D970FB6F894CC
:10206000DEBF0FBECDBF442349F0415021112150A6
:10207000442331F0413029F440E003C02111F7CF6F
:1020800041E0E42FF0E0002381F08F01065D1D4F59
:10209000A1E0B0E07D0102C0EE0CFF1C2A95E2F742
:1020A0009701D8013C91232B10C08F01065D1D4F75
:1020B000A1E0B0E07D0102C0EE0CFF1C2A95E2F722
:1020C00097012095D8013C9123232C9327E0F22EF1
:1020D000F41AFF0C8F01065D1D4F97FD20C077FDA0
:1020E0001EC0462F682FCE0101960E94641560E73E
:1020F000CE0101960E94E00CE82E6F2DCE010196D4
:102100000E94D10BF8016081CE0101960E94D10B93
:10211000CE0101960E94B80CE11019C01AC081E0EE
:102120008093640280E78093860210926502109289
:1021300087026F2D85E293E00E947B07D8016C91A6
:1021400085E293E00E947B070E94D61381111092D2
:1021500078012D960FB6F894DEBF0FBECDBFDF918C
:10216000CF911F910F91FF90EF9008950F931F93C0
:10217000CF93DF93CDB7DEB72D970FB6F894DEBFC0
:102180000FBECDBF142F97FD1AC077FD18C0462F84
:10219000682FCE0101960E94641560E7CE0101967A
:1021A0000E94E00C082F612FCE0101960E94D10BF6
:1021B000CE0101960E94B80C011113C014C081E039
:1021C0008093640280E780938602109265021092E9
:1021D0008702612F85E293E00E947B070E94D6135D
:1021E0008111109278012D960FB6F894DEBF0FBEC4
:1021F000CDBFDF91CF911F910F910895EF92FF9284
:102200000F931F93CF93DF93CDB7DEB72D970FB604
:10221000F894DEBF0FBECDBF8C017B0181E08093BF
:10222000780117FD02C077FF0AC01092C901109211
:10223000C80110926502109287020E94F20A41E2E0
:10224000B701C8010E94B61041E8B701C8010E9459
:10225000B61045EEB701C8010E94B61017FD2EC09A
:10226000F7FC2CC04E2D602FCE0101960E94641504
:1022700060E7CE0101960E94E00CF82E60E0CE01EE
:1022800001960E94D10B0AE212E098E0E92EE00EDE
:1022900060E0CE0101960E94D10B60E0CE01019674
:1022A0000E94D10BF80111928F01EE12F1CFCE01F5
:1022B00001960E94B80CF11027C028C081E08093DD
:1022C000640280E780938602109265021092870272
:1022D00060E085E293E00E947B070AE212E088E07A
:1022E000F82EF00E60E085E293E00E947B0760E04C
:1022F00085E293E00E947B07F80111928F01FE12A4
:10230000F1CF0E94D6138111109278012D960FB64D
:10231000F894DEBF0FBECDBFDF91CF911F910F911B
:10232000FF90EF9008950F931F93CF93DF93CDB756
:10233000DEB72D970FB6F894DEBF0FBECDBF062FC8
:10234000142FFC016281738177FD1AC04081518195
:1023500057FD16C0CE0101960E946415602FCE0174
:1023600001960E94E00C082F612FCE0101960E9479
:10237000D10BCE0101960E94B80C011113C016C0FA
:1023800081E08093640200938602109265021092AD
:102390008702612F85E293E00E947B070E94D6139B
:1023A000882321F010927A01109279012D960FB6B0
:1023B000F894DEBF0FBECDBFDF91CF911F910F917B
:1023C00008959C01A62FAA0FBB0BA059BE4F9C914C
:1023D0004F77E42FF0E0E057FF4FE491EF7759F0AB
:1023E000492F40784E2B842F90E08D939C936C5C0A
:1023F000C9010C9493110895EF92FF920F931F93CC
:10240000CF93DF937C01C0E0D0E000E010E0C43067
:10241000D1057CF4F801E059FE4F118210826C2F37
:102420006C5C40E0C7010E94931121960E5F1F4F24
:10243000EECFDF91CF911F910F91FF90EF90089514
:10244000EF92FF920F931F93CF93DF93CDB7DEB739
:1024500028970FB6F894DEBF0FBECDBF209179014B
:1024600030917A01232B09F04BC021E030E030930A
:102470007A01209379010FEF1FEF18870F831E83D6
:102480000D83AE014B5F5F4FBE01695F7F4F0E94BE
:10249000BC131A8309831C830B838F8198852D813C
:1024A0003E8137FD07C097FD05C03C832B839A838F
:1024B00089830AC01092C9011092C8011092650266
:1024C000109287020E94F20ACE0101960E94FC112E
:1024D00089E3E82E82E0F82E14E2F70140814160A2
:1024E00041937F01612FCE0101960E9493111F5FDE
:1024F000183299F763E070E0CE0101960E94331420
:1025000028960FB6F894DEBF0FBECDBFDF91CF91F6
:102510001F910F91FF90EF900895EF92FF920F930C
:102520001F93CF93DF937C01EB018A018FEF90E043
:102530000E94AF1385E590E00E94AF13C7010E948F
:10254000AF13C8010E94AF130330110509F456C040
:1025500064F50130110509F44FC00230110509F08E
:102560009AC0288159814A813B81622F822F952F01
:10257000A42FB32F8093260290932702A0932802C2
:10258000B093290288E892E00E94560660912702E3
:1025900088E892E00E9456066091280288E892E05E
:1025A0000E9456066091290272C005301105A1F102
:1025B0000630110509F06FC0888139812A819B811D
:1025C000682F809318023093190220931A02909377
:1025D0001B0288E892E00E9456066091190288E882
:1025E00092E00E94560660911A0288E892E00E94EA
:1025F000560660911B024BC0688149C08881998151
:10260000682F809324029093250288E892E00E942C
:102610005606609125023BC0288159814A813B8141
:10262000622F822F952FA42FB32F80931C0290939B
:102630001D02A0931E02B0931F0288E892E00E9440
:10264000560660911D0288E892E00E94560660914D
:102650001E0288E892E00E94560660911F0288E8F8
:1026600092E00E9456066091200288E892E00E9463
:1026700056066091210288E892E00E945606609119
:10268000220288E892E00E9456066091230288E8C0
:1026900092E00E945606DF91CF911F910F91FF901B
:1026A000EF900C94B413CF93DF93EC018FEF90E095
:1026B0000E94AF1385E590E00E94AF13CE010E9407
:1026C000AF13DF91CF910C94B41390911702981728
:1026D00031F08093170210927901109278010895D9
:1026E00020911101309112012817390781F48F3F91
:1026F0002FEF920761F0F894109270002FEF3FEFE8
:10270000309312012093110180935603789427EFA0
:10271000280F253018F599270997FC01EE0FFF1FA8
:10272000DF01A050BF4F2D913C9111972F3F3F4F9C
:10273000A9F02FEF3FEF2D933C938E0F9F1FFC01CD
:10274000EC5DFB4FE081F0E0CF01880F991FE80FAF
:10275000F91FEF5CFC4F80818F7B80830895682F89
:1027600088E892E00C94560642E050E06CE471E098
:1027700088E892E00C94C305DB01FA018C329105E4
:1027800039F08E9761F41D921C9281E090E00BC0AD
:102790008BE090E08D939C938DE090E004C08FEFF0
:1027A0009FEF8D939C93918380830895209187025E
:1027B00090918602213208F04AC080916302811113
:1027C000FCCF32E03093630231E0309362023FEF9E
:1027D000309361021092600220935F02A6E6B2E09D
:1027E0004FE352E0FA013E2F341B321718F43D91AB
:1027F0003193F9CF10923E0220913E02990F922B15
:1028000090933E0290913D02913061F410923D020E
:1028100090913E029093BB009091BC0093FDF8CF45
:1028200095EC01C095EE9093BC00909163029230BC
:10283000E1F3909161029F3F79F0809161028032D3
:1028400041F080916102803331F084E005C081E085
:1028500003C082E001C083E01092650210928702FB
:10286000109264020895EF92FF920F931F93CF93FB
:10287000DF937C01C62FC770C295C07F09E312E0C9
:10288000D4E2F80140814F784C2B41938F016D2F9A
:10289000C7010E949311DF5FD83299F7DF91CF9182
:1028A0001F910F91FF90EF900895E0911001F0E0DB
:1028B00040A121E030E000900F0102C0220F331F41
:1028C0000A94E2F72095242320A30C94FC08AF92ED
:1028D000BF92CF92DF92EF92FF920F931F93CF930D
:1028E000DF936C010E9407090D2C000CEE08FF0815
:1028F000C60ED71EE81EF91EC0910E0183E0C89FC8
:102900008001112483E0159507958A95E1F7D0E0C1
:10291000C01BD10BAA24A394B12C0E9407096C15EB
:102920007D058E059F0520F5E0911001F0E020A1C6
:10293000C50100900F0102C0880F991F0A94E2F7A9
:10294000822B80A3C8010E94FC08E0911001F0E0F6
:1029500020A1C50100900F0102C0880F991F0A94A1
:10296000E2F78095822380A3CE010E94FC08D5CF98
:10297000DF91CF911F910F91FF90EF90DF90CF905B
:10298000BF90AF9008958F929F92AF92BF92CF92D7
:10299000DF92EF92FF920F931F93CF93DF93DB01B0
:1029A000CD91DC91DC011C96ED91FC911D97CE1729
:1029B000DF070CF04AC0FE01EE0FFF1F1A968D9143
:1029C0009C911B97E80FF91F80809180C170DD27D3
:1029D000B1E0CB27209719F404E610E002C00CE91F
:1029E0001FEF79015A016B01020F131FB801C401D7
:1029F0000E94E10F892B99F40E0D1F1DB801C4012F
:102A00000E94E10F892B71F4B8016E0D7F1DC40186
:102A10000E94E10F892BE1F023E030E005C021E0C6
:102A200030E002C022E030E0F50180819181019622
:102A30008217930734F011821082F6018081918110
:102A4000019691838083CE0105C081E090E002C0B1
:102A50008FEF9FEFDF91CF911F910F91FF90EF903C
:102A6000DF90CF90BF90AF909F908F9008950F937D
:102A70001F9390E0FC01E25DFE4F6491FC01E65E75
:102A8000FE4FE491F0E0EE0FFF1FE05FFE4F8591F7
:102A9000949100E412E42FE030E0462F0E94E2150A
:102AA000611571058105910549F0DC01CB010196A5
:102AB000A11DB11DBC01CD019F7003C060E070E09D
:102AC000CB011F910F910895CF93DC0181E01C96FB
:102AD0008C931C976C9311964C93119770E0FB01AB
:102AE000E25DFE4FC4911296CC93129750E0FA012A
:102AF000E25DFE4FE4911396EC931397FB01E65EC3
:102B0000FE4F249130E0220F331FF901EE58FF4FA2
:102B10008591949115969C938E931497F901E85999
:102B2000FF4F2591349119963C932E931897FA01F3
:102B3000E65EFE4F849190E0880F991FFC01EE58ED
:102B4000FF4F4591549117965C934E931697FC0155
:102B5000E859FF4F859194911B969C938E931A97F9
:102B6000F9018081C095C823C0831C968C911C9765
:102B7000882351F01496ED91FC911597908112964F
:102B80008C911297892B80831A96ED91FC911B975B
:102B9000908113968C9113978095892380831C963E
:102BA0008C911C97882349F01696ED91FC9117970C
:102BB000908113968C91892B8083F0E1FA95F1F73F
:102BC000CF910895CF92DF92EF92FF920F931F93D0
:102BD000E82FF92F05C0015011092109310961F1D0
:102BE000908196239417B9F305C00150110921096A
:102BF000310911F1908196239413F7CFC12CD12C78
:102C0000E12CF12C0AC08FEFC81AD80AE80AF80A9A
:102C10000C151D052E053F0579F08081862384174C
:102C200091F36C2D7D2D8E2D9F2D1F910F91FF9077
:102C3000EF90DF90CF90089560E070E080E090E04A
:102C40001F910F91FF90EF90DF90CF900895CF9359
:102C5000DF93CDB7DEB761970FB6F894DEBF0FBE36
:102C6000CDBF789484B5826084BD84B5816084BD15
:102C700085B5826085BD85B5816085BD80916E001A
:102C8000816080936E00109281008091810082604B
:102C90008093810080918100816080938100809188
:102CA00080008160809380008091B1008460809377
:102CB000B1008091B00081608093B00080917A0073
:102CC000846080937A0080917A00826080937A0099
:102CD00080917A00816080937A0080917A00806888
:102CE00080937A001092C100E0919802F0919902CD
:102CF00082E08083E0919402F09195021082E0914D
:102D00009602F091970280E180831092A002E091F8
:102D10009C02F0919D0286E08083E0919A02F091FE
:102D20009B02808180618083E0919A02F0919B02F6
:102D3000808188608083E0919A02F0919B0280817B
:102D400080688083E0919A02F0919B0280818F7D60
:102D5000808344E150E067E371E088E892E00E94FC
:102D6000C3050E94B41388E892E00E941F0618165B
:102D7000190614F00C94372088E892E00E94FD05B3
:102D8000992720917B01213079F01CF4222331F026
:102D900049C0223081F0233001F144C08F3F9105BA
:102DA00009F040C081E004C085359105D9F582E085
:102DB00080937B0137C09C01225031092F333105AC
:102DC00078F593E090937B018093840121E030E0DB
:102DD0003093C7012093C60125C02091C6013091D0
:102DE000C701A9014F5F5F4F5093C7014093C601D0
:102DF000F901EC57FE4F80838091840190E08417A5
:102E000095073CF481E090E09093C5018093C40164
:102E100007C04034510534F01092C5011092C4012E
:102E200010927B018091C401813011F00C94372005
:102E3000E0908501F12C8091870110918801C12ECD
:102E4000D12C80908901282C312C909186019430CE
:102E5000A9F5109279011092780180E00E94651323
:102E600089E090E00E9470138AE090E00E94701365
:102E70008BE090E00E9470138DE090E00E94701350
:102E800010926D0110926C0160E070E081E00E9490
:102E9000280D10926F0110926E0160E070E082E0E8
:102EA0000E94280D8FEF90E00E94AF1385E590E01F
:102EB0000E94AF130E94B4130C942F208B3009F49E
:102EC00081C760F5853009F4BEC4A0F4823009F4EE
:102ED0003BC440F4882309F466C0813009F41FC460
:102EE0000C942C20833009F442C4843009F4BDC40E
:102EF0000C942C20883009F497C640F4863009F4ED
:102F000013C5873009F43BC60C942C20893009F492
:102F1000B5C68A3009F426C70C942C20853609F4EE
:102F20004DC0B8F48E3011F40C94981F40F48C30DE
:102F300009F47CC78D3009F4A8C70C942C208F307D
:102F400011F40C94E01F803111F40C941D200C94AA
:102F50002C20883609F414C140F4863609F43CC0AC
:102F6000873609F450C00C942C20883C09F41AC10F
:102F7000893C09F427C1893611F00C942C20C60134
:102F80000E94701383E190E0998B888B8AE999EF16
:102F9000A9E7B4E48C879D87AE87BF87DE011196D1
:102FA000BB87AA8737C299E088E10FB6F894A89545
:102FB000809360000FBE90936000FFCF94E0C91A29
:102FC000D108A2E0CA16D10410F00C943B2080E096
:102FD0000E9465130C943B200E94200F1150123068
:102FE00060F4F601EE0FFF1FEE0FFF1FE85AFE4FD1
:102FF000608171818281938103C060E070E0CB01C8
:103000000E946722CAC083E00E946513C6010E9425
:103010007013133009F47AC048F4113009F473C006
:10302000123009F099C081E01AE072C01C3249F0F8
:103030001D3209F43DC0143009F08EC083E01DE05C
:1030400067C061E08DE00E94610860E08BE00E9453
:10305000610860E08DE00E94310883E090E0019714
:10306000F1F761E08DE00E94310883E290E0019782
:10307000F1F760E08DE00E9431088BE00E94371587
:103080000E94652220E030E048E652E40E94BD2123
:103090006B018C0120E030E046E953E40E941723E5
:1030A00018160CF05EC020E070E086E993E45CC086
:1030B0003C9A3D98449883E090E00197F1F7449A58
:1030C00083E290E00197F1F74498E6E1F1E0859121
:1030D000949100E412E42FE030E040E260E20E94CC
:1030E000E215611571058105910549F0DC01CB01FF
:1030F0000196A11DB11DBC01CD019F70C1CF60E043
:1031000070E0CB01BDCF80E019E002C082E01BE09F
:1031100097B1CC24C394D12C01C0CC0C8A95EAF78A
:10312000892F8C2987B960E0812F0E94610898B1AE
:103130002C2D2095922398B983E090E00197F1F728
:1031400088B1C82AC8B883E290E00197F1F788B146
:10315000822388B9812F92CF20E070E080E090E058
:1031600003C02C2D7D2DC801822E972E5C01C50138
:10317000B4010E9436227A83698343E050E0C8C2DA
:10318000C60102970C9720F4C6010E94CC0003C030
:1031900060E070E0CB010E94652269837A838B83B3
:1031A0009C83B4C2C6010E9470138EEF810F8C30D5
:1031B00008F0F0C060E0812F0E946108812F0E941A
:1031C0000808E9C0912CA12CB12CC60102970C97DC
:1031D00008F0E0C08091580190915901A0915A01E6
:1031E000B0915B010097A105B10589F02FB7F89464
:1031F00040915001509151016091520170915301E1
:103200002FBF481759076A077B0708F04EC7C6014A
:103210000E94CC006739B8E67B07BFEF8B079105AA
:1032200009F494C008F045C06D3DF2E27F07FFEF5E
:103230008F07910509F47EC0C8F46F3E30E1730733
:103240003FEF8307910509F48DC0673EA8E17A0737
:10325000AFEF8A07910509F47FC06D3F72408F4F31
:10326000910509F085C085E090E087C0653BEAE400
:103270007E07EFEF8E07910509F471C048F4673CB3
:1032800078438F4F910509F073C081E190E075C0DC
:10329000653A3AE573073FEF8307910509F465C086
:1032A0006D3972468F4F910509F062C082E090E05F
:1032B00064C06735B8EA7B07BFEF8B07910509F457
:1032C00042C0C8F46736F8E97F07FFEF8F07910522
:1032D00009F43FC06D3522EA72072FEF820791058E
:1032E00009F449C06F3670498F4F910509F040C00D
:1032F00089E090E042C06D33A2EC7A07AFEF8A0715
:103300009105D9F040F46F34704B8F4F910581F5E2
:103310008CE090E032C06F31F0EE7F07FFEF8F0757
:10332000910571F06D31724E8F4F910509F583E073
:1033300090E023C084E090E020C086E090E01DC0D3
:1033400087E090E01AC088E090E017C08BE090E042
:1033500014C080E090E011C08DE090E00EC08EE0DF
:1033600090E00BC08FE090E008C080E190E005C0E5
:103370008FEF9FEF02C081E090E0092E000CAA0BB6
:10338000BB0B21E088159905AA05BB0509F020E0D3
:10339000822F01C080E0898341E050E0B9C10E94E2
:1033A0000709DC01CB0184199509A609B709883EF4
:1033B0009340A105B10558F031E0831A9108A108A6
:1033C000B10888EE480E83E0581E611C711C811400
:1033D0009104A104B10419F761E0812F0E94310822
:1033E0008BE990E00197F1F760E0812F0E9461087E
:1033F00041E1C42E47E2D42E812F0E940808892B78
:1034000049F5F1E0CF1AD108B9F78EEF9FEF892B7C
:1034100009F45AC1A889B9891197B98BA88BAB2B2C
:1034200009F46CC1EA85FB8525E011922A95E9F73C
:1034300061E0812F0E94610860E0812F0E943108C5
:103440000E9407092B013C0154E1852E912CA12CEF
:10345000B12CA5CF31E1C32E37E2D32E812F0E94AC
:103460000808019729F421E0C21AD108B9F7CDCF95
:1034700028E2C22ED12C07E0B12C91E1892E97E2EF
:10348000992E812F0E940808892B29F431E0831A94
:103490009108B9F7BACF0E9407092B013C0181E1DD
:1034A000882E87E2982E812F0E940808019729F420
:1034B00081E0881A9108B9F7A8CF0E940709DC01BA
:1034C000CB0184199509A609B7098997A105B1050A
:1034D00080F0E1E0F0E0EC0FFD1FEB0DF11D20812D
:1034E00081E090E0002E01C0880F0A94EAF7822B59
:1034F0008083011103C0B39407E001C0015091E043
:10350000C91AD10809F0B9CFC980BA806B2D70E013
:10351000AAE0CA9E600D711D1124072E000C880BB5
:10352000990B0E9467222B013C0160937C017093F0
:103530007D0180937E0190937F010C81DB8007FFEA
:103540000AC026EF3D2D2303B0011124802F8F7771
:10355000681B710907C0602F70E08AE0D89E600D7B
:10356000711D1124072E000C880B990B0E946722F5
:103570006093800170938101809382019093830115
:1035800020E030E84DE654E4C301B2010E94172365
:10359000181664F480E090E8ADE6B4E480937C0112
:1035A00090937D01A0937E01B0937F0120E030E0F5
:1035B00048E452E460917C0170917D0180917E012C
:1035C00090917F010E94B82187FF0CC080E090E0BD
:1035D000A8E4B2E480937C0190937D01A0937E01E6
:1035E000B0937F0120E030E046E154E46091800137
:1035F0007091810180918201909183010E94172333
:10360000181664F480E090E0A6E1B4E480938001B1
:1036100090938101A0938201B093830120E030E078
:1036200048E453EC609180017091810180918201A6
:10363000909183010E94B82187FF0CC080E090E048
:10364000A8E4B3EC8093800190938101A093820160
:10365000B093830120E030E040E251E460918001CA
:103660007091810180918201909183010E94BD211E
:103670006093800170938101809382019093830114
:1036800020E030E040E251E460917C0170917D01E6
:1036900080917E0190917F010E94BD2160937C0109
:1036A00070937D0180937E0190937F01CB0C0C0D74
:1036B0000D0D81E090E02D81201302C080E090E0AC
:1036C000919581959109A3CE91E02916310449F491
:1036D00080917C0190917D01A0917E01B0917F014C
:1036E00008C08091800190918101A0918201B091E8
:1036F00083018C879D87AE87BF878CCE8C859D8507
:10370000AE85BF8589839A83AB83BC8345E050E057
:10371000BE016F5F7F4FC7010E948D12A0C48091D0
:103720008A019FEF910F923060F4F601EE0FFF1FB8
:10373000E659FE4F11821082B101782B812F0E9431
:10374000280D81E090E089C40E94200F11501230B2
:1037500058F4F601EE0FFF1FEE0FFF1FE85AFE4F61
:10376000108211821282138282E090E076C4E0908F
:103770008A0100918B01F0908C01112309F460C043
:1037800013300CF05DC00E94200F8FEF810F082EC8
:10379000000C990BFC01EE0FFF1FDF01A459BE4F77
:1037A0002D913C911197223031052CF021E030E031
:1037B00011963C932E93E459FE4F20813181880F5E
:1037C000991F880F991F21303105A1F0DC01AC59F8
:1037D000BE4F1D921D921D921C921397DC01A45A9C
:1037E000BE4F1D921D921D921C921397A1E0B0E056
:1037F000B183A0833E28402F50E05F29052E000CA6
:10380000660B770BFC01EC59FE4FC080D180E28043
:10381000F38037FC05C04C0D5D1D6E1D7F1D08C07B
:10382000D701C601841B950BA60BB70BAC01BD01DC
:103830004083518362837383B101812F0E94280DDD
:1038400083E090E00AC4C6010E9470138EEF810FDE
:103850008C3040F461E0812F0E946108682D812F37
:103860000E94310885E090E0F8C3E0908A01009161
:103870008B01F0908C01C6010E9470138EEF810FB6
:103880008C3008F04EC03E2861E0812F0E94610814
:103890002114310429F1910140E050E060E472E428
:1038A0008FE090E00E94E82049015A01202F30E08B
:1038B0003F29A8EEB3E00E943C212B013C0174019A
:1038C00097FE03C09FEFE91AF90A17013594279470
:1038D000092C000CAA08BB0880E090E0DC0105C0C0
:1038E00060E0812F0E9431081CC06C017D01C80C72
:1038F000D91CEA1CFB1C84159505A605B70588F4A0
:1039000061E0812F0E943108C1010E94FC0860E043
:10391000812F0E943108C1010E94FC08D701C60115
:10392000E4CF84E090E099C380918A01382A87EF40
:10393000810F853008F020C1D60119976D01BEEFC7
:103940002B16BFEF3B06E9F4C601880F991F9C01B7
:103950002C0D3D1DF901EC5DFB4FE081F0E09F0176
:10396000220F331FE20FF31FEF5CFC4F20812F7BF0
:103970002083FC01E050FF4F2FEF3FEF3183208386
:10398000FBC07601EE0CFF1CF701E050FF4F808179
:1039900091818215930509F4EFC0019609F063C087
:1039A000C7018C0D9D1D9C012C5D3B4F5901D90118
:1039B0008C918C3008F08AC361E0812F0E946108ED
:1039C000F5018081E82FF0E09F01220F331FE20F05
:1039D000F31FEF5CFC4F1F739081907C192B1083B9
:1039E000D50111961C92119712961C926CE00E94C0
:1039F0009923BCE08B9FA001112420E030E0B901A5
:103A0000640F751FFB01EE0FFF1FE60FF71FEF5C42
:103A1000FC4F908196FD16C02F5F3F4F2C30310533
:103A200071F781110FC01092800082E080938100B5
:103A30001092850010928400B19A80916F0082608C
:103A400080936F00F701EC0DFD1DEC5DFB4FE081F5
:103A5000F0E0CF01880F991FE80FF91FEF5CFC4FD2
:103A6000808180648083E0E22E16E2E03E060CF066
:103A700044C037FC06C0F5EB2F16310424F4D10105
:103A800004C0A0E001C0A4EBB0E0F701EC0DFD1D07
:103A9000EC5DFB4F818128E830E04901881A9108EC
:103AA00087FD9394880C991C880C991C092C000C98
:103AB000AA08BB08828128E532E0281B310987FD6E
:103AC0003395220F331F220F331FA901330F660BCB
:103AD000770B9A01AB01281939094A095B090E9441
:103AE000122124EB30E040E050E00E94E820820EFA
:103AF000931EA41EB51E940101C09101C7018C0D37
:103B00009D1DFC01EC5DFB4F40814C3080F55181E7
:103B100088E890E0851B910957FD9395880F991FC0
:103B2000880F991F2817390784F0828168E572E0B1
:103B3000681B710987FD7395660F771F660F771FE6
:103B4000C901621773070CF4CB010297880F991F04
:103B50005FB7F894242F30E0F901EE0FFF1F2E0F0E
:103B60003F1FF901EF5CFC4F928381835FBFF70138
:103B7000E050FF4F3182208286E090E06EC2C601A5
:103B80000E947013C0908A01D12CDC2CCC2480912F
:103B90008901C82A0D2C000CEE08FF08183020F40B
:103BA0008BE08093100106C01E3030F485E08093D6
:103BB0001001185010930F011092700061E08BE01B
:103BC0000E94610860E08BE00E9431088AE18093E6
:103BD0000E0188E293E20E94671484E991E10E9459
:103BE000551400E210E080E392E0F7FE05C00E9469
:103BF000671480E496E004C00E94671480E392E0BA
:103C00000E945514CC0CDD1CEE1CFF1C0150110948
:103C100051F780E392E00E94671480E090E00E94F8
:103C2000551487E090E019C282E00E9465138FEF7F
:103C30009FEF9F838E839A838983AE014F5F5F4F8F
:103C4000BE016A5F7F4FC6010E94BC136E817F81F7
:103C500089819A8120917801211102C00E94FE1071
:103C6000482D403108F04FE0406E6E817F818981A0
:103C70009A810E94B61088E090E0EFC1E0908A013E
:103C800082E00E9465138FEF9FEF9F838E839A835C
:103C90008983AE014F5F5F4FBE016A5F7F4FC601F0
:103CA0000E94BC136E817F8189819A812091780165
:103CB000211102C00E94FE10F12C6E807F8049808D
:103CC0005A8029E0221631040CF049C039E0E3168D
:103CD000F1040CF044C02114310419F081E0281AD9
:103CE0003108E114F10419F091E0E91AF108C12C4E
:103CF000D12CA12CB12C11E01C0DC6018219930905
:103D0000DC01AC57BE4F4D0121E02A0DC214D30493
:103D10001CF0AE14BF0414F400E00EC0D4011796DA
:103D20008C9190E0A5014E195F0902C09595879589
:103D30004A95E2F7082F0170412FB301C2010E949A
:103D40002510BFEFAB1ABB0AE8E0AE16B104E1F6EE
:103D5000FFEFCF1ADF0A28E0C216D10451F689E03E
:103D600090E07BC110918A0100918B0182E00E945A
:103D700065138FEF9FEF9F838E839A838983AE01B4
:103D80004F5F5F4FBE016A5F7F4FC6010E94BC1349
:103D90006E817F8189819A8120917801211102C0F1
:103DA0000E94FE106E817F8189819A81B8E0B815EA
:103DB00030F0193020F4212F482D0E9425108AE080
:103DC00090E04BC181E00E946513C6010E94201261
:103DD0000FEF1FEF198708871F830E83AE014A5F1D
:103DE0005F4FBE01685F7F4FC6010E94BC1388858C
:103DF00099852E813F811A83098337FF05C08FEF94
:103E00009FEF9C838B8306C097FDF9CF3C832B8368
:103E10009A838983E8E02E16310428F4B101CE019B
:103E200001960E9433148BE090E017C181E00E945C
:103E30006513C6010E9420120FEF1FEF1987088734
:103E40001F830E83AE014A5F5F4FBE01685F7F4FE5
:103E5000C6010E94BC13888599852E813F811A83F3
:103E6000098337FF05C08FEF9FEF9C838B8306C0CC
:103E700097FDF9CF3C832B839A838983CE010196EA
:103E80000E94FC118CE090E0E8C080918A01382A01
:103E900081E00E946513C6010E9420120FEF1FEF00
:103EA000198708871F830E83AE014A5F5F4FBE01EB
:103EB000685F7F4FC6010E94BC13888599852E815B
:103EC0003F811A83098337FF05C08FEF9FEF9C83E3
:103ED0008B8306C097FDF9CF3C832B839A8389831C
:103EE00000E010E03AE0E32EF12C43E0D42E211460
:103EF000310419F40115110539F4C101B7010E940B
:103F0000A52340E3480F01C040E2C101B7010E9470
:103F1000A5231B016D2D601BCE0101960E94E111AE
:103F20000F5F1F4F0430110511F78DE090E095C031
:103F300081E00E94651311E0232809F410E0C60116
:103F40000E942012EE24EA94FE2CF986E886FF8275
:103F5000EE82AE014A5F5F4FBE01685F7F4FC601D0
:103F60000E94BC13888599852E813F81FA82E9825F
:103F700037FF05C08FEF9FEF9C838B8306C097FDB3
:103F8000F9CF3C832B839A838983412F50E0569548
:103F9000542F442757954795809172019091730152
:103FA0008F779927482B592B5093730140937201B7
:103FB00065E3CE0101960E9493118EE090E04DC022
:103FC00081E00E94651300918A01109189010A30F5
:103FD00088F5112379F115306CF5C6010E94201285
:103FE000EE24EA94FE2CF986E886FF82EE82AE018A
:103FF0004A5F5F4FBE01685F7F4FC6010E94BC13DE
:10400000888599852E813F81FA82E982FC82EB8244
:1040100037FD06C097FD04C03C832B839A838983B8
:1040200040E3400F6FEF610F643024F4CE0101963E
:104030000E94E1118FE090E010C08EEF810F8C3074
:1040400040F461E0812F0E946108682D812F0E9459
:10405000310880E190E001C090E00E94531310927B
:10406000C7011092C6011092C5011092C4010E94AE
:10407000BF060C94B316183098F4106410937C00AB
:1040800080917A00806480937A0080917A0086FD26
:10409000FCCF809178002091790090E0922B02C0B3
:1040A00080E090E09A83898368C81092580110924A
:1040B000590110925A0110925B0110925401109212
:1040C00055011092560110925701A1C8F0E22F1627
:1040D000F2E03F060CF4CDCC4ACD10928B02109248
:1040E0008A0288EE93E0A0E0B0E080938C02909387
:1040F0008D02A0938E02B0938F0227E131E03093BE
:1041000089022093880225EC30E0309395022093B9
:10411000940224EC30E0309397022093960220EC36
:1041200030E0309399022093980221EC30E03093F4
:104130009B0220939A0222EC30E030939D02209360
:104140009C0226EC30E030939F0220939E02109256
:10415000A1021092A2021092A3021092A402109245
:104160002803109227038093290390932A03A09396
:104170002B03B0932C0389E291E090932603809364
:10418000250380911101809356031092580380916A
:104190005503A4E2B4E09FEF48EB5BE08C3078F489
:1041A0008C93282F30E0F901EE0FFF1F2E0F3F1FD9
:1041B000F901EF5CFC4F528341838F5F01C09C93F8
:1041C000139624E0A033B20749F78093550308956E
:1041D000052E97FB1EF400940E94FF2057FD07D088
:1041E0000E941A2107FC03D04EF40C94FF20509536
:1041F0004095309521953F4F4F4F5F4F08959095D3
:104200008095709561957F4F8F4F9F4F08950E94C5
:104210003C21A59F900DB49F900DA49F800D911DF2
:1042200011240895B7FF0C9407210E940721821BD7
:10423000930B0895A1E21A2EAA1BBB1BFD010DC012
:10424000AA1FBB1FEE1FFF1FA217B307E407F50746
:1042500020F0A21BB30BE40BF50B661F771F881F22
:10426000991F1A9469F760957095809590959B01B8
:10427000AC01BD01CF010895A29FB001B39FC00161
:10428000A39F700D811D1124911DB29F700D811D82
:104290001124911D08955058BB27AA270E9463211D
:1042A0000C94DD220E94CF2238F00E94D62220F00A
:1042B00039F49F3F19F426F40C94CC220EF4E095C7
:1042C000E7FB0C94C622E92F0E94EE2258F3BA179E
:1042D000620773078407950720F079F4A6F50C941C
:1042E00010230EF4E0950B2EBA2FA02D0B01B9016F
:1042F00090010C01CA01A0011124FF27591B99F05C
:10430000593F50F4503E68F11A16F040A22F232F67
:10431000342F4427585FF3CF469537952795A795B7
:10432000F0405395C9F77EF41F16BA0B620B730B5E
:10433000840BBAF09150A1F0FF0FBB1F661F771FCF
:10434000881FC2F70EC0BA0F621F731F841F48F484
:10435000879577956795B795F7959E3F08F0B0CF0D
:104360009395880F08F09927EE0F979587950895F4
:104370000E94A22208F481E008950E94D1210C94A9
:10438000DD220E94D62258F00E94CF2240F029F46C
:104390005F3F29F00C94C62251110C9411230C9408
:1043A000CC220E94EE2268F39923B1F3552391F3B6
:1043B000951B550BBB27AA2762177307840738F094
:1043C0009F5F5F4F220F331F441FAA1FA9F335D0F1
:1043D0000E2E3AF0E0E832D091505040E695001CA5
:1043E000CAF72BD0FE2F29D0660F771F881FBB1F5F
:1043F000261737074807AB07B0E809F0BB0B802D3D
:10440000BF01FF2793585F4F3AF09E3F510578F068
:104410000C94C6220C9411235F3FE4F3983ED4F32E
:10442000869577956795B795F7959F5FC9F7880F3C
:10443000911D9695879597F90895E1E0660F771F8E
:10444000881FBB1F621773078407BA0720F0621B1F
:10445000730B840BBA0BEE1F88F7E09508950E944A
:1044600036226894B1110C94112308950E94F6220B
:1044700088F09F5798F0B92F9927B751B0F0E1F025
:10448000660F771F881F991F1AF0BA95C9F714C0D5
:10449000B13091F00E941023B1E008950C941023E4
:1044A000672F782F8827B85F39F0B93FCCF386950E
:1044B00077956795B395D9F73EF49095809570956B
:1044C00061957F4F8F4F9F4F0895E89409C097FBE8
:1044D0003EF490958095709561957F4F8F4F9F4FDB
:1044E0009923A9F0F92F96E9BB279395F69587951F
:1044F00077956795B795F111F8CFFAF4BB0F11F4E2
:1045000060FF1BC06F5F7F4F8F4F9F4F16C0882388
:1045100011F096E911C0772321F09EE8872F762FBE
:1045200005C0662371F096E8862F70E060E02AF0FF
:104530009A95660F771F881FDAF7880F96958795EB
:1045400097F90895990F0008550FAA0BE0E8FEEFC0
:1045500016161706E807F907C0F012161306E40747
:10456000F50798F0621B730B840B950B39F40A2640
:1045700061F0232B242B252B21F408950A2609F41E
:10458000A140A6958FEF811D811D089597F99F6722
:1045900080E870E060E008959FEF80EC08950024CB
:1045A0000A941616170618060906089500240A9498
:1045B00012161306140605060895092E0394000C1E
:1045C00011F4882352F0BB0F40F4BF2B11F460FFAD
:1045D00004C06F5F7F4F8F4F9F4F089557FD9058D6
:1045E000440F551F59F05F3F71F04795880F97FBB7
:1045F000991F61F09F3F79F0879508951216130671
:104600001406551FF2CF4695F1DF08C0161617069F
:104610001806991FF1CF86957105610508940895D4
:10462000E894BB2766277727CB0197F908950E9466
:10463000A22208F48FEF08950E942F230C94DD220C
:104640000E94CF2238F00E94D62220F0952311F04C
:104650000C94C6220C94CC2211240C9411230E9499
:10466000EE2270F3959FC1F3950F50E0551F629FA6
:10467000F001729FBB27F00DB11D639FAA27F00DBB
:10468000B11DAA1F649F6627B00DA11D661F829FE2
:104690002227B00DA11D621F739FB00DA11D621FC7
:1046A000839FA00D611D221F749F3327A00D611DE4
:1046B000231F849F600D211D822F762F6A2F1124C6
:1046C0009F5750409AF0F1F088234AF0EE0FFF1FF9
:1046D000BB1F661F771F881F91505040A9F79E3F50
:1046E000510580F00C94C6220C9411235F3FE4F333
:1046F000983ED4F3869577956795B795F795E795A6
:104700009F5FC1F7FE2B880F911D9695879597F9AE
:104710000895DB018F939F930E940721BF91AF9172
:10472000A29F800D911DA39F900DB29F900D11240B
:104730000895991B79E004C0991F961708F0961BFD
:10474000881F7A95C9F78095089597FB072E16F470
:10475000009407D077FD09D00E94F02307FC05D014
:104760003EF4909581959F4F0895709561957F4F88
:1047700008950F93083090F0982F872F762F652F8C
:10478000542F432F322F22270850F4CF220F331FEC
:10479000441F551F661F771F881F991F0A95B2F780
:1047A0000F91089597FB10F8169400080F930830A6
:1047B00098F00850232F342F452F562F672F782F2E
:1047C000892F902DF4CF05949795879577956795C8
:1047D00057954795379527950A95AAF70F9108950C
:1047E000AA1BBB1B51E107C0AA1FBB1FA617B70717
:1047F00010F0A61BB70B881F991F5A95A9F7809533
:104800009095BC01CD010895EE0FFF1F0590F49126
:10481000E02D099481E090E0F8940C940F24F89432
:02482000FFCFC8
:10482200FFFFFFFFFFFFFFFFFFFFF206F2061A0383
:104832000BFFFF000000005606C305EE059D061F94
:1048420006FD051106000000007B074B07AB07259C
:104852000743073407260756657273696F6E3A314C
:104862002E302D3230313830363236000D0A00000B
:00000001FF
