:100000000C94A2000C9401120C94DA110C94CA0006
:100010000C94CA000C94CA000C94CA000C941E08DC
:100020000C94CA000C94CA000C94CA000C94561389
:100030000C94CA000C94CA000C94CA000C94CA0018
:100040000C9490110C94CA000C94F40F0C94CE0FE5
:100050000C94CA000C94CA000C94CA000C94CA00F8
:100060000C9428120C94CA0000000000000000004C
:100070000000000000000000000000000000000080
:1000800000000000000000000082210000000002CB
:10009000390F0000004080003F065B4F666D7D0712
:1000A0007F6F00000048005300777C395E79716FE4
:1000B00076061E003800543F7367506D783E00008E
:1000C000006E0039000F0008635F7C585E7B716F23
:1000D00074021E000600545C7367506D781C0000AB
:1000E000006E0039300F00000000000024002700DF
:1000F0002A0000000000250028002B000000000856
:1001000000020100000304070000000000000000DE
:100110000000000023002600290004040404040455
:1001200004040202020202020303030303030102A6
:100130000408102040800102040810200102040875
:100140001020412D11241FBECFEFD8E0DEBFCDBF60
:1001500011E0A0E0B1E0E0E9F2E602C005900D9206
:10016000A035B107D9F724E0A0E5B1E001C01D92A8
:10017000A73EB207E1F710E0C2EAD0E004C0219741
:10018000FE010E943B31C13AD107C9F70E94B21B60
:100190000C9446310C9400002F923F924F925F9244
:1001A0006F927F928F929F92AF92BF92CF92DF9287
:1001B000EF92FF920F931F93CF93DF93CDB7DEB7EC
:1001C00064970FB6F894DEBF0FBECDBF809050018C
:1001D00090905101A0905201B090530120911101D3
:1001E000309112012817390771F0F8949093120199
:1001F00080931101809396037894809111019091DE
:10020000120197FFEFC18AE993E09C878B87809169
:10021000620490E09E878D8780919703853009F076
:1002200084C480919C0390919D03885891098D35D9
:10023000910588F480916204843041F480919E039A
:1002400090919F038097479708F4FFC180916204C3
:10025000843408F0E1C1809162048A31D8F1809140
:100260009A0390919B03843F914018F41A86198653
:100270004BC080919C0390919D0385974B9750F5BF
:10028000E0EAF3E082E090E040E050E0BA01209143
:10029000620430E0DC011196A217B30754F4DF01C9
:1002A00012972D913C91275031092730310508F4E0
:1002B00001C20197959587959A8789870C971CF4B9
:1002C0001A86198607C04D835E836F83788782E024
:1002D00090E074C3809162048A3108F441C0809137
:1002E0009A0390919B038032934008F4BFCF809192
:1002F0009C0390919D03C697869708F4F7C130C080
:100300004D835E836F83788789E090E057C32081B7
:100310003181255231092B31310508F0F7C1440FE5
:10032000551F661F771F4160029634962091620424
:1003300030E0DC011196A217B3074CF4DF011297ED
:100340002D913C912C5031092B30310500F3019750
:10035000959587959A8789870C9794F61A861986BA
:1003600080916204823208F444C080919C03909191
:100370009D0306970797E8F5E0EAF3E082E090E056
:10038000412C512C32019C012F5F3F4F4091620460
:1003900050E024173507E4F4DF0112974D915C918A
:1003A00011974E5151094731510508F0BCC1440C19
:1003B000551C661C771C689440F840815181349626
:1003C000435051094530510510F40296DCCFC90164
:1003D0000197959587959A87898740971CF41A8687
:1003E000198607C04D825E826F8278868AE090E02F
:1003F000E5C2809162048D3038F48D859E85181693
:1004000019060CF48AC094C081E090E09A8B898B25
:10041000188A1F8629E733E0AE01415F5F4FBE01B6
:100420006F5E7F4FCE0101960E94231A892B21F027
:1004300080E090E0DC016BC029E733E0AE01415F72
:100440005F4FBE016F5E7F4FCE0101960E94231A5F
:10045000019771F729E733E0AE01415F5F4FBE01BD
:100460006F5E7F4FCE0101960E94231A892B01F700
:1004700000E010E0412C512C32018091620490E0A8
:1004800029893A8928173907A4F529E733E0AE010D
:10049000415F5F4FBE016F5E7F4FCE0101960E94AC
:1004A000231A7C0129E733E0AE01415F5F4FBE01B3
:1004B0006F5E7F4FCE0101960E94231AA1E0EA16DB
:1004C000F10451F4892B09F0B3CF440C551C661C80
:1004D000771C689440F80AC0EF2809F0A9CF01976B
:1004E00009F0A6CF440C551C661C771C0F5F1F4FEC
:1004F000C4CF1A8709874D825E826F82788683E037
:1005000090E09A83898381E090E0A0E0B0E0892BBD
:100510008A2B8B2B09F054C270CF81E090E09A8B2C
:10052000898BEB85FC858281938189974E9720F09A
:1005300080E090E0DC0148C082E090E09A8B898BFB
:10054000848195810B970A9798F783E090E09A8BC6
:10055000898B188A1F862CEB31E0AE01415F5F4F1B
:10056000BE016F5E7F4FCE0101967C010E94231A6F
:10057000892BF1F62CEB31E0AE01415F5F4FBE01FC
:100580006F5E7F4FC7010E94231A019789F600E032
:1005900010E0212C312C2101DE2CCF2C29893A8925
:1005A0008D859E85281739070CF4CAC01A870987DC
:1005B0002D823E824F82588684E090E09A83898320
:1005C00081E090E0A0E0B0E0892B8A2B8B2B09F032
:1005D000F7C1EB85FC8582819381C697869708F4E5
:1005E00010C166C180939603F89482E08093B000B6
:1005F0008093B10094E69093B3001092B200809380
:10060000700078948093970310926204809196030F
:1006100060E00E947F10F7CD80919E0390919F0330
:10062000825491098E9708F016CE20E030E080E0E9
:1006300090E0DC01F901E056FC4F408151814950C6
:1006400051094930510560F006CE8091A003909188
:10065000A1030997099708F0F9CD1A861986EEC10A
:10066000F901EE55FC4F408151814651510941310C
:10067000510598F4880F991FAA1FBB1F81602C5F3A
:100680003F4F20383105B1F620E230E03A87298724
:100690008D839E83AF83B887D1C1408151814650FD
:1006A00051094730510508F0D6CD880F991FAA1F70
:1006B000BB1FE5CF20813181235131092F30310516
:1006C00040F4440F551F661F771F41600296349611
:1006D000DECD208131812A5031092930310508F0E1
:1006E000F9CD440F551F661F771FF0CF80919E03F1
:1006F00090919F03C697869708F032CEE2EAF3E026
:1007000083E090E040E050E0BA0110CE20813181DA
:100710002C5031092A30310508F022CE440F551FE4
:10072000661F771F01CE4D915C914C5051094B30A3
:10073000510508F05ECE440C551C661C771C3DCE5E
:100740002CEB31E0AE01415F5F4FBE016F5E7F4F2A
:100750008D2D9C2D0E94231A3C010330110589F038
:100760002CEB31E0AE01415F5F4FBE016F5E7F4F0A
:100770008D2D9C2D0E94231A7C010330110509F553
:1007800010C02CEB31E0AE01415F5F4FBE016F5EE8
:100790007F4F8D2D9C2D0E94231A6816790601F338
:1007A000C7CE2CEB31E0AE01415F5F4FBE016F5E03
:1007B0007F4F8D2D9C2D0E94231AE816F90609F013
:1007C000B7CE6114710479F4EA94EF2809F0B0CE41
:1007D000D201C101880F991FAA1FBB1F1C012D0147
:1007E000689420F80BC06A94672809F0A1CEEF281E
:1007F00009F09ECE220C331C441C551C0F5F1F4F6A
:10080000CDCE848195814B97459708F051C07F01EB
:1008100096E0E90EF11C3F01A6EC6A0E711C20E087
:1008200030E000E010E060E070E080E090E0D701B0
:100830004D915C914950510948305105C8F5D70197
:1008400012964D915C911397415151094D305105CC
:1008500030F4A80101E00E94F03021600EC0D70101
:1008600012964D915C9113974450510945305105B2
:10087000F8F4A80101E00E94F0308A01B4E0EB0E28
:10088000F11CE614F70499F6F901A8012D83FE8303
:100890000F83588700E20E940B312B833C8387E053
:1008A00090E09A83898380E390E09A87898788C063
:1008B00080916204823231F4828193810A97099790
:1008C00008F4C2C0828193818957910983359105CB
:1008D00008F4CCC02D843E84B6E02B1631040CF411
:1008E000A7C0CF0106969C8B8B8B75EC872E7DE97C
:1008F000972E7CE1A72E71E8B72E03E010E0AB89BC
:10090000BC896D917C911197FD0134976080718055
:1009100080E090E00E94412F6B017C01B30180E0F8
:1009200090E00E94412F2B013C012DEC3CEC4CE46B
:100930005FE30E94F82F9B01AC01C701B6010E9442
:10094000942E87FD7EC02DEC3CEC4CE45FE3C701A8
:10095000B6010E94F82F9B01AC01C301B2010E94B5
:10096000942EE82F880FFF0BEE27FF0FEE1FFF27B7
:100970003196A501940163E971E080E091E00E9465
:10098000C0304F01FF0FAA08BB0886269726A8266D
:10099000B9260F5F1F4FEB89FC893296FC8BEB8BDE
:1009A0000215130509F0ABCF8D829E82AF82B88607
:1009B00080E290E09A8789878FEF9FEF9A838983FF
:1009C00089819A8190930901809308018D809E808E
:1009D000AF80B884BFEF8B169B06AB06BB0649F40D
:1009E0008090DE019090DF01A090E001B090E101E5
:1009F00010C08092500190925101A0925201B09289
:100A000053018092DE019092DF01A092E001B0924A
:100A1000E1010E948411DC01CB014E96A11DB11DA4
:100A20008093540190935501A0935601B0935701C0
:100A300082E0809397031092620477C081E090E097
:100A4000BDCFE0E0F0E095CF20916204CF01820FAE
:100A5000911D820F911DDC0112978D919C910A9737
:100A6000099708F02FCF1A8619865CC0809162041E
:100A7000813208F42FCF84819581CA97899708F035
:100A800029CF9F012A5F3F4FC12CD12C760143E033
:100A900050E0D9016D917C916A50710969307105FE
:100AA00008F018CFD90112966D917C911397665179
:100AB00071096131710530F5D701C601880F991FA1
:100AC000AA1FBB1F6C017D016894C0F84E5F5F4F89
:100AD0002C5F3F4F43325105E1F69F012A5B3F4FA8
:100AE000D9012D913C912A5031092930310508F066
:100AF000F1CE20E130E03A872987CD82DE82EF8295
:100B0000F88610C0D90112966D917C9113976650AA
:100B100071096730710508F0DDCECC0CDD1CEE1CD0
:100B2000FF1CD4CF88E090E049CFC501B4016496A2
:100B30000FB6F894DEBF0FBECDBFDF91CF911F91EE
:100B40000F91FF90EF90DF90CF90BF90AF909F906C
:100B50008F907F906F905F904F903F902F9008956F
:100B6000CF93DF93EC016C8164606C830E943E152F
:100B700083E090E00197F1F76C816B7F6C83CE018D
:100B8000DF91CF910C943E1598B121E030E001C087
:100B9000220F8A95EAF72095292328B90895FC01A8
:100BA0008FEF9FEF918380839383828388E0848398
:100BB00077FD06C057FD04C0738362835183408371
:100BC00015820895DB01FA018C32910539F08E9778
:100BD00061F41D921C9281E090E00BC08BE090E0EC
:100BE0008D939C938DE090E004C08FEF9FEF8D93E9
:100BF0009C93918380830895EF92FF920F931F93AC
:100C0000CF93DF931F92CDB7DEB7282F7B016436D9
:100C1000710544F46D397F4F44F48DE9E82EFF24CB
:100C2000FA9403C093E6E92EF12CA701F7FE04C065
:100C3000442755274E195F093FEF349FC001359F68
:100C4000900D112464E670E00E94DC308B018091ED
:100C5000FE0181110DC081E08093FE0161E088E01A
:100C600029830E947F1061E08CE00E947F1029811F
:100C7000213019F02230B9F034C08091FF019091F9
:100C800000028E159F0569F1F0920002E092FF01CB
:100C9000F7FC02C061E001C060E088E00E944F10F4
:100CA000B80185E015C080910102909102028E1575
:100CB0009F05B9F0F0920202E0920102F7FC02C037
:100CC00060E001C061E08CE00E944F10B80186E056
:100CD0000F90DF91CF911F910F91FF90EF900C94A7
:100CE000BB100F90DF91CF911F910F91FF90EF906C
:100CF0000895CF92DF92EF92FF920F931F93CF93BD
:100D0000C82F2FEF280F30E0F901EE0FFF1FE85931
:100D1000FE4F80819181019709F0FBC0220F331FA4
:100D2000220F331FA901485A5E4FDA01CD90DD90A2
:100D3000ED90FC90F901E05AFE4F80819181A281F3
:100D4000B3810997A109B109C816D906EA06FB06BD
:100D5000ECF0DA014D915D916D917C9180819181F2
:100D6000A281B3810996A11DB11D84179507A6071D
:100D7000B70764F060E070E08C2FCF911F910F9166
:100D8000FF90EF90DF90CF900C94FC05F901E85AAA
:100D9000FE4FC080D180E280F380D901A05ABE4FBF
:100DA0004D915D916D917C91139749505109610965
:100DB0007109C416D506E606F70694F44D915D91C7
:100DC0006D917C911397C080D180E280F380415374
:100DD000510961097109C416D506E606F70664F5DE
:100DE000D901A85ABE4FCD90DD90ED90FC9013979D
:100DF000F901E05AFE4F4081518162817381475F62
:100E00005F4F6F4F7F4F4C155D056E057F050CF0F2
:100E100080C040815181628173810D911D912D911E
:100E20003C9113974F5C5F4F6F4F7F4F40175107B7
:100E300062077307B4F56DC04D915D916D917C9122
:100E400013970081118122813381401B510B620B6A
:100E5000730B77FF0AC040815181628173818D914C
:100E60009D910D90BC91A02D08C04D915D916D910B
:100E70007C9180819181A281B3819A01AB01281B71
:100E8000390B4A0B5B0BA9E1B0E00E94E32D29E28C
:100E900030E040E050E00E94C42DB9016B5F7F4F0D
:100EA0006BCF40815181628173810D911D912D9194
:100EB0003C911397401B510B620B730B77FF09C0DA
:100EC0004D915D916D917C9180819181A281B381E1
:100ED00009C040815181628173818D919D910D90F6
:100EE000BC91A02D9A01AB01281B390B4A0B5B0B5F
:100EF000A9E1B0E00E94E32D29E230E040E050E0BB
:100F00000E94C42D2B5F3F4F66277727621B730B10
:100F100033CFCF911F910F91FF90EF90DF90CF9043
:100F2000089599B129B130E084E0359527958A95E7
:100F3000E1F7892F90E0959587959595879582277C
:100F4000932780FF0CC08091580190915901A09186
:100F50005A01B0915B010196A11DB11D0BC080919A
:100F6000580190915901A0915A01B0915B010197EC
:100F7000A109B1098093580190935901A0935A0196
:100F8000B0935B0181E00C94790699B189B193FB30
:100F9000222720F930E0881F8827881F90E0281733
:100FA000390761F080915C0190915D01A0915E0133
:100FB000B0915F010197A109B1090BC080915C015B
:100FC00090915D01A0915E01B0915F010196A11D1C
:100FD000B11D80935C0190935D01A0935E01B0937D
:100FE0005F0182E00C9479068091FD01811125C09A
:100FF00081E08093FD0162E082E00E947F1062E068
:1010000083E00E947F1081E997E090930B01809329
:101010000A01809169008C7F816080936900E89A61
:1010200085EC97E090930D0180930C01809169000D
:10103000837F846080936900E99A08951F920F92DC
:101040000FB60F9211240F931F932F933F934F933B
:101050005F936F937F938F939F93AF93BF93CF9340
:10106000EF93FF93809196030E942610C82F8091E2
:101070009803909199030196909399038093980314
:1010800080916204843618F085E0809397039091F4
:101090009703933021F118F4923039F08DC09430D9
:1010A000D1F1953009F465C087C0C11185C0109297
:1010B00062041092990310929803E091620481E017
:1010C0008E0F80936204F0E08091980390919903D1
:1010D000EE0FFF1FE656FC4F9183808333C0C13073
:1010E00009F06AC0E091620481E08E0F809362048F
:1010F000F0E08091980390919903EE0FFF1FE65660
:10110000FC4F91838083109299031092980384E09E
:101110008093970351C0C11117C0E091620481E030
:101120008E0F80936204F0E0809198039091990370
:10113000EE0FFF1FE656FC4F9183808310929903B8
:101140001092980383E0E4CF8091980390919903E3
:101150008536910588F185E0809397030E9484117C
:1011600060936304709364048093650490936604B1
:1011700023C00E94841100916304109164042091A3
:10118000650430916604DC01CB01801B910BA20B3E
:10119000B30B893C9105A105B10540F010926204A2
:1011A000109299031092980382E0B2CFC11104C04B
:1011B0001092990310929803FF91EF91CF91BF91F4
:1011C000AF919F918F917F916F915F914F913F91DF
:1011D0002F911F910F910F900FBE0F901F90189598
:1011E000CF92DF92EF92FF92CF93DF93EC01072E25
:1011F000000C880B990B0E94432F6B017C0120E0AF
:1012000030E040E45FE30E94F82F20E030E048E463
:1012100052E40E94992E0E940B2FC617D707D4F0D4
:1012200020E030E040EA5FE3C701B6010E94F82FFA
:1012300020E030E048E452E40E94992E20E030E0C3
:1012400040E85FE30E94282E0E940B2F21E06C17DC
:101250007D070CF420E0822F90E0DF91CF91FF908A
:10126000EF90DF90CF900895EF92FF920F931F932E
:10127000CF93DF93CDB7DEB72D970FB6F894DEBFCF
:101280000FBECDBF442349F04150211121504423CA
:1012900031F0413029F440E003C02111F7CF41E0A3
:1012A000E42FF0E0002381F08F010B501E4FA1E0EE
:1012B000B0E07D0102C0EE0CFF1C2A95E2F7970119
:1012C000D8013C91232B10C08F010B501E4FA1E081
:1012D000B0E07D0102C0EE0CFF1C2A95E2F79701F9
:1012E0002095D8013C9123232C9327E0F22EF41A69
:1012F000FF0C8F010B501E4F97FD20C077FD1EC0C5
:10130000462F682FCE0101960E94EF1A60E7CE01AA
:1013100001960E94DA1AE82E6F2DCE0101960E94E6
:10132000C814F8016081CE0101960E94C814CE0154
:1013300001960E945B14E11012C013C080E70E9466
:10134000D7146F2D85E693E00E94DF0ED8016C91D3
:1013500085E693E00E94DF0E0E94E1148111109255
:1013600074012D960FB6F894DEBF0FBECDBFDF918E
:10137000CF911F910F91FF90EF9008950F931F93BE
:10138000CF93DF93CDB7DEB72D970FB6F894DEBFBE
:101390000FBECDBF142F97FD1AC077FD18C0462F82
:1013A000682FCE0101960E94EF1A60E7CE010196E8
:1013B0000E94DA1A082F612FCE0101960E94C814EC
:1013C000CE0101960E945B1401110CC00DC080E794
:1013D0000E94D714612F85E693E00E94DF0E0E94E1
:1013E000E1148111109274012D960FB6F894DEBFAE
:1013F0000FBECDBFDF91CF911F910F910895EF9256
:10140000FF920F931F93CF93DF93CDB7DEB72D9746
:101410000FB6F894DEBF0FBECDBF8C017B0181E01B
:101420008093740117FD01C077FD0E94851541E28C
:10143000B701C8010E94BE0941E8B701C8010E9476
:10144000BE0945EEB701C8010E94BE0917FD2EC0B6
:10145000F7FC2CC04E2D602FCE0101960E94EF1A92
:1014600060E7CE0101960E94DA1AF82E60E0CE0104
:1014700001960E94C81405EF11E098E0E92EE00EF5
:1014800060E0CE0101960E94C81460E0CE01019692
:101490000E94C814F80111928F01EE12F1CFCE0113
:1014A00001960E945B14F1101EC01FC080E70E94CD
:1014B000D71460E085E693E00E94DF0E05EF11E0AF
:1014C00088E0F82EF00E80E090E00E94CD1580E0DC
:1014D00090E00E94CD15F80111928F01FE12F3CF1A
:1014E0000E94E1148111109274012D960FB6F894A8
:1014F000DEBF0FBECDBFDF91CF911F910F91FF9047
:10150000EF9008950F931F93CF93DF93CDB7DEB77E
:101510002D970FB6F894DEBF0FBECDBF062F142F48
:10152000FC016281738177FD1AC04081518157FDB2
:1015300016C0CE0101960E94EF1A602FCE010196CF
:101540000E94DA1A082F612FCE0101960E94C8145A
:10155000CE0101960E945B1401110DC010C0802FB6
:101560000E94D714612F85E693E00E94DF0E0E944F
:10157000E114882321F010927601109275012D96C6
:101580000FB6F894DEBF0FBECDBFDF91CF911F9194
:101590000F9108959C01A62FAA0FBB0BA459BE4F13
:1015A0009C914F77E42FF0E0E859FF4FE491EF77FB
:1015B00059F0492F40784E2B842F90E08D939C93C7
:1015C0006C5CC9010C94820A0895EF92FF920F930C
:1015D0001F93CF93DF937C01C0E0D0E000E010E0E8
:1015E000C430D1057CF4F801E459FE4F1182108219
:1015F0006C2F6C5C40E0C7010E94820A21960E5F4E
:101600001F4FEECFDF91CF911F910F91FF90EF9081
:101610000895EF92FF920F931F93CF93DF93CDB76F
:10162000DEB728970FB6F894DEBF0FBECDBF20916E
:10163000750130917601232B09F043C021E030E0A1
:1016400030937601209375010FEF1FEF18870F83FA
:101650001E830D83AE014B5F5F4FBE01695F7F4FFD
:101660000E94E2051A8309831C830B838F8198856E
:101670002D813E8137FD07C097FD05C03C832B833C
:101680009A83898302C00E948515CE0101960E942B
:10169000E50A86E7E82E82E0F82E14E2F7014081A1
:1016A000416041937F01612FCE0101960E94820A21
:1016B0001F5F183299F763E070E0CE0101960E9437
:1016C000AB1528960FB6F894DEBF0FBECDBFDF91E5
:1016D000CF911F910F91FF90EF9008951F93CF939B
:1016E000DF93EC01162F8BE390E00197F1F76C810B
:1016F0006C7F6C83CE010E943E15612F607F8C81D0
:101700008F70682B6C83CE010E943E15CE010E9423
:10171000B005612F6295607F8C818F70682B6C8320
:10172000CE010E943E15CE01DF91CF911F910C9406
:10173000B0050F931F93CF93DF93CDB7DEB72A97F2
:101740000FB6F894DEBF0FBECDBF20917C02309162
:101750007D02232B09F048C021E030E030937D0268
:1017600020937C020FEF1FEF1A87098718870F83DA
:10177000AE01495F5F4FBE01675F7F4F0E94E20588
:101780001A8309831C830B8388E08D831E828985DD
:101790009A852F81388537FD07C097FD05C03C83AA
:1017A0002B839A83898302C00E94851562E0CE0153
:1017B00001960E946E0B8BE990E00197F1F768E2C9
:1017C000CE0101960E946E0B6CE0CE0101960E9444
:1017D0006E0B61E0CE0101960E946E0B6AE070E034
:1017E00080E090E00E944A112A960FB6F894DEBF7E
:1017F0000FBECDBFDF91CF911F910F910895EF9252
:10180000FF920F931F93CF93DF937C01EB018A012B
:101810008FEF90E00E94CA1485E590E00E94CA1400
:10182000C7010E94CA14C8010E94CA1403301105DE
:1018300009F456C064F50130110509F44FC00230B7
:10184000110509F09AC0288159814A813B81622F94
:10185000822F952FA42FB32F8093F1019093F20143
:10186000A093F301B093F40188EC92E00E94B40DD0
:101870006091F20188EC92E00E94B40D6091F30156
:1018800088EC92E00E94B40D6091F40172C00530C2
:101890001105A1F10630110509F06FC08881398169
:1018A0002A819B81682F8093E3013093E401209388
:1018B000E5019093E60188EC92E00E94B40D6091FE
:1018C000E40188EC92E00E94B40D6091E50188EC9F
:1018D00092E00E94B40D6091E6014BC0688149C05E
:1018E00088819981682F8093EF019093F00188ECB3
:1018F00092E00E94B40D6091F0013BC028815981B3
:101900004A813B81622F822F952FA42FB32F809382
:10191000E7019093E801A093E901B093EA0188EC14
:1019200092E00E94B40D6091E80188EC92E00E9480
:10193000B40D6091E90188EC92E00E94B40D6091D1
:10194000EA0188EC92E00E94B40D6091EB0188EC12
:1019500092E00E94B40D6091EC0188EC92E00E944C
:10196000B40D6091ED0188EC92E00E94B40D60919D
:10197000EE0188EC92E00E94B40DDF91CF911F91AF
:101980000F91FF90EF900C94CF14CF93DF93EC0165
:101990008FEF90E00E94CA1485E590E00E94CA147F
:1019A000CE010E94CA14DF91CF910C94CF14909174
:1019B000E201981731F08093E201109275011092C4
:1019C00074010895209111013091120128173907EF
:1019D00081F48F3F2FEF920761F0F894109270001E
:1019E0002FEF3FEF30931201209311018093960364
:1019F000789427EF280F253018F599270997FC01CF
:101A0000EE0FFF1FDF01A050BF4F2D913C911197AA
:101A10002F3F3F4FA9F02FEF3FEF2D933C938E0FB9
:101A20009F1FFC01E752FB4FE081F0E0CF01880FE0
:101A3000991FE80FF91FEF58FC4F80818F7B80833F
:101A40000895CF92DF92EF92FF920F931F93CF935F
:101A5000DF936C017A018B01C0E0D0E0CE15DF0589
:101A600089F0D8016D918D01D601ED91FC91019025
:101A7000F081E02DC6010995892B11F47E0102C089
:101A80002196ECCFC701DF91CF911F910F91FF906D
:101A9000EF90DF90CF900895FC01538D448D252F5A
:101AA00030E0842F90E0821B930B541710F0CF96F8
:101AB000089501970895FC01918D828D981761F02A
:101AC000828DDF01A80FB11D5D968C91928D9F5F75
:101AD0009F73928F90E008958FEF9FEF0895FC0120
:101AE000918D828D981731F0828DE80FF11D858DD3
:101AF00090E008958FEF9FEF0895FC01918D228D66
:101B0000892F90E0805C9F4F821B91098F739927EA
:101B1000089588EC92E00E947D0D21E0892B09F464
:101B200020E0822F0895FC01848DDF01A80FB11DF4
:101B3000A35ABF4F2C91848D90E001968F73992703
:101B4000848FA689B7892C93A089B1898C918064F0
:101B50008C93938D848D981306C00288F389E02DB1
:101B600080818F7D80830895EF92FF920F931F9362
:101B7000CF93DF93EC0181E0888F9B8D8C8D981340
:101B800005C0E889F989808185FD24C0F62E0B8D7A
:101B900010E00F5F1F4F0F731127E02E8C8DE8129E
:101BA0000CC00FB607FCFACFE889F989808185FF60
:101BB000F5CFCE010E94930DF1CF8B8DFE01E80F82
:101BC000F11DE35AFF4FF0820B8FEA89FB89808178
:101BD000806207C0EE89FF896083E889F989808186
:101BE0008064808381E090E0DF91CF911F910F911D
:101BF000FF90EF900895CF93DF93EC01888D8823B9
:101C0000C9F0EA89FB89808185FD05C0A889B98969
:101C10008C9186FD0FC00FB607FCF5CF808185FF44
:101C2000F2CFA889B9898C9185FFEDCFCE010E94B2
:101C3000930DE7CFDF91CF91089580E090E0892B5D
:101C400029F00E94890D81110C94000008958330C1
:101C500081F028F4813099F08230A1F00895873026
:101C6000A9F08830B9F08430D1F4809180008F7D64
:101C700003C0809180008F7780938000089584B5A1
:101C80008F7702C084B58F7D84BD08958091B000A8
:101C90008F7703C08091B0008F7D8093B00008954E
:101CA000089585ED8093BC008091BC0084FDFCCF3D
:101CB0001092A402089540912602262F30E0240FAE
:101CC000311D21323105DCF42091A4022430C9F405
:101CD000FC0180E090E0861758F4309126022191B3
:101CE000DC01AC5FBD4FA30FB11D2C930196F3CF68
:101CF00080912602680F6093260280E0089581E0BB
:101D0000089582E008950895E0917B0280917A021F
:101D1000E81730F4F0E0EB5AFD4F808190E0089531
:101D20008FEF9FEF089590917B0280917A02981730
:101D300050F4E92FF0E0EB5AFD4F208130E09F5F37
:101D400090937B0202C02FEF3FEFC901089580916D
:101D50007A0290E020917B02821B91090895CF9234
:101D6000DF92EF92FF920F931F93CF93DF937C014B
:101D7000262F972F8A018091C702882391F0C62FC2
:101D8000D72F6E01C40ED51ECC15DD0571F06991FB
:101D9000D701ED91FC910190F081E02DC7010995EB
:101DA000F3CF642F822F0E945B0EC801DF91CF9189
:101DB0001F910F91FF90EF90DF90CF900895CF93F8
:101DC000DF931F92CDB7DEB769832091C70222232C
:101DD000D1F02091C502203240F021E030E0FC013A
:101DE0003383228380E090E015C08091C602E82F03
:101DF000F0E0EB55FD4F998190838F5F8093C60291
:101E00008093C50205C061E0CE0101960E945B0E81
:101E100081E090E00F90DF91CF910895089580E0E8
:101E200090E008950E944131CF93DF93DC01189632
:101E3000ED91FC911997908112968C911297809553
:101E4000892380831C968C911C97882351F01496CB
:101E5000ED91FC911597908112968C911297892B98
:101E600080831A96ED91FC911B97908113968C912B
:101E700013978095892380831C968C911C978823C7
:101E800051F01696ED91FC911797908113968C91D5
:101E90001397892B808380E18A95F1F7EC91F0E02C
:101EA000E65EFE4FE491F0E0EE0FFF1FE05FFE4FB5
:101EB000C591D49198811696ED91FC911797208148
:101EC00013968C9113978095822380831A96ED91B7
:101ED000FC911B97208113968C911397822B808302
:101EE00080E18A95F1F712968C91982381E009F4AC
:101EF00080E0DF91CF910895FC018281662361F03B
:101F0000A085B1859C91809589238C9384858823B5
:101F100079F0A481B58108C0A481B5819C91809598
:101F200089238C93A085B1859C918281892B8C9388
:101F3000A285B3859C918381809589238C93848528
:101F4000882331F0A681B7819C918381892B8C9362
:101F500080E18A95F1F7A681B7819C918381809574
:101F600089238C93A285B3859C918381892B8C9343
:101F700080E18A95F1F7662369F0A481B5819C918F
:101F80008281809589238C93A085B1859C918281E3
:101F9000892B8C9380E18A95F1F708951F920F9217
:101FA0000FB60F9211242F933F934F935F936F932C
:101FB0007F938F939F93AF93BF93EF93FF9388EC9F
:101FC00092E00E94930DFF91EF91BF91AF919F918D
:101FD0008F917F916F915F914F913F912F910F90D2
:101FE0000FBE0F901F9018951F920F920FB60F9271
:101FF00011242F938F939F93EF93FF93E091D80237
:10200000F091D9028081E091DE02F091DF0282FD41
:1020100012C090818091E1028F5F8F732091E20264
:10202000821751F0E091E102F0E0E853FD4F958F07
:102030008093E10201C08081FF91EF919F918F9188
:102040002F910F900FBE0F901F901895CF93DF9395
:10205000282F30E0F901E450FF4F8491F901E25D4F
:10206000FE4FD491F901E65EFE4FC491CC2391F06E
:1020700081110E94270EEC2FF0E0EE0FFF1FE05FB2
:10208000FE4FA591B491EC91ED2381E090E021F415
:1020900080E002C080E090E0DF91CF9108951F932F
:1020A000CF93DF93282F30E0F901E450FF4F849164
:1020B000F901E25DFE4FD491F901E65EFE4FC49155
:1020C000CC23C9F0162F81110E94270EEC2FF0E0CF
:1020D000EE0FFF1FEE50FF4FA591B4918FB7F8940C
:1020E000111105C09C91ED2FE095E92302C0EC9100
:1020F000ED2BEC938FBFDF91CF911F910895CF937C
:10210000DF9390E0FC01E25DFE4F2491FC01E65E6E
:10211000FE4F8491882361F190E0880F991FFC01A4
:10212000E851FF4FC591D491FC01EE50FF4FA591AE
:10213000B491611109C09FB7F894888120958223DA
:102140008883EC912E230BC0623061F49FB7F89422
:102150003881822F809583238883EC912E2B2C93BA
:102160009FBF06C08FB7F894E8812E2B28838FBFBE
:10217000DF91CF9108951F93CF93DF93182FEB0139
:1021800061E00E947F10209711F460E004C0CF3F0F
:10219000D10539F461E0812FDF91CF911F910C942B
:1021A0004F10E12FF0E0E450FF4FE491E330F9F0FD
:1021B00048F4E130B9F0E230A1F584B5806284BD25
:1021C000C8BD34C0E730E9F0E83019F1E43049F532
:1021D00080918000806280938000D0938B00C093B8
:1021E0008A0024C084B5806884BDC7BD1FC08091AB
:1021F0008000806880938000D0938900C09388001D
:1022000015C08091B00080688093B000C093B30087
:102210000DC08091B00080628093B000C093B40084
:1022200005C0C038D1050CF0B5CFAFCFDF91CF914D
:102230001F9108958230910538F0880F991F880FFB
:10224000991F05970197F1F708953FB7F89480918A
:10225000500290915102A0915202B091530226B5C2
:10226000A89B05C02F3F19F00196A11DB11D3FBFCE
:10227000BA2FA92F982F8827820F911DA11DB11D5C
:10228000BC01CD0142E0660F771F881F991F4A9558
:10229000D1F708958F929F92AF92BF92CF92DF9223
:1022A000EF92FF926B017C010E9425114B015C01B2
:1022B000C114D104E104F104F1F00E942511DC0104
:1022C000CB0188199909AA09BB09883E9340A10549
:1022D000B10570F321E0C21AD108E108F10888EED7
:1022E000880E83E0981EA11CB11CC114D104E10426
:1022F000F10419F7DDCFFF90EF90DF90CF90BF9002
:10230000AF909F908F9008952FB7F89460914C02F2
:1023100070914D0280914E0290914F022FBF08950F
:102320001F920F920FB60F9211242F933F938F930A
:102330009F93AF93BF9380914C0290914D02A091D7
:102340004E02B0914F0230914B0223E0230F2D3704
:1023500020F40196A11DB11D05C026E8230F0296A9
:10236000A11DB11D20934B0280934C0290934D020E
:10237000A0934E02B0934F0280915002909151026F
:10238000A0915202B09153020196A11DB11D8093FC
:10239000500290935102A0935202B0935302BF9106
:1023A000AF919F918F913F912F910F900FBE0F9002
:1023B0001F9018951F920F920FB60F9211242F9312
:1023C0003F934F935F936F937F938F939F93AF93BD
:1023D000BF93EF93FF93E0910C01F0910D010995EC
:1023E000FF91EF91BF91AF919F918F917F916F91ED
:1023F0005F914F913F912F910F900FBE0F901F90C3
:1024000018951F920F920FB60F9211242F933F939E
:102410004F935F936F937F938F939F93AF93BF93EC
:10242000EF93FF93E0910A01F0910B010995FF9161
:10243000EF91BF91AF919F918F917F916F915F913C
:102440004F913F912F910F900FBE0F901F901895B5
:102450001F920F920FB60F9211242F933F934F9319
:102460005F936F937F938F939F93AF93BF93EF93FC
:10247000FF938091B900887F803609F49CC068F58D
:10248000883209F45BC090F4803109F454C038F408
:10249000882309F4F6C0883009F44DC0F6C08831AD
:1024A00009F44CC0803209F45DC0EFC0803409F4F7
:1024B00068C048F4803309F455C0883309F0E5C09A
:1024C0008093A202D8C0803509F44FC0883509F442
:1024D0005DC0883409F0D9C0D6C0883909F4C7C0B6
:1024E000A8F4883709F467C038F4883609F463C063
:1024F000803709F460C0C9C0883809F4B8C0803991
:1025000009F45FC0803809F0C0C05BC0803B09F4AB
:1025100086C038F4803A09F466C0883A09F47FC06E
:10252000B4C0803C09F4A7C0883C09F4A4C0883B2F
:1025300009F48AC0AAC080917F0210C09091A102C4
:102540008091A002981770F5E091A10281E08E0FB2
:102550008093A102F0E0E058FD4F80818093BB00A2
:1025600085EC86C08093A2028EC0E091A10281E03A
:102570008E0F8093A1028091BB00F0E0E058FD4FE8
:1025800080839091A1028091A0026EC0E091A1028F
:1025900081E08E0F8093A1028091BB00F0E0E058B3
:1025A000FD4F80838091A30281116DC081E08093F3
:1025B0007E0284EA61C083E08093A40210924A0202
:1025C000CFCF80914A02803208F051C0E0914A0298
:1025D00081E08E0F80934A028091BB00F0E0E65DBF
:1025E000FD4F8083BDCF85EC8093BC001092A40288
:1025F00080914A02803230F4E0914A02F0E0E65DD8
:10260000FD4F108260914A0270E0E0912802F09143
:1026100029028AE292E0099510924A0236C084E0CB
:102620008093A4021092270210922602E0912402C5
:10263000F0912502099580912602811105C081E063
:102640008093260210920402E091270281E08E0F0F
:1026500080932702F0E0EC5FFD4F80818093BB0008
:102660009091270280912602981708F479CF85E887
:102670008093BC000AC085EC8093BC001092A40239
:1026800004C01092A2020E94510EFF91EF91BF91DF
:10269000AF919F918F917F916F915F914F913F91FA
:1026A0002F910F900FBE0F901F9018951F920F92B1
:1026B0000FB60F9211242F933F934F935F936F9315
:1026C0007F938F939F93AF93BF93EF93FF938091EB
:1026D000030287FF05C010928500109284001BC082
:1026E00020910302022E000C330B8091950390E0A1
:1026F0002817390784F480910302082E000C990BE7
:10270000FC01EE0FFF1F8E0F9F1FFC01EF58FC4FC7
:10271000808186FD15C0809103028F5F8093030244
:1027200020910302022E000C330B8091950390E060
:1027300028173907C4F4809103028C3064F113C068
:1027400080910302082E000C990BFC01EE0FFF1F75
:102750008E0F9F1FFC01EF58FC4F808160E08F734C
:102760000E944F10D8CF80918400909185000496EC
:1027700080349C4918F480E49CE905C08091840071
:1027800090918500049690938900809388008FEF44
:10279000809303023BC0209184003091850080919A
:1027A0000302082E000C990BFC01EE0FFF1F8E0F89
:1027B0009F1FFC01EF58FC4F81819281820F931F74
:1027C000909389008093880080910302082E000C6A
:1027D000990BFC01EE0FFF1F8E0F9F1FFC01EF589E
:1027E000FC4F808186FF12C080910302082E000CEE
:1027F000990BFC01EE0FFF1F8E0F9F1FFC01EF587E
:10280000FC4F808161E08F730E944F10FF91EF9128
:10281000BF91AF919F918F917F916F915F914F91F8
:102820003F912F910F900FBE0F901F901895EF9230
:10283000FF920F931F93CF93DF931F92CDB7DEB715
:102840008C0188E0F82EE12CEE0CC80169830E940F
:10285000140FE82AFA946981F110F6CF662311F07B
:1028600060E001C061E0C8010E947C0F80E18A95B0
:10287000F1F78E2D0F90DF91CF911F910F91FF9067
:10288000EF90089561E00C9417140F931F93CF936A
:10289000DF938C01D62FC8E06D2F6078C8010E94AD
:1028A0007C0FDD0FC150C1F7C801DF91CF911F919F
:1028B0000F910C94140FFC01A285B3859C91838128
:1028C000809589238C938485882331F0A681B781F4
:1028D0009C918381892B8C9380E18A95F1F7A08567
:1028E000B1859C918281809589238C9384858823EE
:1028F00031F0A481B5819C918281892B8C9380E1F8
:102900008A95F1F70895FC01A085B1859C9182819B
:10291000809589238C938485882331F0A481B581A7
:102920009C918281892B8C93A285B3859C91838114
:10293000809589238C938485882331F0A681B78183
:102940009C918381892B8C9380E18A95F1F7A481F6
:10295000B5819C918281809589238C93A085B185D6
:102960009C918281892B8C9380E18A95F1F7A681D5
:10297000B7819C918381809589238C93A285B385AF
:102980009C918381892B8C9380E18A95F1F708953E
:102990000C944514682F88EC92E00C94B40D42E03E
:1029A00050E06CE471E088EC92E00C94210D91E031
:1029B0009093C7028093E6041092C6021092C5025B
:1029C00008952091C5029091E604213208F04AC092
:1029D0008091A4028111FCCF32E03093A40231E057
:1029E0003093A3023FEF3093A2021092A1022093F2
:1029F000A002A5EAB2E040E852E0FA013E2F341B03
:102A0000321718F43D913193F9CF10927F02209143
:102A10007F02990F922B90937F0290917E029130CA
:102A200061F410927E0290917F029093BB0090918E
:102A3000BC0093FDF8CF95EC01C095EE9093BC00DF
:102A40009091A4029230E1F39091A2029F3F79F01D
:102A50008091A202803241F08091A202803331F055
:102A600084E005C081E003C082E001C083E01092F1
:102A7000C6021092C5021092C70208950F931F93C9
:102A8000CF93DF93CDB7DEB72D970FB6F894DEBFA7
:102A90000FBECDBF162FFC016281738177FD1AC076
:102AA0004081518157FD16C0CE0101960E94EF1A58
:102AB00060E2CE0101960E94DA1A082F612FCE0142
:102AC00001960E94C814CE0101960E945B14011168
:102AD0000DC010C080E20E94D714612F85E693E0FC
:102AE0000E94DF0E0E94E114882321F010927D02E3
:102AF00010927C022D960FB6F894DEBF0FBECDBFAC
:102B0000DF91CF911F910F91089510927B02109247
:102B10007A021092C6021092C5021092A40281E0BD
:102B20008093A30210927E0261E082E10E944F1026
:102B300061E083E10E944F10E9EBF0E080818E7F3D
:102B4000808380818D7F808388E48093B80085E4D2
:102B50008093BC000895EF92FF920F931F93CF9341
:102B6000DF937C01C62FC770C295C07F06E712E0D5
:102B7000D4E2F80140814F784C2B41938F016D2FA7
:102B8000C7010E94820ADF5FD83299F7DF91CF91A7
:102B90001F910F91FF90EF900895682F85E693E0C5
:102BA0000C94DF0EE0911001F0E040A121E030E054
:102BB00000900F0102C0220F331F0A94E2F7209504
:102BC000242320A30C941A11AF92BF92CF92DF92CC
:102BD000EF92FF920F931F93CF93DF936C010E94AC
:102BE00025110D2C000CEE08FF08C60ED71EE81E9E
:102BF000F91EC0910E0183E0C89F8001112483E07B
:102C0000159507958A95E1F7D0E0C01BD10BAA2452
:102C1000A394B12C0E9425116C157D058E059F058E
:102C200020F5E0911001F0E020A1C50100900F0116
:102C300002C0880F991F0A94E2F7822B80A3C80173
:102C40000E941A11E0911001F0E020A1C50100904E
:102C50000F0102C0880F991F0A94E2F78095822322
:102C600080A3CE010E941A11D5CFDF91CF911F9181
:102C70000F91FF90EF90DF90CF90BF90AF900895AD
:102C80009091A4029111FCCF613208F060E291E0D2
:102C90009093A4029093A3022FEF2093A20210928C
:102CA000A102260F2093A00290937F0290917F02B1
:102CB000880F892B80937F0280917E02813061F49E
:102CC00010927E0280917F028093BB008091BC00B5
:102CD00083FDF8CF85EC01C085EE8093BC00809128
:102CE000A4028130E1F38091A102861710F4609173
:102CF000A102A0E8B2E025E532E0F9018E2F821BA7
:102D0000861718F48D918193F9CF10927B0260930E
:102D10007A02862F0895AF92BF92CF92DF92EF9200
:102D2000FF920F931F93CF93DF93CDB7DEB72D970D
:102D30000FB6F894DEBF0FBECDBF8C016091D704F3
:102D40007091D80477FD45C04091D5045091D604C8
:102D500057FD3FC0CE0101960E94EF1A6091D30447
:102D6000CE0101960E94DA1A63E4CE0101960E9418
:102D7000C814CE0101960E945B146091D304709137
:102D8000D404CE0101960E94C41ACE0101960E947D
:102D90004214A82ECE0101960E944214B82ECE01F4
:102DA00001960E944214C82ECE0101960E94421440
:102DB000E82ECE0101960E944214D82E60E0CE018A
:102DC00001960E941714F82ECE0101960E945B1402
:102DD0003EC08091D3040E94D71483E490E00E9407
:102DE000CD150E94E1148091D3040E94D71466E0AF
:102DF00070E08091D3049091D4040E944016809199
:102E00007A0290E020917B02821B91098630910525
:102E1000ECF385E693E00E94930EA82E85E693E0FE
:102E20000E94930EB82E85E693E00E94930EC82E62
:102E300085E693E00E94930EE82E85E693E00E94DB
:102E4000930ED82E85E693E00E94930EF82E6B2DFC
:102E500070E07A29072E000C880B990B0E94432FF3
:102E60006093730470937404809375049093760454
:102E70006E2D70E07C29072E000C880B990B0E94A8
:102E8000432F609377047093780480937904909330
:102E90007A046F2D70E07D29072E000C880B990BAA
:102EA0000E94432F60937B0470937C0480937D0485
:102EB00090937E048CE0E3E7F4E0D80101900D925A
:102EC0008A95E1F7C8012D960FB6F894DEBF0FBEC4
:102ED000CDBFDF91CF911F910F91FF90EF90DF90C9
:102EE000CF90BF90AF9008954F925F926F927F9274
:102EF0008F929F92AF92BF92CF92DF92EF92FF920A
:102F00001F93CF93DF93CDB7DEB7A4970FB6F89496
:102F1000DEBF0FBECDBF81E08093D20412E319A2C1
:102F20001AA21BA21CA21D8E1E8E1F8E18A2198E05
:102F30001A8E1B8E1C8EC12CD12C76014601570196
:102F400026013701CE0101960E948B1680917304F1
:102F500090917404A0917504B09176048D879E873A
:102F6000AF87B88B9C01AD01C301B2010E94282E2E
:102F70002B013C018091770490917804A091790411
:102F8000B0917A04898B9A8BAB8BBC8B9C01AD0181
:102F9000C501B4010E94282E4B015C0180917B0485
:102FA00090917C04A0917D04B0917E048D8B9E8BCA
:102FB000AF8BB88F9C01AD01C701B6010E94282ECE
:102FC0006B017C012D853E854F855889CA01B90169
:102FD0000E94F82F9B01AC01698D7A8D8B8D9C8DA1
:102FE0000E94282E698F7A8F8B8F9C8F29893A892E
:102FF0004B895C89CA01B9010E94F82F9B01AC0181
:103000006D8D7E8D8F8D98A10E94282E6D8F7E8F65
:103010008F8F98A32D893E894F89588DCA01B90198
:103020000E94F82F9B01AC0169A17AA18BA19CA100
:103030000E94282E69A37AA38BA39CA365E070E06D
:1030400080E090E00E944A11115009F07BCF20E00F
:1030500030E048E452E4C301B2010E94992E2B01F2
:103060003C016093A3047093A4048093A5049093FF
:10307000A60420E030E048E452E4C501B4010E9417
:10308000992E4B015C016093A7047093A804809370
:10309000A9049093AA0420E030E048E452E4C70178
:1030A000B6010E94992E6B017C016093AB04709372
:1030B000AC048093AD049093AE0420E030E048E48B
:1030C00052E4698D7A8D8B8D9C8D0E94992E6D872F
:1030D0007E878F87988BA3019201C301B2010E9462
:1030E000F82F9B01AC016D857E858F8598890E94A4
:1030F000272E0E946B306093AF047093B0048093CE
:10310000B1049093B20420E030E048E452E46D8DC5
:103110007E8D8F8D98A10E94992E2B013C01A501D7
:103120009401C501B4010E94F82F9B01AC01C301B9
:10313000B2010E94272E0E946B306093B3047093FB
:10314000B4048093B5049093B60420E030E048E4E2
:1031500052E469A17AA18BA19CA10E94992E4B01F6
:103160005C01A7019601C701B6010E94F82F9B01DF
:10317000AC01C501B4010E94272E0E946B30609300
:10318000B7047093B8048093B9049093BA04C090C4
:10319000CE04D090CF04E090D004F090D10420E091
:1031A00030E0A901C701B6010E94F32F18160CF0F8
:1031B00079C0C701B6010E94122FF62E662309F4CA
:1031C0004BC08091D204811102C00E9474176F2DF0
:1031D00070E080E090E00E94432F4B015C019B0176
:1031E000AC016091AF047091B0048091B1049091F2
:1031F000B2040E94F82F6093970470939804809310
:10320000990490939A04A50194016091B30470917C
:10321000B4048091B5049091B6040E94F82F609395
:103220009B0470939C0480939D0490939E04A5013D
:1032300094016091B7047091B8048091B9049091A1
:10324000BA040E94F82F60939F047093A0048093A7
:10325000A1049093A20418C01092970410929804AD
:103260001092990410929A0410929B0410929C045C
:1032700010929D0410929E0410929F041092A0043C
:103280001092A1041092A2046F2D70E080E090E0F3
:103290000E94412F6093CE047093CF048093D0049A
:1032A0009093D104A4960FB6F894DEBF0FBECDBFA5
:1032B000DF91CF911F91FF90EF90DF90CF90BF9063
:1032C000AF909F908F907F906F905F904F900895F8
:1032D0000F931F93CF93DF93CDB7DEB72D970FB624
:1032E000F894DEBF0FBECDBF082F162F6091D70414
:1032F0007091D80477FD1FC04091D5045091D60439
:1033000057FD19C0CE0101960E94EF1A6091D304B7
:10331000CE0101960E94DA1A602FCE0101960E941A
:10332000C814612FCE0101960E94C814CE010196E7
:103330000E945B1410C08091D3040E94D714602FA8
:1033400085E693E00E94DF0E612F85E693E00E9400
:10335000DF0E0E94E1142D960FB6F894DEBF0FBE6B
:10336000CDBFDF91CF911F910F9108951F93CF9300
:10337000DF93CDB7DEB72D970FB6F894DEBF0FBE43
:10338000CDBF182F6091D7047091D80477FD2CC061
:103390004091D5045091D60457FD26C0CE01019628
:1033A0000E94EF1A6091D304CE0101960E94DA1AAE
:1033B000612FCE0101960E94C814CE0101960E9491
:1033C0005B146091D3047091D404CE0101960E94E5
:1033D000C41A60E0CE0101960E941714182FCE0186
:1033E00001960E945B1424C08091D3040E94D714DC
:1033F000612F85E693E00E94DF0E0E94E114809128
:10340000D3040E94D71461E070E08091D3049091BE
:10341000D4040E94401690917A0280917B02981702
:10342000F1F385E693E00E94930E182F0E94E114B9
:10343000812F2D960FB6F894DEBF0FBECDBFDF9162
:10344000CF911F9108958F929F92AF92BF92CF928A
:10345000DF92EF92FF920F931F93CF93DF93DB01E5
:10346000CD91DC91DC011C96ED91FC911D97CE175E
:10347000DF070CF04AC0FE01EE0FFF1F1A968D9178
:103480009C911B97E80FF91F80809180C170DD2708
:10349000B1E0CB27209719F404E610E002C00CE954
:1034A0001FEF79015A016B01020F131FB801C4010C
:1034B0000E94F008892B99F40E0D1F1DB801C4015C
:1034C0000E94F008892B71F4B8016E0D7F1DC401B4
:1034D0000E94F008892BE1F023E030E005C021E0F4
:1034E00030E002C022E030E0F50180819181019658
:1034F0008217930734F011821082F6018081918146
:10350000019691838083CE0105C081E090E002C0E6
:103510008FEF9FEFDF91CF911F910F91FF90EF9071
:10352000DF90CF90BF90AF909F908F9008950F93B2
:103530001F9390E0FC01E25DFE4F6491FC01E65EAA
:10354000FE4FE491F0E0EE0FFF1FE05FFE4F85912C
:10355000949100E412E42FE030E0462F0E946D1BAE
:10356000611571058105910549F0DC01CB010196DA
:10357000A11DB11DBC01CD019F7003C060E070E0D2
:10358000CB011F910F9108950F931F93CF93DF935A
:103590001F92CDB7DEB78C0169830E9483146981C5
:1035A000660F6160C8010F90DF91CF911F910F915D
:1035B0000C9445140F931F93CF93DF931F92CDB7B5
:1035C000DEB78C0169830E9483146981660FC8018C
:1035D0000F90DF91CF911F910F910C944514CF93D1
:1035E000DC0181E01C968C931C976C9311964C9394
:1035F000119770E0FB01E25DFE4FC4911296CC93EF
:10360000129750E0FA01E25DFE4FE4911396EC93BD
:103610001397FB01E65EFE4F249130E0220F331F2B
:10362000F901EE50FF4F8591949115969C938E93DE
:103630001497F901E851FF4F2591349119963C9365
:103640002E931897FA01E65EFE4F849190E0880F62
:10365000991FFC01EE50FF4F4591549117965C93D2
:103660004E931697FC01E851FF4F859194911B965C
:103670009C938E931A97F9018081C095C823C083CB
:103680001C968C911C97882351F01496ED91FC9117
:103690001597908112968C911297892B80831A9698
:1036A000ED91FC911B97908113968C9113978095C7
:1036B000892380831C968C911C97882349F0169649
:1036C000ED91FC911797908113968C91892B8083B3
:1036D000F0E1FA95F1F7CF910895CF92DF92EF9252
:1036E000FF920F931F93E82FF92F05C00150110986
:1036F0002109310961F1908196239417B9F305C02E
:10370000015011092109310911F190819623941377
:10371000F7CFC12CD12CE12CF12C0AC08FEFC81AA5
:10372000D80AE80AF80A0C151D052E053F0579F0A0
:1037300080818623841791F36C2D7D2D8E2D9F2DF6
:103740001F910F91FF90EF90DF90CF90089560E070
:1037500070E080E090E01F910F91FF90EF90DF907C
:10376000CF900895CF93DF93CDB7DEB76F970FB6A5
:10377000F894DEBF0FBECDBF789484B5826084BD5F
:1037800084B5816084BD85B5826085BD85B5816065
:1037900085BD80916E00816080936E0010928100E3
:1037A000809181008260809381008091810081609E
:1037B000809381008091800081608093800080915F
:1037C000B10084608093B1008091B00081608093EB
:1037D000B00080917A00846080937A0080917A00B2
:1037E000826080937A0080917A00816080937A0071
:1037F00080917A00806880937A001092C100E091F5
:10380000D802F091D90282E08083E091D402F09155
:10381000D5021082E091D602F091D70280E1808338
:103820001092E002E091DC02F091DD0286E08083FC
:10383000E091DA02F091DB02808180618083E09187
:10384000DA02F091DB02808188608083E091DA0205
:10385000F091DB02808180688083E091DA02F09150
:10386000DB0280818F7D808344E150E067E371E07B
:1038700088EC92E00E94210D0E94CF1488EC92E027
:103880000E947D0D1816190614F00C940A2A88EC73
:1038900092E00E945B0D992720917701213079F009
:1038A0001CF4222331F049C0223081F0233001F191
:1038B00044C08F3F910509F040C081E004C08535C8
:1038C0009105D9F582E08093770137C09C012250A1
:1038D00031092F33310578F593E090937701809388
:1038E0009A0121E030E03093DD012093DC0125C016
:1038F0002091DC013091DD01A9014F5F5F4F5093B2
:10390000DD014093DC01F901E656FE4F8083809192
:103910009A0190E0841795073CF481E090E0909341
:10392000DB018093DA0107C04034510534F0109276
:10393000DB011092DA01109277018091DA01813077
:1039400011F00C940A2A80919B01A82FB0E0B98F46
:10395000A88F80919D01C82ED12C00919E01A02E90
:10396000B12C10919F01212E312C90919C0194300B
:10397000A9F5109275011092740180E00E94D70C95
:1039800089E090E00E94E20C8AE090E00E94E20C64
:103990008BE090E00E94E20C8DE090E00E94E20C4F
:1039A000109269011092680160E070E081E00E946D
:1039B000FC0510926B0110926A0160E070E082E0F9
:1039C0000E94FC058FEF90E00E94CA1485E590E00C
:1039D0000E94CA140E94CF140C94022A8E3011F453
:1039E0000C94122870F5863011F40C940E2590F486
:1039F000823009F40CC740F4882309F455C08130A3
:103A000009F4F0C60C94FF29843009F4A8C708F41F
:103A100011C77CC78A3011F40C942C2748F48830E5
:103A200011F40C948F2610F40C943A260C94B926B9
:103A30008C3011F40C94902710F40C945C270C94A7
:103A4000BF27853609F43BC0D8F4823111F40C94B9
:103A5000192948F4803111F40C94972810F40C942F
:103A60005A280C94F028843111F40C947E2910F417
:103A70000C945129853111F40C94BD290C94FF2923
:103A8000893609F425C228F4873609F43DC028F1A7
:103A9000FAC0883C09F409C1893C09F432C18A366C
:103AA00011F00C94FF29BAC399E088E10FB6F8949D
:103AB000A895809360000FBE90936000FFCFB4E0A4
:103AC000AB1AB108E2E0AE16B10410F00C940E2A65
:103AD00080E00E94D70C0C940E2A0E94F40701503B
:103AE000023060F4F501EE0FFF1FEE0FFF1FEC5ADE
:103AF000FE4F608171818281938103C060E070E03C
:103B0000CB010E94432FCCC083E00E94D70CC5019B
:103B10000E94E20C033009F47EC048F4013009F43D
:103B200077C0023009F09BC011E00AE076C00C3289
:103B300049F00D3209F43DC0043009F090C013E0A3
:103B40000DE06BC061E08DE00E947F1060E08BE0D3
:103B50000E947F1060E08DE00E944F1083E090E0B3
:103B60000197F1F761E08DE00E944F1083E290E051
:103B70000197F1F760E08DE00E944F108BE00E940A
:103B8000971A0E94412F20E030E048E652E40E945C
:103B9000992E7B018C0120E030E046E953E40E943D
:103BA000F32F18160CF060C020E070E086E993E473
:103BB0005EC03C9A3D9884E00E94C40583E090E09A
:103BC0000197F1F7449A83E290E00197F1F784E0DE
:103BD0000E94C405E6E1F1E08591949100E412E4CD
:103BE0002FE030E040E260E20E946D1B611571053C
:103BF0008105910549F0DC01CB010196A11DB11DA4
:103C0000BC01CD019F70BDCF60E070E0CB01B9CFAA
:103C100010E009E002C012E00BE087B1EE24E3946B
:103C2000F12C012E01C0EE0C0A94EAF78E2987B917
:103C300060E0802F0E947F10812F0E94C40583E0E6
:103C400090E00197F1F788B1E82AE8B883E290E0C4
:103C50000197F1F7812F0E94C405802F90CF20E0BB
:103C600070E080E090E003C02E2D7F2DC801C22EB1
:103C7000D72E7C01C701B6010E94122F7A83698377
:103C800043E050E0A7C5C50102970C9720F4C50199
:103C90000E94CC0003C060E070E0CB010E94412F85
:103CA00069837A838B839C8393C5C5010E94E20C50
:103CB0002CE9200F2630B0F497B141E050E0022EFD
:103CC00001C0440F0A94EAF7842F8095892387B9AD
:103CD00086B190E002C0959587952A95E2F78170AC
:103CE0009927F2C08EEF800F8C3040F460E0802F77
:103CF0000E947F10802F0E942610E6C080E090E096
:103D0000E3C0C12ED12CE12CF12CC50102970C97F8
:103D100008F0D9C040905401509055016090560170
:103D200070905701411451046104710449F00E94DC
:103D30008411641575058605970510F00C94292AE1
:103D4000C5010E94CC006739F8E67F07FFEF8F07B7
:103D5000910509F494C008F045C06D3D32E2730747
:103D60003FEF8307910509F47EC0C8F46F3EB0E1D0
:103D70007B07BFEF8B07910509F48DC0673EE8E133
:103D80007E07EFEF8E07910509F47FC06D3F72400B
:103D90008F4F910509F085C085E090E087C0653BB5
:103DA0002AE472072FEF8207910509F471C048F4E5
:103DB000673C78438F4F910509F073C081E190E033
:103DC00075C0653ABAE57B07BFEF8B07910509F42B
:103DD00065C06D3972468F4F910509F062C082E06F
:103DE00090E064C06735F8EA7F07FFEF8F07910521
:103DF00009F442C0C8F4673638E973073FEF830718
:103E0000910509F43FC06D35A2EA7A07AFEF8A0742
:103E1000910509F449C06F3670498F4F910509F03B
:103E200040C089E090E042C06D33E2EC7E07EFEFE6
:103E30008E079105D9F040F46F34704B8F4F910588
:103E400081F58CE090E032C06F3130EE73073FEFC8
:103E50008307910571F06D31724E8F4F910509F511
:103E600083E090E023C084E090E020C086E090E012
:103E70001DC087E090E01AC088E090E017C08BE09A
:103E800090E014C080E090E011C08DE090E00EC0A2
:103E90008EE090E00BC08FE090E008C080E190E001
:103EA00005C08FEF9FEF02C081E090E0092E000C6B
:103EB000AA0BBB0B21E08C159D05AE05BF0509F0D3
:103EC00020E0822F01C080E0898341E050E082C47D
:103ED000C5010E94E20CE3E1F0E0FB8FEA8F4AE9C2
:103EE000442E49EF542E49E7642E44E4742E9E017B
:103EF0002F5F3F4F3F8B2E8B55E0C52EAA8DBB8D7C
:103F00001197BB8FAA8FAB2B09F483C1AE89BF89F0
:103F1000EC2D1D92EA95E9F761E0802F0E947F1059
:103F200060E0802F0E944F1064E170E080E090E03C
:103F30000E944A1161E0802F0E944F108BE990E0AF
:103F40000197F1F760E0802F0E947F1031E1E32EAE
:103F500037E2F32E802F0E942610892B39F4F1E0EE
:103F6000EF1AF108B9F78EEF9FEF3AC121E1E22E87
:103F700027E2F22E802F0E942610019729F421E0DB
:103F8000E21AF108B9F7EFCF98E2E92EF12C17E029
:103F9000D12C81E1A82E87E2B82E802F0E94261016
:103FA000892B29F431E0A31AB108B9F7DCCF0E94BC
:103FB00025114B015C0121E137E2802F2E8F3F8FCD
:103FC0000E9426102E8D3F8D019721F4215031093A
:103FD000A1F7C9CF0E942511DC01CB0188199909ED
:103FE000AA09BB098997A105B10580F0E1E0F0E0DD
:103FF000EC0FFD1FED0DF11D208181E090E0012E01
:1040000001C0880F0A94EAF7822B8083111103C044
:10401000D39417E001C0115081E0E81AF10809F0CB
:10402000B8CFE980DA806D2D70E09AE0E99E600DEE
:10403000711D1124072E000C880B990B0E94432F31
:104040004B015C01609378017093790180937A0150
:1040500090937B011C81FB8017FF0AC026EF3F2D48
:104060002303B0011124812F8F77681B710907C0CA
:10407000612F70E08AE0F89E600D711D1124072EFB
:10408000000C880B990B0E94432F60937C01709366
:104090007D0180937E0190937F0120E030E84DE622
:1040A00054E4C501B4010E94F32F181664F480E0B3
:1040B00090E8ADE6B4E48093780190937901A09301
:1040C0007A01B0937B0120E030E048E452E4609153
:1040D00078017091790180917A0190917B010E9421
:1040E000942E87FF0CC080E090E0A8E4B2E48093B7
:1040F000780190937901A0937A01B0937B0120E03D
:1041000030E046E154E460917C0170917D01809142
:104110007E0190917F010E94F32F181664F480E0D5
:1041200090E0A6E1B4E480937C0190937D01A0939C
:104130007E01B0937F0120E030E048E453EC6091D1
:104140007C0170917D0180917E0190917F010E94A0
:10415000942E87FF0CC080E090E0A8E4B3EC80933D
:104160007C0190937D01A0937E01B0937F0120E0BC
:1041700030E040E251E460917C0170917D018091DA
:104180007E0190917F010E94992E60937C01709333
:104190007D0180937E0190937F0120E030E040E23A
:1041A00051E4609178017091790180917A01909148
:1041B0007B010E94992E609378017093790180931E
:1041C0007A0190937B01ED0C1E0D1F0D81E090E0B4
:1041D0002D81211302C080E090E091958195910995
:1041E000892B09F08BCE91E02916310449F44090D7
:1041F00078015090790160907A0170907B017ECEB9
:1042000040907C0150907D0160907E0170907F0114
:1042100075CE49825A826B827C82DAC2C5010E94C5
:10422000E20C8FEF9FEF9D8B8C8B9B8B8A8B209169
:10423000540221115CC121E020935402998B888B98
:104240009F878E87AE01425F5F4FBE01605F7F4FE9
:10425000C5010E94E205888999892E853F8537FD31
:1042600002C097FF0EC04FEF5FEF5093D80440930A
:10427000D7045093D6044093D50437FD0AC097FD68
:1042800008C03093D8042093D7049093D604809329
:10429000D50488E690E09093D4048093D304809171
:1042A000D7049091D80497FD05C08091D5049091D2
:1042B000D60497FD0E9485151092A3041092A404C1
:1042C0001092A5041092A6041092A7041092A804BC
:1042D0001092A9041092AA041092AB041092AC049C
:1042E0001092AD041092AE041092D2041092970472
:1042F000109298041092990410929A0410929B04C0
:1043000010929C0410929D0410929E0410929F049F
:104310001092A0041092A1041092A2041092CE0454
:104320001092CF041092D0041092D1046091D7045F
:104330007091D80477FD2CC04091D5045091D604DB
:1043400057FD26C0CE0101960E94EF1A6091D3045A
:10435000CE0101960E94DA1A65E7CE0101960E940D
:10436000C814CE0101960E945B146091D304709131
:10437000D404CE0101960E94C41A60E0CE010196D9
:104380000E941714082FCE0101960E945B141EC0D4
:104390008091D3040E94D71465E785E693E00E94DC
:1043A000DF0E0E94E1148091D3040E94D71461E0D3
:1043B00070E08091D3049091D4040E94401685E669
:1043C00093E00E94930E082F0E94E1140836C9F56D
:1043D0008BE60E94B619887F682F61608BE60E9489
:1043E00068198CEE90ECA9E7BDE38093C604909326
:1043F000C704A093C804B093C9048BE10E94B61906
:10440000682F68618BE10E94681980E49AEDAFE73C
:10441000B8E38093CA049093CB04A093CC04B093E8
:10442000CD048CE10E94B619682F677E8CE10E9452
:1044300068198BE60E94B619682F6F7B8BE60E9485
:1044400068190E9474178091D204811102C00E94E1
:10445000741720E030E040E450E46091AF047091C4
:10446000B0048091B1049091B2040E94F82F60933F
:104470009704709398048093990490939A0420E091
:1044800030E040E450E46091B3047091B404809152
:10449000B5049091B6040E94F82F60939B0470932A
:1044A0009C0480939D0490939E0420E030E040E4BF
:1044B00050E46091B7047091B8048091B904909170
:1044C000BA040E94F82F60939F047093A004809315
:1044D000A1049093A20480E090E0A0E4B0E4809373
:1044E000CE049093CF04A093D004B093D104AE0136
:1044F0004E5E5F4FBE016C5E7F4FC5010E94E205BC
:104500008C899D892A893B8937FD07C097FD05C0A5
:104510003093D8042093D70406C08FEF9FEF909379
:10452000D8048093D7049093D6048093D504B4E044
:104530002B1631040CF09FC7C0909001D0909101D0
:10454000E0909201F09093010E9484116C157D051A
:104550008E059F0508F48FC70E94841160938C011B
:1045600070938D0180938E0190938F01CE010196FF
:104570000E948B168091D204C090C604D090C704CC
:10458000E090C804F090C904882311F40C94872BA0
:104590002091A3043091A4044091A5045091A60455
:1045A0006091730470917404809175049091760405
:1045B0000E94272EA70196010E94F82F60938B047A
:1045C00070938C0480938D0490938E042091A704A3
:1045D0003091A8044091A9045091AA0460917704F5
:1045E000709178048091790490917A040E94272E2A
:1045F000A70196010E94F82F60938F047093900496
:1046000080939104909392042091AB043091AC0478
:104610004091AD045091AE0460917B0470917C0494
:1046200080917D0490917E040E94272EA70196011F
:104630000E94F82F609393047093940480939504E0
:104640009093960420E030E0A9016091CE0470912F
:10465000CF048091D0049091D1040E94942E8111B6
:104660000C94BB2B80908B0490908C04A0908D04B4
:10467000B0908E04C0909304D0909404E090950480
:10468000F09096042AE037ED43E25CE360918F04FA
:104690007091900480919104909192040E94F82F5F
:1046A0009B01AC01609188017091890180918A0120
:1046B00090918B010E94282E60938801709389014C
:1046C00080938A0190938B012AE037ED43E25CE30B
:1046D000C501B4010E94F82F9B01AC0160918401D7
:1046E0007091850180918601909187010E94282E0A
:1046F0006093840170938501809386019093870174
:104700002AE037ED43E25CE3C701B6010E94F82FCF
:104710009B01AC01609180017091810180918201C7
:10472000909183010E94282E6093800170938101F3
:1047300080938201909383010E948411C0908C0128
:10474000D0908D01E0908E01F0908F016C197D0961
:104750008E099F090E94412F9B01AC0160E070E02F
:1047600080E291E40E94272E6B017C010E9484115B
:104770000E94412F9B01AC01C701B6010E94282E67
:104780000E94122F60939001709391018093920187
:104790009093930160E070E080E090E0912CA12C78
:1047A000B12C812C512C612C712C412C133009F42B
:1047B0009CC708F47DC7153009F4A0C708F085C769
:1047C000852D962DA72DB42D89839A83AB83BC8329
:1047D00045E050E0BE016F5F7F4F888D998D0E944C
:1047E000FF0B10C68091A0019FEF900F923060F4F4
:1047F000F501EE0FFF1FEA59FE4F11821082B10141
:10480000782B802F0E94FC0581E090E0F9C50E9482
:10481000F4070150023058F4F501EE0FFF1FEE0FC0
:10482000FF1FEC5AFE4F108211821282138282E027
:1048300090E0E6C5E090A0011091A101F090A201E6
:10484000002309F460C003300CF05DC00E94F4073F
:104850008FEF800F082E000C990BFC01EE0FFF1F4D
:10486000DF01A859BE4F2D913C911197223031059F
:104870002CF021E030E011963C932E93E859FE4F46
:1048800020813181880F991F880F991F21303105B0
:10489000A1F0DC01A05ABE4F1D921D921D921C92E8
:1048A0001397DC01A85ABE4F1D921D921D921C92B7
:1048B0001397A1E0B0E0B183A0833E28412F50E0E0
:1048C0005F29052E000C660B770BFC01E05AFE4FAA
:1048D000C080D180E280F38037FC05C04C0D5D1DA7
:1048E0006E1D7F1D08C0D701C601841B950BA60B4A
:1048F000B70BAC01BD014083518362837383B10167
:10490000802F0E94FC0583E090E07AC5C5010E94DB
:10491000E20C8CE9800F863098F497B121E030E00A
:10492000082E01C0220F0A94EAF7922B97B91111B1
:1049300003C00E94C40510C088B1282B28B90CC040
:104940008EEF800F8C3040F461E0802F0E947F104A
:10495000612F802F0E944F1085E090E051C5E090BC
:10496000A0011091A101F090A201C5010E94E20CEA
:104970008EEF800F8C3008F04EC03E2861E0802F13
:104980000E947F102114310429F1910140E050E090
:1049900060E472E48FE090E00E94C42D49015A0166
:1049A000212F30E03F29A8EEB3E00E94182E2B0102
:1049B0003C01740197FE03C09FEFE91AF90A170141
:1049C00035942794092C000CAA08BB0880E090E0DD
:1049D000DC0105C060E0802F0E944F101CC06C01FC
:1049E0007D01C80CD91CEA1CFB1C84159505A60585
:1049F000B70588F461E0802F0E944F10C1010E942A
:104A00001A1160E0802F0E944F10C1010E941A11FC
:104A1000D701C601E4CF84E090E0F2C48091A00108
:104A2000382A87EF800F853008F021C1D50119970A
:104A30005D01BEEF2B16BFEF3B06E9F4C501880F01
:104A4000991F9C012A0D3B1DF901E752FB4FE081A4
:104A5000F0E09F01220F331FE20FF31FEF58FC4FCE
:104A600020812F7B2083FC01E050FF4F2FEF3FEF91
:104A700031832083FCC07501EE0CFF1CF701E05070
:104A8000FF4F808191818215930509F4F0C0019652
:104A900009F064C0F701EA0DFB1DE752FB4F80816E
:104AA0008C3008F0EDC661E0802F0E947F10D701A6
:104AB000AA0DBB1DA752BB4F8C91E82FF0E09F01C0
:104AC000220F331FE20FF31FEF58FC4F0F7390813B
:104AD000907C092B008311961C92119712961C92C0
:104AE0006CE00E94D030FCE08F9FB001112440E0C8
:104AF00050E09A01260F371FF901EE0FFF1F2E0F0E
:104B00003F1FF901EF58FC4F908196FD16C04F5F93
:104B10005F4F4C30510569F781110FC01092800032
:104B200082E0809381001092850010928400B19AF7
:104B300080916F00826080936F00F701EA0DFB1D8A
:104B4000E752FB4FE081F0E0CF01880F991FE80F9B
:104B5000F91FEF58FC4F80818064808320E2221689
:104B600022E032060CF044C037FC06C035EB2316B9
:104B7000310424F4D10104C0A0E001C0A4EBB0E0F2
:104B8000F701EA0DFB1DE752FB4F818128E830E079
:104B90002901481A510887FD5394440C551C440CB4
:104BA000551C052C000C66087708828128E532E048
:104BB000281B310987FD3395220F331F220F331F26
:104BC000A901330F660B770B9A01AB012419350944
:104BD000460957090E94EE2D24EB30E040E050E0FA
:104BE0000E94C42D420E531E641E751E920101C008
:104BF0009101C7018A0D9B1DFC01E752FB4F4081CB
:104C00004C3080F5518188E890E0851B910957FD73
:104C10009395880F991F880F991F2817390784F0DB
:104C2000828168E572E0681B710987FD7395660FE4
:104C3000771F660F771FC901621773070CF4CB014A
:104C40000297880F991F5FB7F894242F30E0F9017D
:104C5000EE0FFF1F2E0F3F1FF901EF58FC4F9283FD
:104C600081835FBFF701E050FF4F3182208286E0F1
:104C700090E0C6C3C5010E94E20CC090A001D12CF7
:104C8000DC2CCC2480919F01C82A0D2C000CEE084E
:104C9000FF08083020F48BE08093100106C00E302E
:104CA00030F485E080931001085000930F011092BA
:104CB000700061E08BE00E947F1060E08BE00E945A
:104CC0004F108AE180930E0188E293E20E94E4157E
:104CD00084E991E10E94D21500E210E080E392E0C5
:104CE000F7FE05C00E94E41580E496E004C00E942F
:104CF000E41580E392E00E94D215CC0CDD1CEE1C82
:104D0000FF1C0150110951F780E392E00E94E41565
:104D100080E090E00E94D21587E090E071C382E0CD
:104D20000E94D70C8FEF9FEF9F878E879A8389838E
:104D3000AE014F5F5F4FBE01625F7F4FC5010E94B2
:104D4000E2056E857F8589819A8120917401211108
:104D500002C00E94FF09103108F01FE0412F406E91
:104D60006E857F8589819A810E94BE0988E090E0E6
:104D700047C3E090A00182E00E94D70C8FEF9FEF25
:104D80009F878E879A838983AE014F5F5F4FBE01F5
:104D9000625F7F4FC5010E94E2056E857F85898134
:104DA0009A8120917401211102C00E94FF09F12C07
:104DB0006E847F8449805A8089E0281631040CF083
:104DC00048C099E0E916F1040CF043C02114310405
:104DD00019F0A1E02A1A3108E114F10419F0B1E048
:104DE000EB1AF108C12CD12CA12CB12C11E01C0D17
:104DF000C60182199309DC01A656BE4F4D0121E080
:104E00002A0DC214D3041CF0AE14BF0414F400E045
:104E10000DC0F401878190E0A5014E195F0902C021
:104E2000959587954A95E2F7082F0170412FB301B8
:104E3000C2010E943409FFEFAF1ABF0A28E0A21690
:104E4000B104E9F63FEFC31AD30A88E0C816D104CB
:104E500059F689E090E0D4C2F090A0010091A10140
:104E600082E00E94D70C8FEF9FEF9F878E879A83F7
:104E70008983AE014F5F5F4FBE01625F7F4FC50107
:104E80000E94E2056E857F8589819A812091740157
:104E9000211102C00E94FF096E857F8589819A8158
:104EA000193038F4B8E0BF1520F02F2D412F0E94A3
:104EB00034098AE090E0A4C281E00E94D70CC501C9
:104EC0000E94090B0FEF1FEF198B088B1F870E87AE
:104ED000AE01425F5F4FBE01605F7F4FC5010E9420
:104EE000E205888999892E853F851A83098337FFD2
:104EF00005C08FEF9FEF9C838B8306C097FDF9CF92
:104F00003C832B839A838983E8E02E16310428F4AE
:104F1000B101CE0101960E94AB158BE090E070C20A
:104F200081E00E94D70CC5010E94090B0FEF1FEF13
:104F3000198B088B1F870E87AE01425F5F4FBE0142
:104F4000605F7F4FC5010E94E205888999892E859F
:104F50003F851A83098337FF05C08FEF9FEF9C833E
:104F60008B8306C097FDF9CF3C832B839A8389837B
:104F7000CE0101960E94E50A8CE090E041C280914A
:104F8000A001382A81E00E94D70CC5010E94090BBC
:104F90000FEF1FEF198B088B1F870E87AE01425F43
:104FA0005F4FBE01605F7F4FC5010E94E2058889A7
:104FB00099892E853F851A83098337FF05C08FEFB6
:104FC0009FEF9C838B8306C097FDF9CF3C832B8397
:104FD0009A83898300E010E0EAE0EE2EF12CF3E002
:104FE000DF2E2114310419F40115110539F4C10122
:104FF000B7010E94DC3040E3480F01C040E2C1012C
:10500000B7010E94DC301B016D2D601BCE010196A3
:105010000E94CA0A0F5F1F4F0430110511F78DE07F
:1050200090E0EEC181E00E94D70C11E0232809F442
:1050300010E0C5010E94090BEE24EA94FE2CF98AC7
:10504000E88AFF86EE86AE01425F5F4FBE01605F79
:105050007F4FC5010E94E205888999892E853F8589
:10506000FA82E98237FF05C08FEF9FEF9C838B8325
:1050700006C097FDF9CF3C832B839A838983412F08
:1050800050E05695542F44275795479580916E01CF
:1050900090916F018F779927482B592B50936F016F
:1050A00040936E0165E3CE0101960E94820A8EE074
:1050B00090E0A6C181E00E94D70C0091A001109160
:1050C0009F010A3088F5112379F115306CF5C5017F
:1050D0000E94090BEE24EA94FE2CF98AE88AFF86E6
:1050E000EE86AE01425F5F4FBE01605F7F4FC5013C
:1050F0000E94E205888999892E853F85FA82E98296
:10510000FC82EB8237FD06C097FD04C03C832B83F5
:105110009A83898340E3400F6FEF610F643024F47A
:10512000CE0101960E94CA0A8FE090E069C1FFEFAC
:105130001F9FC001112464E670E00E94DC306F3FC5
:10514000710514F06AEF70E0862F0630F9F028F44C
:10515000033051F0053089F040C00A3049F10B307E
:1051600081F10930D1F51BC090919401992311F080
:10517000961799F1809394012CC0909195019923F1
:1051800011F0961751F18093950123C090919601EB
:10519000992311F0961709F1809396011AC0909106
:1051A0009701992311F09617C1F08093970111C0D0
:1051B00090919801992311F0961779F080939801B6
:1051C00008C090919901992311F0961731F08093BE
:1051D00099017727802F0E94BB1080E190E010C1D9
:1051E00084E00E94D70CC5010E94990B8FEF9FEFBE
:1051F000998B888B9F878E87AE01425F5F4FBE0180
:10520000605F7F4FC5010E94E205488959896E851C
:105210007F85CE0101960E94CF0561E0CE01019607
:105220000E946E0B62E070E080E090E00E944A1104
:10523000E6C00091A00184E00E94D70C115010310B
:1052400028F50150023010F5C5010E94990B8FEF2F
:105250009FEF998B888B9F878E87AE01425F5F4F50
:10526000BE01605F7F4FC5010E94E20548895989F0
:105270006E857F85CE0101960E94CF0521EA31E03F
:10528000402F612FCE0101960E94472CC6010E943B
:10529000C50C80E4EAE9F1E0DF011D928A95E9F7A7
:1052A000B1C084E00E94D70CC5010E94990B8FEF1A
:1052B0009FEF998B888B9F878E87AE01425F5F4FF0
:1052C000BE01605F7F4FC5010E94E2054889598990
:1052D0006E857F85CE0101960E94CF05112319F0BE
:1052E00088E08E8301C01E826D81677F8E81682B6E
:1052F0006D83CE0101960E943E1581C0F090A00101
:105300008090A101E090A2010091A3017090A401FE
:1053100084E00E94D70C99249A94910EBFE0B915AD
:1053200008F46DC0FA94E1E0EF1508F468C0C50117
:105330000E94990B8FEF9FEF998B888B9F878E87A9
:10534000AE01425F5F4FBE01605F7F4FC5010E94AB
:10535000E205488959896E857F85CE0101960E94B4
:10536000CF0510E020E030E0980111270027372911
:1053700008291E294AE0E42E3CC0F090A00170905C
:10538000A1018090A2010091A3016090A401E0908E
:10539000A50184E00E94D70C99249A94910EFFE015
:1053A000F91568F1FA9421E02F1548F1C5010E9422
:1053B000990B8FEF9FEF998B888B9F878E87AE011C
:1053C000425F5F4FBE01605F7F4FC5010E94E205F3
:1053D000488959896E857F85CE0101960E94CF0547
:1053E00010E020E030E09801112700273629072936
:1053F00018294F2D692DCE0101960E94A52CC601BA
:105400000E94C50C1092DD011092DC011092DB01AC
:105410001092DA010E941D0E0C943E1C083098F484
:10542000006400937C0080917A00806480937A000D
:1054300080917A0086FDFCCF8091780020917900E0
:1054400090E0922B02C080E090E09A8389830C94D4
:10545000401E109254011092550110925601109264
:105460005701109250011092510110925201109266
:1054700053010C94A01E6091D7047091D80477FD5D
:1054800045C04091D5045091D60457FD3FC0CE0190
:1054900001960E94EF1A6091D304CE0101960E94FA
:1054A000DA1A6BE3CE0101960E94C814CE01019670
:1054B0000E945B146091D3047091D404CE010196D4
:1054C0000E94C41ACE0101960E944214C82ECE0139
:1054D00001960E944214B82ECE0101960E944214F9
:1054E000D82ECE0101960E944214E82ECE010196DC
:1054F0000E944214F82E60E0CE0101960E9417141B
:10550000082FCE0101960E945B143EC08091D30407
:105510000E94D7148BE390E00E94CD150E94E11405
:105520008091D3040E94D71466E070E08091D30488
:105530009091D4040E94401680917A0290E02091CC
:105540007B02821B910986309105ECF385E693E09E
:105550000E94930EC82E85E693E00E94930EB82E0B
:1055600085E693E00E94930ED82E85E693E00E9494
:10557000930EE82E85E693E00E94930EF82E85E6C2
:1055800093E00E94930E082F6B2D70E07C29072E6C
:10559000000C880B990B0E94432F2B013C01609358
:1055A0006704709368048093690490936A046E2D75
:1055B00070E07D29072E000C880B990B0E94432F69
:1055C0004B015C0160936B0470936C0480936D04D9
:1055D00090936E04602F70E07F29072E000C880BDB
:1055E000990B0E94432F6A8F7B8F8C8F9D8F6093C6
:1055F0006F04709370048093710490937204C09050
:10560000CA04D090CB04E090CC04F090CD04A70164
:105610009601C301B2010E94F82F2AE038EE4CE156
:1056200051E40E94F82F562E672E782E492E862F91
:10563000962DA72DB42D80937F0490938004A09382
:105640008104B0938204A7019601C501B4010E94B0
:10565000F82F2AE038EE4CE151E40E94F82F962E04
:10566000A72EB82E892E862F9A2DAB2DB82D80937C
:10567000830490938404A0938504B0938604A701C7
:1056800096016A8D7B8D8C8D9D8D0E94F82F2AE06E
:1056900038EE4CE151E40E94F82F6B017C01C0927E
:1056A0008704D0928804E0928904F0928A047EC82C
:1056B000113091F0123031F55090840160908501E5
:1056C00070908601409087017BC81630D9F4562E21
:1056D000672E782E492E74C85090880160908901F9
:1056E00070908A0140908B016BC85090800160904F
:1056F0008101709082014090830162C8592C35016C
:10570000482C5EC8512C612C712C412C59C8A70122
:105710009601609173047091740480917504909166
:1057200076040E94F82F60938B0470938C0480930E
:105730008D0490938E04A701960160917704709177
:1057400078048091790490917A040E94F82F6093F4
:105750008F04709390048093910490939204A70116
:10576000960160917B0470917C0480917D049091FE
:105770007E040C941823C0908B04D0908C04E0908D
:105780008D04F0908E0420E030E0A901C701B6013D
:105790000E94F32F181624F0F7FAF094F7F8F0941B
:1057A00020919704309198044091990450919A0463
:1057B000C701B6010E94942E87FF08C010928B0487
:1057C00010928C0410928D0410928E04C0908F045D
:1057D000D0909004E0909104F090920420E030E0AA
:1057E000A901C701B6010E94F32F181624F0F7FA99
:1057F000F094F7F8F09420919B0430919C04409130
:105800009D0450919E04C701B6010E94942E87FF0B
:1058100008C010928F04109290041092910410927C
:105820009204C0909304D0909404E0909504F0907A
:10583000960420E030E0A901C701B6010E94F32FD1
:10584000181624F0F7FAF094F7F8F09420919F04DA
:105850003091A0044091A1045091A204C701B60167
:105860000E94942E87FD02C00C9432231092930460
:105870001092940410929504109296040C94322382
:1058800030E2231632E033060CF46EC9EBC9AF9256
:10589000BF92CF92DF92EF92FF920F931F93CF931D
:1058A000DF9300D0CDB7DEB75C01D62E80E4489FF1
:1058B000600D11246068C50129833A830E946E0B34
:1058C0002981022F3A81132F8BE3E82EF12CCD2C66
:1058D000C21AF801D1908F01DD2051F1C701019763
:1058E000F1F7F50164816D7F61606483C5010E94F9
:1058F0003E156D2D607FF50184818F70682B648368
:10590000C5010E943E15C5010E94B0056D2D62952E
:10591000607FF50184818F70682B6483C5010E94CC
:105920003E15C5010E94B0058C2D800F803188F294
:105930000F900F90DF91CF911F910F91FF90EF90FB
:10594000DF90CF90BF90AF9008952F923F924F92EB
:105950005F926F927F928F929F92AF92BF92CF92FF
:10596000DF92EF92FF920F931F93CF93DF93CDB708
:10597000DEB763970FB6F894DEBF0FBECDBF998B2D
:10598000888B6E874F87480159018FEF8E0D8A30C3
:1059900008F05EC037FF0BC0B094A0949094809440
:1059A000811C911CA11CB11C81E08D8701C01D864A
:1059B000FE0131966F018CE011928A95E9F7E3942C
:1059C00000E0F12C8AE0282E312C412C512CC7010B
:1059D00001979B8B8A8B602E002E000C77086E142B
:1059E0007F044CF5C501B401A20191010E94C42DB0
:1059F00081149104A104B10411F4011103C010E356
:105A0000160F08C09D85913011F010E203C0E2E04E
:105A1000ED871DE2C501B401A20191010E94C42DD0
:105A200049015A01EA89FB89E619F709EC0DFD1DC8
:105A300010830F5FD0CFFE85F03150F48F85823018
:105A400038F49601482F6F2F888999890E94472C36
:105A500063960FB6F894DEBF0FBECDBFDF91CF9136
:105A60001F910F91FF90EF90DF90CF90BF90AF907C
:105A70009F908F907F906F905F904F903F902F906E
:105A800008951092CB021092CA0288EE93E0A0E033
:105A9000B0E08093CC029093CD02A093CE02B0935D
:105AA000CF0227E131E03093C9022093C80225ECF0
:105AB00030E03093D5022093D40224EC30E03093D0
:105AC000D7022093D60220EC30E03093D902209305
:105AD000D80221EC30E03093DB022093DA0222EC92
