:100000000C9462000C9420030C94F9020C948A0066
:100010000C948A000C948A000C948A000C94360587
:100020000C948A000C948A000C948A000C94750439
:100030000C948A000C948A000C948A000C948A0018
:100040000C94AF020C948A000C947D020C9457021D
:100050000C948A000C948A000C948A000C948A00F8
:100060000C9447030C948A00000000002300260033
:10007000290000000008000201000003040700003E
:1000800000000000000000000000250028002B00F8
:1000900000000000240027002A00040404040404D3
:1000A0000404020202020202030303030303010227
:1000B00004081020408001020408102001020408F6
:1000C00010203F0611241FBECFEFD8E0DEBFCDBF0A
:1000D00011E0A0E0B1E0E8E9F0E102C005900D9286
:1000E000A033B107D9F723E0A0E3B1E001C01D922E
:1000F000AB3DB207E1F710E0C2E6D0E004C02197C3
:10010000FE010E943F08C136D107C9F70E94C1060F
:100110000C944A080C940000CF92DF92EF92FF9269
:100120000F931F93CF93DF936C017A018B01C0E093
:10013000D0E0CE15DF0589F0D8016D918D01D60193
:10014000ED91FC910190F081E02DC6010995892B7C
:1001500011F47E0102C02196ECCFC701DF91CF914F
:100160001F910F91FF90EF90DF90CF900895FC01C9
:10017000538D448D252F30E0842F90E0821B930B0C
:10018000541710F0CF96089501970895FC01918DB2
:10019000828D981761F0828DDF01A80FB11D5D96E9
:1001A0008C91928D9F5F9F73928F90E008958FEF57
:1001B0009FEF0895FC01918D828D981731F0828D0B
:1001C000E80FF11D858D90E008958FEF9FEF089562
:1001D000FC01918D228D892F90E0805C9F4F821BC6
:1001E00091098F73992708958EEB91E00E94E800A2
:1001F00021E0892B09F420E0822F0895FC01848DF1
:10020000DF01A80FB11DA35ABF4F2C91848D90E040
:1002100001968F739927848FA689B7892C93A0891B
:10022000B1898C9180648C93938D848D981306C0D2
:100230000288F389E02D80818F7D80830895EF927D
:10024000FF920F931F93CF93DF93EC0181E0888F90
:100250009B8D8C8D981305C0E889F989808185FD77
:1002600024C0F62E0B8D10E00F5F1F4F0F73112768
:10027000E02E8C8DE8120CC00FB607FCFACFE8898F
:10028000F989808185FFF5CFCE010E94FE00F1CF74
:100290008B8DFE01E80FF11DE35AFF4FF0820B8FAB
:1002A000EA89FB898081806207C0EE89FF896083CB
:1002B000E889F98980818064808381E090E0DF9122
:1002C000CF911F910F91FF90EF900895CF93DF93FF
:1002D000EC01888D8823C9F0EA89FB89808185FD3E
:1002E00005C0A889B9898C9186FD0FC00FB607FC9F
:1002F000F5CF808185FFF2CFA889B9898C9185FFE0
:10030000EDCFCE010E94FE00E7CFDF91CF9108959F
:1003100080E090E0892B29F00E94F40081110C9478
:1003200000000895833081F028F4813099F0823004
:10033000A1F008958730A9F08830B9F08430D1F465
:10034000809180008F7D03C0809180008F778093A3
:100350008000089584B58F7702C084B58F7D84BDF9
:1003600008958091B0008F7703C08091B0008F7D99
:100370008093B00008951F93CF93DF93282F30E030
:10038000F901EE58FF4F8491F901E255FF4FD491E6
:10039000F901E656FF4FC491CC23C9F0162F811105
:1003A0000E949201EC2FF0E0EE0FFF1FEA57FF4F83
:1003B000A591B4918FB7F894111105C09C91ED2FC0
:1003C000E095E92302C0EC91ED2BEC938FBFDF9118
:1003D000CF911F910895089585ED8093BC00809181
:1003E000BC0084FDFCCF10928F01089540916901FB
:1003F000262F30E0240F311D21323105DCF420910D
:100400008F012430C9F4FC0180E090E0861758F495
:10041000309169012191DC01A95BBE4FA30FB11D91
:100420002C930196F3CF80916901680F6093690165
:1004300080E0089581E0089582E0089508958FEFA7
:100440009FEF08958FEF9FEF08958091460190E010
:100450009195819591090895CF93DF9300D0CDB701
:10046000DEB7CB01642F49835A830E94F60149818C
:10047000842F5A81952F0F900F90DF91CF9108957F
:10048000CF93DF931F92CDB7DEB7698361E0CE01D2
:1004900001960E94F60181E090E00F90DF91CF91EC
:1004A0000895089580E090E008950E9445081F9205
:1004B0000F920FB60F9211242F933F934F935F9398
:1004C0006F937F938F939F93AF93BF93EF93FF931C
:1004D0008EEB91E00E94FE00FF91EF91BF91AF91F2
:1004E0009F918F917F916F915F914F913F912F914C
:1004F0000F900FBE0F901F9018951F920F920FB67E
:100500000F9211242F938F939F93EF93FF93E0917A
:10051000CE01F091CF018081E091D401F091D5011D
:1005200082FD12C090818091D7018F5F8F732091DF
:10053000D801821751F0E091D701F0E0E254FE4F6C
:10054000958F8093D70101C08081FF91EF919F919A
:100550008F912F910F900FBE0F901F9018951F92A3
:100560000F920FB60F9211242F933F938F939F9367
:10057000AF93BF938091BA019091BB01A091BC0150
:10058000B091BD013091B90123E0230F2D3720F444
:100590000196A11DB11D05C026E8230F0296A11DDD
:1005A000B11D2093B9018093BA019093BB01A09330
:1005B000BC01B093BD018091B5019091B601A091AD
:1005C000B701B091B8010196A11DB11D8093B5018D
:1005D0009093B601A093B701B093B801BF91AF91CA
:1005E0009F918F913F912F910F900FBE0F901F9071
:1005F00018951F920F920FB60F9211242F933F93CD
:100600004F935F936F937F938F939F93AF93BF931A
:10061000EF93FF93E0910201F09103010995FF919F
:10062000EF91BF91AF919F918F917F916F915F916A
:100630004F913F912F910F900FBE0F901F901895E3
:100640001F920F920FB60F9211242F933F934F9347
:100650005F936F937F938F939F93AF93BF93EF932A
:10066000FF93E0910001F09101010995FF91EF9155
:10067000BF91AF919F918F917F916F915F914F91BA
:100680003F912F910F900FBE0F901F9018951F92C2
:100690000F920FB60F9211242F933F934F935F93B6
:1006A0006F937F938F939F93AF93BF93EF93FF933A
:1006B0008091B900887F803609F49CC068F5883243
:1006C00009F45BC090F4803109F454C038F48823F5
:1006D00009F4F6C0883009F44DC0F6C0883109F439
:1006E0004CC0803209F45DC0EFC0803409F468C0AA
:1006F00048F4803309F455C0883309F0E5C080938D
:100700008E01D8C0803509F44FC0883509F45DC02A
:10071000883409F0D9C0D6C0883909F4C7C0A8F414
:10072000883709F467C038F4883609F463C0803725
:1007300009F460C0C9C0883809F4B8C0803909F428
:100740005FC0803809F0C0C05BC0803B09F486C040
:1007500038F4803A09F466C0883A09F47FC0B4C01E
:10076000803C09F4A7C0883C09F4A4C0883B09F484
:100770008AC0AAC08091B40110C09091B301809149
:10078000B201981770F5E091B30181E08E0F80936C
:10079000B301F0E0EE56FE4F80818093BB0085EC04
:1007A00086C080938E018EC0E091B30181E08E0FF0
:1007B0008093B3018091BB00F0E0EE56FE4F808342
:1007C0009091B3018091B2016EC0E091B30181E0DC
:1007D0008E0F8093B3018091BB00F0E0EE56FE4F88
:1007E00080838091910181116DC081E0809390019F
:1007F00084EA61C083E080938F0110928D01CFCF96
:1008000080918D01803208F051C0E0918D0181E02E
:100810008E0F80938D018091BB00F0E0E359FE4F75
:100820008083BDCF85EC8093BC0010928F018091B6
:100830008D01803230F4E0918D01F0E0E359FE4FFC
:10084000108260918D0170E0E0916B01F0916C017C
:100850008DE691E0099510928D0136C084E0809379
:100860008F0110926A0110926901E0916701F09185
:100870006801099580916901811105C081E080932B
:10088000690110924701E0916A0181E08E0F809327
:100890006A01F0E0E95BFE4F80818093BB0090919C
:1008A0006A0180916901981708F479CF85E88093EF
:1008B000BC000AC085EC8093BC0010928F0104C07C
:1008C00010928E010E94EC01FF91EF91BF91AF91C8
:1008D0009F918F917F916F915F914F913F912F9158
:1008E0000F900FBE0F901F9018951F920F920FB68A
:1008F0000F9211242F933F934F935F936F937F93A6
:100900008F939F93AF93BF93EF93FF938091450194
:1009100087FF05C010928500109284001BC02091B3
:100920004501022E000C330B80918B0290E02817BA
:10093000390784F480914501082E000C990BFC01C5
:10094000EE0FFF1F8E0F9F1FFC01E959FD4F8081A5
:1009500086FD15C0809145018F5F809345012091F0
:100960004501022E000C330B80918B0290E028177A
:100970003907C4F4809145018C3064F113C0809133
:100980004501082E000C990BFC01EE0FFF1F8E0F86
:100990009F1FFC01E959FD4F808160E08F730E9429
:1009A000BB01D8CF8091840090918500049680345B
:1009B0009C4918F480E49CE905C0809184009091E2
:1009C0008500049690938900809388008FEF809330
:1009D00045013BC020918400309185008091450104
:1009E000082E000C990BFC01EE0FFF1F8E0F9F1FAE
:1009F000FC01E959FD4F81819281820F931F9093F1
:100A000089008093880080914501082E000C990B85
:100A1000FC01EE0FFF1F8E0F9F1FFC01E959FD4FD8
:100A2000808186FF12C080914501082E000C990B31
:100A3000FC01EE0FFF1F8E0F9F1FFC01E959FD4FB8
:100A4000808161E08F730E94BB01FF91EF91BF91A4
:100A5000AF919F918F917F916F915F914F913F9156
:100A60002F910F900FBE0F901F9018951F920F920D
:100A70000FB60F9211240F931F932F933F934F9311
:100A80005F936F937F938F939F93AF93BF93CF9316
:100A9000DF93EF93FF9320918C0230E0F901EE5841
:100AA000FF4F8491F901E255FF4FD491F901E656C9
:100AB000FF4FC491CC23A1F081110E949201EC2F31
:100AC000F0E0EE0FFF1FE859FF4FA591B491EC91B4
:100AD000ED2331E020E009F430E0832F922F02C0B3
:100AE00080E090E020918E0230918F022F5F3F4F87
:100AF00030938F0220938E0220915803243618F0F1
:100B000025E020938D0220918D02233029F118F4E5
:100B1000223039F09FC02430D9F1253009F470C05B
:100B200099C0892B09F096C01092580310928F0239
:100B300010928E02E091580381E08E0F809358034B
:100B4000F0E080918E0290918F02EE0FFF1FE05730
:100B5000FD4F9183808333C0019709F07BC0E09102
:100B6000580381E08E0F80935803F0E080918E024D
:100B700090918F02EE0FFF1FE057FD4F918380830E
:100B800010928F0210928E0284E080938D0262C0D8
:100B9000892BB9F4E091580381E08E0F80935803BC
:100BA000F0E080918E0290918F02EE0FFF1FE057D0
:100BB000FD4F9183808310928F0210928E0283E00A
:100BC000E4CF80918E0290918F028536910508F4D2
:100BD00041C085E080938D022FB7F8948091BA01CF
:100BE0009091BB01A091BC01B091BD012FBF80933A
:100BF000590390935A03A0935B03B0935C032AC0FC
:100C00002FB7F8944091BA015091BB016091BC019B
:100C10007091BD012FBF0091590310915A0320918B
:100C20005B0330915C03401B510B620B730B493C1F
:100C300051056105710540F01092580310928F0222
:100C400010928E0282E0A1CF892B21F410928F02A4
:100C500010928E02FF91EF91DF91CF91BF91AF91F2
:100C60009F918F917F916F915F914F913F912F91C4
:100C70001F910F910F900FBE0F901F90189510921B
:100C8000C1011092C00188EE93E0A0E0B0E0809333
:100C9000C2019093C301A093C401B093C50120E1A8
:100CA00031E03093BF012093BE0125EC30E030935A
:100CB000CB012093CA0124EC30E03093CD01209386
:100CC000CC0120EC30E03093CF012093CE0121EC19
:100CD00030E03093D1012093D00122EC30E030930A
:100CE000D3012093D20126EC30E03093D50120933C
:100CF000D4011092D7011092D8011092D90110920C
:100D0000DA0110925E0210925D0280935F0290936E
:100D10006002A0936102B093620282E291E090933C
:100D20005C0280935B028FEF80938C0280918B0238
:100D3000AFECB3E09FEF48EB5BE08C3078F48C9342
:100D4000282F30E0F901EE0FFF1F2E0F3F1FF90192
:100D5000E959FD4F528341838F5F01C09C931396E5
:100D600023E0AB3DB20749F780938B028FEF9FEFF3
:100D70009093CC038093CB039093CE038093CD03C9
:100D80000895789484B5826084BD84B5816084BD03
:100D900085B5826085BD85B5816085BD80916E0019
:100DA000816080936E00109281008091810082604A
:100DB0008093810080918100816080938100809187
:100DC00080008160809380008091B1008460809376
:100DD000B1008091B00081608093B00080917A0072
:100DE000846080937A0080917A00826080937A0098
:100DF00080917A00816080937A0080917A00806887
:100E000080937A001092C1008091040190910501B5
:100E10008A35910509F4C9C0019609F06DC0809129
:100E2000CF038C3008F068C0E7EBF0E02491E3EAF0
:100E3000F0E08491882399F090E0880F991FFC01DD
:100E4000E057FF4FA591B491FC01EA57FF4F859100
:100E500094918FB7F894EC91E22BEC938FBF809133
:100E6000CF03E82FF0E09F01220F331FE20FF31FA3
:100E7000E959FD4F9081907C996090831092D00346
:100E80001092D1036CE00E9433089CE0899FB0016E
:100E9000112440E050E09A01260F371FF901EE0FB0
:100EA000FF1F2E0F3F1FF901E959FD4F908196FD5D
:100EB00016C04F5F5F4F4C30510569F781110FC06D
:100EC0001092800082E08093810010928500109241
:100ED0008400B19A80916F00826080936F00E091EE
:100EE000CF03F0E0CF01880F991FE80FF91FE959F0
:100EF000FD4F8081806480838091D10308E512E0FA
:100F0000081B110987FD1395000F111F000F111FFA
:100F10008091D003C8E8D0E0C81BD10987FDD395E4
:100F2000CC0FDD1FCC0FDD1F6E010D2E000CEE0867
:100F3000FF08C801012E000CAA0BBB0B9C01AD01E0
:100F40002C193D094E095F09AAE5B0E00E94F70798
:100F500024EB30E040E050E00E94D807C20ED31EE0
:100F6000E41EF51E8091CF038C30C8F4CC16DD064C
:100F70002CF0E6010C151D050CF4E8012297CC0FAE
:100F8000DD1F2FB7F89490E0FC01EE0FFF1F8E0FCE
:100F90009F1FFC01E959FD4FD283C1832FBF8AE512
:100FA00090E090930501809304010E948801FDCF99
:100FB000052E97FB1EF400940E94EF0757FD07D003
:100FC0000E94020807FC03D04EF40C94EF075095E2
:100FD0004095309521953F4F4F4F5F4F0895909525
:100FE0008095709561957F4F8F4F9F4F08950E9418
:100FF0002408A59F900DB49F900DA49F800D911D76
:1010000011240895A1E21A2EAA1BBB1BFD010DC0DD
:10101000AA1FBB1FEE1FFF1FA217B307E407F507A8
:1010200020F0A21BB30BE40BF50B661F771F881F84
:10103000991F1A9469F760957095809590959B011A
:10104000AC01BD01CF010895A29FB001B39FC001C3
:10105000A39F700D811D1124911DB29F700D811DE4
:101060001124911D0895991B79E004C0991F9617CA
:1010700008F0961B881F7A95C9F780950895EE0FA2
:10108000FF1F0590F491E02D099481E090E0F89421
:081090000C944A08F894FFCF0C
:10109800EB01EB01FFFFFFFFFFFFFFFF0000000078
:1010A8001F018C00B7006601E800C600DA000000E6
:1010B800000040022C0252021E02250222021F02D8
:00000001FF
