:100000000C9462000C943F030C9418030C948A0027
:100010000C948A000C948A000C948A000C94550568
:100020000C948A000C948A000C948A000C9494041A
:100030000C948A000C948A000C948A000C948A0018
:100040000C94CE020C948A000C949C020C947602C0
:100050000C948A000C948A000C948A000C948A00F8
:100060000C9466030C948A00000000002300260014
:10007000290000000008000201000003040700003E
:1000800000000000000000000000250028002B00F8
:1000900000000000240027002A00040404040404D3
:1000A0000404020202020202030303030303010227
:1000B00004081020408001020408102001020408F6
:1000C00010205E0611241FBECFEFD8E0DEBFCDBFEB
:1000D00011E0A0E0B1E0E8E4FFE002C005900D927D
:1000E000A832B107D9F723E0A8E2B1E001C01D9220
:1000F000A83DB207E1F710E0C2E6D0E004C02197C6
:10010000FE010E949707C136D107C9F70E94E00699
:100110000C94A2070C94000090E0FC01E255FF4F04
:100120002491FC01E656FF4F8491882399F090E0DA
:10013000880F991FFC01E057FF4FA591B491FC0176
:10014000EA57FF4F859194918FB7F894EC91E22B89
:10015000EC938FBF0895CF92DF92EF92FF920F93AF
:100160001F93CF93DF936C017A018B01C0E0D0E045
:10017000CE15DF0589F0D8016D918D01D601ED9185
:10018000FC910190F081E02DC6010995892B11F4B5
:100190007E0102C02196ECCFC701DF91CF911F9164
:1001A0000F91FF90EF90DF90CF900895FC01538D59
:1001B000448D252F30E0842F90E0821B930B541741
:1001C00010F0CF96089501970895FC01918D828DCE
:1001D000981761F0828DDF01A80FB11D5D968C919B
:1001E000928D9F5F9F73928F90E008958FEF9FEFA6
:1001F0000895FC01918D828D981731F0828DE80F62
:10020000F11D858D90E008958FEF9FEF0895FC011B
:10021000918D228D892F90E0805C9F4F821B9109E8
:100220008F73992708958BEB91E00E94070121E0DD
:10023000892B09F420E0822F0895FC01848DDF01D1
:10024000A80FB11DA35ABF4F2C91848D90E0019649
:100250008F739927848FA689B7892C93A089B18938
:100260008C9180648C93938D848D981306C0028842
:10027000F389E02D80818F7D80830895EF92FF9236
:100280000F931F93CF93DF93EC0181E0888F9B8DB9
:100290008C8D981305C0E889F989808185FD24C07B
:1002A000F62E0B8D10E00F5F1F4F0F731127E02EFE
:1002B0008C8DE8120CC00FB607FCFACFE889F989DB
:1002C000808185FFF5CFCE010E941D01F1CF8B8D7E
:1002D000FE01E80FF11DE35AFF4FF0820B8FEA8910
:1002E000FB898081806207C0EE89FF896083E8898D
:1002F000F98980818064808381E090E0DF91CF91F3
:100300001F910F91FF90EF900895CF93DF93EC0131
:10031000888D8823C9F0EA89FB89808185FD05C025
:10032000A889B9898C9186FD0FC00FB607FCF5CF5F
:10033000808185FFF2CFA889B9898C9185FFEDCFA7
:10034000CE010E941D01E7CFDF91CF91089580E09B
:1003500090E0892B29F00E94130181110C94000078
:100360000895833081F028F4813099F08230A1F033
:1003700008958730A9F08830B9F08430D1F48091A5
:1003800080008F7D03C0809180008F7780938000F4
:10039000089584B58F7702C084B58F7D84BD08959C
:1003A0008091B0008F7703C08091B0008F7D8093E3
:1003B000B00008951F93CF93DF93282F30E0F90109
:1003C000EE58FF4F8491F901E255FF4FD491F901A6
:1003D000E656FF4FC491CC23C9F0162F81110E941D
:1003E000B101EC2FF0E0EE0FFF1FEA57FF4FA59190
:1003F000B4918FB7F894111105C09C91ED2FE09541
:10040000E92302C0EC91ED2BEC938FBFDF91CF91EC
:100410001F910895089585ED8093BC008091BC00E4
:1004200084FDFCCF10928301089540915D01262F39
:1004300030E0240F311D21323105DCF4209183019D
:100440002430C9F4FC0180E090E0861758F4309124
:100450005D012191DC01A55CBE4FA30FB11D2C9362
:100460000196F3CF80915D01680F60935D0180E09C
:10047000089581E0089582E0089508958FEF9FEF39
:1004800008958FEF9FEF089580913A0190E0919544
:10049000819591090895CF93DF9300D0CDB7DEB752
:1004A000CB01642F49835A830E9415024981842F0E
:1004B0005A81952F0F900F90DF91CF910895CF9390
:1004C000DF931F92CDB7DEB7698361E0CE0101965D
:1004D0000E94150281E090E00F90DF91CF91089586
:1004E000089580E090E008950E949D071F920F926A
:1004F0000FB60F9211242F933F934F935F936F93F7
:100500007F938F939F93AF93BF93EF93FF938BEB67
:1005100091E00E941D01FF91EF91BF91AF919F91DA
:100520008F917F916F915F914F913F912F910F909C
:100530000FBE0F901F9018951F920F920FB60F923B
:1005400011242F938F939F93EF93FF93E091CB010F
:10055000F091CC018081E091D101F091D20182FD36
:1005600012C090818091D4018F5F8F732091D5014B
:10057000821751F0E091D401F0E0E554FE4F958FE1
:100580008093D40101C08081FF91EF919F918F9161
:100590002F910F900FBE0F901F9018951F920F92E2
:1005A0000FB60F9211242F933F938F939F93AF9386
:1005B000BF938091AE019091AF01A091B001B09135
:1005C000B1013091AD0123E0230F2D3720F40196C6
:1005D000A11DB11D05C026E8230F0296A11DB11D66
:1005E0002093AD018093AE019093AF01A093B00131
:1005F000B093B1018091A9019091AA01A091AB01A2
:10060000B091AC010196A11DB11D8093A9019093F9
:10061000AA01A093AB01B093AC01BF91AF919F91A0
:100620008F913F912F910F900FBE0F901F901895B3
:100630001F920F920FB60F9211242F933F934F9357
:100640005F936F937F938F939F93AF93BF93EF933A
:10065000FF93E0910201F09103010995FF91EF9161
:10066000BF91AF919F918F917F916F915F914F91CA
:100670003F912F910F900FBE0F901F9018951F92D2
:100680000F920FB60F9211242F933F934F935F93C6
:100690006F937F938F939F93AF93BF93EF93FF934A
:1006A000E0910001F09101010995FF91EF91BF9157
:1006B000AF919F918F917F916F915F914F913F91FA
:1006C0002F910F900FBE0F901F9018951F920F92B1
:1006D0000FB60F9211242F933F934F935F936F9315
:1006E0007F938F939F93AF93BF93EF93FF938091EB
:1006F000B900887F803609F49CC068F5883209F417
:100700005BC090F4803109F454C038F4882309F4B4
:10071000F6C0883009F44DC0F6C0883109F44CC0E9
:10072000803209F45DC0EFC0803409F468C048F439
:10073000803309F455C0883309F0E5C08093820105
:10074000D8C0803509F44FC0883509F45DC08834BD
:1007500009F0D9C0D6C0883909F4C7C0A8F48837D1
:1007600009F467C038F4883609F463C0803709F4A7
:1007700060C0C9C0883809F4B8C0803909F45FC0C6
:10078000803809F0C0C05BC0803B09F486C038F4F3
:10079000803A09F466C0883A09F47FC0B4C0803C4E
:1007A00009F4A7C0883C09F4A4C0883B09F48AC0B6
:1007B000AAC08091A80110C09091A7018091A601C4
:1007C000981770F5E091A70181E08E0F8093A70143
:1007D000F0E0EA57FE4F80818093BB0085EC86C035
:1007E000809382018EC0E091A70181E08E0F8093FB
:1007F000A7018091BB00F0E0EA57FE4F8083909103
:10080000A7018091A6016EC0E091A70181E08E0F43
:100810008093A7018091BB00F0E0EA57FE4F8083F0
:100820008091850181116DC081E08093840184EA0B
:1008300061C083E08093830110928101CFCF8091CA
:100840008101803208F051C0E091810181E08E0F7A
:10085000809381018091BB00F0E0EF59FE4F8083CF
:10086000BDCF85EC8093BC00109283018091810103
:10087000803230F4E0918101F0E0EF59FE4F1082B8
:100880006091810170E0E0915F01F091600181E68B
:1008900091E009951092810136C084E08093830134
:1008A00010925E0110925D01E0915B01F0915C019C
:1008B000099580915D01811105C081E080935D0102
:1008C00010923B01E0915E0181E08E0F80935E010A
:1008D000F0E0E55CFE4F80818093BB0090915E016B
:1008E00080915D01981708F479CF85E88093BC006A
:1008F0000AC085EC8093BC001092830104C0109262
:1009000082010E940B02FF91EF91BF91AF919F91E5
:100910008F917F916F915F914F913F912F910F90A8
:100920000FBE0F901F9018951F920F920FB60F9247
:1009300011242F933F934F935F936F937F938F93E4
:100940009F93AF93BF93EF93FF938091390187FFFC
:1009500005C010928500109284001BC020913901BF
:10096000022E000C330B8091880290E02817390783
:1009700084F480913901082E000C990BFC01EE0FD4
:10098000FF1F8E0F9F1FFC01EC59FD4F808186FDDC
:1009900015C0809139018F5F809339012091390111
:1009A000022E000C330B8091880290E02817390743
:1009B000C4F4809139018C3064F113C08091390105
:1009C000082E000C990BFC01EE0FFF1F8E0F9F1FCE
:1009D000FC01EC59FD4F808160E08F730E94DA01C9
:1009E000D8CF8091840090918500049680349C49F2
:1009F00018F480E49CE905C0809184009091850002
:100A0000049690938900809388008FEF809339013A
:100A10003BC0209184003091850080913901082EDF
:100A2000000C990BFC01EE0FFF1F8E0F9F1FFC01A6
:100A3000EC59FD4F81819281820F931F9093890021
:100A40008093880080913901082E000C990BFC01DD
:100A5000EE0FFF1F8E0F9F1FFC01EC59FD4F808191
:100A600086FF12C080913901082E000C990BFC0101
:100A7000EE0FFF1F8E0F9F1FFC01EC59FD4F808171
:100A800061E08F730E94DA01FF91EF91BF91AF9106
:100A90009F918F917F916F915F914F913F912F9196
:100AA0000F900FBE0F901F9018951F920F920FB6C8
:100AB0000F9211240F931F932F933F934F935F93A4
:100AC0006F937F938F939F93AF93BF93CF93DF9356
:100AD000EF93FF932091890230E0F901EE58FF4F28
:100AE0008491F901E255FF4FD491F901E656FF4F89
:100AF000C491CC23A1F081110E94B101EC2FF0E050
:100B0000EE0FFF1FE859FF4FA591B491EC91ED2333
:100B100031E020E009F430E0832F922F02C080E022
:100B200090E020918B0230918C022F5F3F4F3093E9
:100B30008C0220938B0220915503243618F025E077
:100B400020938A0220918A02233029F118F422305E
:100B500039F09FC02430D9F1253009F470C099C014
:100B6000892B09F096C01092550310928C021092B6
:100B70008B02E091550381E08E0F80935503F0E0E6
:100B800080918B0290918C02EE0FFF1FE357FD4F77
:100B90009183808333C0019709F07BC0E0915503B6
:100BA00081E08E0F80935503F0E080918B0290914D
:100BB0008C02EE0FFF1FE357FD4F9183808310924D
:100BC0008C0210928B0284E080938A0262C0892B8F
:100BD000B9F4E091550381E08E0F80935503F0E066
:100BE00080918B0290918C02EE0FFF1FE357FD4F17
:100BF0009183808310928C0210928B0283E0E4CF69
:100C000080918B0290918C028536910508F441C049
:100C100085E080938A022FB7F8948091AE0190917D
:100C2000AF01A091B001B091B1012FBF80935603E5
:100C300090935703A0935803B09359032AC02FB73A
:100C4000F8944091AE015091AF016091B001709164
:100C5000B1012FBF00915603109157032091580303
:100C600030915903401B510B620B730B493C5105EA
:100C70006105710540F01092550310928C0210929C
:100C80008B0282E0A1CF892B21F410928C0210926A
:100C90008B02FF91EF91DF91CF91BF91AF919F9127
:100CA0008F917F916F915F914F913F912F911F9104
:100CB0000F910F900FBE0F901F9018951092BE01CC
:100CC0001092BD0188EE93E0A0E0B0E08093BF01F8
:100CD0009093C001A093C101B093C20128E031E01C
:100CE0003093BC012093BB0125EC30E03093C80168
:100CF0002093C70124EC30E03093CA012093C9014E
:100D000020EC30E03093CC012093CB0121EC30E09B
:100D10003093CE012093CD0122EC30E03093D0010E
:100D20002093CF0126EC30E03093D2012093D10103
:100D30001092D4011092D5011092D6011092D701D1
:100D400010925B0210925A0280935C0290935D02B3
:100D5000A0935E02B0935F028AE191E09093590202
:100D6000809358028FEF8093890280918802ACECC7
:100D7000B3E09FEF48EB5BE08C3078F48C93282F46
:100D800030E0F901EE0FFF1F2E0F3F1FF901EC5964
:100D9000FD4F528341838F5F01C09C93139623E0E4
:100DA000A83DB20749F7809388028FEF9FEF909399
:100DB000C9038093C8039093CB038093CA0308951B
:100DC000789484B5826084BD84B5816084BD85B526
:100DD000826085BD85B5816085BD80916E00816032
:100DE00080936E00109281008091810082608093D8
:100DF00081008091810081608093810080918000DA
:100E00008160809380008091B10084608093B10004
:100E10008091B00081608093B00080917A008460FE
:100E200080937A0080917A00826080937A0080912A
:100E30007A00816080937A0080917A008068809344
:100E40007A001092C1001092B8011092B7018091FF
:100E5000B201811109C081E08093B20188E00E9453
:100E60008C008CE00E948C008091B3019091B401C1
:100E7000C29709F457C082E390E09093B401809345
:100E8000B30161E088E00E94DA0185E00E948C00F5
:100E9000E7E7F0E0E491E33019F150F4E130D1F00C
:100EA000E230E1F584B5806284BD8FE788BD3AC049
:100EB000E73011F1E83049F1E43081F580918000AC
:100EC0008062809380008FE790E090938B00809306
:100ED0008A0028C084B5806884BD8FE787BD22C0A2
:100EE000809180008068809380008FE790E09093ED
:100EF00089008093880016C08091B000806880933C
:100F0000B0008FE78093B3000DC08091B000806285
:100F10008093B0008FE78093B40004C060E085E068
:100F20000E94DA01389A409A0E94A701FDCFEE0F85
:100F3000FF1F0590F491E02D099481E090E0F89472
:080F40000C94A207F894FFCF06
:100F48000A020A02000000003E01AB00D60085013B
:100F58000701E500F900000000005F024B02710282
:080F68003D02440241023E0279
:107800000C94343C0C94513C0C94513C0C94513CE1
:107810000C94513C0C94513C0C94513C0C94513CB4
:107820000C94513C0C94513C0C94513C0C94513CA4
:107830000C94513C0C94513C0C94513C0C94513C94
:107840000C94513C0C94513C0C94513C0C94513C84
:107850000C94513C0C94513C0C94513C0C94513C74
:107860000C94513C0C94513C11241FBECFEFD8E036
:10787000DEBFCDBF11E0A0E0B1E0ECE9FFE702C060
:1078800005900D92A230B107D9F712E0A2E0B1E065
:1078900001C01D92AD30B107E1F70E942D3D0C945F
:1078A000CC3F0C94003C982F959595959595959582
:1078B000905D8F708A307CF0282F295A8091C0000B
:1078C00085FFFCCF9093C6008091C00085FFFCCF60
:1078D0002093C6000895282F205DF0CF982F809127
:1078E000C00085FFFCCF9093C6000895EF92FF92F1
:1078F0000F931F93EE24FF2487018091C00087FD22
:1079000017C00894E11CF11C011D111D81E4E8164B
:1079100082E4F8068FE0080780E0180770F3E09132
:107920000401F091050109958091C00087FFE9CF1E
:107930008091C6001F910F91FF90EF9008950E94D3
:10794000763C982F8091C00085FFFCCF9093C600B5
:1079500091362CF490330CF09053892F089597555D
:10796000892F08951F930E949F3C182F0E949F3CCF
:107970001295107F810F1F9108951F93182F882350
:1079800021F00E94763C1150E1F71F9108951F935A
:10799000182F0E94763C803249F0809103018F5F5E
:1079A000809303018530C1F01F9108958091C0003C
:1079B00085FFFCCF84E18093C6008091C00085FFE5
:1079C000FCCF1093C6008091C00085FFFCCF80E102
:1079D0008093C6001F910895E0910401F091050184
:1079E00009951F9108950E94763C803241F0809164
:1079F00003018F5F80930301853081F008958091AA
:107A0000C00085FFFCCF84E18093C6008091C00058
:107A100085FFFCCF80E18093C6000895E0910401CA
:107A2000F09105010995089540E951E08823A1F0FE
:107A30002D9A28EE33E0FA013197F1F721503040CA
:107A4000D1F72D9828EE33E0FA013197F1F7215064
:107A50003040D1F7815061F708953F924F925F9285
:107A60006F927F928F929F92AF92BF92CF92DF924E
:107A7000EF92FF920F931F93CF93DF93000080E16B
:107A80008093C4001092C50088E18093C10086E015
:107A90008093C2005098589A259A81E00E94143D24
:107AA00024E1F22E9EE1E92E85E9D82E0FE0C02ECA
:107AB00010E1B12EAA24A394B1E49B2EA6E58A2E50
:107AC000F2E57F2EE0E26E2E79E4572E63E5462E36
:107AD00050E5352E0E94763C8033B1F18133B9F107
:107AE000803409F46FC0813409F476C0823409F41B
:107AF00085C0853409F488C0803531F1823521F1A3
:107B0000813511F1853509F485C0863509F48DC0BC
:107B1000843609F496C0843709F403C1853709F423
:107B200072C1863709F466C0809103018F5F80932C
:107B30000301853079F6E0910401F0910501099582
:107B40000E94763C803351F60E94F33CC3CF0E94E2
:107B5000763C803249F78091C00085FFFCCFF092DF
:107B6000C6008091C00085FFFCCF9092C600809136
:107B7000C00085FFFCCF8092C6008091C00085FFC9
:107B8000FCCF7092C6008091C00085FFFCCF609250
:107B9000C6008091C00085FFFCCF5092C600809146
:107BA000C00085FFFCCF4092C6008091C00085FFD9
:107BB000FCCF3092C6008091C00085FFFCCFB09210
:107BC000C60088CF0E94763C863808F4BDCF0E945C
:107BD000763C0E94F33C7ECF0E94763C803809F4CC
:107BE0009CC0813809F40BC1823809F43CC1883942
:107BF00009F48FC080E00E94C73C6CCF84E10E94F2
:107C0000BD3C0E94F33C66CF85E00E94BD3C0E94D3
:107C1000F33C60CF0E94763C809306010E94763C44
:107C2000809307010E94F33C55CF0E94763C80333D
:107C300009F41DC183E00E94BD3C80E00E94C73C66
:107C400049CF0E94763C809309020E94763C809343
:107C5000080280910C028E7F80930C020E94763C79
:107C6000853409F415C18091080290910902892B8D
:107C700089F000E010E00E94763CF801E85FFE4FDA
:107C800080830F5F1F4F80910802909109020817AF
:107C9000190788F30E94763C803209F045CF809125
:107CA0000C0280FF01C16091060170910701660F0F
:107CB000771F7093070160930601A0910802B091AD
:107CC00009021097C9F0E8E0F1E09B01AD014E0F09
:107CD0005F1FF999FECF32BD21BD819180BDFA9A17
:107CE000F99A2F5F3F4FE417F50799F76A0F7B1F4B
:107CF00070930701609306018091C00085FFFCCF5F
:107D0000F092C6008091C00085FFFCCFB092C60003
:107D1000E1CE83E00E94C73CDDCE82E00E94C73CFA
:107D2000D9CE0E94763C809309020E94763C8093D3
:107D300008028091060190910701880F991F909386
:107D40000701809306010E94763C853409F4A6C0A1
:107D500080910C028E7F80930C020E94763C8032D0
:107D600009F0B8CE8091C00085FFFCCFF092C6002C
:107D7000609108027091090261157105B9F140E046
:107D800050E080910C02A82FA170B82FB27011C0E2
:107D9000BB2309F45CC0E0910601F0910701319624
:107DA000F0930701E09306014F5F5F4F46175707B7
:107DB000E8F4AA2369F3F999FECF209106013091E6
:107DC000070132BD21BDF89A90B58091C00085FFB2
:107DD000FCCF9093C6002F5F3F4F30930701209355
:107DE00006014F5F5F4F4617570718F38091C00099
:107DF00085FDE5CE8091C00085FFF8CFE0CE81E023
:107E00000E94C73C67CE0E94763C803209F08CCE3F
:107E10008091C00085FFFCCFF092C6008091C00029
:107E200085FFFCCFE092C6008091C00085FFFCCFAB
:107E3000D092C6008091C00085FFFCCFC092C600E2
:107E40008091C00085FFFCCFB092C60043CEE09188
:107E50000601F091070194918091C00085FFFCCF4D
:107E60009093C6009CCF80E10E94C73C33CE0E9415
:107E7000763C0E94763C182F0E94763C112309F430
:107E800083C0113009F484C08FE00E94C73C22CE29
:107E900080910C02816080930C02E5CE80910C02EF
:107EA000816080930C0259CF809107018823880F4D
:107EB000880B8A2180930B02809106019091070123
:107EC000880F991F90930701809306018091080203
:107ED00080FF09C080910802909109020196909359
:107EE000090280930802F894F999FECF1127E091D6
:107EF0000601F0910701C8E0D1E08091080290915D
:107F00000902103091F40091570001700130D9F34B
:107F100003E000935700E89500915700017001308D
:107F2000D9F301E100935700E89509901990009169
:107F3000570001700130D9F301E000935700E89534
:107F40001395103498F011270091570001700130FB
:107F5000D9F305E000935700E895009157000170B0
:107F60000130D9F301E100935700E895329602976A
:107F700009F0C7CF103011F00296E5CF112480919F
:107F8000C00085FFB9CEBCCE8EE10E94C73CA2CD19
:0C7F900085E90E94C73C9ECDF894FFCF0D
:027F9C00800063
:040000030000780081
:00000001FF
