:100000000C9462000C94CC050C94A5050C948A0009
:100010000C948A000C948A000C948A000C941608A4
:100020000C948A000C948A000C948A000C9421078A
:100030000C948A000C948A000C948A000C948A0018
:100040000C945B050C948A000C94A2010C94B40DE2
:100050000C948A000C948A000C948A000C948A00F8
:100060000C94F3050C948A00000000002300260085
:10007000290000000000240027002A0000000000E2
:10008000250028002B0004040404040404040202D4
:100090000202020203030303030301020408102007
:1000A0004080010204081020010204081020000012
:1000B0000008000201000003040700000000000027
:1000C0000000DA0D11241FBECFEFD8E0DEBFCDBF98
:1000D00011E0A0E0B1E0E8E2F3E202C005900D9289
:1000E000A033B107D9F723E0A0E3B1E001C01D922E
:1000F000A43FB207E1F710E0C2E6D0E004C02197C8
:10010000FE010E948711C136D107C9F70E945C0E1B
:100110000C9492110C940000FC01538D448D252FFA
:1001200030E0842F90E0821B930B541710F0CF9691
:10013000089501970895FC01918D828D981761F0C3
:10014000828DDF01A80FB11D5D968C91928D9F5F0E
:100150009F73928F90E008958FEF9FEF0895FC01B9
:10016000918D828D981731F0828DE80FF11D858D6C
:1001700090E008958FEF9FEF0895FC01918D228DFF
:10018000892F90E0805C9F4F821B91098F73992784
:10019000089580E090E0892B29F00E94930B811153
:1001A0000C9400000895833081F028F4813099F098
:1001B0008230A1F008958730A9F08830B9F08430FA
:1001C000D1F4809180008F7D03C0809180008F7773
:1001D00080938000089584B58F7702C084B58F7DA9
:1001E00084BD08958091B0008F7703C08091B000E6
:1001F0008F7D8093B00008958E3008F08E50877008
:10020000806480937C0080917A00806480937A007F
:1002100080917A0086FDFCCF809178002091790052
:1002200090E0922B08953FB7F8948091BB01909194
:10023000BC01A091BD01B091BE0126B5A89B05C02F
:100240002F3F19F00196A11DB11D3FBFBA2FA92F55
:10025000982F8827820F911DA11DB11DBC01CD01D2
:1002600042E0660F771F881F991F4A95D1F70895BE
:10027000089585ED8093BC008091BC0084FDFCCF87
:1002800010929001089540916A01262F30E0240FCA
:10029000311D21323105DCF4209190012430C9F464
:1002A000FC0180E090E0861758F430916A012191BA
:1002B000DC01A85BBE4FA30FB11D2C930196F3CFB9
:1002C00080916A01680F60936A0180E0089581E07F
:1002D000089582E0089508958FEF9FEF08958FEFBE
:1002E0009FEF08958091470190E091958195910944
:1002F0000895CF93DF9300D0CDB7DEB7CB01642F45
:1003000049835A830E9443014981842F5A81952F42
:100310000F900F90DF91CF910895CF93DF931F92AD
:10032000CDB7DEB7698361E0CE0101960E9443013B
:1003300081E090E00F90DF91CF910895089580E0E3
:1003400090E008951F920F920FB60F9211242F93F1
:100350008F939F93EF93FF93E091E701F091E80172
:100360008081E091ED01F091EE0182FD12C090815B
:100370008091F0018F5F8F732091F101821751F00E
:10038000E091F001F0E0E952FE4F958F8093F0018B
:1003900001C08081FF91EF919F918F912F910F90DC
:1003A0000FBE0F901F901895FC01848DDF01A80FE0
:1003B000B11DA35ABF4F2C91848D90E001968F738D
:1003C0009927848FA689B7892C93A089B1898C91AC
:1003D00080648C93938D848D981306C00288F38972
:1003E000E02D80818F7D80830895EF92FF920F939F
:1003F0001F93CF93DF93EC0181E0888F9B8D8C8DD1
:10040000981305C0E889F989808185FD24C0F62EFE
:100410000B8D10E00F5F1F4F0F731127E02E8C8D97
:10042000E8120CC00FB607FCFACFE889F989808181
:1004300085FFF5CFCE010E94D401F1CF8B8DFE0157
:10044000E80FF11DE35AFF4FF0820B8FEA89FB8919
:100450008081806207C0EE89FF896083E889F9891D
:1004600080818064808381E090E0DF91CF911F9153
:100470000F91FF90EF900895CF93DF93EC01888D5B
:100480008823C9F0EA89FB89808185FD05C0A88998
:10049000B9898C9186FD0FC00FB607FCF5CF80811E
:1004A00085FFF2CFA889B9898C9185FFEDCFCE0168
:1004B0000E94D401E7CFDF91CF9108951F93CF938E
:1004C000DF93282F30E0F901E255FF4F8491F901C5
:1004D000E656FF4FD491F901EA57FF4FC491CC2360
:1004E000C9F0162F81110E94D300EC2FF0E0EE0F1F
:1004F000FF1FE458FF4FA591B4918FB7F8941111E5
:1005000005C09C91ED2FE095E92302C0EC91ED2B05
:10051000EC938FBFDF91CF911F910895CF93DF931D
:1005200090E0FC01E656FF4F2491FC01EA57FF4F93
:100530008491882361F190E0880F991FFC01EE58A7
:10054000FF4FC591D491FC01E458FF4FA591B491A0
:10055000611109C09FB7F894888120958223888310
:10056000EC912E230BC0623061F49FB7F894388170
:10057000822F809583238883EC912E2B2C939FBF11
:1005800006C08FB7F894E8812E2B28838FBFDF91A8
:10059000CF9108951F93CF93DF93182FEB0161E064
:1005A0000E948E02209711F460E004C0CF3FD10575
:1005B00039F461E0812FDF91CF911F910C945E029D
:1005C000E12FF0E0E255FF4FE491E330F9F048F419
:1005D000E130B9F0E230A1F584B5806284BDC8BDD8
:1005E00034C0E730E9F0E83019F1E43049F58091A2
:1005F0008000806280938000D0938B00C0938A003B
:1006000024C084B5806884BDC7BD1FC080918000B0
:10061000806880938000D0938900C093880015C0C3
:100620008091B00080688093B000C093B3000DC08B
:100630008091B00080628093B000C093B40005C088
:10064000C038D1050CF0B5CFAFCFDF91CF911F915E
:100650000895EF92FF920F931F93CF93DF931F9212
:10066000CDB7DEB7282F7B016436710544F46D39B0
:100670007F4F44F48DE9E82EFF24FA9403C093E6FB
:10068000E92EF12CA701F7FE04C0442755274E1987
:100690005F093FEF349FC001359F900D112464E640
:1006A00070E00E945F118B0180913D0181110DC0AE
:1006B00081E080933D0161E088E029830E948E0201
:1006C00061E08CE00E948E022981213019F02230F5
:1006D000B9F034C080913E0190913F018E159F0585
:1006E00069F1F0923F01E0923E01F7FC02C061E047
:1006F00001C060E088E00E945E02B80185E015C09C
:1007000080914001909141018E159F05B9F0F092C2
:100710004101E0924001F7FC02C060E001C061E0ED
:100720008CE00E945E02B80186E00F90DF91CF91CD
:100730001F910F91FF90EF900C94CA020F90DF91E0
:10074000CF911F910F91FF90EF900895CF92DF927C
:10075000EF92FF920F931F93CF93C82F2FEF280F85
:1007600030E0F901EE0FFF1FEE5BFE4F80819181BB
:10077000019709F0FBC0220F331F220F331FA9017D
:1007800045535E4FDA01CD90DD90ED90FC90F9017C
:10079000EC5CFE4F80819181A281B3810997A10910
:1007A000B109C816D906EA06FB06ECF0DA014D914C
:1007B0005D916D917C9180819181A281B381099637
:1007C000A11DB11D84179507A607B70764F060E067
:1007D00070E08C2FCF911F910F91FF90EF90DF90E1
:1007E000CF900C942903F901E553FE4FC080D180CE
:1007F000E280F380D901AC5CBE4F4D915D916D916B
:100800007C9113974950510961097109C416D506A5
:10081000E606F70694F44D915D916D917C911397E6
:10082000C080D180E280F380415351096109710990
:10083000C416D506E606F70664F5D901A553BE4FE2
:10084000CD90DD90ED90FC901397F901EC5CFE4F9C
:100850004081518162817381475F5F4F6F4F7F4F4E
:100860004C155D056E057F050CF080C040815181FF
:10087000628173810D911D912D913C9113974F5C75
:100880005F4F6F4F7F4F4017510762077307B4F5F3
:100890006DC04D915D916D917C9113970081118197
:1008A00022813381401B510B620B730B77FF0AC00F
:1008B00040815181628173818D919D910D90BC9198
:1008C000A02D08C04D915D916D917C9180819181A9
:1008D000A281B3819A01AB01281B390B4A0B5B0B38
:1008E000A9E1B0E00E94430F29E230E040E050E08F
:1008F0000E94240FB9016B5F7F4F6BCF4081518104
:10090000628173810D911D912D913C911397401B34
:10091000510B620B730B77FF09C04D915D916D9187
:100920007C9180819181A281B38109C040815181F4
:10093000628173818D919D910D90BC91A02D9A0142
:10094000AB01281B390B4A0B5B0BA9E1B0E00E94FD
:10095000430F29E230E040E050E00E94240F2B5F7B
:100960003F4F66277727621B730B33CFCF911F91C1
:100970000F91FF90EF90DF90CF90089599B129B13A
:1009800030E084E0359527958A95E1F7892F90E04E
:1009900095958795959587958227932780FF0CC01D
:1009A0008091CB019091CC01A091CD01B091CE016D
:1009B0000196A11DB11D0BC08091CB019091CC017E
:1009C000A091CD01B091CE010197A109B109809309
:1009D000CB019093CC01A093CD01B093CE0181E0E7
:1009E0000C94A60399B189B193FB222720F930E03A
:1009F000881F8827881F90E02817390761F08091A9
:100A0000CF019091D001A091D101B091D201019775
:100A1000A109B1090BC08091CF019091D001A091A3
:100A2000D101B091D2010196A11DB11D8093CF01DA
:100A30009093D001A093D101B093D20182E00C94A5
:100A4000A6038F929F92AF92BF92CF92DF92EF92C6
:100A5000FF926B017C010E9413014B015C01C114E8
:100A6000D104E104F104F1F00E941301DC01CB0197
:100A700088199909AA09BB09883E9340A105B105C7
:100A800070F321E0C21AD108E108F10888EE880E5F
:100A900083E0981EA11CB11CC114D104E104F1042F
:100AA00019F7DDCFFF90EF90DF90CF90BF90AF9020
:100AB0009F908F9008951F920F920FB60F9211245E
:100AC0002F933F938F939F93AF93BF938091B701E1
:100AD0009091B801A091B901B091BA013091B601DD
:100AE00023E0230F2D3720F40196A11DB11D05C071
:100AF00026E8230F0296A11DB11D2093B601809315
:100B0000B7019093B801A093B901B093BA01809155
:100B1000BB019091BC01A091BD01B091BE010196B5
:100B2000A11DB11D8093BB019093BC01A093BD0199
:100B3000B093BE01BF91AF919F918F913F912F9143
:100B40000F900FBE0F901F9018951F920F920FB627
:100B50000F9211242F933F934F935F936F937F9343
:100B60008F939F93AF93BF93EF93FF93E091020115
:100B7000F09103010995FF91EF91BF91AF919F9182
:100B80008F917F916F915F914F913F912F910F9036
:100B90000FBE0F901F9018951F920F920FB60F92D5
:100BA00011242F933F934F935F936F937F938F9372
:100BB0009F93AF93BF93EF93FF93E0910001F09168
:100BC00001010995FF91EF91BF91AF919F918F9195
:100BD0007F916F915F914F913F912F910F900FBE39
:100BE0000F901F9018951F920F920FB60F9211241D
:100BF0002F933F934F935F936F937F938F939F9325
:100C0000AF93BF93EF93FF938091B900887F8036B5
:100C100009F49CC068F5883209F45BC090F4803117
:100C200009F454C038F4882309F4F6C0883009F474
:100C30004DC0F6C0883109F44CC0803209F45DC063
:100C4000EFC0803409F468C048F4803309F455C01B
:100C5000883309F0E5C080938F01D8C0803509F44E
:100C60004FC0883509F45DC0883409F0D9C0D6C0BA
:100C7000883909F4C7C0A8F4883709F467C038F484
:100C8000883609F463C0803709F460C0C9C0883869
:100C900009F4B8C0803909F45FC0803809F0C0C0D9
:100CA0005BC0803B09F486C038F4803A09F466C022
:100CB000883A09F47FC0B4C0803C09F4A7C0883CDE
:100CC00009F4A4C0883B09F48AC0AAC08091B50188
:100CD00010C09091B4018091B301981770F5E09124
:100CE000B40181E08E0F8093B401F0E0ED56FE4F29
:100CF00080818093BB0085EC86C080938F018EC07D
:100D0000E091B40181E08E0F8093B4018091BB002B
:100D1000F0E0ED56FE4F80839091B4018091B301D5
:100D20006EC0E091B40181E08E0F8093B401809198
:100D3000BB00F0E0ED56FE4F80838091920181115F
:100D40006DC081E08093910184EA61C083E080936B
:100D5000900110928E01CFCF80918E01803208F0E9
:100D600051C0E0918E0181E08E0F80938E018091C1
:100D7000BB00F0E0E259FE4F8083BDCF85EC80934D
:100D8000BC001092900180918E01803230F4E0918D
:100D90008E01F0E0E259FE4F108260918E0170E00A
:100DA000E0916C01F0916D018EE691E00995109251
:100DB0008E0136C084E08093900110926B011092F6
:100DC0006A01E0916801F0916901099580916A01D9
:100DD000811105C081E080936A0110924801E09181
:100DE0006B0181E08E0F80936B01F0E0E85BFE4FBA
:100DF00080818093BB0090916B0180916A0198176C
:100E000008F479CF85E88093BC000AC085EC809314
:100E1000BC001092900104C010928F010E94390111
:100E2000FF91EF91BF91AF919F918F917F916F91C2
:100E30005F914F913F912F910F900FBE0F901F9098
:100E400018951F920F920FB60F9211242F933F9374
:100E50004F935F936F937F938F939F93AF93BF93C2
:100E6000EF93FF938091460187FF05C010928500A4
:100E7000109284001BC020914601022E000C330BFF
:100E80008091980290E02817390784F480914601F8
:100E9000082E000C990BFC01EE0FFF1F8E0F9F1FF9
:100EA000FC01EC58FD4F808186FD15C08091460104
:100EB0008F5F8093460120914601022E000C330B78
:100EC0008091980290E028173907C4F48091460178
:100ED0008C3064F113C080914601082E000C990BF0
:100EE000FC01EE0FFF1F8E0F9F1FFC01EC58FD4F02
:100EF000808160E08F730E945E02D8CF8091840071
:100F000090918500049680349C4918F480E49CE913
:100F100005C080918400909185000496909389008B
:100F2000809388008FEF809346013BC0209184001E
:100F30003091850080914601082E000C990BFC0130
:100F4000EE0FFF1F8E0F9F1FFC01EC58FD4F81819C
:100F50009281820F931F90938900809388008091E3
:100F60004601082E000C990BFC01EE0FFF1F8E0F9F
:100F70009F1FFC01EC58FD4F808186FF12C08091BD
:100F80004601082E000C990BFC01EE0FFF1F8E0F7F
:100F90009F1FFC01EC58FD4F808161E08F730E9420
:100FA0005E02FF91EF91BF91AF919F918F917F91E1
:100FB0006F915F914F913F912F910F900FBE0F90C6
:100FC0001F901895E82FF0E0EE0FFF1FE05CFE4F3A
:100FD000118210820C94290380913C01811125C05B
:100FE00081E080933C0162E082E00E948E0262E038
:100FF00083E00E948E028EEB94E090930101809337
:101000000001809169008C7F816080936900E89A7B
:1010100082EF94E090930301809302018091690034
:10102000837F846080936900E99A08951F920F92EC
:101030000FB60F9211240F931F932F933F934F934B
:101040005F936F937F938F939F93AF93BF93CF9350
:10105000DF93EF93FF932091990230E0F901E2557D
:10106000FF4F8491F901E656FF4FD491F901EA57F9
:10107000FF4FC491CC23A1F081110E94D300EC2F2B
:10108000F0E0EE0FFF1FE859FF4FA591B491EC91EE
:10109000ED2331E020E009F430E0832F922F02C0ED
:1010A00080E090E020919B0230919C022F5F3F4FA7
:1010B00030939C0220939B0220916503243618F004
:1010C00025E020939A0220919A02233029F118F406
:1010D000223039F09FC02430D9F1253009F470C096
:1010E00099C0892B09F096C01092650310929C025A
:1010F00010929B02E091650381E08E0F809365035F
:10110000F0E080919B0290919C02EE0FFF1FE3564E
:10111000FD4F9183808333C0019709F07BC0E0913C
:10112000650381E08E0F80936503F0E080919B0260
:1011300090919C02EE0FFF1FE356FD4F9183808339
:1011400010929C0210929B0284E080939A0262C0EB
:10115000892BB9F4E091650381E08E0F80936503DC
:10116000F0E080919B0290919C02EE0FFF1FE356EE
:10117000FD4F9183808310929C0210929B0283E02A
:10118000E4CF80919B0290919C028536910508F4F2
:1011900041C085E080939A022FB7F8948091B701FF
:1011A0009091B801A091B901B091BA012FBF80937D
:1011B000660390936703A0936803B09369032AC002
:1011C0002FB7F8944091B7015091B8016091B901DF
:1011D0007091BA012FBF00916603109167032091AF
:1011E000680330916903401B510B620B730B493C40
:1011F00051056105710540F01092650310929C0243
:1012000010929B0282E0A1CF892B21F410929C02C4
:1012100010929B02FF91EF91DF91CF91BF91AF911F
:101220009F918F917F916F915F914F913F912F91FE
:101230001F910F910F900FBE0F901F90189580E097
:1012400090E0A6E1B3E48093300190933101A09344
:101250003201B093330181E00E94FC00BC01990F80
:10126000880B990B0E94311020E030E046E153E4F6
:101270000E94F40F87FF0DC080E090E0A0E8BFE37C
:101280008093C7019093C801A093C901B093CA018C
:1012900008C01092C7011092C8011092C9011092A3
:1012A000CA0182E00E94FC00BC01990F880B990BD7
:1012B0000E94311020E030E046E153E40E94F40F38
:1012C00087FF0DC080E090E0A0E8BFE38093C301FA
:1012D0009093C401A093C501B093C60108C01092B9
:1012E000C3011092C4011092C5011092C60183E09F
:1012F0000E94FC00BC01990F880B990B0E943110D1
:1013000020E030E046E153E40E94F40F87FF0DC077
:1013100080E090E0A0E8BFE38093BF019093C0011C
:10132000A093C101B093C20108951092BF01109221
:10133000C0011092C1011092C20108958F929F9234
:10134000AF92BF92CF92DF92EF92FF926B017C013E
:101350000E941F0920E030E040E85FE36091C30194
:101360007091C4018091C5019091C6010E94F40F53
:1013700020E030E040E85FE381114CC06091C7019C
:101380007091C8018091C9019091CA010E94F40F27
:1013900020E030E040E85FE3811120C06091BF01B0
:1013A0007091C0018091C1019091C2010E94F40F1F
:1013B00081110BC0C701B6010E94F90F6B017C01BE
:1013C00081E00E94E207B601CBC02DEC3CEC4CE47E
:1013D0005EE3C701B6010E94E610A0C06091BF01A4
:1013E0007091C0018091C1019091C2010E94F40FDF
:1013F0008111E0CFC701B6010E94F90F81E00E9480
:10140000E2072DEC3CEC4CE45EE3C701B6010E9420
:10141000E610A4C06091BF017091C0018091C1012C
:101420009091C2010E94F40F20E030E040E85FE3B9
:10143000811126C06091C7017091C8018091C901D6
:101440009091CA010E94F40F882309F4B3CFC70119
:10145000B6010E94F90F81E00E94E2072DEC3CECFE
:101460004CE45EE3C701B6010E94E6100E94F90F4A
:1014700082E00E94E20780E090E0A0E4B0E424C0B3
:101480006091C7017091C8018091C9019091CA0112
:101490000E94F40F811129C02DEC3CEC4CE45EE37A
:1014A000C701B6010E94E6100E94F90F81E00E9478
:1014B000E207C701B6010E94F90F82E00E94E2072D
:1014C00080E090E0A0E8BFE38093D3019093D40143
:1014D000A093D501B093D601FF90EF90DF90CF900D
:1014E000BF90AF909F908F9008958090D30190907F
:1014F000D401A090D501B090D60120E030E040E8C2
:101500005FE3C501B4010E94F40F81110FC0A70170
:10151000960160E070E0CB010E94870F0E94F90FF6
:1015200081E00E94E207C701B60118C020E030E068
:1015300040E450E4C501B4010E94F40F81113ACF98
:10154000C701B6010E94F90F81E00E94E207A701DE
:10155000960160E070E0CB010E94870F0E94F90FB6
:1015600082E0FF90EF90DF90CF90BF90AF909F9080
:101570008F900C94E2078F929F92AF92BF92CF927E
:10158000DF92EF92FF926B017C0149015A010E94A8
:101590001F0920E030E040E85FE3C501B4010E948C
:1015A000F40F811135C020E030E040E85FE3609146
:1015B000C7017091C8018091C9019091CA010E9430
:1015C000F40F882329F0C701B6010E949E09EBCFD2
:1015D00020E030E040E85FE36091C3017091C40116
:1015E0008091C5019091C6010E94F40F8111EBCF4B
:1015F00060E070E088E493E40E944C0DFF90EF906F
:10160000DF90CF90BF90AF909F908F900C94AA0CDA
:1016100020E030E040E450E4C501B4010E94F40F42
:10162000811126C020E030E040E85FE36091BF0117
:101630007091C0018091C1019091C2010E94F40F8C
:10164000882329F0C701B6010E949E09EBCF20E054
:1016500030E040E85FE36091C3017091C401809184
:10166000C5019091C6010E94F40F8111EBCFC0CF4C
:1016700020E030E040E551E4C501B4010E94F40FE0
:101680008111B6CF20E030E040E85FE36091C70110
:101690007091C8018091C9019091CA010E94F40F14
:1016A000882329F0C701B6010E949E09EBCF20E0F4
:1016B00030E040E85FE36091BF017091C00180912C
:1016C000C1019091C2010E94F40F8111EBCF90CF24
:1016D000CF92DF92EF92FF920F931F93CF93DF93FE
:1016E0006C017A018B01C0E0D0E0CE15DF0589F0F6
:1016F000D8016D918D01D601ED91FC910190F081A1
:10170000E02DC6010995892B11F47E0102C02196B6
:10171000ECCFC701DF91CF911F910F91FF90EF9018
:10172000DF90CF90089587ED91E00E94BD0021E009
:10173000892B09F420E0822F0895CF92DF92EF9257
:10174000FF92CF93DF93EC010296A1F4E091EB03BB
:10175000F0E0CF01880F991FE80FF91FEC58FD4FFB
:1017600080818F7B80838FEF9FEF90930701809321
:101770000601E7C080910601909107018C179D0733
:1017800009F4DFC0019609F056C08091EB038C305C
:1017900008F0D1C061E08AE00E948E02E091EB0384
:1017A000AE2FB0E0CD01880F991FA80FB91FAC581C
:1017B000BD4F8C91807C8A608C931092EC031092C8
:1017C000ED038E2F6CE00E9453119CE0899FB001C5
:1017D000112440E050E09A01260F371FD901AA0FCB
:1017E000BB1F2A0F3B1FD901AC58BD4F9C9196FDE2
:1017F00016C04F5F5F4F4C30510569F781110FC024
:101800001092800082E080938100109285001092F7
:101810008400B19A80916F00826080936F008E2F58
:1018200090E0FC01EE0FFF1FE80FF91FEC58FD4F91
:10183000808180648083C03222E0D2070CF03FC0F8
:10184000D7FD05C0C53BD10524F4DE0104C0A0E0EE
:1018500001C0A4EBB0E08091EC0328E830E069011E
:10186000C81AD10887FDD394CC0CDD1CCC0CDD1C30
:101870000D2C000CEE08FF088091ED0328E532E006
:10188000281B310987FD3395220F331F220F331F89
:10189000A901330F660B770B9A01AB012C193D0997
:1018A0004E095F090E944E0F24EB30E040E050E00B
:1018B0000E94240FC20ED31EE41EF51E01C06E014D
:1018C0008091EB038C3090F59091EC0348E850E068
:1018D000491B510997FD5395440F551F440F551F40
:1018E000C416D5068CF09091ED0328E532E0291B53
:1018F000310997FD3395220F331F220F331FA601A5
:101900002C153D050CF4A90142505109440F551FF7
:101910002FB7F89490E0FC01EE0FFF1F8E0F9F1F72
:10192000FC01EC58FD4F528341832FBFD093070138
:10193000C093060106C0C03282E0D8070CF480CF05
:10194000F5CFDF91CF91FF90EF90DF90CF9008958A
:101950000E948D110F931F93CF93DF9361E089E075
:101960000E948E02C0E0D0E00BEE1EE061E089E054
:101970000E945E02C8010197F1F760E089E00E94D1
:101980005E02C8010197F1F72196C234D10571F7C3
:10199000DF91CF911F910F910895CF92DF92EF9237
:1019A000FF926B017C0160E070E081E00E94E20741
:1019B00069E170E082E00E94E20768EC70E080E09C
:1019C00090E00E9421050E941F0920E030E040E8DD
:1019D0005FE3C701B6010E94F40F811113C020E03C
:1019E00030E040E85FE36091C7017091C8018091E9
:1019F000C9019091CA010E94F40F8823B9F00E9496
:101A00001F09EDCF20E030E040E050E4C701B6010F
:101A10000E94F40F8823D1F020E030E040E450E44D
:101A2000C701B6010E94F40F882319F160E070E04D
:101A300081E00E94E20760E070E082E00E94E2073D
:101A4000FF90EF90DF90CF900C94AA0C20E030E054
:101A500040E85FE36091C3017091C4018091C501CA
:101A60009091C6010E94F40F882301F30E941F0980
:101A7000EDCF20E030E040E85FE36091BF0170917E
:101A8000C0018091C1019091C2010E94F40F88238E
:101A900069F20E941F09EDCFCF92DF92EF92FF9281
:101AA0006B017C011092D3011092D4011092D501E8
:101AB0001092D6010E94EC071092CB011092CC013B
:101AC0001092CD011092CE010E94EC078091CB01C3
:101AD0009091CC01A091CD01B091CE0118161906BC
:101AE0001A061B065CF40E94EC076091CB01709112
:101AF000CC018091CD019091CE0113C00E94EC07E2
:101B00008091CB019091CC01A091CD01B091CE01FB
:101B10009C01AD0166277727CB01621B730B840BF9
:101B2000950B0E943110A70196010E94E110181632
:101B30005CF06EE170E081E00E94E2076EE170E02F
:101B400082E00E94E207C0CF60E070E081E00E9486
:101B5000E20760E070E082E00E94E207FF90EF9011
:101B6000DF90CF900C94AA0C1F920F920FB60F9299
:101B700011242F933F934F935F936F937F938F9392
:101B80009F93AF93BF93EF93FF9387ED91E00E94F4
:101B9000D401FF91EF91BF91AF919F918F917F9170
:101BA0006F915F914F913F912F910F900FBE0F90CA
:101BB0001F9018951092DA011092D90188EE93E0E7
:101BC000A0E0B0E08093DB019093DC01A093DD0105
:101BD000B093DE0120E131E03093D8012093D701AA
:101BE00025EC30E03093E4012093E30124EC30E075
:101BF0003093E6012093E50120EC30E03093E801DA
:101C00002093E70121EC30E03093EA012093E901D1
:101C100022EC30E03093EC012093EB0126EC30E035
:101C20003093EE012093ED011092F0011092F1013A
:101C30001092F2011092F30110926D0310926C0356
:101C400080936E0390936F03A0937003B09371031E
:101C500082E291E090936B0380936A038FEF80930D
:101C6000990280919802A8EEB3E09FEF48EB5BE009
:101C70008C3078F48C93282F30E0F901EE0FFF1FA1
:101C80002E0F3F1FF901EC58FD4F528341838F5FA8
:101C900001C09C93139623E0A43FB20749F78093B9
:101CA00098028FEF9FEF9093E5038093E403909366
:101CB000E7038093E6030895789484B5826084BD39
:101CC00084B5816084BD85B5826085BD85B5816040
:101CD00085BD80916E00816080936E0010928100BE
:101CE0008091810082608093810080918100816079
:101CF000809381008091800081608093800080913A
:101D0000B10084608093B1008091B00081608093C5
:101D1000B00080917A00846080937A0080917A008C
:101D2000826080937A0080917A00816080937A004B
:101D300080917A00806880937A001092C1006EE1F1
:101D400070E081E00E94E2076EE170E082E00E94B4
:101D5000E20768EC70E080E090E00E94210520E05E
:101D600030E040E551E460E070E080EF91E40E94F3
:101D7000BB0A60E070E080E89FE30E94CD0C20E0A9
:101D800030E040E85FE360E070E080EF91E40E94C3
:101D9000BB0A60E070E080EF91E40E944C0D60E0CF
:101DA00070E080E090E40E94CD0C80E090E00E9422
:101DB0009D0B20E030E040E551E460E070E080EF12
:101DC00091E40E94BB0A64E170E081E00E94E207B6
:101DD00064E170E082E00E94E20764E670E080E087
:101DE00090E00E94210560E070E081E00E94E2073F
:101DF00060E070E082E00E94E20784EB90E00E94E5
:101E00009D0B20E030E040E551E460E070E080EFC1
:101E100091EC0E94BB0A60E070E080EF91E40E94C8
:101E20004C0D60E070E080E090E40E94CD0C20E07A
:101E300030E040E85FE360E070E080EF91E40E9412
:101E4000BB0A0E94C900FDCF052E97FB1EF400942B
:101E50000E943B0F57FD07D00E94560F07FC03D08E
:101E60004EF40C943B0F50954095309521953F4F83
:101E70004F4F5F4F089590958095709561957F4F76
:101E80008F4F9F4F08950E94780FA59F900DB49F8C
:101E9000900DA49F800D911D11240895B7FF0C94FF
:101EA000430F0E94430F821B930B0895A1E21A2E49
:101EB000AA1BBB1BFD010DC0AA1FBB1FEE1FFF1FEE
:101EC000A217B307E407F50720F0A21BB30BE40B3E
:101ED000F50B661F771F881F991F1A9469F7609585
:101EE0007095809590959B01AC01BD01CF0108953F
:101EF000A29FB001B39FC001A39F700D811D11244B
:101F0000911DB29F700D811D1124911D089550588F
:101F1000BB27AA270E949F0F0C94A7100E9499101C
:101F200038F00E94A01020F039F49F3F19F426F4F5
:101F30000C9496100EF4E095E7FB0C949010E92FAA
:101F40000E94B81058F3BA17620773078407950701
:101F500020F079F4A6F50C94DA100EF4E0950B2E2F
:101F6000BA2FA02D0B01B90190010C01CA01A001EB
:101F70001124FF27591B99F0593F50F4503E68F146
:101F80001A16F040A22F232F342F4427585FF3CF87
:101F9000469537952795A795F0405395C9F77EF458
:101FA0001F16BA0B620B730B840BBAF09150A1F0A1
:101FB000FF0FBB1F661F771F881FC2F70EC0BA0F27
:101FC000621F731F841F48F4879577956795B795AF
:101FD000F7959E3F08F0B0CF9395880F08F09927AA
:101FE000EE0F9795879508950E946C1008F481E094
:101FF00008950E9400106894B1110C94DB100895AC
:102000000E94C01088F09F5798F0B92F9927B751B8
:10201000B0F0E1F0660F771F881F991F1AF0BA958C
:10202000C9F714C0B13091F00E94DA10B1E0089500
:102030000C94DA10672F782F8827B85F39F0B93FF2
:10204000CCF3869577956795B395D9F73EF490953F
:102050008095709561957F4F8F4F9F4F0895E894BD
:1020600009C097FB3EF490958095709561957F4FE0
:102070008F4F9F4F9923A9F0F92F96E9BB2793958E
:10208000F695879577956795B795F111F8CFFAF49E
:10209000BB0F11F460FF1BC06F5F7F4F8F4F9F4FCF
:1020A00016C0882311F096E911C0772321F09EE82D
:1020B000872F762F05C0662371F096E8862F70E093
:1020C00060E02AF09A95660F771F881FDAF7880F6D
:1020D0009695879597F90895990F0008550FAA0BC3
:1020E000E0E8FEEF16161706E807F907C0F012162B
:1020F0001306E407F50798F0621B730B840B950B2E
:1021000039F40A2661F0232B242B252B21F4089582
:102110000A2609F4A140A6958FEF811D811D08951F
:1021200097F99F6780E870E060E008959FEF80EC8A
:10213000089500240A94161617061806090608952D
:1021400000240A9412161306140605060895092E93
:102150000394000C11F4882352F0BB0F40F4BF2B02
:1021600011F460FF04C06F5F7F4F8F4F9F4F089542
:1021700057FD9058440F551F59F05F3F71F0479538
:10218000880F97FB991F61F09F3F79F0879508951D
:10219000121613061406551FF2CF4695F1DF08C03C
:1021A000161617061806991FF1CF86957105610559
:1021B00008940895E894BB2766277727CB0197F901
:1021C00008950E946C1008F48FEF08950E94F91092
:1021D0000C94A7100E94991038F00E94A01020F0D3
:1021E000952311F00C9490100C94961011240C94DB
:1021F000DB100E94B81070F3959FC1F3950F50E06B
:10220000551F629FF001729FBB27F00DB11D639FA8
:10221000AA27F00DB11DAA1F649F6627B00DA11D4E
:10222000661F829F2227B00DA11D621F739FB00DF4
:10223000A11D621F839FA00D611D221F749F332764
:10224000A00D611D231F849F600D211D822F762FFD
:102250006A2F11249F5750409AF0F1F088234AF0DA
:10226000EE0FFF1FBB1F661F771F881F9150504046
:10227000A9F79E3F510580F00C9490100C94DB1050
:102280005F3FE4F3983ED4F3869577956795B795CD
:10229000F795E7959F5FC1F7FE2B880F911D9695E7
:1022A000879597F90895991B79E004C0991F9617AF
:1022B00008F0961B881F7A95C9F78095089597FBBB
:1022C000072E16F4009407D077FD09D00E947311F1
:1022D00007FC05D03EF4909581959F4F0895709529
:1022E00061957F4F0895AA1BBB1B51E107C0AA1F30
:1022F000BB1FA617B70710F0A61BB70B881F991FA7
:102300005A95A9F780959095BC01CD010895EE0FDF
:10231000FF1F0590F491E02D099481E090E0F8947E
:082320000C949211F894FFCF18
:1023280038013801FFFFFFFFFFFFFFFF000000003B
:10233800F501680B8C003C02BD009B00AF0000005B
:1023480000008D0179019F016B0172016F016C0121
:107800000C94343C0C94513C0C94513C0C94513CE1
:107810000C94513C0C94513C0C94513C0C94513CB4
:107820000C94513C0C94513C0C94513C0C94513CA4
:107830000C94513C0C94513C0C94513C0C94513C94
:107840000C94513C0C94513C0C94513C0C94513C84
:107850000C94513C0C94513C0C94513C0C94513C74
:107860000C94513C0C94513C11241FBECFEFD8E036
:10787000DEBFCDBF11E0A0E0B1E0ECE9FFE702C060
:1078800005900D92A230B107D9F712E0A2E0B1E065
:1078900001C01D92AD30B107E1F70E942D3D0C945F
:1078A000CC3F0C94003C982F959595959595959582
:1078B000905D8F708A307CF0282F295A8091C0000B
:1078C00085FFFCCF9093C6008091C00085FFFCCF60
:1078D0002093C6000895282F205DF0CF982F809127
:1078E000C00085FFFCCF9093C6000895EF92FF92F1
:1078F0000F931F93EE24FF2487018091C00087FD22
:1079000017C00894E11CF11C011D111D81E4E8164B
:1079100082E4F8068FE0080780E0180770F3E09132
:107920000401F091050109958091C00087FFE9CF1E
:107930008091C6001F910F91FF90EF9008950E94D3
:10794000763C982F8091C00085FFFCCF9093C600B5
:1079500091362CF490330CF09053892F089597555D
:10796000892F08951F930E949F3C182F0E949F3CCF
:107970001295107F810F1F9108951F93182F882350
:1079800021F00E94763C1150E1F71F9108951F935A
:10799000182F0E94763C803249F0809103018F5F5E
:1079A000809303018530C1F01F9108958091C0003C
:1079B00085FFFCCF84E18093C6008091C00085FFE5
:1079C000FCCF1093C6008091C00085FFFCCF80E102
:1079D0008093C6001F910895E0910401F091050184
:1079E00009951F9108950E94763C803241F0809164
:1079F00003018F5F80930301853081F008958091AA
:107A0000C00085FFFCCF84E18093C6008091C00058
:107A100085FFFCCF80E18093C6000895E0910401CA
:107A2000F09105010995089540E951E08823A1F0FE
:107A30002D9A28EE33E0FA013197F1F721503040CA
:107A4000D1F72D9828EE33E0FA013197F1F7215064
:107A50003040D1F7815061F708953F924F925F9285
:107A60006F927F928F929F92AF92BF92CF92DF924E
:107A7000EF92FF920F931F93CF93DF93000080E16B
:107A80008093C4001092C50088E18093C10086E015
:107A90008093C2005098589A259A81E00E94143D24
:107AA00024E1F22E9EE1E92E85E9D82E0FE0C02ECA
:107AB00010E1B12EAA24A394B1E49B2EA6E58A2E50
:107AC000F2E57F2EE0E26E2E79E4572E63E5462E36
:107AD00050E5352E0E94763C8033B1F18133B9F107
:107AE000803409F46FC0813409F476C0823409F41B
:107AF00085C0853409F488C0803531F1823521F1A3
:107B0000813511F1853509F485C0863509F48DC0BC
:107B1000843609F496C0843709F403C1853709F423
:107B200072C1863709F466C0809103018F5F80932C
:107B30000301853079F6E0910401F0910501099582
:107B40000E94763C803351F60E94F33CC3CF0E94E2
:107B5000763C803249F78091C00085FFFCCFF092DF
:107B6000C6008091C00085FFFCCF9092C600809136
:107B7000C00085FFFCCF8092C6008091C00085FFC9
:107B8000FCCF7092C6008091C00085FFFCCF609250
:107B9000C6008091C00085FFFCCF5092C600809146
:107BA000C00085FFFCCF4092C6008091C00085FFD9
:107BB000FCCF3092C6008091C00085FFFCCFB09210
:107BC000C60088CF0E94763C863808F4BDCF0E945C
:107BD000763C0E94F33C7ECF0E94763C803809F4CC
:107BE0009CC0813809F40BC1823809F43CC1883942
:107BF00009F48FC080E00E94C73C6CCF84E10E94F2
:107C0000BD3C0E94F33C66CF85E00E94BD3C0E94D3
:107C1000F33C60CF0E94763C809306010E94763C44
:107C2000809307010E94F33C55CF0E94763C80333D
:107C300009F41DC183E00E94BD3C80E00E94C73C66
:107C400049CF0E94763C809309020E94763C809343
:107C5000080280910C028E7F80930C020E94763C79
:107C6000853409F415C18091080290910902892B8D
:107C700089F000E010E00E94763CF801E85FFE4FDA
:107C800080830F5F1F4F80910802909109020817AF
:107C9000190788F30E94763C803209F045CF809125
:107CA0000C0280FF01C16091060170910701660F0F
:107CB000771F7093070160930601A0910802B091AD
:107CC00009021097C9F0E8E0F1E09B01AD014E0F09
:107CD0005F1FF999FECF32BD21BD819180BDFA9A17
:107CE000F99A2F5F3F4FE417F50799F76A0F7B1F4B
:107CF00070930701609306018091C00085FFFCCF5F
:107D0000F092C6008091C00085FFFCCFB092C60003
:107D1000E1CE83E00E94C73CDDCE82E00E94C73CFA
:107D2000D9CE0E94763C809309020E94763C8093D3
:107D300008028091060190910701880F991F909386
:107D40000701809306010E94763C853409F4A6C0A1
:107D500080910C028E7F80930C020E94763C8032D0
:107D600009F0B8CE8091C00085FFFCCFF092C6002C
:107D7000609108027091090261157105B9F140E046
:107D800050E080910C02A82FA170B82FB27011C0E2
:107D9000BB2309F45CC0E0910601F0910701319624
:107DA000F0930701E09306014F5F5F4F46175707B7
:107DB000E8F4AA2369F3F999FECF209106013091E6
:107DC000070132BD21BDF89A90B58091C00085FFB2
:107DD000FCCF9093C6002F5F3F4F30930701209355
:107DE00006014F5F5F4F4617570718F38091C00099
:107DF00085FDE5CE8091C00085FFF8CFE0CE81E023
:107E00000E94C73C67CE0E94763C803209F08CCE3F
:107E10008091C00085FFFCCFF092C6008091C00029
:107E200085FFFCCFE092C6008091C00085FFFCCFAB
:107E3000D092C6008091C00085FFFCCFC092C600E2
:107E40008091C00085FFFCCFB092C60043CEE09188
:107E50000601F091070194918091C00085FFFCCF4D
:107E60009093C6009CCF80E10E94C73C33CE0E9415
:107E7000763C0E94763C182F0E94763C112309F430
:107E800083C0113009F484C08FE00E94C73C22CE29
:107E900080910C02816080930C02E5CE80910C02EF
:107EA000816080930C0259CF809107018823880F4D
:107EB000880B8A2180930B02809106019091070123
:107EC000880F991F90930701809306018091080203
:107ED00080FF09C080910802909109020196909359
:107EE000090280930802F894F999FECF1127E091D6
:107EF0000601F0910701C8E0D1E08091080290915D
:107F00000902103091F40091570001700130D9F34B
:107F100003E000935700E89500915700017001308D
:107F2000D9F301E100935700E89509901990009169
:107F3000570001700130D9F301E000935700E89534
:107F40001395103498F011270091570001700130FB
:107F5000D9F305E000935700E895009157000170B0
:107F60000130D9F301E100935700E895329602976A
:107F700009F0C7CF103011F00296E5CF112480919F
:107F8000C00085FFB9CEBCCE8EE10E94C73CA2CD19
:0C7F900085E90E94C73C9ECDF894FFCF0D
:027F9C00800063
:040000030000780081
:00000001FF
