:100000000C94A2000C94FA050C94D3050C94CA002D
:100010000C94CA000C94CA000C94CA000C941008EA
:100020000C94CA000C94CA000C94CA000C944F079C
:100030000C94CA000C94CA000C94CA000C94CA0018
:100040000C9489050C94CA000C9457050C94310546
:100050000C94CA000C94CA000C94CA000C94CA00F8
:100060000C9421060C94CA00000000002400270014
:100070002A000000000023002600290000000000E4
:10008000250028002B0004040404040404040202D4
:100090000202020203030303030301020408102007
:1000A0004080010204081020010204081020000012
:1000B0000008000201000003040700000000000027
:1000C0000000000000000000000000000000000030
:1000D0000000000000000000000000000000000020
:1000E00000000082210000000002390F00000040E3
:1000F00080003F065B4F666D7D077F6F0000004804
:10010000005300777C395E79716F76061E003800E7
:10011000543F7367506D783E0000006E0039000F49
:100120000008635F7C585E7B716F74021E000600DE
:10013000545C7367506D781C0000006E0039300FFE
:100140000000190911241FBECFEFD8E0DEBFCDBFDC
:1001500011E0A0E0B1E0E6E6F5E102C005900D9205
:10016000A832B107D9F724E0A8E2B1E001C01D929E
:10017000A630B207E1F710E0C2EAD0E004C0219750
:10018000FE010E94A60AC13AD107C9F70E949B0945
:100190000C94B10A0C940000CF92DF92EF92FF9280
:1001A0000F931F93CF93DF936C017A018B01C0E013
:1001B000D0E0CE15DF0589F0D8016D918D01D60113
:1001C000ED91FC910190F081E02DC6010995892BFC
:1001D00011F47E0102C02196ECCFC701DF91CF91CF
:1001E0001F910F91FF90EF90DF90CF900895FC0149
:1001F000538D448D252F30E0842F90E0821B930B8C
:10020000541710F0CF96089501970895FC01918D31
:10021000828D981761F0828DDF01A80FB11D5D9668
:100220008C91928D9F5F9F73928F90E008958FEFD6
:100230009FEF0895FC01918D828D981731F0828D8A
:10024000E80FF11D858D90E008958FEF9FEF0895E1
:10025000FC01918D228D892F90E0805C9F4F821B45
:1002600091098F739927089589EE91E00E942801E2
:1002700021E0892B09F420E0822F0895FC01848D70
:10028000DF01A80FB11DA35ABF4F2C91848D90E0C0
:1002900001968F739927848FA689B7892C93A0899B
:1002A000B1898C9180648C93938D848D981306C052
:1002B0000288F389E02D80818F7D80830895EF92FD
:1002C000FF920F931F93CF93DF93EC0181E0888F10
:1002D0009B8D8C8D981305C0E889F989808185FDF7
:1002E00024C0F62E0B8D10E00F5F1F4F0F731127E8
:1002F000E02E8C8DE8120CC00FB607FCFACFE8890F
:10030000F989808185FFF5CFCE010E943E01F1CFB2
:100310008B8DFE01E80FF11DE35AFF4FF0820B8F2A
:10032000EA89FB898081806207C0EE89FF8960834A
:10033000E889F98980818064808381E090E0DF91A1
:10034000CF911F910F91FF90EF900895CF93DF937E
:10035000EC01888D8823C9F0EA89FB89808185FDBD
:1003600005C0A889B9898C9186FD0FC00FB607FC1E
:10037000F5CF808185FFF2CFA889B9898C9185FF5F
:10038000EDCFCE010E943E01E7CFDF91CF910895DE
:1003900080E090E0892B29F00E94340181110C94B7
:1003A00000000895833081F028F4813099F0823084
:1003B000A1F008958730A9F08830B9F08430D1F4E5
:1003C000809180008F7D03C0809180008F77809323
:1003D0008000089584B58F7702C084B58F7D84BD79
:1003E00008958091B0008F7703C08091B0008F7D19
:1003F0008093B00008951F93CF93DF93282F30E0B0
:10040000F901E255FF4F8491F901E656FF4FD4916F
:10041000F901EA57FF4FC491CC23C9F0162F81117F
:100420000E94D201EC2FF0E0EE0FFF1FE458FF4FC7
:10043000A591B4918FB7F894111105C09C91ED2F3F
:10044000E095E92302C0EC91ED2BEC938FBFDF9197
:10045000CF911F910895089585ED8093BC00809100
:10046000BC0084FDFCCF1092D6010895409182011A
:10047000262F30E0240F311D21323105DCF420918C
:10048000D6012430C9F4FC0180E090E0861758F4CE
:10049000309182012191DC01A05ABE4FA30FB11D02
:1004A0002C930196F3CF80918201680F60938201B3
:1004B00080E0089581E0089582E00895089581E044
:1004C00090E03091DA012091D901321710F480E0E8
:1004D00090E091958195910908958091DA0190912C
:1004E000D901891730F48F5F8093DA0180E090E0C2
:1004F00008958FEF9FEF08958091D90190E02091AA
:10050000DA01821B91090895CF92DF92EF92FF9258
:100510000F931F93CF93DF937C01262F972F8A0190
:1005200080915F01882391F0C62FD72F6E01C40EF2
:10053000D51ECC15DD0571F06991D701ED91FC91C7
:100540000190F081E02DC7010995F3CF642F822F30
:100550000E943602C801DF91CF911F910F91FF9049
:10056000EF90DF90CF900895CF93DF931F92CDB798
:10057000DEB7698320915F012223D1F02091D7015A
:10058000203240F021E030E0FC013383228380E020
:1005900090E015C08091D801E82FF0E0E15CFE4FBB
:1005A000998190838F5F8093D8018093D70105C094
:1005B00061E0CE0101960E94360281E090E00F904A
:1005C000DF91CF910895089580E090E008950E9412
:1005D000AC0ACF93DF93DC0198E0362F3078129687
:1005E0008C911297332391F01896ED91FC91199705
:1005F00020818095822380831C968C911C97882370
:10060000B9F01496ED91FC9115970CC01496ED91EC
:10061000FC91159720818095822380831896ED9117
:10062000FC911997208112968C911297822B8083CE
:100630001A96ED91FC911B97208113968C9113973C
:100640008095822380831C968C911C97882351F07F
:100650001696ED91FC911797208113968C91139724
:10066000822B808380E18A95F1F71696ED91FC91BB
:100670001797208113968C911397809582238083FE
:100680001A96ED91FC911B97208113968C911397EC
:10069000822B808380E18A95F1F73323A9F01496A9
:1006A000ED91FC911597208112968C91129780956F
:1006B000822380831896ED91FC91199720811296E0
:1006C0008C911297822B808380E18A95F1F7660FD7
:1006D000915009F082CF1896ED91FC911997908175
:1006E00012968C9112978095892380831C968C9109
:1006F0001C97882351F01496ED91FC9115979081E9
:1007000012968C911297892B80831A96ED91FC9109
:100710001B97908113968C911397809589238083E2
:100720001C968C911C97882351F01696ED91FC91A4
:100730001797908113968C911397892B808380E172
:100740008A95F1F7EC91F0E0EA57FF4FE491F0E081
:10075000EE0FFF1FEE58FF4FC591D491988116966A
:10076000ED91FC911797208113968C9113978095AA
:10077000822380831A96ED91FC911B97208113961A
:100780008C911397822B808380E18A95F1F71296E2
:100790008C91982381E009F480E0DF91CF91089556
:1007A0001F93CF93DF93CDB7DEB72E970FB6F89494
:1007B000DEBF0FBECDBF162FFC012281338137FD76
:1007C000D8C08081918197FDD4C051E05D87298395
:1007D0008A833327F901E656FF4F54915B839927AB
:1007E000FC01E656FF4FE491EC83F901EA57FF4F15
:1007F000249130E0220F331FF901E458FF4F659137
:1008000074917E836D83F901E859FF4FA591B491EE
:10081000BA87A987FC01EA57FF4F849190E0880FBF
:10082000991FFC01E458FF4F2591349138872F839D
:10083000FC01E859FF4F859194919C878B87EC913F
:1008400050955E235C938D85882331F0ED81FE8188
:1008500090818B81892B8083EB85FC8590818C81B5
:100860008095892380838D85882331F0EF81F885F9
:1008700090818C81892B8083F0E1FA95F1F7E985ED
:10088000FA8590818B818095892380838D8588234B
:1008900031F0ED81FE8190818B81892B8083EB8506
:1008A000FC8590818C818095892380838D85882328
:1008B00031F0EF81F88590818C81892B808380E1F4
:1008C0008A95F1F7ED81FE8190818B818095892356
:1008D0008083E985FA8590818B81892B8083E0E193
:1008E000EA95F1F7EF81F88590818C8180958923D5
:1008F0008083EB85FC8590818C81892B8083F0E15E
:10090000FA95F1F7612F660FCE0101964E870E948E
:10091000E902182F4E85642FCE0101960E94E9024C
:10092000EB85FC8520819C819095922390838D8519
:10093000882331F0EF81F88580819C81982B90830A
:1009400080E18A95F1F7E985FA8520819B81909570
:10095000922390838D85882331F0ED81FE81808103
:100960009B81982B9083E0E1EA95F1F711116BC020
:100970006EC081E080935F0110933D011092D80119
:100980001092D701642F86E892E00E94B402909101
:10099000D701913208F04AC08091D6018111FCCF75
:1009A00022E02093D60121E02093D5012FEF209360
:1009B000A7011092C9019093C801AFE3B1E048EAE2
:1009C00051E0FA012E2F241B291718F42D912193A1
:1009D000F9CF1092CA016091CA01110F162B109322
:1009E000CA019091D401913061F41092D401909198
:1009F000CA019093BB009091BC0093FDF8CF95EC99
:100A000001C095EE9093BC009091D6019230E1F335
:100A10009091A7019F3F79F08091A701803241F02A
:100A20008091A701803331F084E005C081E003C0EC
:100A300082E001C083E01092D8011092D701109299
:100A40005F01882321F01092E8011092E7012E96B1
:100A50000FB6F894DEBF0FBECDBFDF91CF911F91CF
:100A600008951F920F920FB60F9211242F933F9368
:100A70004F935F936F937F938F939F93AF93BF93A6
:100A8000EF93FF9389EE91E00E943E01FF91EF9179
:100A9000BF91AF919F918F917F916F915F914F9196
:100AA0003F912F910F900FBE0F901F9018951F929E
:100AB0000F920FB60F9211242F938F939F93EF9362
:100AC000FF93E091F901F091FA018081E091FF013B
:100AD000F091000282FD12C09081809102028F5F2E
:100AE0008F7320910302821751F0E0910202F0E02F
:100AF000E751FE4F958F8093020201C08081FF91E4
:100B0000EF919F918F912F910F900FBE0F901F909B
:100B100018951F920F920FB60F9211242F933F93A7
:100B20008F939F93AF93BF938091D0019091D10108
:100B3000A091D201B091D3013091CF0123E0230FD6
:100B40002D3720F40196A11DB11D05C026E8230F05
:100B50000296A11DB11D2093CF018093D0019093E7
:100B6000D101A093D201B093D3018091CB01909198
:100B7000CC01A091CD01B091CE010196A11DB11D76
:100B80008093CB019093CC01A093CD01B093CE0183
:100B9000BF91AF919F918F913F912F910F900FBE79
:100BA0000F901F9018951F920F920FB60F9211245D
:100BB0002F933F934F935F936F937F938F939F9365
:100BC000AF93BF93EF93FF93E0910201F091030184
:100BD0000995FF91EF91BF91AF919F918F917F9177
:100BE0006F915F914F913F912F910F900FBE0F909A
:100BF0001F9018951F920F920FB60F9211242F93EA
:100C00003F934F935F936F937F938F939F93AF9394
:100C1000BF93EF93FF93E0910001F09101010995DB
:100C2000FF91EF91BF91AF919F918F917F916F91C4
:100C30005F914F913F912F910F900FBE0F901F909A
:100C400018951F920F920FB60F9211242F933F9376
:100C50004F935F936F937F938F939F93AF93BF93C4
:100C6000EF93FF938091B900887F803609F49CC090
:100C700068F5883209F45BC090F4803109F454C0FF
:100C800038F4882309F4F6C0883009F44DC0F6C062
:100C9000883109F44CC0803209F45DC0EFC0803463
:100CA00009F468C048F4803309F455C0883309F06A
:100CB000E5C08093A701D8C0803509F44FC08835BE
:100CC00009F45DC0883409F0D9C0D6C0883909F468
:100CD000C7C0A8F4883709F467C038F4883609F427
:100CE00063C0803709F460C0C9C0883809F4B8C04F
:100CF000803909F45FC0803809F0C0C05BC0803B18
:100D000009F486C038F4803A09F466C0883A09F4D8
:100D10007FC0B4C0803C09F4A7C0883C09F4A4C0DB
:100D2000883B09F48AC0AAC08091CA0110C0909182
:100D3000C9018091C801981770F5E091C90181E05F
:100D40008E0F8093C901F0E0E855FE4F80818093BB
:100D5000BB0085EC86C08093A7018EC0E091C901DD
:100D600081E08E0F8093C9018091BB00F0E0E855CF
:100D7000FE4F80839091C9018091C8016EC0E091BF
:100D8000C90181E08E0F8093C9018091BB00F0E022
:100D9000E855FE4F80838091D50181116DC081E0BF
:100DA0008093D40184EA61C083E08093D6011092DD
:100DB000A601CFCF8091A601803208F051C0E0910A
:100DC000A60181E08E0F8093A6018091BB00F0E028
:100DD000EA57FE4F8083BDCF85EC8093BC00109214
:100DE000D6018091A601803230F4E091A601F0E0B6
:100DF000EA57FE4F10826091A60170E0E0918401F5
:100E0000F091850186E891E009951092A60136C01F
:100E100084E08093D6011092830110928201E091C8
:100E20008001F0918101099580918201811105C0B5
:100E300081E08093820110926001E091830181E062
:100E40008E0F80938301F0E0E05AFE4F8081809303
:100E5000BB009091830180918201981708F479CFAB
:100E600085E88093BC000AC085EC8093BC0010929A
:100E7000D60104C01092A7010E942C02FF91EF91AD
:100E8000BF91AF919F918F917F916F915F914F91A2
:100E90003F912F910F900FBE0F901F9018951F92AA
:100EA0000F920FB60F9211242F933F934F935F939E
:100EB0006F937F938F939F93AF93BF93EF93FF9322
:100EC00080913E0187FF05C010928500109284003A
:100ED0001BC020913E01022E000C330B8091B60204
:100EE00090E02817390784F480913E01082E000C09
:100EF000990BFC01EE0FFF1F8E0F9F1FFC01EE569A
:100F0000FD4F808186FD15C080913E018F5F8093EB
:100F10003E0120913E01022E000C330B8091B6025F
:100F200090E028173907C4F480913E018C3064F1B9
:100F300013C080913E01082E000C990BFC01EE0FAE
:100F4000FF1F8E0F9F1FFC01EE56FD4F808160E05A
:100F50008F730E94FB01D8CF80918400909185000F
:100F6000049680349C4918F480E49CE905C0809183
:100F70008400909185000496909389008093880066
:100F80008FEF80933E013BC020918400309185001B
:100F900080913E01082E000C990BFC01EE0FFF1F03
:100FA0008E0F9F1FFC01EE56FD4F81819281820FB3
:100FB000931F909389008093880080913E01082EB2
:100FC000000C990BFC01EE0FFF1F8E0F9F1FFC0101
:100FD000EE56FD4F808186FF12C080913E01082EA3
:100FE000000C990BFC01EE0FFF1F8E0F9F1FFC01E1
:100FF000EE56FD4F808161E08F730E94FB01FF91EF
:10100000EF91BF91AF919F918F917F916F915F9180
:101010004F913F912F910F900FBE0F901F901895F9
:101020001F920F920FB60F9211240F931F932F93BD
:101030003F934F935F936F937F938F939F93AF9360
:10104000BF93CF93DF93EF93FF932091B70230E0EC
:10105000F901E255FF4F8491F901E656FF4FD49113
:10106000F901EA57FF4FC491CC23A1F081110E94EE
:10107000D201EC2FF0E0EE0FFF1FEE58FF4FA591CD
:10108000B491EC91ED2331E020E009F430E0832FBE
:10109000922F02C080E090E02091B9023091BA0214
:1010A0002F5F3F4F3093BA022093B9022091830300
:1010B000243618F025E02093B8022091B80223309E
:1010C00029F118F4223039F09FC02430D9F12530AD
:1010D00009F470C099C0892B09F096C0109283035F
:1010E0001092BA021092B902E091830381E08E0F50
:1010F00080938303F0E08091B9029091BA02EE0FE1
:10110000FF1FE554FD4F9183808333C0019709F0A1
:101110007BC0E091830381E08E0F80938303F0E036
:101120008091B9029091BA02EE0FFF1FE554FD4F76
:10113000918380831092BA021092B90284E0809366
:10114000B80262C0892BB9F4E091830381E08E0F6D
:1011500080938303F0E08091B9029091BA02EE0F80
:10116000FF1FE554FD4F918380831092BA021092C5
:10117000B90283E0E4CF8091B9029091BA0285363A
:10118000910508F441C085E08093B8022FB7F89428
:101190008091D0019091D101A091D201B091D30161
:1011A0002FBF8093840390938503A0938603B0930D
:1011B00087032AC02FB7F8944091D0015091D101F4
:1011C0006091D2017091D3012FBF009184031091DF
:1011D00085032091860330918703401B510B620BDE
:1011E000730B493C51056105710540F01092830372
:1011F0001092BA021092B90282E0A1CF892B21F499
:101200001092BA021092B902FF91EF91DF91CF9143
:10121000BF91AF919F918F917F916F915F914F910E
:101220003F912F911F910F910F900FBE0F901F9024
:1012300018951092EC011092EB0188EE93E0A0E07B
:10124000B0E08093ED019093EE01A093EF01B09395
:10125000F00128E031E03093EA012093E90125EC28
:1012600030E03093F6012093F50124EC30E0309328
:10127000F8012093F70120EC30E03093FA0120933D
:10128000F90121EC30E03093FC012093FB0122ECCA
:1012900030E03093FE012093FD0126EC30E03093E6
:1012A00000022093FF01109202021092030210929A
:1012B0000402109205021092890210928802809313
:1012C0008A0290938B02A0938C02B0938D028AE1E4
:1012D00091E090938702809386028FEF8093B7020C
:1012E0008091B602AAEFB3E09FEF48EB5BE08C3051
:1012F00078F48C93282F30E0F901EE0FFF1F2E0FAA
:101300003F1FF901EE56FD4F528341838F5F01C0AD
:101310009C93139624E0A630B20749F78093B60257
:101320008FEF9FEF9093F7038093F6039093F90369
:101330008093F8030895CF93DF9300D000D0CDB70A
:10134000DEB7789484B5826084BD84B5816084BD45
:1013500085B5826085BD85B5816085BD80916E0053
:10136000816080936E001092810080918100826084
:1013700080938100809181008160809381008091C1
:1013800080008160809380008091B10084608093B0
:10139000B1008091B00081608093B00080917A00AC
:1013A000846080937A0080917A00826080937A00D2
:1013B00080917A00816080937A0080917A008068C1
:1013C00080937A001092C100E090E701F090E8016C
:1013D000E114F10409F049C081E090E09093E80144
:1013E0008093E7018DE090E09C838B838BE090E01D
:1013F0009A83898300E010E00430110594F4F7012A
:10140000E552FE4F1182108264E3600F40E0CE018E
:1014100001960E94D0030F5F1F4F82E0E80EF11C7F
:10142000EBCF43EEE42E41E0F42E670114E2D60147
:101430004C914160F60141936F01612FCE010196FD
:101440000E94D0031F5F183291F714E2D7014C912C
:101450004F784063F70141937F01612FCE010196E0
:101460000E94D0031F5F183289F78DE090E09C83C3
:101470008B838BE090E09A83898383EEE82E81E072
:10148000F82E00E010E097E5C92ED12C2AE0A22E1C
:10149000B12C37E3932EC601B5010E947E0AC11418
:1014A000D10419F40115110519F4E0E3E80F01C0A6
:1014B000E0E2C601B5010E947E0A6B01F2E0EF1A7C
:1014C000F108D7014C914078EF77F0E0EE53FF4FF1
:1014D000E491EF774E2B842F90E0F7019183808386
:1014E000692D601BCE0101960E94D0030F5F1F4F34
:1014F0000430110581F60E94C801FDCF97FB072E2D
:1015000016F4009407D077FD09D00E94920A07FCD8
:1015100005D03EF4909581959F4F08957095619503
:101520007F4F0895AA1BBB1B51E107C0AA1FBB1F19
:10153000A617B70710F0A61BB70B881F991F5A955F
:10154000A9F780959095BC01CD010895EE0FFF1F7E
:101550000590F491E02D099481E090E0F8940C94CA
:06156000B10AF894FFCF70
:101566002B022B02000000005F01CC00F700A60151
:10157600280106011A0100000000B4028402E402F8
:081586005E027C026D025F02AF
:00000001FF
