:100000000C9462000C9440040C9419040C948A0023
:100010000C948A000C948A000C948A000C94560666
:100020000C948A000C948A000C948A000C94950518
:100030000C948A000C948A000C948A000C948A0018
:100040000C94CF030C948A000C949D030C947703BA
:100050000C948A000C948A000C948A000C948A00F8
:100060000C9467040C948A00000000002300260012
:10007000290000000000240027002A0000000000E2
:10008000250028002B0004040404040404040202D4
:100090000202020203030303030301020408102007
:1000A0004080010204081020010204081020000012
:1000B0000008000201000003040700000000000027
:1000C00000005F0711241FBECFEFD8E0DEBFCDBF19
:1000D00011E0A0E0B1E0E0E0F2E102C005900D9295
:1000E000A033B107D9F723E0A0E3B1E001C01D922E
:1000F000AB3DB207E1F710E0C2E6D0E004C02197C3
:10010000FE010E94F308C136D107C9F70E94E1073A
:100110000C94FE080C940000CF92DF92EF92FF92B5
:100120000F931F93CF93DF936C017A018B01C0E093
:10013000D0E0CE15DF0589F0D8016D918D01D60193
:10014000ED91FC910190F081E02DC6010995892B7C
:1001500011F47E0102C02196ECCFC701DF91CF914F
:100160001F910F91FF90EF90DF90CF900895FC01C9
:10017000538D448D252F30E0842F90E0821B930B0C
:10018000541710F0CF96089501970895FC01918DB2
:10019000828D981761F0828DDF01A80FB11D5D96E9
:1001A0008C91928D9F5F9F73928F90E008958FEF57
:1001B0009FEF0895FC01918D828D981731F0828D0B
:1001C000E80FF11D858D90E008958FEF9FEF089562
:1001D000FC01918D228D892F90E0805C9F4F821BC6
:1001E00091098F73992708958EEB91E00E94E800A2
:1001F00021E0892B09F420E0822F0895FC01848DF1
:10020000DF01A80FB11DA35ABF4F2C91848D90E040
:1002100001968F739927848FA689B7892C93A0891B
:10022000B1898C9180648C93938D848D981306C0D2
:100230000288F389E02D80818F7D80830895EF927D
:10024000FF920F931F93CF93DF93EC0181E0888F90
:100250009B8D8C8D981305C0E889F989808185FD77
:1002600024C0F62E0B8D10E00F5F1F4F0F73112768
:10027000E02E8C8DE8120CC00FB607FCFACFE8898F
:10028000F989808185FFF5CFCE010E94FE00F1CF74
:100290008B8DFE01E80FF11DE35AFF4FF0820B8FAB
:1002A000EA89FB898081806207C0EE89FF896083CB
:1002B000E889F98980818064808381E090E0DF9122
:1002C000CF911F910F91FF90EF900895CF93DF93FF
:1002D000EC01888D8823C9F0EA89FB89808185FD3E
:1002E00005C0A889B9898C9186FD0FC00FB607FC9F
:1002F000F5CF808185FFF2CFA889B9898C9185FFE0
:10030000EDCFCE010E94FE00E7CFDF91CF9108959F
:1003100080E090E0892B29F00E94F40081110C9478
:1003200000000895833081F028F4813099F0823004
:10033000A1F008958730A9F08830B9F08430D1F465
:10034000809180008F7D03C0809180008F778093A3
:100350008000089584B58F7702C084B58F7D84BDF9
:1003600008958091B0008F7703C08091B0008F7D99
:100370008093B00008951F93CF93DF93282F30E030
:10038000F901E255FF4F8491F901E656FF4FD491F0
:10039000F901EA57FF4FC491CC23C9F0162F811100
:1003A0000E949201EC2FF0E0EE0FFF1FE458FF4F88
:1003B000A591B4918FB7F894111105C09C91ED2FC0
:1003C000E095E92302C0EC91ED2BEC938FBFDF9118
:1003D000CF911F9108953FB7F8948091BA01909101
:1003E000BB01A091BC01B091BD0126B5A89B05C081
:1003F0002F3F19F00196A11DB11D3FBFBA2FA92FA4
:10040000982F8827820F911DA11DB11DBC01CD0120
:1004100042E0660F771F881F991F4A95D1F708950C
:10042000089585ED8093BC008091BC0084FDFCCFD5
:1004300010928F01089540916901262F30E0240F1A
:10044000311D21323105DCF420918F012430C9F4B3
:10045000FC0180E090E0861758F430916901219109
:10046000DC01A95BBE4FA30FB11D2C930196F3CF06
:1004700080916901680F6093690180E0089581E0CF
:10048000089582E0089508958FEF9FEF08958FEF0C
:100490009FEF08958091460190E091958195910993
:1004A0000895CF93DF9300D0CDB7DEB7CB01642F93
:1004B00049835A830E941B024981842F5A81952FB8
:1004C0000F900F90DF91CF910895CF93DF931F92FC
:1004D000CDB7DEB7698361E0CE0101960E941B02B1
:1004E00081E090E00F90DF91CF910895089580E032
:1004F00090E00895CF92DF92EF92FF92CF93DF9337
:10050000EC01603282E078070CF03DC077FD06C058
:10051000653B71052CF064EB70E002C060E070E0B8
:10052000898128E830E06901C81AD10887FDD39491
:10053000CC0CDD1CCC0CDD1C0D2C000CEE08FF08D7
:100540008A8128E532E0281B310987FD3395220F87
:10055000331F220F331FC901330FAA0BBB0B9C01A2
:10056000AD012C193D094E095F09DB010E94AE085F
:1005700024EB30E040E050E00E948408C20ED31E1D
:10058000E41EF51EB60188818C3080F5998148E81B
:1005900050E0491B510997FD5395440F551F440FD7
:1005A000551F6417750784F09A8128E532E0291BEE
:1005B000310997FD3395220F331F220F331FAB01F3
:1005C000261737070CF4A90142505109440F551F53
:1005D0002FB7F89490E0FC01EE0FFF1F8E0F9F1FC6
:1005E000FC01E959FD4F528341832FBFDF91CF9129
:1005F000FF90EF90DF90CF900895CF93DF93DC01D1
:100600008C918C3008F06DC09B013327F901E656C0
:10061000FF4F8491F901EA57FF4F2491222399F06B
:1006200030E0220F331FF901EE58FF4FC591D491EE
:10063000F901E458FF4F259134919FB7F894E88170
:10064000E82BE8839FBF8C91E82FF0E09F01220FF9
:10065000331FE20FF31FE959FD4F6F739081907CB8
:10066000692B608311961C92119712961C92129717
:100670006CE00E94E7089CE0899FB001112440E0F3
:1006800050E09A01260F371FF901EE0FFF1F2E0FC2
:100690003F1FF901E959FD4F908196FD16C04F5F4C
:1006A0005F4F4C30510569F781110FC010928000E7
:1006B00082E0809381001092850010928400B19AAC
:1006C00080916F00826080936F00EC91F0E0CF0129
:1006D000880F991FE80FF91FE959FD4F8081806449
:1006E00080838C91DF91CF9108950E94F9081F9229
:1006F0000F920FB60F9211242F933F934F935F9356
:100700006F937F938F939F93AF93BF93EF93FF93D9
:100710008EEB91E00E94FE00FF91EF91BF91AF91AF
:100720009F918F917F916F915F914F913F912F9109
:100730000F900FBE0F901F9018951F920F920FB63B
:100740000F9211242F938F939F93EF93FF93E09138
:10075000CE01F091CF018081E091D401F091D501DB
:1007600082FD12C090818091D7018F5F8F7320919D
:10077000D801821751F0E091D701F0E0E254FE4F2A
:10078000958F8093D70101C08081FF91EF919F9158
:100790008F912F910F900FBE0F901F9018951F9261
:1007A0000F920FB60F9211242F933F938F939F9325
:1007B000AF93BF938091B6019091B701A091B8011A
:1007C000B091B9013091B50123E0230F2D3720F40A
:1007D0000196A11DB11D05C026E8230F0296A11D9B
:1007E000B11D2093B5018093B6019093B701A093FA
:1007F000B801B093B9018091BA019091BB01A09169
:10080000BC01B091BD010196A11DB11D8093BA013B
:100810009093BB01A093BC01B093BD01BF91AF9178
:100820009F918F913F912F910F900FBE0F901F902E
:1008300018951F920F920FB60F9211242F933F938A
:100840004F935F936F937F938F939F93AF93BF93D8
:10085000EF93FF93E0910201F09103010995FF915D
:10086000EF91BF91AF919F918F917F916F915F9128
:100870004F913F912F910F900FBE0F901F901895A1
:100880001F920F920FB60F9211242F933F934F9305
:100890005F936F937F938F939F93AF93BF93EF93E8
:1008A000FF93E0910001F09101010995FF91EF9113
:1008B000BF91AF919F918F917F916F915F914F9178
:1008C0003F912F910F900FBE0F901F9018951F9280
:1008D0000F920FB60F9211242F933F934F935F9374
:1008E0006F937F938F939F93AF93BF93EF93FF93F8
:1008F0008091B900887F803609F49CC068F5883201
:1009000009F45BC090F4803109F454C038F48823B2
:1009100009F4F6C0883009F44DC0F6C0883109F4F6
:100920004CC0803209F45DC0EFC0803409F468C067
:1009300048F4803309F455C0883309F0E5C080934A
:100940008E01D8C0803509F44FC0883509F45DC0E8
:10095000883409F0D9C0D6C0883909F4C7C0A8F4D2
:10096000883709F467C038F4883609F463C08037E3
:1009700009F460C0C9C0883809F4B8C0803909F4E6
:100980005FC0803809F0C0C05BC0803B09F486C0FE
:1009900038F4803A09F466C0883A09F47FC0B4C0DC
:1009A000803C09F4A7C0883C09F4A4C0883B09F442
:1009B0008AC0AAC08091B40110C09091B301809107
:1009C000B201981770F5E091B30181E08E0F80932A
:1009D000B301F0E0EE56FE4F80818093BB0085ECC2
:1009E00086C080938E018EC0E091B30181E08E0FAE
:1009F0008093B3018091BB00F0E0EE56FE4F808300
:100A00009091B3018091B2016EC0E091B30181E099
:100A10008E0F8093B3018091BB00F0E0EE56FE4F45
:100A200080838091910181116DC081E0809390015C
:100A300084EA61C083E080938F0110928D01CFCF53
:100A400080918D01803208F051C0E0918D0181E0EC
:100A50008E0F80938D018091BB00F0E0E359FE4F33
:100A60008083BDCF85EC8093BC0010928F01809174
:100A70008D01803230F4E0918D01F0E0E359FE4FBA
:100A8000108260918D0170E0E0916B01F0916C013A
:100A90008DE691E0099510928D0136C084E0809337
:100AA0008F0110926A0110926901E0916701F09143
:100AB0006801099580916901811105C081E08093E9
:100AC000690110924701E0916A0181E08E0F8093E5
:100AD0006A01F0E0E95BFE4F80818093BB0090915A
:100AE0006A0180916901981708F479CF85E88093AD
:100AF000BC000AC085EC8093BC0010928F0104C03A
:100B000010928E010E941102FF91EF91BF91AF915F
:100B10009F918F917F916F915F914F913F912F9115
:100B20000F900FBE0F901F9018951F920F920FB647
:100B30000F9211242F933F934F935F936F937F9363
:100B40008F939F93AF93BF93EF93FF938091450152
:100B500087FF05C010928500109284001BC0209171
:100B60004501022E000C330B80918B0290E0281778
:100B7000390784F480914501082E000C990BFC0183
:100B8000EE0FFF1F8E0F9F1FFC01E959FD4F808163
:100B900086FD15C0809145018F5F809345012091AE
:100BA0004501022E000C330B80918B0290E0281738
:100BB0003907C4F4809145018C3064F113C08091F1
:100BC0004501082E000C990BFC01EE0FFF1F8E0F44
:100BD0009F1FFC01E959FD4F808160E08F730E94E7
:100BE000BB01D8CF80918400909185000496803419
:100BF0009C4918F480E49CE905C0809184009091A0
:100C00008500049690938900809388008FEF8093ED
:100C100045013BC0209184003091850080914501C1
:100C2000082E000C990BFC01EE0FFF1F8E0F9F1F6B
:100C3000FC01E959FD4F81819281820F931F9093AE
:100C400089008093880080914501082E000C990B43
:100C5000FC01EE0FFF1F8E0F9F1FFC01E959FD4F96
:100C6000808186FF12C080914501082E000C990BEF
:100C7000FC01EE0FFF1F8E0F9F1FFC01E959FD4F76
:100C8000808161E08F730E94BB01FF91EF91BF9162
:100C9000AF919F918F917F916F915F914F913F9114
:100CA0002F910F900FBE0F901F9018951F920F92CB
:100CB0000FB60F9211240F931F932F933F934F93CF
:100CC0005F936F937F938F939F93AF93BF93CF93D4
:100CD000DF93EF93FF9320918C0230E0F901E2550E
:100CE000FF4F8491F901E656FF4FD491F901EA577D
:100CF000FF4FC491CC23A1F081110E949201EC2FEF
:100D0000F0E0EE0FFF1FE859FF4FA591B491EC9171
:100D1000ED2331E020E009F430E0832F922F02C070
:100D200080E090E020918E0230918F022F5F3F4F44
:100D300030938F0220938E0220915803243618F0AE
:100D400025E020938D0220918D02233029F118F4A3
:100D5000223039F09FC02430D9F1253009F470C019
:100D600099C0892B09F096C01092580310928F02F7
:100D700010928E02E091580381E08E0F8093580309
:100D8000F0E080918E0290918F02EE0FFF1FE057EE
:100D9000FD4F9183808333C0019709F07BC0E091C0
:100DA000580381E08E0F80935803F0E080918E020B
:100DB00090918F02EE0FFF1FE057FD4F91838083CC
:100DC00010928F0210928E0284E080938D0262C096
:100DD000892BB9F4E091580381E08E0F809358037A
:100DE000F0E080918E0290918F02EE0FFF1FE0578E
:100DF000FD4F9183808310928F0210928E0283E0C8
:100E0000E4CF80918E0290918F028536910508F48F
:100E100041C085E080938D022FB7F8948091B60190
:100E20009091B701A091B801B091B9012FBF809303
:100E3000590390935A03A0935B03B0935C032AC0B9
:100E40002FB7F8944091B6015091B7016091B80165
:100E50007091B9012FBF0091590310915A0320914D
:100E60005B0330915C03401B510B620B730B493CDD
:100E700051056105710540F01092580310928F02E0
:100E800010928E0282E0A1CF892B21F410928F0262
:100E900010928E02FF91EF91DF91CF91BF91AF91B0
:100EA0009F918F917F916F915F914F913F912F9182
:100EB0001F910F910F900FBE0F901F9018951092D9
:100EC000C1011092C00188EE93E0A0E0B0E08093F1
:100ED000C2019093C301A093C401B093C50120E166
:100EE00031E03093BF012093BE0125EC30E0309318
:100EF000CB012093CA0124EC30E03093CD01209344
:100F0000CC0120EC30E03093CF012093CE0121ECD6
:100F100030E03093D1012093D00122EC30E03093C7
:100F2000D3012093D20126EC30E03093D5012093F9
:100F3000D4011092D7011092D8011092D9011092C9
:100F4000DA0110925E0210925D0280935F0290932C
:100F50006002A0936102B093620282E291E09093FA
:100F60005C0280935B028FEF80938C0280918B02F6
:100F7000AFECB3E09FEF48EB5BE08C3078F48C9300
:100F8000282F30E0F901EE0FFF1F2E0F3F1FF90150
:100F9000E959FD4F528341838F5F01C09C931396A3
:100FA00023E0AB3DB20749F780938B028FEF9FEFB1
:100FB0009093CC038093CB039093CE038093CD0387
:100FC0000895789484B5826084BD84B5816084BDC1
:100FD00085B5826085BD85B5816085BD80916E00D7
:100FE000816080936E001092810080918100826008
:100FF0008093810080918100816080938100809145
:1010000080008160809380008091B1008460809333
:10101000B1008091B00081608093B00080917A002F
:10102000846080937A0080917A00826080937A0055
:1010300080917A00816080937A0080917A00806844
:1010400080937A001092C100809104019091050173
:101050008D329105A1F0019631F469E070E08FECDA
:1010600093E00E94FD026DE270E08FEC93E00E943D
:101070007A028DE290E090930501809304010E9432
:10108000EB014B015C0188EEC82E83E0D82EE12CE9
:10109000F12C0E94EB01DC01CB0188199909AA0906
:1010A000BB09883E9340A105B10558F081E0C81AFC
:1010B000D108E108F10828EE820E23E0921EA11C5F
:1010C000B11CC114D104E104F10419F780910401A9
:1010D000909105018A359105A1F0019631F469E0FE
:1010E00070E08FEC93E00E94FD026AE570E08FEC07
:1010F00093E00E947A028AE590E090930501809344
:1011000004010E948801FDCF052E97FB1EF4009478
:101110000E949B0857FD07D00E94B60807FC03D029
:101120004EF40C949B0850954095309521953F4F77
:101130004F4F5F4F089590958095709561957F4FC3
:101140008F4F9F4F08950E94D808A59F900DB49F80
:10115000900DA49F800D911D11240895B7FF0C944C
:10116000A3080E94A308821B930B0895A1E21A2EE4
:10117000AA1BBB1BFD010DC0AA1FBB1FEE1FFF1F3B
:10118000A217B307E407F50720F0A21BB30BE40B8B
:10119000F50B661F771F881F991F1A9469F76095D2
:1011A0007095809590959B01AC01BD01CF0108958C
:1011B000A29FB001B39FC001A39F700D811D112498
:1011C000911DB29F700D811D1124911D0895991BD1
:1011D00079E004C0991F961708F0961B881F7A952E
:1011E000C9F780950895EE0FFF1F0590F491E02D4B
:1011F000099481E090E0F8940C94FE08F894FFCFF5
:1012000010021002FFFFFFFFFFFFFFFF00000000C2
:101210001F018C00B7006601E800C600DA0000007C
:10122000000065025102770243024A02470244026B
:107800000C94343C0C94513C0C94513C0C94513CE1
:107810000C94513C0C94513C0C94513C0C94513CB4
:107820000C94513C0C94513C0C94513C0C94513CA4
:107830000C94513C0C94513C0C94513C0C94513C94
:107840000C94513C0C94513C0C94513C0C94513C84
:107850000C94513C0C94513C0C94513C0C94513C74
:107860000C94513C0C94513C11241FBECFEFD8E036
:10787000DEBFCDBF11E0A0E0B1E0ECE9FFE702C060
:1078800005900D92A230B107D9F712E0A2E0B1E065
:1078900001C01D92AD30B107E1F70E942D3D0C945F
:1078A000CC3F0C94003C982F959595959595959582
:1078B000905D8F708A307CF0282F295A8091C0000B
:1078C00085FFFCCF9093C6008091C00085FFFCCF60
:1078D0002093C6000895282F205DF0CF982F809127
:1078E000C00085FFFCCF9093C6000895EF92FF92F1
:1078F0000F931F93EE24FF2487018091C00087FD22
:1079000017C00894E11CF11C011D111D81E4E8164B
:1079100082E4F8068FE0080780E0180770F3E09132
:107920000401F091050109958091C00087FFE9CF1E
:107930008091C6001F910F91FF90EF9008950E94D3
:10794000763C982F8091C00085FFFCCF9093C600B5
:1079500091362CF490330CF09053892F089597555D
:10796000892F08951F930E949F3C182F0E949F3CCF
:107970001295107F810F1F9108951F93182F882350
:1079800021F00E94763C1150E1F71F9108951F935A
:10799000182F0E94763C803249F0809103018F5F5E
:1079A000809303018530C1F01F9108958091C0003C
:1079B00085FFFCCF84E18093C6008091C00085FFE5
:1079C000FCCF1093C6008091C00085FFFCCF80E102
:1079D0008093C6001F910895E0910401F091050184
:1079E00009951F9108950E94763C803241F0809164
:1079F00003018F5F80930301853081F008958091AA
:107A0000C00085FFFCCF84E18093C6008091C00058
:107A100085FFFCCF80E18093C6000895E0910401CA
:107A2000F09105010995089540E951E08823A1F0FE
:107A30002D9A28EE33E0FA013197F1F721503040CA
:107A4000D1F72D9828EE33E0FA013197F1F7215064
:107A50003040D1F7815061F708953F924F925F9285
:107A60006F927F928F929F92AF92BF92CF92DF924E
:107A7000EF92FF920F931F93CF93DF93000080E16B
:107A80008093C4001092C50088E18093C10086E015
:107A90008093C2005098589A259A81E00E94143D24
:107AA00024E1F22E9EE1E92E85E9D82E0FE0C02ECA
:107AB00010E1B12EAA24A394B1E49B2EA6E58A2E50
:107AC000F2E57F2EE0E26E2E79E4572E63E5462E36
:107AD00050E5352E0E94763C8033B1F18133B9F107
:107AE000803409F46FC0813409F476C0823409F41B
:107AF00085C0853409F488C0803531F1823521F1A3
:107B0000813511F1853509F485C0863509F48DC0BC
:107B1000843609F496C0843709F403C1853709F423
:107B200072C1863709F466C0809103018F5F80932C
:107B30000301853079F6E0910401F0910501099582
:107B40000E94763C803351F60E94F33CC3CF0E94E2
:107B5000763C803249F78091C00085FFFCCFF092DF
:107B6000C6008091C00085FFFCCF9092C600809136
:107B7000C00085FFFCCF8092C6008091C00085FFC9
:107B8000FCCF7092C6008091C00085FFFCCF609250
:107B9000C6008091C00085FFFCCF5092C600809146
:107BA000C00085FFFCCF4092C6008091C00085FFD9
:107BB000FCCF3092C6008091C00085FFFCCFB09210
:107BC000C60088CF0E94763C863808F4BDCF0E945C
:107BD000763C0E94F33C7ECF0E94763C803809F4CC
:107BE0009CC0813809F40BC1823809F43CC1883942
:107BF00009F48FC080E00E94C73C6CCF84E10E94F2
:107C0000BD3C0E94F33C66CF85E00E94BD3C0E94D3
:107C1000F33C60CF0E94763C809306010E94763C44
:107C2000809307010E94F33C55CF0E94763C80333D
:107C300009F41DC183E00E94BD3C80E00E94C73C66
:107C400049CF0E94763C809309020E94763C809343
:107C5000080280910C028E7F80930C020E94763C79
:107C6000853409F415C18091080290910902892B8D
:107C700089F000E010E00E94763CF801E85FFE4FDA
:107C800080830F5F1F4F80910802909109020817AF
:107C9000190788F30E94763C803209F045CF809125
:107CA0000C0280FF01C16091060170910701660F0F
:107CB000771F7093070160930601A0910802B091AD
:107CC00009021097C9F0E8E0F1E09B01AD014E0F09
:107CD0005F1FF999FECF32BD21BD819180BDFA9A17
:107CE000F99A2F5F3F4FE417F50799F76A0F7B1F4B
:107CF00070930701609306018091C00085FFFCCF5F
:107D0000F092C6008091C00085FFFCCFB092C60003
:107D1000E1CE83E00E94C73CDDCE82E00E94C73CFA
:107D2000D9CE0E94763C809309020E94763C8093D3
:107D300008028091060190910701880F991F909386
:107D40000701809306010E94763C853409F4A6C0A1
:107D500080910C028E7F80930C020E94763C8032D0
:107D600009F0B8CE8091C00085FFFCCFF092C6002C
:107D7000609108027091090261157105B9F140E046
:107D800050E080910C02A82FA170B82FB27011C0E2
:107D9000BB2309F45CC0E0910601F0910701319624
:107DA000F0930701E09306014F5F5F4F46175707B7
:107DB000E8F4AA2369F3F999FECF209106013091E6
:107DC000070132BD21BDF89A90B58091C00085FFB2
:107DD000FCCF9093C6002F5F3F4F30930701209355
:107DE00006014F5F5F4F4617570718F38091C00099
:107DF00085FDE5CE8091C00085FFF8CFE0CE81E023
:107E00000E94C73C67CE0E94763C803209F08CCE3F
:107E10008091C00085FFFCCFF092C6008091C00029
:107E200085FFFCCFE092C6008091C00085FFFCCFAB
:107E3000D092C6008091C00085FFFCCFC092C600E2
:107E40008091C00085FFFCCFB092C60043CEE09188
:107E50000601F091070194918091C00085FFFCCF4D
:107E60009093C6009CCF80E10E94C73C33CE0E9415
:107E7000763C0E94763C182F0E94763C112309F430
:107E800083C0113009F484C08FE00E94C73C22CE29
:107E900080910C02816080930C02E5CE80910C02EF
:107EA000816080930C0259CF809107018823880F4D
:107EB000880B8A2180930B02809106019091070123
:107EC000880F991F90930701809306018091080203
:107ED00080FF09C080910802909109020196909359
:107EE000090280930802F894F999FECF1127E091D6
:107EF0000601F0910701C8E0D1E08091080290915D
:107F00000902103091F40091570001700130D9F34B
:107F100003E000935700E89500915700017001308D
:107F2000D9F301E100935700E89509901990009169
:107F3000570001700130D9F301E000935700E89534
:107F40001395103498F011270091570001700130FB
:107F5000D9F305E000935700E895009157000170B0
:107F60000130D9F301E100935700E895329602976A
:107F700009F0C7CF103011F00296E5CF112480919F
:107F8000C00085FFB9CEBCCE8EE10E94C73CA2CD19
:0C7F900085E90E94C73C9ECDF894FFCF0D
:027F9C00800063
:040000030000780081
:00000001FF
