:100000000C9462000C946D050C9446050C948A00C7
:100010000C948A000C948A000C948A000C94B70704
:100020000C948A000C948A000C948A000C94C206EA
:100030000C948A000C948A000C948A000C948A0018
:100040000C94FC040C948A000C947D010C94990986
:100050000C948A000C948A000C948A000C948A00F8
:100060000C9494050C948A000000000023002600E4
:10007000290000000000240027002A0000000000E2
:10008000250028002B0004040404040404040202D4
:100090000202020203030303030301020408102007
:1000A0004080010204081020010204081020000012
:1000B0000008000201000003040700000000000027
:1000C0000000BF0911241FBECFEFD8E0DEBFCDBFB7
:1000D00011E0A0E0B1E0E0EAF9E102C005900D9284
:1000E000A832B107D9F723E0A8E2B1E001C01D9220
:1000F000AC3EB207E1F710E0C2E6D0E004C02197C1
:10010000FE010E94C30CC136D107C9F70E94410A03
:100110000C94CE0C0C940000FC01538D448D252FC3
:1001200030E0842F90E0821B930B541710F0CF9691
:10013000089501970895FC01918D828D981761F0C3
:10014000828DDF01A80FB11D5D968C91928D9F5F0E
:100150009F73928F90E008958FEF9FEF0895FC01B9
:10016000918D828D981731F0828DE80FF11D858D6C
:1001700090E008958FEF9FEF0895FC01918D228DFF
:10018000892F90E0805C9F4F821B91098F73992784
:10019000089580E090E0892B29F00E946A0981117E
:1001A0000C9400000895833081F028F4813099F098
:1001B0008230A1F008958730A9F08830B9F08430FA
:1001C000D1F4809180008F7D03C0809180008F7773
:1001D00080938000089584B58F7702C084B58F7DA9
:1001E00084BD08958091B0008F7703C08091B000E6
:1001F0008F7D8093B00008958E3008F08E50877008
:10020000806480937C0080917A00806480937A007F
:1002100080917A0086FDFCCF809178002091790052
:1002200090E0922B0895089585ED8093BC00809115
:10023000BC0084FDFCCF10928801089540916201BA
:10024000262F30E0240F311D21323105DCF42091BE
:1002500088012430C9F4FC0180E090E0861758F44E
:10026000309162012191DC01A05CBE4FA30FB11D52
:100270002C930196F3CF80916201680F6093620125
:1002800080E0089581E0089582E0089508958FEF59
:100290009FEF08958FEF9FEF089580913F0190E0C9
:1002A0009195819591090895CF93DF9300D0CDB7B3
:1002B000DEB7CB01642F49835A830E941E01498116
:1002C000842F5A81952F0F900F90DF91CF91089531
:1002D000CF93DF931F92CDB7DEB7698361E0CE0184
:1002E00001960E941E0181E090E00F90DF91CF9176
:1002F0000895089580E090E008951F920F920FB640
:100300000F9211242F938F939F93EF93FF93E0917C
:10031000DB01F091DC018081E091E101F091E201EB
:1003200082FD12C090818091E4018F5F8F732091D4
:10033000E501821751F0E091E401F0E0E553FE4F52
:10034000958F8093E40101C08081FF91EF919F918F
:100350008F912F910F900FBE0F901F901895FC0159
:10036000848DDF01A80FB11DA35ABF4F2C91848D3E
:1003700090E001968F739927848FA689B7892C9373
:10038000A089B1898C9180648C93938D848D98130E
:1003900006C00288F389E02D80818F7D80830895D7
:1003A000EF92FF920F931F93CF93DF93EC0181E0C5
:1003B000888F9B8D8C8D981305C0E889F989808181
:1003C00085FD24C0F62E0B8D10E00F5F1F4F0F73BD
:1003D0001127E02E8C8DE8120CC00FB607FCFACF67
:1003E000E889F989808185FFF5CFCE010E94AF01B0
:1003F000F1CF8B8DFE01E80FF11DE35AFF4FF08224
:100400000B8FEA89FB898081806207C0EE89FF89B2
:100410006083E889F98980818064808381E090E04D
:10042000DF91CF911F910F91FF90EF900895CF939F
:10043000DF93EC01888D8823C9F0EA89FB898081EC
:1004400085FD05C0A889B9898C9186FD0FC00FB6BE
:1004500007FCF5CF808185FFF2CFA889B9898C91FF
:1004600085FFEDCFCE010E94AF01E7CFDF91CF91A5
:1004700008951F93CF93DF93282F30E0F901E255C1
:10048000FF4F8491F901E656FF4FD491F901EA57E5
:10049000FF4FC491CC23C9F0162F81110E94D300C5
:1004A000EC2FF0E0EE0FFF1FE458FF4FA591B49141
:1004B0008FB7F894111105C09C91ED2FE095E923B9
:1004C00002C0EC91ED2BEC938FBFDF91CF911F9188
:1004D0000895CF93DF9390E0FC01E656FF4F2491FF
:1004E000FC01EA57FF4F8491882361F190E0880F67
:1004F000991FFC01EE58FF4FC591D491FC01E458BF
:10050000FF4FA591B491611109C09FB7F8948881FC
:10051000209582238883EC912E230BC0623061F4F6
:100520009FB7F8943881822F809583238883EC913C
:100530002E2B2C939FBF06C08FB7F894E8812E2BEB
:1005400028838FBFDF91CF9108951F93CF93DF93BF
:10055000182FEB0161E00E946902209711F460E01E
:1005600004C0CF3FD10539F461E0812FDF91CF91F5
:100570001F910C943902E12FF0E0E255FF4FE49116
:10058000E330F9F048F4E130B9F0E230A1F584B598
:10059000806284BDC8BD34C0E730E9F0E83019F1AD
:1005A000E43049F580918000806280938000D09390
:1005B0008B00C0938A0024C084B5806884BDC7BD09
:1005C0001FC080918000806880938000D093890054
:1005D000C093880015C08091B00080688093B000FF
:1005E000C093B3000DC08091B00080628093B000D2
:1005F000C093B40005C0C038D1050CF0B5CFAFCF63
:10060000DF91CF911F910895EF92FF920F931F9367
:10061000CF93DF931F92CDB7DEB7282F7B016436CF
:10062000710544F46D397F4F44F48DE9E82EFF24C1
:10063000FA9403C093E6E92EF12CA701F7FE04C05B
:10064000442755274E195F093FEF349FC001359F5E
:10065000900D112464E670E00E949B0C8B01809148
:10066000350181110DC081E08093350161E088E0A2
:1006700029830E94690261E08CE00E94690229815D
:10068000213019F02230B9F034C0809136019091B8
:1006900037018E159F0569F1F0923701E09236011E
:1006A000F7FC02C061E001C060E088E00E9439020E
:1006B000B80185E015C080913801909139018E15FF
:1006C0009F05B9F0F0923901E0923801F7FC02C0C1
:1006D00060E001C061E08CE00E943902B80186E070
:1006E0000F90DF91CF911F910F91FF90EF900C949D
:1006F000A5020F90DF91CF911F910F91FF90EF9086
:100700000895CF92DF92EF92FF920F931F93CF93B2
:10071000C82F2FEF280F30E0F901EE0FFF1FE65C26
:10072000FE4F80819181019709F0FBC0220F331F9A
:10073000220F331FA90149545E4FDA01CD90DD909D
:10074000ED90FC90F901E45DFE4F80819181A281E2
:10075000B3810997A109B109C816D906EA06FB06B3
:10076000ECF0DA014D915D916D917C9180819181E8
:10077000A281B3810996A11DB11D84179507A60713
:10078000B70764F060E070E08C2FCF911F910F915C
:10079000FF90EF90DF90CF900C940403F901E9549F
:1007A000FE4FC080D180E280F380D901A45DBE4FAE
:1007B0004D915D916D917C9113974950510961095B
:1007C0007109C416D506E606F70694F44D915D91BD
:1007D0006D917C911397C080D180E280F38041536A
:1007E000510961097109C416D506E606F70664F5D4
:1007F000D901A954BE4FCD90DD90ED90FC90139798
:10080000F901E45DFE4F4081518162817381475F50
:100810005F4F6F4F7F4F4C155D056E057F050CF0E8
:1008200080C040815181628173810D911D912D9114
:100830003C9113974F5C5F4F6F4F7F4F40175107AD
:1008400062077307B4F56DC04D915D916D917C9118
:1008500013970081118122813381401B510B620B60
:10086000730B77FF0AC040815181628173818D9142
:100870009D910D90BC91A02D08C04D915D916D9101
:100880007C9180819181A281B3819A01AB01281B67
:10089000390B4A0B5B0BA9E1B0E00E94F40B29E293
:1008A00030E040E050E00E94D50BB9016B5F7F4F14
:1008B0006BCF40815181628173810D911D912D918A
:1008C0003C911397401B510B620B730B77FF09C0D0
:1008D0004D915D916D917C9180819181A281B381D7
:1008E00009C040815181628173818D919D910D90EC
:1008F000BC91A02D9A01AB01281B390B4A0B5B0B55
:10090000A9E1B0E00E94F40B29E230E040E050E0C1
:100910000E94D50B2B5F3F4F66277727621B730B17
:1009200033CFCF911F910F91FF90EF90DF90CF9039
:10093000089599B129B130E084E0359527958A95DD
:10094000E1F7892F90E09595879595958795822772
:10095000932780FF0CC08091B7019091B801A091BE
:10096000B901B091BA010196A11DB11D0BC08091D2
:10097000B7019091B801A091B901B091BA01019766
:10098000A109B1098093B7019093B801A093B9016F
:10099000B093BA0181E00C94810399B189B193FBC2
:1009A000222720F930E0881F8827881F90E0281729
:1009B000390761F08091BB019091BC01A091BD010C
:1009C000B091BE010197A109B1090BC08091BB0193
:1009D0009091BC01A091BD01B091BE010196A11DF5
:1009E000B11D8093BB019093BC01A093BD01B09356
:1009F000BE0182E00C9481031F920F920FB60F92FA
:100A000011242F933F938F939F93AF93BF93809124
:100A1000B3019091B401A091B501B091B6013091AC
:100A2000B20123E0230F2D3720F40196A11DB11D43
:100A300005C026E8230F0296A11DB11D2093B20127
:100A40008093B3019093B401A093B501B093B60124
:100A50008091AE019091AF01A091B001B091B10130
:100A60000196A11DB11D8093AE019093AF01A0939B
:100A7000B001B093B101BF91AF919F918F913F9120
:100A80002F910F900FBE0F901F9018951F920F92ED
:100A90000FB60F9211242F933F934F935F936F9351
:100AA0007F938F939F93AF93BF93EF93FF93E091C7
:100AB0000201F09103010995FF91EF91BF91AF9170
:100AC0009F918F917F916F915F914F913F912F9166
:100AD0000F900FBE0F901F9018951F920F920FB698
:100AE0000F9211242F933F934F935F936F937F93B4
:100AF0008F939F93AF93BF93EF93FF93E091000188
:100B0000F09101010995FF91EF91BF91AF919F91F4
:100B10008F917F916F915F914F913F912F910F90A6
:100B20000FBE0F901F9018951F920F920FB60F9245
:100B300011242F933F934F935F936F937F938F93E2
:100B40009F93AF93BF93EF93FF938091B900887FFA
:100B5000803609F49CC068F5883209F45BC090F4D3
:100B6000803109F454C038F4882309F4F6C0883081
:100B700009F44DC0F6C0883109F44CC0803209F444
:100B80005DC0EFC0803409F468C048F4803309F4D4
:100B900055C0883309F0E5C080938701D8C08035FF
:100BA00009F44FC0883509F45DC0883409F0D9C014
:100BB000D6C0883909F4C7C0A8F4883709F467C0DB
:100BC00038F4883609F463C0803709F460C0C9C0BE
:100BD000883809F4B8C0803909F45FC0803809F05A
:100BE000C0C05BC0803B09F486C038F4803A09F489
:100BF00066C0883A09F47FC0B4C0803C09F4A7C03D
:100C0000883C09F4A4C0883B09F48AC0AAC080913A
:100C1000AD0110C09091AC018091AB01981770F5B7
:100C2000E091AC0181E08E0F8093AC01F0E0E557DC
:100C3000FE4F80818093BB0085EC86C08093870146
:100C40008EC0E091AC0181E08E0F8093AC01809169
:100C5000BB00F0E0E557FE4F80839091AC0180919E
:100C6000AB016EC0E091AC0181E08E0F8093AC01CE
:100C70008091BB00F0E0E557FE4F808380918A01B0
:100C800081116DC081E08093890184EA61C083E0B5
:100C90008093880110928601CFCF809186018032A7
:100CA00008F051C0E091860181E08E0F80938601AB
:100CB0008091BB00F0E0EA59FE4F8083BDCF85EC08
:100CC0008093BC001092880180918601803230F4BC
:100CD000E0918601F0E0EA59FE4F108260918601B2
:100CE00070E0E0916401F091650186E691E009957C
:100CF0001092860136C084E08093880110926301CF
:100D000010926201E0916001F0916101099580917A
:100D10006201811105C081E080936201109240015F
:100D2000E091630181E08E0F80936301F0E0E05C6D
:100D3000FE4F80818093BB0090916301809162019E
:100D4000981708F479CF85E88093BC000AC085EC39
:100D50008093BC001092880104C0109287010E9409
:100D60001401FF91EF91BF91AF919F918F917F916E
:100D70006F915F914F913F912F910F900FBE0F9008
:100D80001F9018951F920F920FB60F9211242F9358
:100D90003F934F935F936F937F938F939F93AF9303
:100DA000BF93EF93FF9380913E0187FF05C01092A0
:100DB0008500109284001BC020913E01022E000C81
:100DC000330B80918C0290E02817390784F48091CE
:100DD0003E01082E000C990BFC01EE0FFF1F8E0F39
:100DE0009F1FFC01E859FD4F808186FD15C0809151
:100DF0003E018F5F80933E0120913E01022E000C48
:100E0000330B80918C0290E028173907C4F480914D
:100E10003E018C3064F113C080913E01082E000C1D
:100E2000990BFC01EE0FFF1F8E0F9F1FFC01E8596D
:100E3000FD4F808160E08F730E943902D8CF80918E
:100E4000840090918500049680349C4918F480E4D5
:100E50009CE905C080918400909185000496909350
:100E60008900809388008FEF80933E013BC02091E2
:100E700084003091850080913E01082E000C990B72
:100E8000FC01EE0FFF1F8E0F9F1FFC01E859FD4F65
:100E900081819281820F931F9093890080938800B3
:100EA00080913E01082E000C990BFC01EE0FFF1FF4
:100EB0008E0F9F1FFC01E859FD4F808186FF12C0F5
:100EC00080913E01082E000C990BFC01EE0FFF1FD4
:100ED0008E0F9F1FFC01E859FD4F808161E08F73E9
:100EE0000E943902FF91EF91BF91AF919F918F9135
:100EF0007F916F915F914F913F912F910F900FBE16
:100F00000F901F901895E82FF0E0EE0FFF1FE85CA0
:100F1000FE4F118210820C940403809134018111E0
:100F200025C081E08093340162E082E00E94690282
:100F300062E083E00E94690289E994E090930101F4
:100F400080930001809169008C7F816080936900AB
:100F5000E89A8DEC94E090930301809302018091D4
:100F60006900837F846080936900E99A08951F92E5
:100F70000F920FB60F9211240F931F932F933F934D
:100F80004F935F936F937F938F939F93AF93BF9391
:100F9000CF93DF93EF93FF9320918D0230E0F9011F
:100FA000E255FF4F8491F901E656FF4FD491F901C4
:100FB000EA57FF4FC491CC23A1F081110E94D300C6
:100FC000EC2FF0E0EE0FFF1FE859FF4FA591B49111
:100FD000EC91ED2331E020E009F430E0832F922FF3
:100FE00002C080E090E020918F02309190022F5F4C
:100FF0003F4F3093900220938F0220915903243663
:1010000018F025E020938E0220918E02233029F1E2
:1010100018F4223039F09FC02430D9F1253009F47A
:1010200070C099C0892B09F096C010925903109294
:10103000900210928F02E091590381E08E0F80930D
:101040005903F0E080918F0290919002EE0FFF1F04
:10105000EF56FD4F9183808333C0019709F07BC029
:10106000E091590381E08E0F80935903F0E0809165
:101070008F0290919002EE0FFF1FEF56FD4F91836C
:1010800080831092900210928F0284E080938E02EF
:1010900062C0892BB9F4E091590381E08E0F8093EF
:1010A0005903F0E080918F0290919002EE0FFF1FA4
:1010B000EF56FD4F918380831092900210928F0221
:1010C00083E0E4CF80918F02909190028536910564
:1010D00008F441C085E080938E022FB7F894809188
:1010E000B3019091B401A091B501B091B6012FBFA9
:1010F00080935A0390935B03A0935C03B0935D03CA
:101100002AC02FB7F8944091B3015091B401609177
:10111000B5017091B6012FBF00915A0310915B0386
:1011200020915C0330915D03401B510B620B730BEC
:10113000493C51056105710540F010925903109228
:10114000900210928F0282E0A1CF892B21F410929D
:10115000900210928F02FF91EF91DF91CF91BF919A
:10116000AF919F918F917F916F915F914F913F913F
:101170002F911F910F910F900FBE0F901F901895F8
:1011800080E090E0A6E1B3E48093280190932901E8
:10119000A0932A01B0932B0181E00E94FC00BC01C6
:1011A000990F880B990B0E94370C20E030E046E144
:1011B00053E40E94300C87FF0DC080E090E0A0E86F
:1011C000BFE38093C7019093C801A093C901B09376
:1011D000CA0108C01092C7011092C8011092C9013B
:1011E0001092CA0182E00E94FC00BC01990F880B9A
:1011F000990B0E94370C20E030E046E153E40E9456
:10120000300C87FF0DC080E090E0A0E8BFE3809342
:10121000C3019093C401A093C501B093C60108C057
:101220001092C3011092C4011092C5011092C60120
:1012300083E00E94FC00BC01990F880B990B0E946F
:10124000370C20E030E046E153E40E94300C87FF89
:101250000DC080E090E0A0E8BFE38093BF019093D1
:10126000C001A093C101B093C20108951092BF01C3
:101270001092C0011092C1011092C2010895CF9244
:10128000DF92EF92FF920F931F93CF93DF936C0146
:101290007A018B01C0E0D0E0CE15DF0589F0D801DE
:1012A0006D918D01D601ED91FC910190F081E02DC1
:1012B000C6010995892B11F47E0102C02196ECCF5D
:1012C000C701DF91CF911F910F91FF90EF90DF90B9
:1012D000CF9008958BEC91E00E94BD0021E0892B16
:1012E00009F420E0822F08950F931F93CF93DF938B
:1012F00061E089E00E946902C0E0D0E00BEE1EE0F0
:1013000061E089E00E943902C8010197F1F760E0CD
:1013100089E00E943902C8010197F1F72196C23491
:10132000D10571F7DF91CF911F910F9108950E9420
:10133000C90C1F920F920FB60F9211242F933F9357
:101340004F935F936F937F938F939F93AF93BF93CD
:10135000EF93FF938BEC91E00E94AF01FF91EF912F
:10136000BF91AF919F918F917F916F915F914F91BD
:101370003F912F910F900FBE0F901F9018951092D4
:10138000CE011092CD0188EE93E0A0E0B0E0809312
:10139000CF019093D001A093D101B093D20128E066
:1013A00031E03093CC012093CB0125EC30E0309339
:1013B000D8012093D70124EC30E03093DA01209358
:1013C000D90120EC30E03093DC012093DB0121ECEB
:1013D00030E03093DE012093DD0122EC30E03093E9
:1013E000E0012093DF0126EC30E03093E20120930E
:1013F000E1011092E4011092E5011092E6011092D1
:10140000E701109265031092640380936603909342
:101410006703A0936803B09369038AE191E0909316
:101420006303809362038FEF80938D0280918C021F
:10143000A0EEB3E09FEF48EB5BE08C3078F48C9348
:10144000282F30E0F901EE0FFF1F2E0F3F1FF9018B
:10145000E859FD4F528341838F5F01C09C931396DF
:1014600023E0AC3EB20749F780938C028FEF9FEFE9
:101470009093DD038093DC039093DF038093DE037E
:101480000895789484B5826084BD84B5816084BDFC
:1014900085B5826085BD85B5816085BD80916E0012
:1014A000816080936E001092810080918100826043
:1014B0008093810080918100816080938100809180
:1014C00080008160809380008091B100846080936F
:1014D000B1008091B00081608093B00080917A006B
:1014E000846080937A0080917A00826080937A0091
:1014F00080917A00816080937A0080917A00806880
:1015000080937A001092C1000E94C00820E030E071
:1015100040E85FE36091C7017091C8018091C90103
:101520009091CA010E94300C882309F4C9C00E941E
:10153000C00820E030E040E85FE36091C3017091B3
:10154000C4018091C5019091C6010E94300C20E039
:1015500030E040E85FE3811136C06091C7017091CF
:10156000C8018091C9019091CA010E94300C20E00D
:1015700030E040E85FE3811112C06091BF017091DB
:10158000C0018091C1019091C2010E94300C811173
:1015900003C06EE170E079C066E070E076C06091F3
:1015A000BF017091C0018091C1019091C2010E9460
:1015B000300C8111EECF6EE170E081E00E94830774
:1015C00066E070E079C06091BF017091C0018091C8
:1015D000C1019091C2010E94300C20E030E040E84F
:1015E0005FE381111BC06091C7017091C8018091B8
:1015F000C9019091CA010E94300C882351F26EE11A
:1016000070E081E00E94830766E070E082E00E9463
:10161000830780E090E0A0E4B0E41AC06091C701C5
:101620007091C8018091C9019091CA010E94300C4B
:10163000811117C066E070E081E00E9483076EE1CF
:1016400070E082E00E94830780E090E0A0E8BFE3C2
:1016500080935E0390935F03A0936003B093610354
:1016600055CFC0905E03D0905F03E0906003F09090
:10167000610320E030E040E85FE3C701B6010E946B
:10168000300C811108C062EE7FEF81E00E94830779
:101690006EE170E011C020E030E040E450E4C701AA
:1016A000B6010E94300C811174CF6EE170E081E0D0
:1016B0000E94830762EE7FEF82E00E94830726CFBD
:1016C00020E030E040E85FE36091C3017091C40125
:1016D0008091C5019091C6010E94300C811127CFE5
:1016E00010925E0310925F031092600310926103E8
:1016F0000E948D071092B7011092B8011092B901A3
:101700001092BA010E948D078091B7019091B801A3
:10171000A091B901B091BA01181619061A061B0654
:101720005CF40E948D076091B7017091B8018091BF
:10173000B9019091BA0113C00E948D078091B70141
:101740009091B801A091B901B091BA019C01AD018D
:1017500066277727CB01621B730B840B950B0E94C6
:10176000370C20E030E048E453E40E94960C181651
:101770005CF06EE170E081E00E9483076EE170E052
:1017800082E00E948307BECF60E070E081E00E94AB
:10179000830760E070E082E00E9483070E94740982
:1017A0000E9474090E94C900FDCF052E97FB1EF40C
:1017B00000940E94EC0B57FD07D00E94FF0B07FC22
:1017C00003D04EF40C94EC0B509540953095219538
:1017D0003F4F4F4F5F4F089590958095709561955D
:1017E0007F4F8F4F9F4F08950E94210CA59F900D12
:1017F000B49F900DA49F800D911D11240895A1E226
:101800001A2EAA1BBB1BFD010DC0AA1FBB1FEE1F7A
:10181000FF1FA217B307E407F50720F0A21BB30BC5
:10182000E40BF50B661F771F881F991F1A9469F741
:1018300060957095809590959B01AC01BD01CF019D
:101840000895A29FB001B39FC001A39F700D811D99
:101850001124911DB29F700D811D1124911D0895B9
:101860000E94720C08F481E00895E89409C097FB87
:101870003EF490958095709561957F4F8F4F9F4F67
:101880009923A9F0F92F96E9BB279395F6958795AB
:1018900077956795B795F111F8CFFAF4BB0F11F46E
:1018A00060FF1BC06F5F7F4F8F4F9F4F16C0882315
:1018B00011F096E911C0772321F09EE8872F762F4B
:1018C00005C0662371F096E8862F70E060E02AF08C
:1018D0009A95660F771F881FDAF7880F9695879578
:1018E00097F90895990F0008550FAA0BE0E8FEEF4D
:1018F00016161706E807F907C0F012161306E407D4
:10190000F50798F0621B730B840B950B39F40A26CC
:1019100061F0232B242B252B21F408950A2609F4AA
:10192000A140A6958FEF811D811D08950E94720C24
:1019300008F48FEF089597FB072E16F4009407D054
:1019400077FD09D00E94AF0C07FC05D03EF49095BE
:1019500081959F4F0895709561957F4F0895AA1BBB
:10196000BB1B51E107C0AA1FBB1FA617B70710F08A
:10197000A61BB70B881F991F5A95A9F780959095BC
:10198000BC01CD010895EE0FFF1F0590F491E02DED
:10199000099481E090E0F8940C94CE0CF894FFCF79
:1019A0001301130100000000D0013F098C00170251
:1019B000BD009B00AF0000000000680154017A01E7
:0819C00046014D014A014701F7
:107800000C94343C0C94513C0C94513C0C94513CE1
:107810000C94513C0C94513C0C94513C0C94513CB4
:107820000C94513C0C94513C0C94513C0C94513CA4
:107830000C94513C0C94513C0C94513C0C94513C94
:107840000C94513C0C94513C0C94513C0C94513C84
:107850000C94513C0C94513C0C94513C0C94513C74
:107860000C94513C0C94513C11241FBECFEFD8E036
:10787000DEBFCDBF11E0A0E0B1E0ECE9FFE702C060
:1078800005900D92A230B107D9F712E0A2E0B1E065
:1078900001C01D92AD30B107E1F70E942D3D0C945F
:1078A000CC3F0C94003C982F959595959595959582
:1078B000905D8F708A307CF0282F295A8091C0000B
:1078C00085FFFCCF9093C6008091C00085FFFCCF60
:1078D0002093C6000895282F205DF0CF982F809127
:1078E000C00085FFFCCF9093C6000895EF92FF92F1
:1078F0000F931F93EE24FF2487018091C00087FD22
:1079000017C00894E11CF11C011D111D81E4E8164B
:1079100082E4F8068FE0080780E0180770F3E09132
:107920000401F091050109958091C00087FFE9CF1E
:107930008091C6001F910F91FF90EF9008950E94D3
:10794000763C982F8091C00085FFFCCF9093C600B5
:1079500091362CF490330CF09053892F089597555D
:10796000892F08951F930E949F3C182F0E949F3CCF
:107970001295107F810F1F9108951F93182F882350
:1079800021F00E94763C1150E1F71F9108951F935A
:10799000182F0E94763C803249F0809103018F5F5E
:1079A000809303018530C1F01F9108958091C0003C
:1079B00085FFFCCF84E18093C6008091C00085FFE5
:1079C000FCCF1093C6008091C00085FFFCCF80E102
:1079D0008093C6001F910895E0910401F091050184
:1079E00009951F9108950E94763C803241F0809164
:1079F00003018F5F80930301853081F008958091AA
:107A0000C00085FFFCCF84E18093C6008091C00058
:107A100085FFFCCF80E18093C6000895E0910401CA
:107A2000F09105010995089540E951E08823A1F0FE
:107A30002D9A28EE33E0FA013197F1F721503040CA
:107A4000D1F72D9828EE33E0FA013197F1F7215064
:107A50003040D1F7815061F708953F924F925F9285
:107A60006F927F928F929F92AF92BF92CF92DF924E
:107A7000EF92FF920F931F93CF93DF93000080E16B
:107A80008093C4001092C50088E18093C10086E015
:107A90008093C2005098589A259A81E00E94143D24
:107AA00024E1F22E9EE1E92E85E9D82E0FE0C02ECA
:107AB00010E1B12EAA24A394B1E49B2EA6E58A2E50
:107AC000F2E57F2EE0E26E2E79E4572E63E5462E36
:107AD00050E5352E0E94763C8033B1F18133B9F107
:107AE000803409F46FC0813409F476C0823409F41B
:107AF00085C0853409F488C0803531F1823521F1A3
:107B0000813511F1853509F485C0863509F48DC0BC
:107B1000843609F496C0843709F403C1853709F423
:107B200072C1863709F466C0809103018F5F80932C
:107B30000301853079F6E0910401F0910501099582
:107B40000E94763C803351F60E94F33CC3CF0E94E2
:107B5000763C803249F78091C00085FFFCCFF092DF
:107B6000C6008091C00085FFFCCF9092C600809136
:107B7000C00085FFFCCF8092C6008091C00085FFC9
:107B8000FCCF7092C6008091C00085FFFCCF609250
:107B9000C6008091C00085FFFCCF5092C600809146
:107BA000C00085FFFCCF4092C6008091C00085FFD9
:107BB000FCCF3092C6008091C00085FFFCCFB09210
:107BC000C60088CF0E94763C863808F4BDCF0E945C
:107BD000763C0E94F33C7ECF0E94763C803809F4CC
:107BE0009CC0813809F40BC1823809F43CC1883942
:107BF00009F48FC080E00E94C73C6CCF84E10E94F2
:107C0000BD3C0E94F33C66CF85E00E94BD3C0E94D3
:107C1000F33C60CF0E94763C809306010E94763C44
:107C2000809307010E94F33C55CF0E94763C80333D
:107C300009F41DC183E00E94BD3C80E00E94C73C66
:107C400049CF0E94763C809309020E94763C809343
:107C5000080280910C028E7F80930C020E94763C79
:107C6000853409F415C18091080290910902892B8D
:107C700089F000E010E00E94763CF801E85FFE4FDA
:107C800080830F5F1F4F80910802909109020817AF
:107C9000190788F30E94763C803209F045CF809125
:107CA0000C0280FF01C16091060170910701660F0F
:107CB000771F7093070160930601A0910802B091AD
:107CC00009021097C9F0E8E0F1E09B01AD014E0F09
:107CD0005F1FF999FECF32BD21BD819180BDFA9A17
:107CE000F99A2F5F3F4FE417F50799F76A0F7B1F4B
:107CF00070930701609306018091C00085FFFCCF5F
:107D0000F092C6008091C00085FFFCCFB092C60003
:107D1000E1CE83E00E94C73CDDCE82E00E94C73CFA
:107D2000D9CE0E94763C809309020E94763C8093D3
:107D300008028091060190910701880F991F909386
:107D40000701809306010E94763C853409F4A6C0A1
:107D500080910C028E7F80930C020E94763C8032D0
:107D600009F0B8CE8091C00085FFFCCFF092C6002C
:107D7000609108027091090261157105B9F140E046
:107D800050E080910C02A82FA170B82FB27011C0E2
:107D9000BB2309F45CC0E0910601F0910701319624
:107DA000F0930701E09306014F5F5F4F46175707B7
:107DB000E8F4AA2369F3F999FECF209106013091E6
:107DC000070132BD21BDF89A90B58091C00085FFB2
:107DD000FCCF9093C6002F5F3F4F30930701209355
:107DE00006014F5F5F4F4617570718F38091C00099
:107DF00085FDE5CE8091C00085FFF8CFE0CE81E023
:107E00000E94C73C67CE0E94763C803209F08CCE3F
:107E10008091C00085FFFCCFF092C6008091C00029
:107E200085FFFCCFE092C6008091C00085FFFCCFAB
:107E3000D092C6008091C00085FFFCCFC092C600E2
:107E40008091C00085FFFCCFB092C60043CEE09188
:107E50000601F091070194918091C00085FFFCCF4D
:107E60009093C6009CCF80E10E94C73C33CE0E9415
:107E7000763C0E94763C182F0E94763C112309F430
:107E800083C0113009F484C08FE00E94C73C22CE29
:107E900080910C02816080930C02E5CE80910C02EF
:107EA000816080930C0259CF809107018823880F4D
:107EB000880B8A2180930B02809106019091070123
:107EC000880F991F90930701809306018091080203
:107ED00080FF09C080910802909109020196909359
:107EE000090280930802F894F999FECF1127E091D6
:107EF0000601F0910701C8E0D1E08091080290915D
:107F00000902103091F40091570001700130D9F34B
:107F100003E000935700E89500915700017001308D
:107F2000D9F301E100935700E89509901990009169
:107F3000570001700130D9F301E000935700E89534
:107F40001395103498F011270091570001700130FB
:107F5000D9F305E000935700E895009157000170B0
:107F60000130D9F301E100935700E895329602976A
:107F700009F0C7CF103011F00296E5CF112480919F
:107F8000C00085FFB9CEBCCE8EE10E94C73CA2CD19
:0C7F900085E90E94C73C9ECDF894FFCF0D
:027F9C00800063
:040000030000780081
:00000001FF
