:100000000C9462000C9429060C9402060C948A004D
:100010000C948A000C948A000C948A000C94730847
:100020000C948A000C948A000C948A000C947E072D
:100030000C948A000C948A000C948A000C948A0018
:100040000C94B8050C948A000C94C3020C949D0285
:100050000C948A000C948A000C948A000C948A00F8
:100060000C9450060C948A00000000002300260027
:10007000290000000000240027002A0000000000E2
:10008000250028002B0004040404040404040202D4
:100090000202020203030303030301020408102007
:1000A0004080010204081020010204081020000012
:1000B0000008000201000003040700000000000027
:1000C0000000830E11241FBECFEFD8E0DEBFCDBFEE
:1000D00011E0A0E0B1E0E6EEF0E202C005900D9282
:1000E000A033B107D9F723E0A0E3B1E001C01D922E
:1000F000A43FB207E1F710E0C2E6D0E004C02197C8
:10010000FE010E946610C136D107C9F70E949B0DFF
:100110000C9471100C940000CF92DF92EF92FF923A
:100120000F931F93CF93DF936C017A018B01C0E093
:10013000D0E0CE15DF0589F0D8016D918D01D60193
:10014000ED91FC910190F081E02DC6010995892B7C
:1001500011F47E0102C02196ECCFC701DF91CF914F
:100160001F910F91FF90EF90DF90CF900895FC01C9
:10017000538D448D252F30E0842F90E0821B930B0C
:10018000541710F0CF96089501970895FC01918DB2
:10019000828D981761F0828DDF01A80FB11D5D96E9
:1001A0008C91928D9F5F9F73928F90E008958FEF57
:1001B0009FEF0895FC01918D828D981731F0828D0B
:1001C000E80FF11D858D90E008958FEF9FEF089562
:1001D000FC01918D228D892F90E0805C9F4F821BC6
:1001E00091098F739927089583ED91E00E94E800AB
:1001F00021E0892B09F420E0822F0895FC01848DF1
:10020000DF01A80FB11DA35ABF4F2C91848D90E040
:1002100001968F739927848FA689B7892C93A0891B
:10022000B1898C9180648C93938D848D981306C0D2
:100230000288F389E02D80818F7D80830895EF927D
:10024000FF920F931F93CF93DF93EC0181E0888F90
:100250009B8D8C8D981305C0E889F989808185FD77
:1002600024C0F62E0B8D10E00F5F1F4F0F73112768
:10027000E02E8C8DE8120CC00FB607FCFACFE8898F
:10028000F989808185FFF5CFCE010E94FE00F1CF74
:100290008B8DFE01E80FF11DE35AFF4FF0820B8FAB
:1002A000EA89FB898081806207C0EE89FF896083CB
:1002B000E889F98980818064808381E090E0DF9122
:1002C000CF911F910F91FF90EF900895CF93DF93FF
:1002D000EC01888D8823C9F0EA89FB89808185FD3E
:1002E00005C0A889B9898C9186FD0FC00FB607FC9F
:1002F000F5CF808185FFF2CFA889B9898C9185FFE0
:10030000EDCFCE010E94FE00E7CFDF91CF9108959F
:1003100080E090E0892B29F00E94F40081110C9478
:1003200000000895833081F028F4813099F0823004
:10033000A1F008958730A9F08830B9F08430D1F465
:10034000809180008F7D03C0809180008F778093A3
:100350008000089584B58F7702C084B58F7D84BDF9
:1003600008958091B0008F7703C08091B0008F7D99
:100370008093B00008958E3008F08E5087708064AE
:1003800080937C0080917A00806480937A008091D1
:100390007A0086FDFCCF809178002091790090E072
:1003A000922B08953FB7F8948091BB019091BC01C6
:1003B000A091BD01B091BE0126B5A89B05C02F3FFD
:1003C00019F00196A11DB11D3FBFBA2FA92F982F7B
:1003D0008827820F911DA11DB11DBC01CD0142E0F6
:1003E000660F771F881F991F4A95D1F708958F923E
:1003F0009F92AF92BF92CF92DF92EF92FF926B01EA
:100400007C010E94D2014B015C01C114D104E104C2
:10041000F104F1F00E94D201DC01CB0188199909A5
:10042000AA09BB09883E9340A105B10570F321E0FC
:10043000C21AD108E108F10888EE880E83E0981E00
:10044000A11CB11CC114D104E104F10419F7DDCFE2
:10045000FF90EF90DF90CF90BF90AF909F908F90E4
:100460000895089585ED8093BC008091BC0084FDC3
:10047000FCCF10929001089540916A01262F30E040
:10048000240F311D21323105DCF4209190012430FC
:10049000C9F4FC0180E090E0861758F430916A01BD
:1004A0002191DC01A85BBE4FA30FB11D2C930196D7
:1004B000F3CF80916A01680F60936A0180E008952C
:1004C00081E0089582E0089508958FEF9FEF0895E9
:1004D0008FEF9FEF08958091470190E0919581956E
:1004E00091090895CF93DF9300D0CDB7DEB7CB014C
:1004F000642F49835A830E943C024981842F5A8188
:10050000952F0F900F90DF91CF910895CF93DF93A8
:100510001F92CDB7DEB7698361E0CE0101960E94DC
:100520003C0281E090E00F90DF91CF910895089513
:1005300080E090E008950E946C101F920F920FB619
:100540000F9211242F933F934F935F936F937F9359
:100550008F939F93AF93BF93EF93FF9383ED91E0BE
:100560000E94FE00FF91EF91BF91AF919F918F91FB
:100570007F916F915F914F913F912F910F900FBE9F
:100580000F901F9018951F920F920FB60F92112483
:100590002F938F939F93EF93FF93E091E301F0915B
:1005A000E4018081E091E901F091EA0182FD12C04D
:1005B00090818091EC018F5F8F732091ED01821704
:1005C00051F0E091EC01F0E0ED52FE4F958F8093F9
:1005D000EC0101C08081FF91EF919F918F912F914C
:1005E0000F900FBE0F901F9018951F93CF93DF931E
:1005F000282F30E0F901E255FF4F8491F901E656CA
:10060000FF4FD491F901EA57FF4FC491CC23C9F0B1
:10061000162F81110E949201EC2FF0E0EE0FFF1FC8
:10062000E458FF4FA591B4918FB7F894111105C00C
:100630009C91ED2FE095E92302C0EC91ED2BEC931A
:100640008FBFDF91CF911F910895CF93DF9390E0FB
:10065000FC01E656FF4F2491FC01EA57FF4F8491BD
:10066000882361F190E0880F991FFC01EE58FF4F3D
:10067000C591D491FC01E458FF4FA591B49161114B
:1006800009C09FB7F8948881209582238883EC91D4
:100690002E230BC0623061F49FB7F8943881822F0B
:1006A000809583238883EC912E2B2C939FBF06C0CB
:1006B0008FB7F894E8812E2B28838FBFDF91CF91DD
:1006C00008951F93CF93DF93182FEB0161E00E94F1
:1006D0002503209711F460E004C0CF3FD10539F421
:1006E00061E0812FDF91CF911F910C94F502E12FF2
:1006F000F0E0E255FF4FE491E330F9F048F4E130E7
:10070000B9F0E230A1F584B5806284BDC8BD34C0C3
:10071000E730E9F0E83019F1E43049F580918000E4
:10072000806280938000D0938B00C0938A0024C0A5
:1007300084B5806884BDC7BD1FC08091800080687B
:1007400080938000D0938900C093880015C0809169
:10075000B00080688093B000C093B3000DC080915A
:10076000B00080628093B000C093B40005C0C03870
:10077000D1050CF0B5CFAFCFDF91CF911F91089588
:10078000EF92FF920F931F93CF93DF931F92CDB7FA
:10079000DEB7282F7B016436710544F46D397F4F35
:1007A00044F48DE9E82EFF24FA9403C093E6E92E81
:1007B000F12CA701F7FE04C0442755274E195F0905
:1007C0003FEF349FC001359F900D112464E670E027
:1007D0000E943E108B0180913D0181110DC081E08E
:1007E00080933D0161E088E029830E94250361E058
:1007F0008CE00E9425032981213019F02230B9F0C4
:1008000034C080913E0190913F018E159F0569F1A2
:10081000F0923F01E0923E01F7FC02C061E001C0AE
:1008200060E088E00E94F502B80185E015C0809183
:100830004001909141018E159F05B9F0F092410160
:10084000E0924001F7FC02C060E001C061E08CE092
:100850000E94F502B80186E00F90DF91CF911F91C1
:100860000F91FF90EF900C9461030F90DF91CF9167
:100870001F910F91FF90EF900895CF92DF92EF922A
:10088000FF920F931F93CF93C82F2FEF280F30E0C5
:10089000F901EE0FFF1FEE5BFE4F80819181019702
:1008A00009F0FBC0220F331F220F331FA90145534C
:1008B0005E4FDA01CD90DD90ED90FC90F901EC5C9B
:1008C000FE4F80819181A281B3810997A109B1096D
:1008D000C816D906EA06FB06ECF0DA014D915D91E7
:1008E0006D917C9180819181A281B3810996A11D36
:1008F000B11D84179507A607B70764F060E070E0A4
:100900008C2FCF911F910F91FF90EF90DF90CF90A0
:100910000C94C003F901E553FE4FC080D180E28002
:10092000F380D901AC5CBE4F4D915D916D917C918E
:1009300013974950510961097109C416D506E60695
:10094000F70694F44D915D916D917C911397C08061
:10095000D180E280F3804153510961097109C416C5
:10096000D506E606F70664F5D901A553BE4FCD902E
:10097000DD90ED90FC901397F901EC5CFE4F408107
:10098000518162817381475F5F4F6F4F7F4F4C157D
:100990005D056E057F050CF080C04081518162814C
:1009A00073810D911D912D913C9113974F5C5F4F79
:1009B0006F4F7F4F4017510762077307B4F56DC043
:1009C0004D915D916D917C911397008111812281F0
:1009D0003381401B510B620B730B77FF0AC04081C0
:1009E0005181628173818D919D910D90BC91A02D5B
:1009F00008C04D915D916D917C9180819181A28122
:100A0000B3819A01AB01281B390B4A0B5B0BA9E19F
:100A1000B0E00E94240F29E230E040E050E00E9464
:100A2000050FB9016B5F7F4F6BCF408151816281B0
:100A300073810D911D912D913C911397401B510B8A
:100A4000620B730B77FF09C04D915D916D917C91A5
:100A500080819181A281B38109C0408151816281ED
:100A600073818D919D910D90BC91A02D9A01AB0148
:100A7000281B390B4A0B5B0BA9E1B0E00E94240F45
:100A800029E230E040E050E00E94050F2B5F3F4F2D
:100A900066277727621B730B33CFCF911F910F917E
:100AA000FF90EF90DF90CF90089599B129B130E099
:100AB00084E0359527958A95E1F7892F90E0959503
:100AC0008795959587958227932780FF0CC0809105
:100AD000CB019091CC01A091CD01B091CE010196B6
:100AE000A11DB11D0BC08091CB019091CC01A091B3
:100AF000CD01B091CE010197A109B1098093CB013D
:100B00009093CC01A093CD01B093CE0181E00C94E1
:100B10003D0499B189B193FB222720F930E0881F69
:100B20008827881F90E02817390761F08091CF014E
:100B30009091D001A091D101B091D2010197A1096A
:100B4000B1090BC08091CF019091D001A091D1014A
:100B5000B091D2010196A11DB11D8093CF01909358
:100B6000D001A093D101B093D20182E00C943D0456
:100B70001F920F920FB60F9211242F933F938F93D2
:100B80009F93AF93BF938091B7019091B801A091CB
:100B9000B901B091BA013091B60123E0230F2D378E
:100BA00020F40196A11DB11D05C026E8230F029671
:100BB000A11DB11D2093B6018093B7019093B80198
:100BC000A093B901B093BA018091BB019091BC018F
:100BD000A091BD01B091BE010196A11DB11D8093F0
:100BE000BB019093BC01A093BD01B093BE01BF9126
:100BF000AF919F918F913F912F910F900FBE0F90CA
:100C00001F9018951F920F920FB60F9211242F93D9
:100C10003F934F935F936F937F938F939F93AF9384
:100C2000BF93EF93FF93E0910201F09103010995C7
:100C3000FF91EF91BF91AF919F918F917F916F91B4
:100C40005F914F913F912F910F900FBE0F901F908A
:100C500018951F920F920FB60F9211242F933F9366
:100C60004F935F936F937F938F939F93AF93BF93B4
:100C7000EF93FF93E0910001F09101010995FF913D
:100C8000EF91BF91AF919F918F917F916F915F9104
:100C90004F913F912F910F900FBE0F901F9018957D
:100CA0001F920F920FB60F9211242F933F934F93E1
:100CB0005F936F937F938F939F93AF93BF93EF93C4
:100CC000FF938091B900887F803609F49CC068F555
:100CD000883209F45BC090F4803109F454C038F4D0
:100CE000882309F4F6C0883009F44DC0F6C0883175
:100CF00009F44CC0803209F45DC0EFC0803409F4BF
:100D000068C048F4803309F455C0883309F0E5C061
:100D100080938F01D8C0803509F44FC0883509F41D
:100D20005DC0883409F0D9C0D6C0883909F4C7C07D
:100D3000A8F4883709F467C038F4883609F463C02A
:100D4000803709F460C0C9C0883809F4B8C0803958
:100D500009F45FC0803809F0C0C05BC0803B09F473
:100D600086C038F4803A09F466C0883A09F47FC036
:100D7000B4C0803C09F4A7C0883C09F4A4C0883BF7
:100D800009F48AC0AAC08091B50110C09091B40145
:100D90008091B301981770F5E091B40181E08E0F56
:100DA0008093B401F0E0ED56FE4F80818093BB004C
:100DB00085EC86C080938F018EC0E091B40181E004
:100DC0008E0F8093B4018091BB00F0E0ED56FE4F92
:100DD00080839091B4018091B3016EC0E091B40121
:100DE00081E08E0F8093B4018091BB00F0E0ED565E
:100DF000FE4F80838091920181116DC081E08093CC
:100E0000910184EA61C083E08093900110928E0189
:100E1000CFCF80918E01803208F051C0E0918E01D9
:100E200081E08E0F80938E018091BB00F0E0E2594B
:100E3000FE4F8083BDCF85EC8093BC001092900163
:100E400080918E01803230F4E0918E01F0E0E25921
:100E5000FE4F108260918E0170E0E0916C01F09184
:100E60006D018EE691E0099510928E0136C084E006
:100E70008093900110926B0110926A01E0916801D9
:100E8000F0916901099580916A01811105C081E0A5
:100E900080936A0110924801E0916B0181E08E0F0E
:100EA00080936B01F0E0E85BFE4F80818093BB0094
:100EB00090916B0180916A01981708F479CF85E8C9
:100EC0008093BC000AC085EC8093BC001092900116
:100ED00004C010928F010E943202FF91EF91BF91E6
:100EE000AF919F918F917F916F915F914F913F91C2
:100EF0002F910F900FBE0F901F9018951F920F9279
:100F00000FB60F9211242F933F934F935F936F93DC
:100F10007F938F939F93AF93BF93EF93FF938091B2
:100F2000460187FF05C010928500109284001BC007
:100F300020914601022E000C330B8091940290E028
:100F40002817390784F480914601082E000C990B6C
:100F5000FC01EE0FFF1F8E0F9F1FFC01E059FD4F9C
:100F6000808186FD15C0809146018F5F8093460188
:100F700020914601022E000C330B8091940290E0E8
:100F800028173907C4F4809146018C3064F113C0EE
:100F900080914601082E000C990BFC01EE0FFF1FFB
:100FA0008E0F9F1FFC01E059FD4F808160E08F7321
:100FB0000E94F502D8CF809184009091850004961C
:100FC00080349C4918F480E49CE905C08091840039
:100FD00090918500049690938900809388008FEF0C
:100FE000809346013BC02091840030918500809120
:100FF0004601082E000C990BFC01EE0FFF1F8E0F0F
:101000009F1FFC01E059FD4F81819281820F931F48
:10101000909389008093880080914601082E000CEF
:10102000990BFC01EE0FFF1F8E0F9F1FFC01E05973
:10103000FD4F808186FF12C080914601082E000C72
:10104000990BFC01EE0FFF1F8E0F9F1FFC01E05953
:10105000FD4F808161E08F730E94F502FF91EF9157
:10106000BF91AF919F918F917F916F915F914F91C0
:101070003F912F910F900FBE0F901F901895E82F62
:10108000F0E0EE0FFF1FE05CFE4F118210820C9427
:10109000C00380913C01811125C081E080933C0117
:1010A00062E082E00E94250362E083E00E94250363
:1010B00085E595E09093010180930001809169009E
:1010C0008C7F816080936900E89A89E895E090932D
:1010D00003018093020180916900837F8460809383
:1010E0006900E99A08951F920F920FB60F9211248A
:1010F0000F931F932F933F934F935F936F937F9320
:101100008F939F93AF93BF93CF93DF93EF93FF930F
:101110002091950230E0F901E255FF4F8491F901E9
:10112000E656FF4FD491F901EA57FF4FC491CC2303
:10113000A1F081110E949201EC2FF0E0EE0FFF1F51
:10114000E859FF4FA591B491EC91ED2331E020E0F7
:1011500009F430E0832F922F02C080E090E02091CC
:101160009702309198022F5F3F4F3093980220935F
:10117000970220916103243618F025E0209396020F
:1011800020919602233029F118F4223039F09FC0C3
:101190002430D9F1253009F470C099C0892B09F0A9
:1011A00096C0109261031092980210929702E091FB
:1011B000610381E08E0F80936103F0E080919702DC
:1011C00090919802EE0FFF1FE756FD4F91838083A9
:1011D00033C0019709F07BC0E091610381E08E0F7D
:1011E00080936103F0E08091970290919802EE0F56
:1011F000FF1FE756FD4F9183808310929802109253
:10120000970284E08093960262C0892BB9F4E09142
:10121000610381E08E0F80936103F0E0809197027B
:1012200090919802EE0FFF1FE756FD4F9183808348
:10123000109298021092970283E0E4CF8091970277
:10124000909198028536910508F441C085E080931D
:1012500096022FB7F8948091B7019091B801A091B0
:10126000B901B091BA012FBF8093620390936303D9
:10127000A0936403B09365032AC02FB7F8944091FC
:10128000B7015091B8016091B9017091BA012FBFB7
:101290000091620310916303209164033091650310
:1012A000401B510B620B730B493C510561057105E5
:1012B00040F010926103109298021092970282E01F
:1012C000A1CF892B21F41092980210929702FF91DE
:1012D000EF91DF91CF91BF91AF919F918F917F91CE
:1012E0006F915F914F913F912F911F910F910F90AF
:1012F0000FBE0F901F90189580E090E0A6E1B3E438
:101300008093300190933101A0933201B093330167
:1013100081E00E94BB01BC01990F880B990B0E94D0
:10132000A50F20E030E046E153E40E94680F87FFFC
:101330000DC080E090E0A0E8BFE38093C3019093EC
:10134000C401A093C501B093C60108C01092C301A7
:101350001092C4011092C5011092C60182E00E9451
:10136000BB01BC01990F880B990B0E94A50F20E0CF
:1013700030E046E153E40E94680F87FF0DC080E033
:1013800090E0A0E8BFE38093C7019093C801A093C9
:10139000C901B093CA0108C01092C7011092C801D8
:1013A0001092C9011092CA0183E00E94BB01BC01E6
:1013B000990F880B990B0E94A50F20E030E046E1C1
:1013C00053E40E94680F87FF0DC080E090E0A0E822
:1013D000BFE38093BF019093C001A093C101B0937C
:1013E000C20108951092BF011092C0011092C10174
:1013F0001092C2010895CF92DF92EF92FF920F9365
:101400001F93CF93DF9300D000D0CDB7DEB7670135
:10141000780129833A834B835C830E946D0F81E0BE
:101420000E943F0829813A814B815C81CA01B90140
:101430000E946D0F82E00E943F0868EC70E080E03F
:1014400090E00E94F7010E947C0920E030E040E833
:101450005FE3C701B6010E94680F811113C020E04D
:1014600030E040E85FE36091C3017091C401809176
:10147000C5019091C6010E94680F8823B9F00E94AF
:101480007C09EDCF20E030E040E050E4C701B60138
:101490000E94680F882311F120E030E040E450E41E
:1014A000C701B6010E94680F882359F160E070E01F
:1014B00081E00E943F0860E070E082E00E943F0807
:1014C0000F900F900F900F90DF91CF911F910F9180
:1014D000FF90EF90DF90CF900C94680B20E030E00D
:1014E00040E85FE36091C7017091C8018091C90134
:1014F0009091CA010E94680F8823C1F20E947C0962
:10150000EDCF20E030E040E85FE36091BF017091F3
:10151000C0018091C1019091C2010E94680F88238F
:1015200029F20E947C09EDCFCF92DF92EF92FF92D9
:101530000E947C0920E030E040E85FE36091C70151
:101540007091C8018091C9019091CA010E94680FF1
:1015500020E030E040E85FE381113BC06091C301CF
:101560007091C4018091C5019091C6010E94680FDD
:1015700020E030E040E85FE3811117C06091BF01D7
:101580007091C0018091C1019091C2010E94680FC9
:10159000811103C06EE170E002C066E070E081E09E
:1015A0000E943F086EE170E08CC06091BF017091B5
:1015B000C0018091C1019091C2010E94680F811108
:1015C000E9CF6EE170E081E00E943F0866E070E0E4
:1015D00078C06091BF017091C0018091C10190916C
:1015E000C2010E94680F20E030E040E85FE3811113
:1015F0001BC06091C3017091C4018091C50190919D
:10160000C6010E94680F882329F26EE170E081E034
:101610000E943F0866E070E082E00E943F0880E0A0
:1016200090E0A0E4B0E41AC06091C3017091C401DD
:101630008091C5019091C6010E94680F81111BC065
:1016400066E070E081E00E943F086EE170E082E0B9
:101650000E943F0880E090E0A0E8BFE3809366032B
:1016600090936703A0936803B0936903FF90EF9092
:10167000DF90CF900895C0906603D0906703E0900C
:101680006803F090690320E030E040E85FE3C701C1
:10169000B6010E94680F811103C062EE7FEF7FCF19
:1016A00020E030E040E450E4C701B6010E94680F3A
:1016B000811170CF6EE170E081E00E943F0862EE20
:1016C0007FEF82E0FF90EF90DF90CF900C943F0887
:1016D0000F931F93CF93DF9361E089E00E9425036E
:1016E000C0E0D0E00BEE1EE061E089E00E94F50270
:1016F000C8010197F1F760E089E00E94F502C80196
:101700000197F1F72196C234D10571F7DF91CF919E
:101710001F910F910895CF92DF92EF92FF926B018C
:101720007C01109266031092670310926803109276
:1017300069030E9449081092CB011092CC011092CB
:10174000CD011092CE010E9449088091CB01909169
:10175000CC01A091CD01B091CE01181619061A0640
:101760001B065CF40E9449086091CB017091CC018A
:101770008091CD019091CE0113C00E9449088091C3
:10178000CB019091CC01A091CD01B091CE019C01F3
:10179000AD0166277727CB01621B730B840B950B7A
:1017A0000E94A50FA70196010E942D1018165CF04B
:1017B0006EE170E081E00E943F086EE170E082E03F
:1017C0000E943F08C0CF60E070E081E00E943F08C7
:1017D00060E070E082E00E943F08FF90EF90DF90B1
:1017E000CF900C94680BCF92DF92EF92FF926B0137
:1017F0007C010E947C0920E030E040E85FE3C70103
:10180000B6010E94680F81112FC020E030E040E84F
:101810005FE36091C3017091C4018091C501909113
:10182000C6010E94680F882319F00E94940AEDCF28
:1018300020E030E040E85FE36091C7017091C801AB
:101840008091C9019091CA010E94680F8111EDCF6A
:1018500060E070E088E493E40E948B0BFF90EF90CF
:10186000DF90CF900C94680B20E030E040E450E42F
:10187000C701B6010E94680F811124C020E030E04A
:1018800040E85FE36091BF017091C0018091C101A8
:101890009091C2010E94680F882319F00E94940A57
:1018A000EDCF20E030E040E85FE36091C701709148
:1018B000C8018091C9019091CA010E94680F8111ED
:1018C000EDCFC6CF20E030E040E551E4C701B601DE
:1018D0000E94680F8111BCCF20E030E040E85FE358
:1018E0006091C3017091C4018091C5019091C601BE
:1018F0000E94680F882319F00E94940AEDCF20E01F
:1019000030E040E85FE36091BF017091C0018091D9
:10191000C1019091C2010E94680F8111EDCF98CF53
:10192000CF92DF92EF92FF92CF93DF93EC0102967A
:10193000A1F4E091EB03F0E0CF01880F991FE80FCD
:10194000F91FE059FD4F80818F7B80838FEF9FEFE0
:101950009093070180930601E7C080910601909162
:1019600007018C179D0709F4DFC0019609F056C0E6
:101970008091EB038C3008F0D1C061E08AE00E94D6
:101980002503E091EB03AE2FB0E0CD01880F991F46
:10199000A80FB91FA059BD4F8C91807C8A608C9391
:1019A0001092EC031092ED038E2F6CE00E94321027
:1019B0009CE0899FB001112440E050E09A01260F7D
:1019C000371FD901AA0FBB1F2A0F3B1FD901A059EE
:1019D000BD4F9C9196FD16C04F5F5F4F4C30510537
:1019E00069F781110FC01092800082E0809381001E
:1019F0001092850010928400B19A80916F008260ED
:101A000080936F008E2F90E0FC01EE0FFF1FE80F18
:101A1000F91FE059FD4F808180648083C03222E04D
:101A2000D2070CF03FC0D7FD05C0C53BD10524F45B
:101A3000DE0104C0A0E001C0A4EBB0E08091EC03A3
:101A400028E830E06901C81AD10887FDD394CC0C8E
:101A5000DD1CCC0CDD1C0D2C000CEE08FF08809169
:101A6000ED0328E532E0281B310987FD3395220F6D
:101A7000331F220F331FA901330F660B770B9A0117
:101A8000AB012C193D094E095F090E942F0F24EB71
:101A900030E040E050E00E94050FC20ED31EE41E6D
:101AA000F51E01C06E018091EB038C3090F5909192
:101AB000EC0348E850E0491B510997FD5395440F4A
:101AC000551F440F551FC416D5068CF09091ED0399
:101AD00028E532E0291B310997FD3395220F331F8A
:101AE000220F331FA6012C153D050CF4A90142500D
:101AF0005109440F551F2FB7F89490E0FC01EE0FE9
:101B0000FF1F8E0F9F1FFC01E059FD4F5283418341
:101B10002FBFD0930701C093060106C0C03282E0F8
:101B2000D8070CF480CFF5CFDF91CF91FF90EF90E5
:101B3000DF90CF900895789484B5826084BD84B599
:101B4000816084BD85B5826085BD85B5816085BDB8
:101B500080916E00816080936E0010928100809170
:101B600081008260809381008091810081608093F8
:101B70008100809180008160809380008091B1001D
:101B800084608093B1008091B00081608093B00048
:101B900080917A00846080937A0080917A008260DC
:101BA00080937A0080917A00816080937A0080919E
:101BB0007A00806880937A001092C1006EE170E034
:101BC00081E00E943F086EE170E082E00E943F08E1
:101BD00068EC70E080E090E00E94F70160E070E067
:101BE00080E591E40E94F30BE12CF12C00E81FE367
:101BF00020E030E048EC51E460E070E0CB010E946E
:101C0000FB09C801B7010E94F30B60E070E080EFB0
:101C100091E40E948B0B20E030E040EF51E460E063
:101C200070E0CB010E94FB09E12CF12C00E010E4F4
:101C300020E030E040EA51E460E070E0CB010E9437
:101C4000FB0980E090E00E94900C60E070E080E58D
:101C500091E40E94F30B8AE590E00E94900C62EE02
:101C60007FEF81E00E943F0862EE7FEF82E00E94FA
:101C70003F086CE271E080E090E00E94F70160E0D4
:101C800070E081E00E943F0860E070E082E00E9426
:101C90003F08E12CF12C00E81FE320E030E040E7B2
:101CA00051E460E070E080E791EC0E94FB09E12CD8
:101CB000F12C00E010E420E030E040EA51E460E084
:101CC00070E080EA91EC0E94FB0960E070E080E542
:101CD00091E40E94F30B60E070E080EF91E40E94D9
:101CE0008B0B20E030E048EC51E460E070E0CB0189
:101CF0000E94FB0960E070E080E591E40E94F30B34
:101D00000E948801FDCF1092D6011092D50188EE75
:101D100093E0A0E0B0E08093D7019093D801A09326
:101D2000D901B093DA0120E131E03093D40120935E
:101D3000D30125EC30E03093E0012093DF0124EC67
:101D400030E03093E2012093E10120EC30E0309369
:101D5000E4012093E30121EC30E03093E60120938D
:101D6000E50122EC30E03093E8012093E70126EC16
:101D700030E03093EA012093E9011092EC011092D7
:101D8000ED011092EE011092EF0110926D0310928E
:101D90006C0380936E0390936F03A0937003B093D2
:101DA000710382E291E090936B0380936A038FEF5B
:101DB0008093950280919402A8EEB3E09FEF48EBE8
:101DC0005BE08C3078F48C93282F30E0F901EE0F33
:101DD000FF1F2E0F3F1FF901E059FD4F5283418332
:101DE0008F5F01C09C93139623E0A43FB20749F78D
:101DF000809394028FEF9FEF9093E5038093E40329
:101E00009093E7038093E6030895052E97FB1EF455
:101E100000940E941C0F57FD07D00E94370F07FC4B
:101E200003D04EF40C941C0F50954095309521959D
:101E30003F4F4F4F5F4F08959095809570956195F6
:101E40007F4F8F4F9F4F08950E94590FA59F900D70
:101E5000B49F900DA49F800D911D11240895B7FF8C
:101E60000C94240F0E94240F821B930B0895A1E26F
:101E70001A2EAA1BBB1BFD010DC0AA1FBB1FEE1F04
:101E8000FF1FA217B307E407F50720F0A21BB30B4F
:101E9000E40BF50B661F771F881F991F1A9469F7CB
:101EA00060957095809590959B01AC01BD01CF0127
:101EB0000895A29FB001B39FC001A39F700D811D23
:101EC0001124911DB29F700D811D1124911D089543
:101ED0000E94E00F08F481E008950E94740F689456
:101EE000B1110C94271008950E940C1088F09F5790
:101EF00098F0B92F9927B751B0F0E1F0660F771F2E
:101F0000881F991F1AF0BA95C9F714C0B13091F023
:101F10000E942610B1E008950C942610672F782FA8
:101F20008827B85F39F0B93FCCF3869577956795E8
:101F3000B395D9F73EF490958095709561957F4F54
:101F40008F4F9F4F0895E89409C097FB3EF49095FA
:101F50008095709561957F4F8F4F9F4F9923A9F082
:101F6000F92F96E9BB279395F69587957795679511
:101F7000B795F111F8CFFAF4BB0F11F460FF1BC055
:101F80006F5F7F4F8F4F9F4F16C0882311F096E9E8
:101F900011C0772321F09EE8872F762F05C0662396
:101FA00071F096E8862F70E060E02AF09A95660F4F
:101FB000771F881FDAF7880F9695879597F9089508
:101FC000990F0008550FAA0BE0E8FEEF161617064A
:101FD000E807F907C0F012161306E407F50798F0B2
:101FE000621B730B840B950B39F40A2661F0232BCB
:101FF000242B252B21F408950A2609F4A140A69547
:102000008FEF811D811D089557FD9058440F551F76
:1020100059F05F3F71F04795880F97FB991F61F06A
:102020009F3F79F087950895121613061406551FE1
:10203000F2CF4695F1DF08C0161617061806991F4D
:10204000F1CF86957105610508940895E894BB2742
:1020500066277727CB0197F908950E94E00F08F4CF
:102060008FEF0895991B79E004C0991F961708F027
:10207000961B881F7A95C9F78095089597FB072EC0
:1020800016F4009407D077FD09D00E94521007FC87
:1020900005D03EF4909581959F4F08957095619578
:1020A0007F4F0895AA1BBB1B51E107C0AA1FBB1F8E
:1020B000A617B70710F0A61BB70B881F991F5A95D4
:1020C000A9F780959095BC01CD010895EE0FFF1FF3
:1020D0000590F491E02D099481E090E0F8940C943F
:0620E0007110F894FFCF1F
:1020E60031023102FFFFFFFFFFFFFFFF000000008C
:1020F6001F018C00B7006601E800C600DA00000088
:10210600000086027202980264026B02680265028F
:107800000C94343C0C94513C0C94513C0C94513CE1
:107810000C94513C0C94513C0C94513C0C94513CB4
:107820000C94513C0C94513C0C94513C0C94513CA4
:107830000C94513C0C94513C0C94513C0C94513C94
:107840000C94513C0C94513C0C94513C0C94513C84
:107850000C94513C0C94513C0C94513C0C94513C74
:107860000C94513C0C94513C11241FBECFEFD8E036
:10787000DEBFCDBF11E0A0E0B1E0ECE9FFE702C060
:1078800005900D92A230B107D9F712E0A2E0B1E065
:1078900001C01D92AD30B107E1F70E942D3D0C945F
:1078A000CC3F0C94003C982F959595959595959582
:1078B000905D8F708A307CF0282F295A8091C0000B
:1078C00085FFFCCF9093C6008091C00085FFFCCF60
:1078D0002093C6000895282F205DF0CF982F809127
:1078E000C00085FFFCCF9093C6000895EF92FF92F1
:1078F0000F931F93EE24FF2487018091C00087FD22
:1079000017C00894E11CF11C011D111D81E4E8164B
:1079100082E4F8068FE0080780E0180770F3E09132
:107920000401F091050109958091C00087FFE9CF1E
:107930008091C6001F910F91FF90EF9008950E94D3
:10794000763C982F8091C00085FFFCCF9093C600B5
:1079500091362CF490330CF09053892F089597555D
:10796000892F08951F930E949F3C182F0E949F3CCF
:107970001295107F810F1F9108951F93182F882350
:1079800021F00E94763C1150E1F71F9108951F935A
:10799000182F0E94763C803249F0809103018F5F5E
:1079A000809303018530C1F01F9108958091C0003C
:1079B00085FFFCCF84E18093C6008091C00085FFE5
:1079C000FCCF1093C6008091C00085FFFCCF80E102
:1079D0008093C6001F910895E0910401F091050184
:1079E00009951F9108950E94763C803241F0809164
:1079F00003018F5F80930301853081F008958091AA
:107A0000C00085FFFCCF84E18093C6008091C00058
:107A100085FFFCCF80E18093C6000895E0910401CA
:107A2000F09105010995089540E951E08823A1F0FE
:107A30002D9A28EE33E0FA013197F1F721503040CA
:107A4000D1F72D9828EE33E0FA013197F1F7215064
:107A50003040D1F7815061F708953F924F925F9285
:107A60006F927F928F929F92AF92BF92CF92DF924E
:107A7000EF92FF920F931F93CF93DF93000080E16B
:107A80008093C4001092C50088E18093C10086E015
:107A90008093C2005098589A259A81E00E94143D24
:107AA00024E1F22E9EE1E92E85E9D82E0FE0C02ECA
:107AB00010E1B12EAA24A394B1E49B2EA6E58A2E50
:107AC000F2E57F2EE0E26E2E79E4572E63E5462E36
:107AD00050E5352E0E94763C8033B1F18133B9F107
:107AE000803409F46FC0813409F476C0823409F41B
:107AF00085C0853409F488C0803531F1823521F1A3
:107B0000813511F1853509F485C0863509F48DC0BC
:107B1000843609F496C0843709F403C1853709F423
:107B200072C1863709F466C0809103018F5F80932C
:107B30000301853079F6E0910401F0910501099582
:107B40000E94763C803351F60E94F33CC3CF0E94E2
:107B5000763C803249F78091C00085FFFCCFF092DF
:107B6000C6008091C00085FFFCCF9092C600809136
:107B7000C00085FFFCCF8092C6008091C00085FFC9
:107B8000FCCF7092C6008091C00085FFFCCF609250
:107B9000C6008091C00085FFFCCF5092C600809146
:107BA000C00085FFFCCF4092C6008091C00085FFD9
:107BB000FCCF3092C6008091C00085FFFCCFB09210
:107BC000C60088CF0E94763C863808F4BDCF0E945C
:107BD000763C0E94F33C7ECF0E94763C803809F4CC
:107BE0009CC0813809F40BC1823809F43CC1883942
:107BF00009F48FC080E00E94C73C6CCF84E10E94F2
:107C0000BD3C0E94F33C66CF85E00E94BD3C0E94D3
:107C1000F33C60CF0E94763C809306010E94763C44
:107C2000809307010E94F33C55CF0E94763C80333D
:107C300009F41DC183E00E94BD3C80E00E94C73C66
:107C400049CF0E94763C809309020E94763C809343
:107C5000080280910C028E7F80930C020E94763C79
:107C6000853409F415C18091080290910902892B8D
:107C700089F000E010E00E94763CF801E85FFE4FDA
:107C800080830F5F1F4F80910802909109020817AF
:107C9000190788F30E94763C803209F045CF809125
:107CA0000C0280FF01C16091060170910701660F0F
:107CB000771F7093070160930601A0910802B091AD
:107CC00009021097C9F0E8E0F1E09B01AD014E0F09
:107CD0005F1FF999FECF32BD21BD819180BDFA9A17
:107CE000F99A2F5F3F4FE417F50799F76A0F7B1F4B
:107CF00070930701609306018091C00085FFFCCF5F
:107D0000F092C6008091C00085FFFCCFB092C60003
:107D1000E1CE83E00E94C73CDDCE82E00E94C73CFA
:107D2000D9CE0E94763C809309020E94763C8093D3
:107D300008028091060190910701880F991F909386
:107D40000701809306010E94763C853409F4A6C0A1
:107D500080910C028E7F80930C020E94763C8032D0
:107D600009F0B8CE8091C00085FFFCCFF092C6002C
:107D7000609108027091090261157105B9F140E046
:107D800050E080910C02A82FA170B82FB27011C0E2
:107D9000BB2309F45CC0E0910601F0910701319624
:107DA000F0930701E09306014F5F5F4F46175707B7
:107DB000E8F4AA2369F3F999FECF209106013091E6
:107DC000070132BD21BDF89A90B58091C00085FFB2
:107DD000FCCF9093C6002F5F3F4F30930701209355
:107DE00006014F5F5F4F4617570718F38091C00099
:107DF00085FDE5CE8091C00085FFF8CFE0CE81E023
:107E00000E94C73C67CE0E94763C803209F08CCE3F
:107E10008091C00085FFFCCFF092C6008091C00029
:107E200085FFFCCFE092C6008091C00085FFFCCFAB
:107E3000D092C6008091C00085FFFCCFC092C600E2
:107E40008091C00085FFFCCFB092C60043CEE09188
:107E50000601F091070194918091C00085FFFCCF4D
:107E60009093C6009CCF80E10E94C73C33CE0E9415
:107E7000763C0E94763C182F0E94763C112309F430
:107E800083C0113009F484C08FE00E94C73C22CE29
:107E900080910C02816080930C02E5CE80910C02EF
:107EA000816080930C0259CF809107018823880F4D
:107EB000880B8A2180930B02809106019091070123
:107EC000880F991F90930701809306018091080203
:107ED00080FF09C080910802909109020196909359
:107EE000090280930802F894F999FECF1127E091D6
:107EF0000601F0910701C8E0D1E08091080290915D
:107F00000902103091F40091570001700130D9F34B
:107F100003E000935700E89500915700017001308D
:107F2000D9F301E100935700E89509901990009169
:107F3000570001700130D9F301E000935700E89534
:107F40001395103498F011270091570001700130FB
:107F5000D9F305E000935700E895009157000170B0
:107F60000130D9F301E100935700E895329602976A
:107F700009F0C7CF103011F00296E5CF112480919F
:107F8000C00085FFB9CEBCCE8EE10E94C73CA2CD19
:0C7F900085E90E94C73C9ECDF894FFCF0D
:027F9C00800063
:040000030000780081
:00000001FF
